:040000000C948800D4
:100004000C9400000C9400000C9400000C9400006C
:100014000C9400000C9400000C9400000C9400005C
:100024000C9400000C9400000C9400000C9400004C
:100034000C9400000C9400000C9400000C94B11279
:100044000C9400000C9400000C9400000C9400002C
:100054000C9400000C9400000C9400000C9400001C
:100064000C9400001027E80364000A00010000104B
:10007400000110000100000048007D00B100D9001B
:10008400FE001E013E015A0174019001AB01C5013D
:10009400DE01F6010D02030303031E0032003200E9
:1000A400BC027B00150009000D00E80701000900EF
:1000B40001002D4E414E00494E4600000400CD0281
:1000C4009A000100D1029E000100E102A00001009B
:1000D400E302A20002002003A40001009A03A60088
:1000E40001000002A80001000202AA0001000402AB
:1000F400AC0002000602AE0001000802B0000100DC
:100104000A02B20001009D03B4000000F894EE2737
:10011400EFBBF1E0F5BFE5BFF8E1A895A4B7A77F71
:10012400A4BFF0936000E09360008DE0A2E0BB27E1
:10013400ED938A95E9F780E094E0A0E0B1E0ED93D7
:100144000197E9F7E0ECF0E085919591009761F073
:10015400A591B59105901590BF01F00105900D9200
:100164000197E1F7FB01F0CFE0E0EEBBEABDEBBDA8
:10017400EFEFEDBFE4E0EEBFC0E0D2E00C94F1128B
:10018400F8940E94C613289A78940895AA931A930F
:10019400F8940E94C6138BE18A95F1F7A3E00E94BC
:1001A400CD13A5E50E94BD131E2F289A7894E12F44
:1001B400188122960895AA93F8940E94C613A5E084
:1001C4000E94BD13AA810E94CD13A8810E94BD1371
:1001D400289A78940FC0AA931A93F8940E94C6138D
:1001E400A2E00E94BD13AA810E94CD13289A78949C
:1001F400E12F1881239608951A93F8940E94C61348
:1002040000000000000000000000000000000000EA
:10021400A0EA0E94BD13A5E50E94BD131E2F289AD3
:100224007894E12FE2C0AA93F8940E94C613E8815F
:10023400E03011F4E1E809C0A881A13011F4E2E84A
:1002440004C0A881A23011F4E4E8E883A8810E94E4
:10025400BD13289A789421960895AA93A09198039F
:10026400A03010F0A43018F0E0E0E0939803E0919F
:100274009803F0E0E858FC4FAF81A083ACE7B3E00B
:100284000E94D213AE81A083A0E8B3E00E94D213EF
:10029400AD81A083A4E8B3E00E94D213AC81A08313
:1002A400A8E8B3E00E94D213AB81A083ACE8B3E02A
:1002B4000E94D213AA81A083A0E9B3E00E94D213C2
:1002C400A981A083A4E9B3E00E94D213A881A083EA
:1002D400E0919803EF5FE0939803A0919803A43012
:1002E40018F0E0E0E0939803289608951A930E948A
:1002F400C200AEE00E94C8001E2FE07EE03831F05C
:10030400EFE0EA93E0EEEA93A0E855DF8BE18A950B
:10031400F1F7EAE2EA93A3EC5EDFE9E2EA93AEEFF7
:100324005ADFE8E2EA93A3E056DFE0E6EA93A0E2CC
:1003340052DFE0E7EA93A0E24EDF0E94D813E0E246
:100344000E94DC13E1E20E94DC13E0E00E94DC1373
:10035400E1E00E94DC13E4E00E94DC13E5E00E948B
:10036400DC13E4E20E94DC13E5E2EA93A0EE33DF5F
:10037400E8E0EA93A3E12FDFE9E00E94E013E0E183
:100384000E94E413E1E10E94E413E4E10E94E41317
:10039400E5E10E94E413E8E10E94E413E9E10E942C
:1003A400E413E1E50E94E813E2E50E94E013E1E4CE
:1003B4000E94E813E2E40E94E013E1E30E94E813E0
:1003C400E2E30E94E013EFE0EA93E7EEEA93A5E0AC
:1003D4000E94DD00EBE2EA93A6E0FDDEA4E6B0E0D5
:1003E4000E94CA16ECE00E94E413199108950E9439
:1003F400EE17F89401DFE0934D03A0914E03EA2B2E
:10040400E0934E03E0914D03E270E9F000E0083020
:1004140078F4E02FF0E0E15BFC4FFF93EF93A02F23
:10042400AA580E94C800AF91BF91EC930F5FEFCF21
:10043400ECE2EA93E2E0EA93A0E00E94DD00E1E06E
:10044400E093770341C0E0914D03E475E9F521970A
:10045400ECE2EA93ECE1EA93A0E00E94DD00E09193
:100464009803A0919903EA1771F1E0E0E883A88169
:10047400A830B0F4E881EA5CEA93E981A8E7B3E044
:10048400F0E00E94E916AE0FBF1FE0919903F0E07F
:10049400AE0FBF1FAC919FDEE881EF5FE883E7CF2B
:1004A400E5E3EA93A8E00E94ED00A0E0BCDEE09161
:1004B4009903EF5FE0939903A0919903A43018F096
:1004C400E0E0E0939903219678940E94F51724962E
:1004D40008950E94EC17A0914F03A130E1F4A0917C
:1004E4005003A230C1F4A0915103A330A1F4A09110
:1004F4005203A43081F4A0915303A53061F4A09178
:100504005403A63041F4A0915503A73021F4A091DF
:100514005603A83009F010C0E1E0EA93E2E0EA9360
:10052400E3E0EA93E4E0EA93E5E0EA93E6E0EA93C1
:10053400E7E0EA93A8E091DE0E94EC1381F40E94C4
:10054400F21369F4A0915103AD3E41F0A09151031F
:10055400AB3E21F0A0915103AC3E09F401C00FC1A0
:10056400E0E0E0930E03E0915203E093C402E170F3
:10057400B9F0A091E902A43078F4E091E902EF5FC8
:10058400E093E902A091E902A43028F0E091C302CB
:10059400E062E093C30203C0E4E0E093E9021DC01B
:1005A400E091E902E030B1F0E150E093E902A0917A
:1005B400E902A03071F4E091C302EF7DE093C3023D
:1005C400A2E1B0E00E94B917A5E0EA9FF001E09330
:1005D4000D0303C0E0E0E093E902E091C402E2709D
:1005E40021F0E091C302E06403C0E091C302EF7B19
:1005F400E093C3020E94F813A0915303B0E0EA0F02
:10060400FB1FE093C502F093C602A09156030E941B
:100614000014A0915503B0E0EA0FFB1FE093C7025A
:10062400F093C802F091C302E0E0A091C402B0E0EC
:10063400EA0FFB1FE0939A03F0939B03A091C3027C
:10064400EAE0EA9FF001E093F902F093FA02E09104
:100654001203EA93EAEDEA93E091B802EA93E09197
:10066400B902EA93E091BA02EA93E091BB02EA93F9
:10067400E091BC02EA93A091BD020E940614E091AD
:10068400C2020E940E14E091FB02EA93A091FC02C4
:10069400E4DDA0915103AD3E59F4E0911203EA93D5
:1006A400ECED0E941D14E0E00E941D14A0E0D5DDD5
:1006B400A0915103AB3EB9F4E0911203EA93EDED3E
:1006C400EA93E0910102EA93E0910002EA93E09157
:1006D4000302EA93E0910202EA93E0910502EA93AD
:1006E400A0910402BADDA0915103AC3EB9F4E091AB
:1006F4001203EA93E5EDEA93E0910702EA93E091AD
:100704000602EA93E0910902EA93E0910802EA936F
:10071400E0910B02EA93A0910A029FDD0E94221449
:10072400E091C402E07889F0A3E1B0E00E94B91737
:10073400E03051F4A3E1B0E0E1E00E94CD17E09392
:100744000A03E0E0E0930C0311C0A091F502B0911C
:10075400F60255975CF0A3E1B0E00E94B917E030CF
:1007640029F0A3E1B0E0E0E00E94CD170E942B1431
:1007740029F0A4E1B0E0E0E00E94CD1757C20E9446
:10078400EC1369F40E94F21351F4A0915103AE3EAC
:1007940031F4A0915203E0915303EA1709F0D4C055
:1007A4000E943114E0915203E07FE032B1F5E09110
:1007B4005203EF70E13039F40E943914A0E0B0E044
:1007C4000E94C51723C00E943E1431F40E944314B2
:1007D40031960E94C5171AC00E94481421F40E9441
:1007E40043143A960FC00E944D1431F40E944314EE
:1007F40031970E94C5170AC00E94521439F40E940E
:1008040043143A97A2E0B0E00E94C517E2E0F0E09A
:100814000E945714A8E8B3E18BC0E0915203E07F33
:10082400E03121F50E943E1431F40E945E143196A9
:100834000E94C5171AC00E94481421F40E945E1435
:100844003A960FC00E944D1431F40E945E14319701
:100854000E94C5170AC00E94521439F40E945E1403
:100864003A97A6E0B0E00E94C51763C0E091520336
:10087400E07F81F5E0915203EF70E13039F4A8E0B4
:10088400B0E00E9439140E94C51723C00E943E1490
:1008940031F40E94631431960E94C5171AC00E9455
:1008A400481421F40E9463143A960FC00E944D1418
:1008B40031F40E94631431970E94C5170AC00E9444
:1008C400521439F40E9463143A97AAE0B0E00E94EB
:1008D400C5172FC0E0915203E07FE03351F50E9429
:1008E4003E1431F40E94681431960E94C5171AC050
:1008F4000E94481421F40E9468143A960FC00E9482
:100904004D1431F40E94681431970E94C5170AC02F
:100914000E94521439F40E9468143A97AEE0B0E091
:100924000E94C517EEE0F0E00E945714A8EEB3E071
:1009340024D20E9422140E942B1429F0A4E1B0E0D6
:10094400E0E00E94CD1772C1A0914F03AF3F41F484
:10095400A0915003AF3F21F4A0915103A23609F0B6
:1009640046C00E946D14BF010E9472140E94751447
:10097400E617F70741F00E9472140E947514A7E16C
:10098400B0E00E94C517A9E1B0E00E94B517BF010D
:100994000E947B140E947E14E617F70741F00E9420
:1009A4007B140E947E14A9E1B0E00E94C517E09177
:1009B4005603EF70E53069F40E948414E535A0E035
:1009C400FA0731F0A1E2B0E0E5E5F0E00E94C517D6
:1009D4000DC0E0915603EF70EA3041F40E94841494
:1009E400309721F0A1E2B0E00E9489141FC1A091C8
:1009F4004F03AF3F69F4A0915003AF3F49F4A09176
:100A04005103A63221F0A0915103A93209F401C087
:100A140067C00E948E14BF010E9472140E94751454
:100A2400E617F70741F00E9472140E947514ABE1B7
:100A3400B0E00E94C5170E949314BF010E94F813EE
:100A44000E947E14E617F70741F00E947B140E946F
:100A54007E14ADE1B0E00E94C517A0915103A63207
:100A6400A1F40E949814309721F0A3E2B0E00E9410
:100A740089140E949D140E94A21439F0E091560337
:100A8400F0E0A5E1B0E00E94C517A0915103A9329E
:100A940031F50E949814E130A0E0FA0731F0A3E2A6
:100AA400B0E0E1E0F0E00E94C517A5E2B0E00E94EA
:100AB400B5170E94A21439F0E0915603F0E0A5E2C4
:100AC400B0E00E94C5170E949D14E330A0E0FA072D
:100AD40031F0A5E1B0E0E3E0F0E00E94C517A6C064
:100AE4000E94EC1359F40E94F21341F4A0915103B3
:100AF400A63121F4A0915203A33609F003C00E9449
:100B0400A91494C00E94EC1359F40E94F21341F406
:100B1400A0915103A63121F4A0915203A43609F007
:100B240005C0A7E2B0E00E94891480C0A0914F03E1
:100B3400AF3F61F4A0915003AF3F41F4A091510342
:100B4400A63121F4A0915203A63109F039C0A09135
:100B54005303A53521F4A0915403A53509F005C02C
:100B6400AFEEB2E00E94C3141FC0A0915303A63697
:100B740021F4A0915403A63609F008C0AFEEB2E008
:100B8400ED91FD913197FE93EE930EC0A091530326
:100B9400A73721F4A0915403A73709F005C0E0E07A
:100BA400E093EF02E093F002EFEEF2E0FA93EA93BF
:100BB400E7EEFFEFFA93EA93A9E1B0E0BFD036C0C5
:100BC4000E94EC1389F40E94F21371F4A091510372
:100BD400A63151F4A0915203E0915303EA1721F492
:100BE400A0915203AE3E09F021C00E9431144091FD
:100BF400E1025091E202FA01AFE1B0E00E94C517B0
:100C0400A4E6B0E00E94CA160E94C9144E175F07FA
:100C140069F4E0911203EA93E1E9EA93EDEDEA93D2
:100C24000E941D14E0E0EA93A0E017DBE0E0E0930B
:100C340077030E94F317BFC0EAB5E1FF74C0A09127
:100C44001803AF5FA0931803A73018F0E0E0E09317
:100C54001803A0911803A630C0F5E0911803EA9395
:100C6400EA93EDEEEA93E0E00E94CE14EC91A091B9
:100C74002003EA0F0E94CE140E949617A09120032D
:100C8400B0912103AE0FBF1FE0E0F1E00E944617D0
:100C9400EA93E8EEEA93A8EEE0DAA0911803B0E054
:100CA400AB5BBC4FEC91EF5FEC93E0911803F0E089
:100CB400EB5BFC4FA081AB3038F0E0911803F0E01F
:100CC400E65CFC4FA0E0A0832EC0A0911803A630E0
:100CD40051F5E091E102F091E202E093FB02F0931E
:100CE400FC02E0911203EA93EAEDEA93E091B9027F
:100CF400EA93E091B802EA93E091BB02EA93E091AF
:100D0400BA02EA93E091BD02EA93A091BC020E9468
:100D14000614E091C0020E940E14E091FC02EA93D2
:100D2400A091FB029ADA0895E0E0E4BDE5E0E5BDB8
:100D3400E8EFE6BDE1E0E0936E000895BA93AA936C
:100D4400AC81BD810E949617DF01EA81FB81AE1759
:100D5400BF0724F4AC81BD81ED93FC93AC81BD81CC
:100D64000E949617DF01E881F981EA17FB0724F452
:100D7400AC81BD81ED93FC931EC0BA93AA93AC8160
:100D8400BD810E94B517DF01EA81FB81AE17BF0761
:100D940024F4AC81BD810E94C517AC81BD810E9441
:100DA400B517DF01E881F981EA17FB0724F4AC8168
:100DB400BD810E94C517269608950E94D914A0915A
:100DC400F102B091F202EA17FB0709F5A091F302D0
:100DD400B091F402DC97D4F4A3EFB2E00E94C31400
:100DE400A091F302B091F402DC9784F0A0E1B0E0AA
:100DF4000E94B517DF010E94D914EA17FB0731F0EE
:100E04000E94D914A0E1B0E00E94C51705C0E0E03B
:100E1400E093F302E093F402A091F302B091F402A0
:100E2400DD972CF0E0E0E093F302E093F4020E94FB
:100E3400D914E093F102F093F2020895A091030310
:100E4400A03061F4A0910403A03041F4A091050303
:100E5400A03021F4E0910803E03009F010C0ECE385
:100E6400E0930303E0930403E0930503E0E1FEE071
:100E7400E0930603F0930703E1E0E0930803089589
:100E8400E0E0E0930303E0930403E0930503E093BD
:100E94000603E0930703E09308030895509AE09152
:100EA400D202E17011F0589A01C05898519AE09119
:100EB400D602E17011F0599A01C05998E091D2021A
:100EC400F091D3026091D4027091D5020E94EE1683
:100ED4000E94DE14E091D602F091D7026091D8020C
:100EE4007091D9020E94EE160E94E714A091D102DB
:100EF400AF5FA093D102A132B8F0E0E0E093D10259
:100F0400E091C902F091CA026091CB027091CC02C7
:100F14000E94DE14E091CD02F091CE026091CF02E6
:100F24007091D0020E94E7140895A091EC02A330BE
:100F3400E9F0E091C302E87021F0E0919C03E870CD
:100F440079F0E091C302E07151F0E0919C03E0710B
:100F540031F40E948414E535A0E0FA0709F405C0D1
:100F6400A091DA02AA3A09F469DF0EC0A091EC025A
:100F7400A33051F4E091C302E87021F0E0919C03A6
:100F8400E87009F001C05ADFE091C302E0939C03CA
:100F9400089529971A930A93E0E0E7B9E8B9E6E0DF
:100FA4000E94F0140E94FB14ED83FE83E7E00E948C
:100FB400F0140E94FB14EF83F887E0E00E94F01421
:100FC4000E94FB14E987FA87AD81BE81A631E2E075
:100FD400BE0724F0A736E2E0BE070CF002C0E0E052
:100FE40028C0AD81BE81A935E3E0BE0724F0AA3A4A
:100FF400E3E0BE070CF002C0E1E01BC0AD81BE819E
:10100400AF38E2E0BE0724F0A03EE2E0BE070CF0F9
:1010140002C0E2E00EC0AD81BE81AF3CE3E0BE079A
:1010240024F0A032E4E0BE070CF002C0E3E001C00B
:10103400E5E0E0930F03AF81B885A631E2E0BE0797
:1010440024F0A736E2E0BE070CF002C0E0E028C0BE
:10105400AF81B885A935E3E0BE0724F0AA3AE3E0FE
:10106400BE070CF002C0E1E01BC0AF81B885AF3809
:10107400E2E0BE0724F0A03EE2E0BE070CF002C0AE
:10108400E2E00EC0AF81B885AF3CE3E0BE0724F0D8
:10109400A032E4E0BE070CF002C0E3E001C0E5E0EA
:1010A400E0931003A985BA85A631E2E0BE0724F0D7
:1010B400A736E2E0BE070CF002C0E0E028C0A98534
:1010C400BA85A935E3E0BE0724F0AA3AE3E0BE07F7
:1010D4000CF002C0E1E01BC0A985BA85AF38E2E09C
:1010E400BE0724F0A03EE2E0BE070CF002C0E2E03E
:1010F4000EC0A985BA85AF3CE3E0BE0724F0A03258
:10110400E4E0BE070CF002C0E3E001C0E5E0E093D8
:101114001103A0910F03A53041F0A0911003A53055
:1011240021F0A0911103A53021F4E1E0E093130331
:101134001AC0E0911103E27011F0E1E001C0E0E0B7
:10114400E0931403E0911003EE0FEE0FA0910F0350
:10115400EA0F6E2FE0911103E170A0E1EA9FF00124
:10116400E60FE0931203198108812B960895E0910C
:101174000303E03041F0E150E0930303E03011F465
:101184000E94A9141FC0E0910403E03061F0E091D3
:101194000403E150E0930403E0910403E03011F40C
:1011A4000E94A9140FC0E0910503E03059F0E091CA
:1011B4000503E150E0930503E0910503E03011F4E9
:1011C4000E94A914E0910603F0910703309789F077
:1011D400A6E0B3E0ED91FD913197FE93EE93E0919B
:1011E4000603F0910703309721F4E0E0E09308034D
:1011F40025DE0E940015109731F40E940515109702
:1012040011F44C9B01C00FC0A0910903A43150F408
:10121400E0910903EF5FE0930903A0910903A4316E
:1012240008F02EDE03C0E0E0E09309030895A091E6
:10123400EC02A330B1F10E940A15AA35E2E0BE0720
:1012440024F4ABEDB2E00E94C3140E940A15AE343C
:10125400E2E0BE0729F4E091C302E17CE093C3021B
:101264000E940A15A835E2E0BE07D1F4EAEAE09349
:10127400DA02A0911403A13019F4EAB5E26002C0C5
:10128400EAB5ED7FEABDE0E0E09318030E942B1479
:1012940039F4E1E0E0930B03A4E1B0E00E94CD1740
:1012A40003C0EAEAE093DA0208950E9493140E94CC
:1012B4000F15EA17FB0734F4ADEDB2E0ED91FD91A3
:1012C40031960DC00E94931431970E940F15AE17EA
:1012D400BF073CF4ADEDB2E0ED91FD913197FE9383
:1012E400EE93EDEDF2E00E941415A091DD02B091B1
:1012F400DE02D79794F0A091EC02A03021F4E091A3
:10130400C302E07421F0A091EC02A33029F4E0912F
:10131400C302E460E093C3020BC0A091DD02B0916C
:10132400DE0216972CF4E091C302EB7FE093C30234
:101334000E948E140E940F15EA17FB0734F4AFEDD8
:10134400B2E0ED91FD9131960DC00E948E1431975B
:101354000E940F15AE17BF073CF4AFEDB2E0ED915C
:10136400FD913197FE93EE93EFEDF2E00E94141598
:10137400A091DF02B091E002D79794F0A091EC0223
:10138400A03021F4E091C302E07421F0A091EC02BA
:10139400A33029F4E091C302E260E093C3020BC0DE
:1013A400A091DF02B091E00216972CF4E091C30201
:1013B400ED7FE093C3020895A091EC02A33009F4F9
:1013C40084C00E946D140E941E15EA17FB0728F4BE
:1013D400A5EEB2E00E94C31405C0E0E0E093E5028C
:1013E400E093E6020E9423152CF0E091C302E8602A
:1013F400E093C3020E948414E535A0E0FA07C9F51E
:1014040022970E946D14E883F983A881B981EAE0E8
:10141400F0E00E944617E883F983A9E0B0E00E9457
:101424002917E883F9830E941E15AE17BF0710F42D
:101434004C9B01C006C0A7EEB2E0ED91FD91319640
:1014440005C0A7EEB2E0ED91FD913197FE93EE93C6
:101454000E94321514F00E9441150E9400150E944A
:10146400DE172CF0E091C302EF7EE093C3022296D4
:101474002BC0E091BA02F091BB020E941E15AE1778
:10148400BF0790F40E941E15E091BA02F091BB02CE
:10149400EA1BFB0B0F01A9E1B0E00E94B517E015B0
:1014A400F10510F44C9B01C005C0A7EEB2E00E9408
:1014B400C31405C0E0E0E093E702E093E8020E9471
:1014C400321514F00E94411534C0A091EC02A330EF
:1014D40081F50E941E15AD3BE2E0BE0728F0A5EEA3
:1014E400B2E00E94C31405C0E0E0E093E502E0939B
:1014F400E6020E9423152CF0E091C302E860E09319
:10150400C3020E941E15A83CE0E0BE0710F44C9BE9
:1015140001C005C0A7EEB2E00E94C31405C0E0E01C
:10152400E093E702E093E8020E94321514F00E946F
:1015340041150895E0911303E03039F00E944715F6
:101544000E944C150E944715A2C20E948414E535DE
:10155400A0E0FA0709F05DC00E9455150E945F15CE
:101564000E946415A091EC02A33009F451C0A0912B
:10157400DA02A53521F4E091C302EE7309F00BC041
:10158400E1E1F1E060E070E00E944C15E1E1F1E09E
:1015940060E070E026C00E946D1519F40E94721577
:1015A40016C0E091C302E27029F00E9477150E94F0
:1015B40079151FC0E091C302E87019F00E948315E9
:1015C40018C0E091C302E071A1F00E948915E09374
:1015D400C902F093CA026093CB027093CC020E94BA
:1015E4005F15E093CD02F093CE026093CF02709327
:1015F400D002A091EC02A13029F40E9455150E945A
:101604008E1506C0A091EC02A23011F40E9493152D
:1016140046C2E0911403E03009F0ECC0A091EC0262
:10162400A33009F490C00E949D140E949915AE172E
:10163400BF072CF40E9455150E94A2156CC0A091FE
:10164400DA02A53521F4E091C402E07809F403C07C
:101654000E94A71560C00E949D140E949915EA1764
:10166400FB071CF40E94AD150CF00AC00E94841400
:10167400E535A0E0FA0721F00E949814309709F0AC
:1016840005C00E9455150E945F1545C0A091DA025D
:10169400AA3A19F40E94B6153EC0A091DA02A53503
:1016A40021F4E091C302EE7309F005C00E945515C0
:1016B4000E945F1530C00E946D1529F40E947715B1
:1016C4000E945F1528C0E091C302E27029F00E94D5
:1016D40077150E94791527C0E091C302E87019F0CC
:1016E4000E94831520C0E091C302E07129F00E949A
:1016F400B9150E94791517C0A091DA02A53521F415
:10170400E091C302E07209F40EC00E945515E3E0B3
:10171400F0E063E070E0E093CD02F093CE026093DA
:10172400CF027093D002A091EC02A13029F40E9460
:1017340055150E948E1506C0A091EC02A23011F43A
:101744000E94931556C0A091EC02A33009F051C039
:101754000E949D140E949915AE17BF072CF40E9495
:1017640055150E94A2153DC00E949D140E94991512
:10177400EA17FB071CF40E94BB150CF003C00E947F
:1017840055152BC0E091C302EE7119F40E94551552
:1017940024C00E946D1519F40E94721516C0E091C0
:1017A400C302E27029F00E9477150E94791521C0C6
:1017B400E091C302E87019F00E9483151AC0E09109
:1017C400C302E071B1F00E948915E093C902F0935D
:1017D400CA026093CB027093CC02EFEFFFEF6FEF7E
:1017E4007FEFE093CD02F093CE026093CF0270932B
:1017F400D00255C1A0911403A13009F050C1A091A9
:10180400EC02A33009F4F5C00E949D140E949915BE
:10181400AE17BF072CF40E9455150E94A215D1C023
:10182400A091DA02A53521F4E091C402E07809F42C
:1018340003C00E94A715C5C00E949D140E9499155B
:10184400EA17FB071CF40E94AD150CF00AC00E94B5
:101854008414E535A0E0FA0721F00E94981430972B
:1018640009F005C00E9455150E945F15AAC0A091F9
:10187400DA02AA3A09F067C0E091C302EE71A9F452
:101884000E945515EAB5E1FF05C0E5EFFFEF6FEFE4
:101894007FEF02C00E945F15E093CD02F093CE0269
:1018A4006093CF027093D0024DC00E946D15A9F4CD
:1018B4000E947715EAB5E1FF05C0E5EFFFEF6FEF92
:1018C4007FEF02C00E945F15E093CD02F093CE0239
:1018D4006093CF027093D00235C0E091C302E270EE
:1018E40059F00E947715EAB5E1FF03C00E94C415C0
:1018F40002C00E94791526C0E091C302E87079F015
:10190400E9E0F0E069E070E00E944C15EAB5E1FF1F
:1019140003C00E94C41502C00E94791513C0E0914F
:10192400C302E07159F00E94B915EAB5E1FF03C0A2
:101934000E94C41502C00E94791504C00E94B61505
:101944000E94641546C0A091DA02A53521F4E09105
:10195400C302EE7309F005C00E9455150E945F157D
:1019640030C00E946D1529F40E9477150E945F15FE
:1019740028C0E091C302E27029F00E9477150E940A
:10198400791527C0E091C302E87019F00E9483150D
:1019940020C0E091C302E07129F00E94B9150E94B1
:1019A400791517C0A091DA02A53521F4E091C3029C
:1019B400E07209F40EC00E945515E3E0F0E063E024
:1019C40070E0E093CD02F093CE026093CF02709367
:1019D400D002A091EC02A13029F40E9455150E9476
:1019E4008E1506C0A091EC02A23011F40E9493154A
:1019F40056C0A091EC02A33009F051C00E949D147E
:101A04000E949915AE17BF072CF40E9455150E9429
:101A1400A2153DC00E949D140E949915EA17FB0768
:101A24001CF40E94BB150CF003C00E9455152BC07A
:101A3400E091C302EE7119F40E94551524C00E946E
:101A44006D1519F40E94721516C0E091C302E2707C
:101A540029F00E9477150E94791521C0E091C302F4
:101A6400E87019F00E9483151AC0E091C302E07176
:101A7400B1F00E948915E093C902F093CA02609301
:101A8400CB027093CC02EFEFFFEF6FEF7FEFE093A9
:101A9400CD02F093CE026093CF027093D0020895EA
:101AA40024970E94EC1700E911E020E931E040E9B5
:101AB40051E00E946D140E94FC16A0EABCE880E08C
:101AC40090E00E94C915A091B802B091B90288278C
:101AD4009927EE81FF81688579850E94C9150E9446
:101AE4009814E130A0E0FA0781F4A5E2B0E00E9486
:101AF400B517A091B802B091B9020E9433176627B6
:101B04007727EE83FF83688779870E94D015AB30EF
:101B1400E0E0BE07E0E08E07E0E09E071CF008EE80
:101B240013E016C00E94D015A130E0E0BE07E0E04B
:101B34008E07E0E09E071CF400E911E009C0EE8185
:101B4400FF81ACE3B0E00E942917E057FE4F8F01FC
:101B5400EDB7FEB73197FA93EA931F930F930E9460
:101B6400D5150F911F91E091C002F091C1020E941E
:101B7400FC16EE83FF83688779870E9493140E9482
:101B8400FC16EE51F040604070400E94D0150E9457
:101B9400E2171CF020E931E01CC00E9493140E945B
:101BA400D0150E94FC160E94E7171CF028EE33E0C3
:101BB40010C00E9493147E97AE81BF810E94AE171D
:101BC400EA1BFB0BA4E1B0E00E942917E057FE4F8B
:101BD4009F01EDB7FEB73197FA93EA933F932F93A2
:101BE4000E94D5152F913F91A801021713070CF4F9
:101BF400A9010E94DD15A417B5074CF4E091150363
:101C0400F09116033A96E0931503F09316030E949D
:101C1400DD154A175B074CF4E0911503F0911603A8
:101C24003A97E0931503F0931603E5E1F3E0FA9392
:101C3400EA930E94D515E0911703E03029F0E0E023
:101C4400E0931503E09316030E94F3172A96089570
:101C54001A93E0911703E03021F4A9E1B3E00E9464
:101C6400C314A0911903B0911A03A131EEE0BE0789
:101C740080F00E94E215E036AAEEFA0728F40E94EA
:101C8400E21531960E94C517E0E0E0931903E09352
:101C94001A030E94E215EF70F070E0931B030E9498
:101CA400E215E07FF0700E94F316F0E0E064E09348
:101CB4001C030E94E215E070FF70EF2FF0E0F0E0EB
:101CC400E068E0931D030E94E215E070F07F0E943B
:101CD400F316EF2FF0E0F0E0E06CE0931E03E091E8
:101CE4001B03EF701E2FE0911C03EF701E27E09181
:101CF4001D03EF701E27E0911E03EF701E27E12FD6
:101D0400E370E295E07FA0911B03EA2BE0931B03B1
:101D1400ECE1F3E00F01A081E12FEC70EE0FEE0F88
:101D2400EA2BD001EC93EDE1F3E00F01A081E12F68
:101D3400E073EA2BD001EC93EEE1F3E00F01A08114
:101D4400E12FE07CE695E695EA2BD001EC93E09157
:101D54001F03EF5FE0931F03A0911F03A43018F04B
:101D6400E0E0E0931F03C8C01A93EAB5E1FFC4C0E2
:101D74000E94E7153A970E94EC1530F40E94F3157F
:101D840035960E94F81525C00E94E71531970E94E8
:101D9400EC1530F4A0E2B3E0ED91FD91319617C05B
:101DA4000E94E7153A960E94FD1530F40E94F3153F
:101DB4003A970E94F8150DC00E94E71531960E94CB
:101DC400FD1538F4A0E2B3E0ED91FD913197FE9357
:101DD400EE93A0912003B0912103AD3FE3E0BE0751
:101DE40024F0ECEFF3E00E94F815A0912103AA235C
:101DF4002AF4E0E0E0932003E0932103E0E0E093A1
:101E04004303E0934403E093420310E0163008F5E3
:101E14000E940416E081E030B1F00E940916A091FE
:101E24004303B0914403EA0FFB1FE0934303F09391
:101E340044030E940416A1E0A083E0914203EF5FF3
:101E4400E093420304C00E940416A0E0A0831F5F35
:101E5400DDCFE0914203A0914303B0914403F0E04D
:101E64000E944617E0934003F093410310E01630BC
:101E740008F042C00E940416E081E030D9F10E94CB
:101E84000916DF01E0914003F09141033A97AE1740
:101E9400BF0724F40E94141631960EC00E9409163E
:101EA400DF01E0914003F09141033A96EA17FB0702
:101EB4002CF40E9414163197FE93EE930E941F1681
:101EC4000E949617E536A0E0FA0734F00E941F1628
:101ED400E4E6F0E0ED93FC930E941F160E9496172F
:101EE400EC39AFEFFA0734F40E941F16ECE9FFEF68
:101EF400ED93FC931F5FBBCF199108950E94841446
:101F0400E535A0E0FA07F1F4E091C302EA7181F447
:101F14000E94C9140E9428160E942D1628F40E94BB
:101F2400411610F00E945216F798EAB5EE7F08C0E9
:101F3400E091C302EA7029F00E945916EAB5E16003
:101F4400EABDE5C0A091EC02A330B9F4E091C3026C
:101F5400EA7061F4E4EFF1E00E94641628F40E9450
:101F6400411610F00E945216F79806C0E091C30281
:101F7400EA7011F00E945916CAC0A091EC02A23076
:101F840091F4E0E0E093E102E093E2020E946D1636
:101F9400AC3FE3E0BE0728F40E94411610F00E9413
:101FA4005216F798B4C0A091EC02A13061F4EFEF9F
:101FB400F3E00E94641628F40E94411610F00E9477
:101FC4005216F798A4C0EAB5E1FF04C0A091DA0262
:101FD400A53509F00EC00E94F3150E94641628F47A
:101FE4000E94411610F00E945216EAB5EE7FEABD37
:101FF4008EC0A091DA02AA3A29F50E94981430976B
:1020040019F00E9459161DC0E091C302EA7181F4CF
:102014000E94C9140E9428160E942D1628F40E94BA
:10202400411610F00E945216F798EAB5EE7F08C0E8
:10203400E091C302EA7129F00E945916EAB5E16001
:10204400EABD65C0A091DA02A53509F060C0E0914F
:10205400C302E07209F055C0E091C302EE71E430AE
:1020640001F50E9472163097A9F40E947B160E9413
:102074006D16AE17BF0738F4A0914B03B0914C0313
:102084000E94801602C00E947B16E093E302F09344
:10209400E40206C00E947B16E093E302F093E4029C
:1020A400F798E091C302EA7121F0E091C302E07471
:1020B40009F10E9472163097A9F40E9488160E94B2
:1020C4006D16AE17BF0738F4A091C702B091C802CD
:1020D4000E94801602C00E948816E093E302F093E7
:1020E400E40206C00E948816E093E302F093E4023F
:1020F400F79806C0E091C302EA7111F00E945916E4
:1021040006C0E091C302E07211F00E9459160895CE
:10211400549AA091ED02B091EE02AC3DE5E0BE0709
:1021240024F4ADEEB2E00E94C314A091ED02B0918C
:10213400EE02599724F40E949814309709F403C0CE
:102144005C9AE1E062C00E949814309761F0F79BBA
:1021540003C05C9AE1E004C0F79904C05C98E0E035
:10216400E093170354C00E949D140E949915AE1762
:10217400BF0724F4A0911403A13009F403C05C9AAE
:10218400E1E043C0A0911403A13071F4EAB5E0FF8B
:1021940003C05C9AE1E005C0EAB5E0FD04C05C98C8
:1021A400E0E0E093170333C00E949D140E94991548
:1021B400EA17FB071CF40E94BB150CF01DC0A0918C
:1021C4001403A130A1F0E0911403E030A1F40E94C3
:1021D4009814309761F0E091C302E07219F05C9AB0
:1021E400E1E002C05C98E0E0E093170304C05C986F
:1021F400E0E0E09317030BC0F79B03C05C9AE1E0B7
:1022040004C0F79904C05C98E0E0E0931703E1EEA2
:10221400F2E00E948D16E3EEF2E00E948D160E9419
:102224008414E535A0E0FA0789F00E9498143097E9
:1022340041F40E949D143A960E949915AE17BF0767
:102244000CF004C0EAE0F0E00E942816E091E202FB
:10225400E0938900E091E102E0938800E091E402D8
:10226400E0938B00E091E302E0938A000E94DD1585
:10227400E4E0F0E00E944617E093B4000895269A43
:10228400279A2E9A2F9A1E9B0AC0A091EA02AA307E
:1022940028F4E091EA02EF5FE093EA0209C01E9994
:1022A40007C0E091EA02E03019F0E150E093EA025D
:1022B4001F9B0AC0A091EB02AA3028F4E091EB0224
:1022C400EF5FE093EB0209C01F9907C0E091EB02B6
:1022D400E03019F0E150E093EB02A091EA02AA3059
:1022E40021F4A091EB02AA3009F003C0E0E0E093EE
:1022F400EC02A091EA02A03021F4A091EB02AA30F2
:1023040009F003C0E1E0E093EC02A091EA02AA30F4
:1023140021F4A091EB02A03009F003C0E2E0E093C5
:10232400EC02A091EA02A03021F4A091EB02A030CB
:1023340009F003C0E3E0E093EC0208951A930A93D2
:1023440000917800109179000E949716DF01E091C6
:10235400B602F0E0EE0FFF1FEA0FFB1F00831183AC
:10236400E091B602E37099F521970E94A116AE0F91
:10237400BF1FE0E0F0E0ED93FC93E883A881A03177
:10238400D8F40E94A116EA0FFB1FBF010080118040
:102394000E949716DF01E881F0E0EE0FFF1FAE0FF9
:1023A400BF1F0E949617E00DF11DDB01ED93FC9316
:1023B400E881EF5FE883E2CF0E94A116AE0FBF1F52
:1023C400ED91FD910E94F316FE93EE932196A09158
:1023D400B702AF5FA093B702A53060F0E0E0E093EE
:1023E400B702A091B602AF5FA093B602A03110F07D
:1023F400E093B602E7B1E07CE7B9E8B1E07CE8B984
:10240400E091B702E03011F4E1E017C0A091B70207
:10241400A13011F4E4E011C0A091B702A23011F48C
:10242400E2E00BC0A091B702A33011F4E3E005C0D1
:10243400A091B702A43019F4E5E0E0937C00E6EA49
:10244400E0937A00E0917A00E064E0937A000991E5
:102454001991089524970E9439140E94A916A0E0A6
:10246400B0E00E94B5170E94AE160E94D4160E94D6
:10247400A417AB81AA2312F40E94B3160E9443143A
:102484000E94AE160E94B716E0E6F9E060E070E044
:102494000E94BE16E093B802F093B902E091AE0236
:1024A400F091AF020E94A916AB81AA2312F40E94F4
:1024B400B3160E9463140E94AE160E94B7160E94BF
:1024C400C516E093BC02F093BD02E091B002F09116
:1024D400B1020E94A916AB81AA2312F40E94B3167A
:1024E4000E945E140E94AE160E94B7160E94C51682
:1024F400E093BA02F093BB02E091B202F091B3020E
:102504000E94A9160E9468140E94AE160E94B71673
:10251400EEE2F5E060E070E00E94BE16E151F140A9
:10252400E093C002F093C102A091C102AA2312F465
:10253400E0E00AC00E940F15A030E1E0BE0714F0ED
:10254400EFEF02C0E091C002E093C202E091C30247
:10255400F0E0E093BE02F093BF02249608950A923D
:102564001A92FA926A937A938A939A93AA93BA9351
:10257400EA93FA93EFB7EA930E9496060E94F90150
:10258400B394EAE0BE16E8F0BB2473947E1610F010
:102594007724F39A8394E3E08E1610F08824F29A59
:1025A4006394E4E16E1638F06624F49AF69B02C054
:1025B400F69801C0F69A9394E4E69E1610F09924D6
:1025C400F59AE991EFBFF991E991B991A99199919E
:1025D400899179916991F9901990099018952A9A9D
:1025E400229AE4B1E663E4B9E3EAE0938000E9E027
:1025F400E0938100E0E0E0938500E0938400E093C1
:102604008700E0938600E0938900E0938800E093DC
:102614008B00E0938A00219A229AE093B600E3E2C9
:10262400E093B000E1E0E093B100E0E0E093B200B9
:10263400E093B300E0E3E093B400539AEDE5ECBD1E
:10264400E0E0EDBD0E94CB070E949606E0E0E09337
:10265400DB02E093DC020E948414E535A0E0FA0773
:1026640019F0E5E5E093DA02E0E0E093ED02E093AF
:10267400EE02A0E1B0E00E94B517E093EF02F09300
:10268400F002A091EF02B091F0025A9744F4A091A5
:10269400EF02B091F002A73EEFEFBE072CF4E0E0AA
:1026A400E093EF02E093F002A2E1B0E00E94B917D8
:1026B400E03010F0E43028F0A2E1B0E0E3E00E9462
:1026C400CD1778940E947801509A0E945916E0918F
:1026D4007703E03029F0E0E0E09377030E946B0297
:1026E400F29B02C0F2982ADEF39B0CC0F398B2DE90
:1026F4000E9450070E94190901DCC1DD0E9497075E
:102704000E941E06F49B05C0F49802DD0E949C0AF8
:10271400C7D9F59B2DC0F5980E9457090E94DE0980
:102724000E94DF06A091F502B091F602A83EE3E014
:10273400BE0724F4A5EFB2E00E94C314A091DA020C
:10274400AA3A21F0A091EC02A33011F40E94B90836
:10275400E0910E03EF5FE0930E03A0910E03AA3005
:1027640028F0E0E0E0930E030E947801FDDA70DACD
:10277400A895ADCFFFCFAA93E881EEBDEDB5E7FFF5
:10278400FDCFEEB521960895E4B1EC62E4B9249846
:10279400209A289808950E94BD13A9810C94BD1312
:1027A400E0919803F0E0EA0FFB1F0895AAE0B0E07F
:1027B4000C94CA16EA93AFEF0C94ED00EA93A0ECE4
:1027C4000C94ED00EA93A0E00C94ED00EA93A1E3ED
:1027D4000C94ED00E0911203A0914F03EA170895C1
:1027E400A0915003E0911203EA170895A0915403B5
:1027F400B0E0E0E0F1E00E9401170895B0E0E0E00D
:10280400F1E00E94011708950E942F01E091120344
:10281400EA93EBEDEA930895EA93E0911F03F0E065
:10282400E55EFC4FE081EA93E091C302EA93E09114
:10283400EF02EA930895EA93E0E0EA93EA930895B5
:10284400E0E0E093DB02E093DC02E5E5E093DA020A
:102854000895A4E1B0E00E94B917E0300895AAE910
:10286400B3E0ED91FD913196FE93EE930895E091DE
:10287400AC02F091AD020895E0915203EF70E230A2
:102884000895A2E0B0E00E94B5170895E0915203C4
:10289400EF70E3300895E0915203EF70E43008954F
:1028A400E0915203EF70E5300895FA93EA93E8EC6F
:1028B400F0E0FA93EA930895A6E0B0E00E94B51719
:1028C4000895AAE0B0E00E94B5170895AEE0B0E024
:1028D4000E94B5170895A7E1B0E00E94B5170895C6
:1028E400A09153038BCFA0915203B0E0EA0FFB1FDA
:1028F4000895A091550382CFA0915403B0E0EA0F4C
:10290400FB1F0895A1E2B0E00E94B5170895E0E02E
:10291400F0E00E94C5170895ABE1B0E00E94B5173E
:102924000895ADE1B0E00E94B5170895A3E2B0E0C8
:102934000E94B5170895A5E1B0E00E94B517089567
:10294400DF01E0915603F0E0EA17FB070895E091F8
:10295400C302E17EE093C302E0E0E093DD02E09392
:10296400DE02E093DF02E093E002E093E502E0930D
:10297400E602E093E702E093E802EEE1E093D1029D
:102984000895ED91FD913196FE93EE930895AFE194
:10299400B0E00E94B5170895EA93E0911803A2E20B
:1029A400B3E0F0E0EE0FFF1FAE0FBF1F0895E091FC
:1029B400EF02F091F0020895E093D202F093D30273
:1029C4006093D4027093D5020895E093D602F093F5
:1029D400D7026093D8027093D9020895E0937C00E3
:1029E400E6EAE0937A00E0917A00E064E0937A000A
:1029F400DDCEE0917800F09179000895A091E7028E
:102A0400B091E8020895A091E502B091E60208951C
:102A1400A091DB02B091DC020895A091C002B091B4
:102A2400C1020895FA93EA93E0E0F0E0FA93EA939E
:102A3400ACE3B0E00C94A006A091BC02B091BD023E
:102A44000895E5EEF2E0FA93EA93E0E0F0E0FA9319
:102A5400EA93AAE0B0E00E94A006D5DF1A97089591
:102A6400E7EEF2E0FA93EA93E0E0F0E0FA93EA9317
:102A7400AAE0B0E00E94A006C1DF1A970895E09191
:102A8400C302E061E093C3020895E5E5F5E565E579
:102A940075E50895E093C902F093CA026093CB02EE
:102AA4007093CC020895E0E0E093C902E093CA0277
:102AB400E093CB02E093CC020895EFEFFFEF6FEFCA
:102AC4007FEF0895E093CD02F093CE026093CF029E
:102AD4007093D0020895E091C302EE73E430089538
:102AE400E1E0F0E061E070E00895FADFD3CFE0E0E8
:102AF400E093CD02E093CE02E093CF02E093D002C4
:102B04000895E9E0F0E069E070E0C4DFF0CFE9E4C3
:102B1400F0E069E470E00895E3E3F3E363E373E36F
:102B2400D1CFECECFCEC6CEC7CECB4DFE0CFA5E0BA
:102B3400B0E00E942917A091ED02B091EE02089531
:102B4400E3E0F3E063E073E00895E5E5F5E565E0CF
:102B540070E0A0DFB2CFEC59FF4FA091ED02B0912D
:102B6400EE02AE17BF07089590DF94DFA6CFCFDF44
:102B740091CFEA5BFF4FA091ED02B091EE02AE1748
:102B8400BF070895E5E0F0E060E070E09BCF0E94AD
:102B94007017EE83FF83688779870895AE81BF81BC
:102BA400888599850895E0E9F1E0FA93EA93A8EE1F
:102BB400B3E00C94A006A0911503B09116030895F8
:102BC400A7E2B0E00E94B5170895A9E2B0E00E9420
:102BD400B5170895A091BA02B091BB02AE17BF0712
:102BE4000895E0912003F09121030895E0932003D8
:102BF400F09321030895A091BA02B091BB02EA17A1
:102C0400FB070895E12FF0E0E65CFC4F0895E12F07
:102C1400AEE2B3E0F0E0EE0FFF1FAE0FBF1F0E9465
:102C240096170895E12FA2E2B3E0F0E0EE0FFF1F44
:102C3400AE0FBF1FED91FD910895E12FA2E2B3E025
:102C4400F0E0EE0FFF1FAE0FBF1F0895E093E10207
:102C5400F093E2020895E1EEF2E0FA93EA93E0E001
:102C6400F0E0FA93EA93ACEFB3E00E94A006A091DF
:102C7400E302B091E402AC3FE3E0BE070895E091C3
:102C8400E302F091E4027E96E093E302F093E4021F
:102C9400A091E302B091E402AD3FE3E0BE070895E2
:102CA400ECEFF3E0E093E302F093E4020895E0E054
:102CB400E093E102E093E202E093E302E093E402B2
:102CC400F79A0895C3DFA091E302B091E402AC3F08
:102CD400E3E0BE070895A091E302B091E4020895F1
:102CE40066DEA091C502B091C602EA0FFB1FAEDFFB
:102CF4001DCEE0914B03F0914C030895EEE1F0E01A
:102D04000E943317E8DFEA0FFB1F0895E091C70222
:102D1400F091C8020895FA93EA93E1E0F0E0FA939F
:102D2400EA93ACEFB3E00C94A006E091B702F0E0B4
:102D3400EE0FFF1F0E94E516E45FFD4F0895E0913A
:102D4400B702ACEAB2E0F0E0EE0FFF1F0895662789
:102D540077270E949F1708950E949A170E94FC16D5
:102D64000895E0E00E94A91708950E942E170E947A
:102D74009F170E949A1708950E9470170E949F1728
:102D8400E881F9810895E8EEF3E060E070E0F4CFC3
:102D9400109639F080ED97E00197F1F7A895119717
:102DA400C9F70895AE1BBF0B860B970B0895F195D9
:102DB400E195F0400895F09560957095E195FF4F89
:102DC4006F4F7F4F0895EE0FFF1FEE0FFF1FEE0FA3
:102DD400FF1FEE0FFF1F089575956795F795E7950B
:102DE4000895F695E795F695E795F695E795F695A2
:102DF400E79508956F2F660F660B762F0895FA9F57
:102E0400F02DEB9FF00DEA9FE02DF10D08957A9FD0
:102E1400702D6B9F700DF89F700DE99F700D6A9F68
:102E2400602D710DFB9F600D711DE89F600D711D7C
:102E34008827FA9FF02D610D781FEB9FF00D611D1F
:102E4400781FEA9FE02DF10D681F781F08954BD07D
:102E5400D6DF0EF4ACDF089554D0D9DF0EF4ABDF27
:102E640008950024112490E1AA0FBB1F001C111C1B
:102E74000E1A1F0A18F40E0E1F1E01C0A1609A95A7
:102E840099F7FD01D00108952ED0EBDF0EF48FDF0A
:102E940008953F934F935F930024112444275527AB
:102EA40030E2AA0FBB1F881F991F001C111C441F6E
:102EB400551F0E1A1F0A460B570B28F40E0E1F1E21
:102EC400461F571F01C0A1603A9559F7FD01BC0187
:102ED400D001CA015F914F913F91089512D0D9DF7B
:102EE4000EF469DF0895E894F7FF02C060DF689488
:102EF400B7FF06C0A095B095119600F8039400FAA8
:102F04000895E89477FF02C056DF689497FF0BC0DA
:102F14000024A095B095809590951196801D901DE4
:102F240000F8039400FA0895ED91FC911197089527
:102F3400A881B9818A819B810895E883F9836A8392
:102F44007B830895A883B9838A839B830895E88348
:102F5400E983EA83EB8308951B2EBF2FF12D1A2EEC
:102F6400AE2FE12D0895119602D0FE2F1197F999F5
:102F7400FECFFF93FFB7F894A1BDB2BDF89AE0B5B8
:102F8400FFBFFF91089507D01196EF93EF2F03D061
:102F9400EF9111970895F99B02C0A895FCCF9FB7B4
:102FA400F894A1BDB2BDF89A80B5E81719F0E0BD58
:102FB400FA9AF99A9FBF089500240A160B060895F9
:102FC400EA17FB07680779070895AE17BF07860756
:102FD400970708955A934A933A932A931A930A9314
:102FE40008955D814C813B812A811981088108956E
:00000001FF
