:060000000C9470000C944A
:1000060000000C9400000C9400000C9400000C946A
:1000160000000C9400000C9400000C9400000C945A
:1000260000000C9400000C9400000C9400000C944A
:1000360000000C9400000C9400000C9453110C94D6
:1000460000000C9400000C9400000C9400000C942A
:1000560000000C9400000C9400000C9400000C941A
:1000660000001027E80364000A00010000100001E8
:1000760010000100000048007D00B100D900FE001C
:100086001E013E015A0174019001AB01C501DE015A
:10009600F6010D02030303031E0032003200BC0208
:1000A6007B0001002D4E414E00494E4600000400E3
:1000B600C0029A000100C4029E000100D402A00002
:1000C6000100D602A20002001303A40001008D0362
:1000D600A60001009003A8000000F894EE27EFBBED
:1000E600F1E0F5BFE5BFF8E1A895A4B7A77FA4BFE7
:1000F600F0936000E09360008DE0A2E0BB27ED93F3
:100106008A95E9F780E094E0A0E0B1E0ED930197ED
:10011600E9F7E4EBF0E085919591009761F0A59100
:10012600B59105901590BF01F00105900D920197CC
:10013600E1F7FB01F0CFE0E0EEBBEABDEBBDEFEF90
:10014600EDBFE4E0EEBFC0E0D2E00C949311F8946A
:100156000E945E12289A78940895AA931A93F894A6
:100166000E945E128BE18A95F1F7A3E00E94651268
:10017600A5E50E9455121E2F289A7894E12F188122
:1001860022960895AA93F8940E945E12A5E00E9412
:100196005512AA810E946512A8810E945512289ABA
:1001A60078940FC0AA931A93F8940E945E12A2E064
:1001B6000E945512AA810E946512289A7894E12F0E
:1001C6001881239608951A93F8940E945E120000EF
:1001D6000000000000000000000000000000A0EA8F
:1001E6000E945512A5E50E9455121E2F289A789452
:1001F600E12FE2C0AA93F8940E945E12E881E030F3
:1002060011F4E1E809C0A881A13011F4E2E804C0C4
:10021600A881A23011F4E4E8E883A8810E9455126F
:10022600289A789421960895AA93A0918B03A030DA
:1002360010F0A43018F0E0E0E0938B03E0918B031C
:10024600F0E0E559FC4FAF81A083AFE6B3E00E9432
:100256006A12AE81A083A3E7B3E00E946A12AD8161
:10026600A083A7E7B3E00E946A12AC81A083ABE744
:10027600B3E00E946A12AB81A083AFE7B3E00E94AD
:100286006A12AA81A083A3E8B3E00E946A12A98138
:10029600A083A7E8B3E00E946A12A881A083E09138
:1002A6008B03EF5FE0938B03A0918B03A43018F0D0
:1002B600E0E0E0938B03289608951A930E94AA0023
:1002C600AEE00E94B0001E2FE07EE03831F0EFE095
:1002D600EA93E0EEEA93A0E855DF8BE18A95F1F721
:1002E600EAE2EA93A3EC5EDFE9E2EA93AEEF5ADFD5
:1002F600E8E2EA93A3E056DFE0E6EA93A0E252DF03
:10030600E0E7EA93A0E24EDF0E947012E0E20E946C
:100316007412E1E20E947412E0E00E947412E1E0BD
:100326000E947412E4E00E947412E5E00E947412C6
:10033600E4E20E947412E5E2EA93A0EE33DFE8E01D
:10034600EA93A3E12FDFE9E00E947812E0E10E9440
:100356007C12E1E10E947C12E4E10E947C12E5E15C
:100366000E947C12E8E10E947C12E9E10E947C1264
:10037600E1E50E948012E2E50E947812E1E40E9423
:100386008012E2E40E947812E1E30E948012E2E326
:100396000E947812EFE0EA93E7EEEA93A5E00E9466
:1003A600C500EBE2EA93A6E0FDDEA4E6B0E00E941B
:1003B6004715ECE00E947C12199108950E94671679
:1003C600F89401DFE0934003A0914103EA2BE09308
:1003D6004103E0914003E270E9F000E0083078F470
:1003E600E02FF0E0EE5BFC4FFF93EF93A02FAA58AF
:1003F6000E94B000AF91BF91EC930F5FEFCFECE29C
:10040600EA93E2E0EA93A0E00E94C500E1E0E0930F
:100416006A0341C0E0914003E475E9F52197ECE2F7
:10042600EA93ECE1EA93A0E00E94C500E0918B0319
:10043600A0918C03EA1771F1E0E0E883A881A83067
:10044600B0F4E881EA5CEA93E981ABE6B3E0F0E078
:100456000E946615AE0FBF1FE0918C03F0E0AE0F51
:10046600BF1FAC919FDEE881EF5FE883E7CFE5E34E
:10047600EA93A8E00E94D500A0E0BCDEE0918C03E0
:10048600EF5FE0938C03A0918C03A43018F0E0E0BA
:10049600E0938C03219678940E946E162496089514
:1004A6000E946516A0914203A130E1F4A091430396
:1004B600A230C1F4A0914403A330A1F4A091450356
:1004C600A43081F4A0914603A53061F4A0914703BE
:1004D600A63041F4A0914803A73021F4A091490326
:1004E600A83009F010C0E1E0EA93E2E0EA93E3E025
:1004F600EA93E4E0EA93E5E0EA93E6E0EA93E7E0EC
:10050600EA93A8E091DE0E94841239F40E948A12CE
:1005160021F4A0914403AD3E09F0C6C0E0E0E093AB
:100526000103E0914503E093B702E170B9F0A091B1
:10053600DC02A43078F4E091DC02EF5FE093DC02A9
:10054600A091DC02A43028F0E091B602E062E093CC
:10055600B60203C0E4E0E093DC021DC0E091DC02D9
:10056600E030B1F0E150E093DC02A091DC02A03073
:1005760071F4E091B602EF7DE093B602A2E1B0E03D
:100586000E943616A5E0EA9FF001E093000303C03F
:10059600E0E0E093DC02E091B702E27021F0E09146
:1005A600B602E06403C0E091B602EF7BE093B602C8
:1005B6000E949012A0914603B0E0EA0FFB1FE09361
:1005C600B802F093B902A09149030E949812A09133
:1005D6004803B0E0EA0FFB1FE093BA02F093BB02B8
:1005E600F091B602E0E0A091B702B0E0EA0FFB1F7F
:1005F600E0938D03F0938E03A091B602EAE0EA9FA2
:10060600F001E093EC02F093ED02E0910503EA932A
:10061600EAEDEA93E091AC02EA93E091AD02EA9347
:10062600E091AE02EA93E091AF02EA93E091B00264
:10063600EA93A091B1020E949E12E091EE02EA9323
:10064600A091EF02F1DD0E94B112E091B702E078CD
:1006560089F0A3E1B0E00E943616E03051F4A3E140
:10066600B0E0E1E00E944A16E093FD02E0E0E0938C
:10067600FF0211C0A091E802B091E90255975CF023
:10068600A3E1B0E00E943616E03029F0A3E1B0E025
:10069600E0E00E944A160E94BA1229F0A4E1B0E0F6
:1006A600E0E00E944A162FC20E94841269F40E945A
:1006B6008A1251F4A0914403AE3E31F4A091450351
:1006C600E0914603EA1709F0DAC00E94C012E091F1
:1006D6004503E07FE032D1F5E0914503EF70E1306C
:1006E60039F40E94C812A0E0B0E00E94421623C06E
:1006F6000E94CD1231F40E94D21231960E94421607
:100706001AC00E94D71221F40E94D2123A960FC044
:100716000E94DC1231F40E94D21231970E944216D6
:100726000AC00E94E11239F40E94D2123A97A2E05E
:10073600B0E00E944216E2E0F0E0FA93EA93E4EABF
:10074600F1E0FA93EA93A8E8B3E18DC0E09145039E
:10075600E07FE03121F50E94CD1231F40E94E612CD
:1007660031960E9442161AC00E94D71221F40E94A6
:10077600E6123A960FC00E94DC1231F40E94E6128D
:1007860031970E9442160AC00E94E11239F40E9473
:10079600E6123A97A6E0B0E00E94421665C0E091E4
:1007A6004503E07F81F5E0914503EF70E13039F4D0
:1007B600A8E0B0E00E94C8120E94421623C00E9420
:1007C600CD1231F40E94EB1231960E9442161AC0E5
:1007D6000E94D71221F40E94EB123A960FC00E9493
:1007E600DC1231F40E94EB1231970E9442160AC0C5
:1007F6000E94E11239F40E94EB123A97AAE0B0E0A7
:100806000E94421631C0E0914503E07FE03361F576
:100816000E94CD1231F40E94F01231960E944216C7
:100826001AC00E94D71221F40E94F0123A960FC005
:100836000E94DC1231F40E94F01231970E94421697
:100846000AC00E94E11239F40E94F0123A97AEE013
:10085600B0E00E944216EEE0F0E0FA93EA93E8EC8C
:10086600F0E00E94F512F2D10E94B1120E94BA1273
:1008760029F0A4E1B0E0E0E00E944A1644C1A0914C
:100886004203AF3F41F4A0914303AF3F21F4A0914F
:100896004403A23609F027C00E94FA12BF010E9443
:1008A600FF120E940213E617F70741F00E94FF129B
:1008B6000E940213A7E1B0E00E944216A9E1B0E04F
:1008C6000E943216BF010E9408130E940B13E617FE
:1008D600F70741F00E9408130E940B13A9E1B0E04C
:1008E6000E94421610C1A0914203AF3F69F4A09145
:1008F6004303AF3F49F4A0914403A63221F0A091EF
:100906004403A93209F401C069C00E941113BF0152
:100916000E94FF120E940213E617F70741F00E9499
:10092600FF120E940213ABE1B0E00E9442160E9441
:100936001613BF010E9490120E940B13E617F707C9
:1009460041F00E9408130E940B13ADE1B0E00E9433
:100956004216A0914403A632B1F40E941B133097AD
:1009660031F0A3E2B0E0E0E0F0E00E9442160E941F
:1009760020130E94251339F0E0914903F0E0A5E128
:10098600B0E00E944216A0914403A93231F50E94BC
:100996001B13E130A0E0FA0731F0A3E2B0E0E1E09A
:1009A600F0E00E944216A5E2B0E00E9432160E94D4
:1009B600251339F0E0914903F0E0A5E2B0E00E948A
:1009C60042160E942013E330A0E0FA0731F0A5E1B9
:1009D600B0E0E3E0F0E00E94421695C00E94841267
:1009E60059F40E948A1241F4A0914403A63121F4DD
:1009F600A0914503A33609F003C00E942C1383C0BF
:100A0600A0914203AF3F61F4A0914303AF3F41F48D
:100A1600A0914403A63121F4A0914503A63109F023
:100A260039C0A0914603A53521F4A0914703A53509
:100A360009F005C0A2EEB2E00E9446131FC0A091C5
:100A46004603A63621F4A0914703A63609F008C04E
:100A5600A2EEB2E0ED91FD913197FE93EE930EC0BA
:100A6600A0914603A73721F4A0914703A73709F0C1
:100A760005C0E0E0E093E202E093E302E2EEF2E09A
:100A8600FA93EA93E7EEFFEFFA93EA93A9E1B0E06F
:100A9600BED039C00E94841289F40E948A1271F471
:100AA600A0914403A63151F4A0914503E091460379
:100AB600EA1721F4A0914503AE3E09F024C00E9436
:100AC600C0124091D4025091D502FA01AFE1B0E0D4
:100AD6000E944216A4E6B0E00E944715AFE1B0E0DE
:100AE6000E9432164E175F0771F4E0910503EA93F0
:100AF600E1E9EA93EDEDEA93EA93E0E0EA93EA931B
:100B0600EA93A0E091DBE0E0E0936A030E946C16B2
:100B1600BBC0EAB5E1FF70C0A0910B03AF5FA09325
:100B26000B03A73018F0E0E0E0930B03A0910B0352
:100B3600A630C0F5E0910B03EA93EA93EDEEEA9353
:100B4600E0E00E944C13EC91A0911303EA0F0E947F
:100B56004C130E941316A0911303B0911403AE0F09
:100B6600BF1FE0E0F1E00E94C315EA93E8EEEA93C6
:100B7600A8EE5ADBA0910B03B0E0A85CBC4FEC9149
:100B8600EF5FEC93E0910B03F0E0E85CFC4FA08193
:100B9600AB3038F0E0910B03F0E0E35DFC4FA0E0F2
:100BA600A0832AC0A0910B03A63031F5E091D402B0
:100BB600F091D502E093EE02F093EF02E091050387
:100BC600EA93EAEDEA93E091AD02EA93E091AC0292
:100BD600EA93E091AF02EA93E091AE02EA93E091E4
:100BE600B102EA93A091B0020E949E12E091EF0238
:100BF600EA93A091EE0218DB0895E0E0E4BDE5E09B
:100C0600E5BDE8EFE6BDE1E0E0936E000895BA9336
:100C1600AA93AC81BD810E941316DF01EA81FB8194
:100C2600AE17BF0724F4AC81BD81ED93FC93AC8174
:100C3600BD810E941316DF01E881F981EA17FB07DF
:100C460024F4AC81BD81ED93FC931EC0BA93AA93A4
:100C5600AC81BD810E943216DF01EA81FB81AE17AD
:100C6600BF0724F4AC81BD810E944216AC81BD81D0
:100C76000E943216DF01E881F981EA17FB0724F4A6
:100C8600AC81BD810E944216269608950E94571394
:100C9600A091E402B091E502EA17FB0709F5A091DD
:100CA600E602B091E702DC97D4F4A6EEB2E00E9429
:100CB6004613A091E602B091E702DC9784F0A0E12A
:100CC600B0E00E943216DF010E945713EA17FB07B5
:100CD60031F00E945713A0E1B0E00E94421605C011
:100CE600E0E0E093E602E093E702A091E602B0912D
:100CF600E702DD972CF0E0E0E093E602E093E702FE
:100D06000E945713E093E402F093E5020895A09140
:100D1600F602A03061F4A091F702A03041F4A09150
:100D2600F802A03021F4E091FB02E03009F010C097
:100D3600ECE3E093F602E093F702E093F802E0E1D9
:100D4600FEE0E093F902F093FA02E1E0E093FB02A1
:100D56000895E0E0E093F602E093F702E093F802EC
:100D6600E093F902E093FA02E093FB020895509AA9
:100D7600E091C502E17011F0589A01C05898519A55
:100D8600E091C902E17011F0599A01C05998E091B9
:100D9600C502F091C6026091C7027091C8020E9416
:100DA6006B150E945C13E091C902F091CA02609132
:100DB600CB027091CC020E946B150E946513A09124
:100DC600C402AF5FA093C402A132B8F0E0E0E093A2
:100DD600C402E091BC02F091BD026091BE02709126
:100DE600BF020E945C13E091C002F091C1026091C3
:100DF600C2027091C3020E9465130895A091DF029A
:100E0600A330B9F0E091B602E87021F0E0918F03CB
:100E1600E87049F0E091B602E07121F0E0918F03AD
:100E2600E07109F005C0A091CD02AA3A09F46FDF7E
:100E36000EC0A091DF02A33051F4E091B602E87033
:100E460021F0E0918F03E87009F001C060DFE091C6
:100E5600B602E0938F03089529971A930A93E0E068
:100E6600E7B9E8B9E6E00E946E130E947913ED83B4
:100E7600FE83E7E00E946E130E947913EF83F887E2
:100E8600E0E00E946E130E947913E987FA87AD812C
:100E9600BE81A631E2E0BE0724F0A736E2E0BE0737
:100EA6000CF002C0E0E028C0AD81BE81A935E3E0C8
:100EB600BE0724F0AA3AE3E0BE070CF002C0E1E068
:100EC6001BC0AD81BE81AF38E2E0BE0724F0A03E74
:100ED600E2E0BE070CF002C0E2E00EC0AD81BE81CA
:100EE600AF3CE3E0BE0724F0A032E4E0BE070CF01E
:100EF60002C0E3E001C0E5E0E0930203AF81B885FC
:100F0600A631E2E0BE0724F0A736E2E0BE070CF009
:100F160002C0E0E028C0AF81B885A935E3E0BE078E
:100F260024F0AA3AE3E0BE070CF002C0E1E01BC0E1
:100F3600AF81B885AF38E2E0BE0724F0A03EE2E01C
:100F4600BE070CF002C0E2E00EC0AF81B885AF3C30
:100F5600E3E0BE0724F0A032E4E0BE070CF002C0D6
:100F6600E3E001C0E5E0E0930303A985BA85A63175
:100F7600E2E0BE0724F0A736E2E0BE070CF002C0AE
:100F8600E0E028C0A985BA85A935E3E0BE0724F0CC
:100F9600AA3AE3E0BE070CF002C0E1E01BC0A98557
:100FA600BA85AF38E2E0BE0724F0A03EE2E0BE0715
:100FB6000CF002C0E2E00EC0A985BA85AF3CE3E0C2
:100FC600BE0724F0A032E4E0BE070CF002C0E3E066
:100FD60001C0E5E0E0930403A0910203A53041F0CF
:100FE600A0910303A53021F0A0910403A53021F4BC
:100FF600E1E0E09306031AC0E0910403E27011F009
:10100600E1E001C0E0E0E0930703E0910303EE0FA7
:10101600EE0FA0910203EA0F6E2FE0910403E17038
:10102600A0E1EA9FF001E60FE0930503198108812C
:101036002B960895E091F602E03041F0E150E093FE
:10104600F602E03011F40E942C131FC0E091F70263
:10105600E03061F0E091F702E150E093F702E091B1
:10106600F702E03011F40E942C130FC0E091F80251
:10107600E03059F0E091F802E150E093F802E09197
:10108600F802E03011F40E942C13E091F902F0917D
:10109600FA02309789F0A9EFB2E0ED91FD91319710
:1010A600FE93EE93E091F902F091FA02309721F463
:1010B600E0E0E093FB022BDE0E947E13109731F4F2
:1010C6000E948313109711F44C9B01C00FC0A0918E
:1010D600FC02A43150F4E091FC02EF5FE093FC02C5
:1010E600A091FC02A43108F034DE03C0E0E0E093F6
:1010F600FC020895A091DF02A330B1F10E9488138B
:10110600AA35E2E0BE0724F4AEECB2E00E94461334
:101116000E948813AE34E2E0BE0729F4E091B602DD
:10112600E17CE093B6020E948813A835E2E0BE0790
:10113600D1F4EAEAE093CD02A0910703A13019F4B5
:10114600EAB5E26002C0EAB5ED7FEABDE0E0E09311
:101156000B030E94BA1239F4E1E0E093FE02A4E127
:10116600B0E00E944A1603C0EAEAE093CD02089571
:101176000E9416130E948D13EA17FB0734F4A0EDA4
:10118600B2E0ED91FD9131960DC00E941613319794
:101196000E948D13AE17BF073CF4A0EDB2E0ED91AF
:1011A600FD913197FE93EE93E0EDF2E00E949213EB
:1011B600A091D002B091D102D79794F0A091DF020E
:1011C600A03021F4E091B602E07421F0A091DF0294
:1011D600A33029F4E091B602E460E093B6020BC0B6
:1011E600A091D002B091D10216972CF4E091B602EC
:1011F600EB7FE093B6020E9411130E948D13EA174B
:10120600FB0734F4A2EDB2E0ED91FD9131960DC0ED
:101216000E94111331970E948D13AE17BF073CF43D
:10122600A2EDB2E0ED91FD913197FE93EE93E2EDE2
:10123600F2E00E949213A091D202B091D302D79706
:1012460094F0A091DF02A03021F4E091B602E074A0
:1012560021F0A091DF02A33029F4E091B602E2600A
:10126600E093B6020BC0A091D202B091D3021697BA
:101276002CF4E091B602ED7FE093B6020895A091BA
:10128600DF02A33009F448C00E94FA120E949C13A0
:10129600EA17FB0728F4A8EDB2E00E94461305C042
:1012A600E0E0E093D802E093D9020E94A1132CF06B
:1012B600E091B602E860E093B602E091AE02F091EA
:1012C600AF020E949C13AE17BF0790F40E949C13B6
:1012D600E091AE02F091AF02EA1BFB0B0F01A9E110
:1012E600B0E00E943216E015F10510F44C9B01C0E7
:1012F60005C0AAEDB2E00E94461305C0E0E0E09307
:10130600DA02E093DB020E94B0132CF0E091B60201
:10131600E061E093B60237C0A091DF02A33099F5F1
:101326000E949C13AD3BE2E0BE0728F0A8EDB2E0B8
:101336000E94461305C0E0E0E093D802E093D9028C
:101346000E94A1132CF0E091B602E860E093B60289
:101356000E949C13A83CE0E0BE0710F44C9B01C021
:1013660005C0AAEDB2E00E94461305C0E0E0E09396
:10137600DA02E093DB020E94B0132CF0E091B60291
:10138600E061E093B6020895E0910603E03039F09B
:101396000E94BF130E94C4130E94BF1344C2E0916F
:1013A6000703E03009F0EBC0A091DF02A33009F497
:1013B6008DC00E9420130E94CD13AE17BF072CF4D8
:1013C6000E94D6130E94E01369C0A091CD02A535F4
:1013D60021F4E091B702E07809F403C00E94E51316
:1013E6005DC00E9420130E94CD13EA17FB071CF470
:1013F6000E94EF130CF007C00E94F81321F00E9420
:101406001B13309709F005C00E94D6130E940014E2
:1014160045C0A091CD02AA3A19F40E9405143EC017
:10142600A091CD02A53521F4E091B602EE7309F044
:1014360005C00E94D6130E94001430C00E940814F2
:1014460029F40E940D140E94001428C0E091B602EF
:10145600E27029F00E940D140E94121427C0E09138
:10146600B602E87019F00E941C1420C0E091B60282
:10147600E07129F00E9422140E94271417C0A0913F
:10148600CD02A53521F4E091B602E07209F40EC052
:101496000E94D613E3E0F0E063E070E0E093C00260
:1014A600F093C1026093C2027093C302A091DF025F
:1014B600A13029F40E94D6130E94291406C0A091D7
:1014C600DF02A23011F40E94361458C0A091DF0248
:1014D600A33009F053C00E9420130E94CD13AE170B
:1014E600BF072CF40E94D6130E94E0133FC00E944F
:1014F60020130E94CD13EA17FB071CF40E943B142D
:101506000CF003C00E94D6132DC0E091B602EE7116
:1015160019F40E94D61326C00E94081429F4E1E0AB
:10152600F0E061E070E016C0E091B602E27029F0EA
:101536000E940D140E94121421C0E091B602E870B8
:1015460019F00E941C141AC0E091B602E071B1F0C5
:101556000E942214E093BC02F093BD026093BE0287
:101566007093BF02EFEFFFEF6FEF7FEFE093C002E4
:10157600F093C1026093C2027093C3025CC1A09152
:101586000703A13009F057C1A091DF02A33009F487
:10159600FAC00E9420130E94CD13AE17BF072CF489
:1015A6000E94D6130E94E013D6C0A091CD02A535A5
:1015B60021F4E091B702E07809F403C00E94E51334
:1015C600CAC00E9420130E94CD13EA17FB071CF421
:1015D6000E94EF130CF007C00E94F81321F00E943E
:1015E6001B13309709F005C00E94D6130E94001401
:1015F600B2C0A091CD02AA3A09F06FC0E091B6023E
:10160600EE71A9F40E94D613EAB5E1FF05C0E5EF35
:10161600FFEF6FEF7FEF02C00E940014E093C0025D
:10162600F093C1026093C2027093C30255C00E9438
:101636000814A9F40E940D14EAB5E1FF05C0E5EF10
:10164600FFEF6FEF7FEF02C00E940014E093C0022D
:10165600F093C1026093C2027093C3023DC0E09151
:10166600B602E27059F00E940D14EAB5E1FF03C01C
:101676000E94441402C00E9412142EC0E091B602C9
:10168600E87079F0E9E0F0E069E070E00E94C413E8
:10169600EAB5E1FF03C00E94441402C00E9412147E
:1016A6001BC0E091B602E07169F00E9422140E940C
:1016B600C413EAB5E1FF03C00E94441402C00E94AD
:1016C60012140AC00E940514E093C002F093C102EE
:1016D6006093C2027093C30246C0A091CD02A535A5
:1016E60021F4E091B602EE7309F005C00E94D6130C
:1016F6000E94001430C00E94081429F40E940D14A0
:101706000E94001428C0E091B602E27029F00E94FF
:101716000D140E94121427C0E091B602E87019F069
:101726000E941C1420C0E091B602E07129F00E94CC
:1017360022140E94271417C0A091CD02A53521F4CA
:10174600E091B602E07209F40EC00E94D613E3E0FF
:10175600F0E063E070E0E093C002F093C1026093B2
:10176600C2027093C302A091DF02A13029F40E9445
:10177600D6130E94291406C0A091DF02A23011F4EC
:101786000E94361458C0A091DF02A33009F053C05E
:101796000E9420130E94CD13AE17BF072CF40E949F
:1017A600D6130E94E0133FC00E9420130E94CD135F
:1017B600EA17FB071CF40E943B140CF003C00E94BE
:1017C600D6132DC0E091B602EE7119F40E94D6131D
:1017D60026C00E94081429F4E1E0F0E061E070E020
:1017E60016C0E091B602E27029F00E940D140E9424
:1017F600121421C0E091B602E87019F00E941C1480
:101806001AC0E091B602E071B1F00E942214E09392
:10181600BC02F093BD026093BE027093BF02EFEF6D
:10182600FFEF6FEF7FEFE093C002F093C10260938A
:10183600C2027093C302089524970E94651600E9B8
:1018460011E020E931E040E951E00E94FA120E94DD
:101856007915A0EABCE880E090E00E945114A091BE
:10186600AC02B091AD0288279927EE81FF81688589
:1018760079850E9451140E941B13E130A0E0FA07FB
:1018860081F4A5E2B0E00E943216A091AC02B091BC
:10189600AD020E94B01566277727EE83FF8368871F
:1018A60079870E945814AB30E0E0BE07E0E08E076F
:1018B600E0E09E071CF008EE13E016C00E945814E4
:1018C600A130E0E0BE07E0E08E07E0E09E071CF4F2
:1018D60000E911E009C0EE81FF81ACE3B0E00E94AF
:1018E600A615E057FE4F8F01EDB7FEB73197FA9375
:1018F600EA931F930F930E945D1489D90F911F914C
:10190600E091B402F091B5020E947915EE83FF834F
:10191600688779870E9416130E947915EE51F04068
:10192600604070400E9458140E945B161CF020E92B
:1019360031E01CC00E9416130E9458140E947915AB
:101946000E9460161CF028EE33E010C00E941613A9
:101956007E97AE81BF810E942B16EA1BFB0BA4E18A
:10196600B0E00E94A615E057FE4F9F01EDB7FEB707
:101976003197FA93EA933F932F930E945D1447D9C8
:101986002F913F91A801021713070CF4A9010E9499
:101996006014A417B5074CF4E0910803F09109030D
:1019A6003A96E0930803F09309030E9460144A17DD
:1019B6005B074CF4E0910803F09109033A97E09332
:1019C6000803F0930903E8E0F3E0FA93EA930E9430
:1019D6005D141DD9E0910A03E03029F0E0E0E093C0
:1019E6000803E09309030E946C162A9608951A9339
:1019F600E0910A03E03021F4ACE0B3E00E94461324
:101A0600A0910C03B0910D03A131EEE0BE0780F06A
:101A16000E946514E036AAEEFA0728F40E946514BF
:101A260031960E944216E0E0E0930C03E0930D032A
:101A36000E946514EF70F070E0930E030E94651427
:101A4600E07FF0700E947015F0E0E064E0930F0311
:101A56000E946514E070FF70EF2FF0E0F0E0E068A0
:101A6600E09310030E946514E070F07F0E947015E9
:101A7600EF2FF0E0F0E0E06CE0931103E0910E034D
:101A8600EF701E2FE0910F03EF701E27E0911003F9
:101A9600EF701E27E0911103EF701E27E12FE37010
:101AA600E295E07FA0910E03EA2BE0930E03EFE0B0
:101AB600F3E00F01A081E12FEC70EE0FEE0FEA2BA1
:101AC600D001EC93E0E1F3E00F01A081E12FE07398
:101AD600EA2BD001EC93E1E1F3E00F01A081E12FC5
:101AE600E07CE695E695EA2BD001EC93E0911203B3
:101AF600EF5FE0931203A0911203A43018F0E0E028
:101B0600E0931203C8C01A93EAB5E1FFC4C00E946D
:101B16006A143A970E946F1430F40E947614359630
:101B26000E947B1425C00E946A1431970E946F148C
:101B360030F4A3E1B3E0ED91FD91319617C00E9418
:101B46006A143A960E94801430F40E9476143A97EA
:101B56000E947B140DC00E946A1431960E94801464
:101B660038F4A3E1B3E0ED91FD913197FE93EE9346
:101B7600A0911303B0911403AD3FE3E0BE0724F038
:101B8600ECEFF3E00E947B14A0911403AA232AF43D
:101B9600E0E0E0931303E0931403E0E0E093360300
:101BA600E0933703E093350310E0163008F50E9402
:101BB6008714E081E030B1F00E948C14A0913603C6
:101BC600B0913703EA0FFB1FE0933603F093370318
:101BD6000E948714A1E0A083E0913503EF5FE093B4
:101BE600350304C00E948714A0E0A0831F5FDDCFE9
:101BF600E0913503A0913603B0913703F0E00E94DF
:101C0600C315E0933303F093340310E0163008F065
:101C160042C00E948714E081E030D9F10E948C1402
:101C2600DF01E0913303F09134033A97AE17BF0713
:101C360024F40E94971431960EC00E948C14DF0182
:101C4600E0913303F09134033A96EA17FB072CF43C
:101C56000E9497143197FE93EE930E94A2140E945D
:101C66001316E536A0E0FA0734F00E94A214E4E663
:101C7600F0E0ED93FC930E94A2140E941316EC3937
:101C8600AFEFFA0734F40E94A214ECE9FFEFED93EC
:101C9600FC931F5FBBCF19910895A091DF02A3307B
:101CA600C9F4E091B602EA7061F4E4EFF1E00E9453
:101CB600AB1428F40E94B71410F00E94C814F798C9
:101CC60008C0E091B602EA7021F00E94CF140E948B
:101CD600D514D6C0A091DF02A23061F40E94CF14C1
:101CE6000E94DC1428F40E94B71410F00E94C81455
:101CF600F798C6C0A091DF02A13061F4EFEFF3E0E0
:101D06000E94AB1428F40E94B71410F00E94C81465
:101D1600F798B6C0EAB5E1FF04C0A091CD02A5359B
:101D260009F00EC00E9476140E94AB1428F40E949B
:101D3600B71410F00E94C814EAB5EE7FEABDA0C041
:101D4600A091CD02AA3A99F50E941B13309729F06B
:101D56000E94CF140E94D51429C0E091B602EA7100
:101D6600D1F4AFE1B0E00E9432160E94E414E4ED33
:101D7600F2E0FA93EA93E0E0F0E00E94E9140E94B0
:101D8600DC1428F40E94B71410F00E94C814F798C7
:101D9600EAB5EE7F0AC0E091B602EA7139F00E9418
:101DA600CF140E94D514EAB5E160EABD69C0A091DE
:101DB600CD02A53509F064C0E091B602E07209F0E3
:101DC60057C0E091B602EE71E43001F50E94EF14BF
:101DD6003097A9F40E94F8140E94FD14AE17BF07AD
:101DE60038F4A0913E03B0913F030E94021502C051
:101DF6000E94F814E093D602F093D70206C00E9420
:101E0600F814E093D602F093D702F798E091B60261
:101E1600EA7121F0E091B602E07409F10E94EF1434
:101E26003097A9F40E940A150E94FD14AE17BF0749
:101E360038F4A091BA02B091BB020E94021502C00A
:101E46000E940A15E093D602F093D70206C00E94BC
:101E56000A15E093D602F093D702F79808C0E091EE
:101E6600B602EA7121F00E94CF140E94D51408C070
:101E7600E091B602E07221F00E94CF140E94D514C0
:101E86000895549AA091E002B091E102AC3DE5E0DC
:101E9600BE0724F4A0EEB2E00E944613A091E00231
:101EA600B091E102599724F40E941B13309709F46C
:101EB60003C05C9AE1E062C00E941B13309761F098
:101EC600F79B03C05C9AE1E004C0F79904C05C98F4
:101ED600E0E0E0930A0354C00E9420130E94CD1351
:101EE600AE17BF0724F4A0910703A13009F403C07D
:101EF6005C9AE1E043C0A0910703A13071F4EAB512
:101F0600E0FF03C05C9AE1E005C0EAB5E0FD04C06D
:101F16005C98E0E0E0930A0333C00E9420130E941D
:101F2600CD13EA17FB071CF40E943B140CF01DC0EE
:101F3600A0910703A130A1F0E0910703E030A1F4DE
:101F46000E941B13309761F0E091B602E07219F01F
:101F56005C9AE1E002C05C98E0E0E0930A0304C00A
:101F66005C98E0E0E0930A030BC0F79B03C05C9A21
:101F7600E1E004C0F79904C05C98E0E0E0930A034E
:101F8600E4EDF2E00E940F15E6EDF2E00E940F1577
:101F96000E941B13309741F40E9420133A960E9428
:101FA600CD13AE17BF070CF004C0EAE0F0E00E94C4
:101FB600E414E091D502E0938900E091D402E09325
:101FC6008800E091D702E0938B00E091D602E0937F
:101FD6008A000E946014E4E0F0E00E94C315E093DA
:101FE600B4000895269A279A2E9A2F9A1E9B0AC005
:101FF600A091DD02AA3028F4E091DD02EF5FE093C4
:10200600DD0209C01E9907C0E091DD02E03019F03B
:10201600E150E093DD021F9B0AC0A091DE02AA30C8
:1020260028F4E091DE02EF5FE093DE0209C01F991B
:1020360007C0E091DE02E03019F0E150E093DE02E5
:10204600A091DD02AA3021F4A091DE02AA3009F0A7
:1020560003C0E0E0E093DF02A091DD02A03021F4AE
:10206600A091DE02AA3009F003C0E1E0E093DF02AE
:10207600A091DD02AA3021F4A091DE02A03009F081
:1020860003C0E2E0E093DF02A091DD02A03021F47C
:10209600A091DE02A03009F003C0E3E0E093DF0286
:1020A60008951A930A9300917800109179000E947E
:1020B6001415DF01E091AA02F0E0EE0FFF1FEA0F10
:1020C600FB1F00831183E091AA02E37099F5219723
:1020D6000E941E15AE0FBF1FE0E0F0E0ED93FC93EB
:1020E600E883A881A031D8F40E941E15EA0FFB1FD1
:1020F600BF01008011800E941415DF01E881F0E025
:10210600EE0FFF1FAE0FBF1F0E941316E00DF11D4D
:10211600DB01ED93FC93E881EF5FE883E2CF0E9459
:102126001E15AE0FBF1FED91FD910E947015FE9317
:10213600EE932196A091AB02AF5FA093AB02A530C0
:1021460060F0E0E0E093AB02A091AA02AF5FA0933B
:10215600AA02A03110F0E093AA02E7B1E07CE7B949
:10216600E8B1E07CE8B9E091AB02E03011F4E1E0DF
:1021760017C0A091AB02A13011F4E4E011C0A09108
:10218600AB02A23011F4E2E00BC0A091AB02A33087
:1021960011F4E3E005C0A091AB02A43019F4E5E028
:1021A600E0937C00E6EAE0937A00E0917A00E0644E
:1021B600E0937A0009911991089524970E94C81214
:1021C6000E942615A0E0B0E00E9432160E942B1550
:1021D6000E9451150E942116AB81AA2312F40E9477
:1021E60030150E94D2120E942B150E943415E0E68B
:1021F600F9E060E070E00E943B15E093AC02F093DA
:10220600AD02E091A202F091A3020E942615AB81D5
:10221600AA2312F40E9430150E94EB120E942B157D
:102226000E9434150E944215E093B002F093B10269
:10223600E091A402F091A5020E942615AB81AA2383
:1022460012F40E9430150E94E6120E942B150E947D
:1022560034150E944215E093AE02F093AF02E0916E
:10226600A602F091A7020E9426150E94F0120E9473
:102276002B150E943415EEE2F5E060E070E00E9456
:102286003B15E151F140E093B402F093B502E091C1
:10229600B602F0E0E093B202F093B30224960895FA
:1022A6000A921A92FA926A937A938A939A93AA93C3
:1022B600BA93EA93FA93EFB7EA930E9400060E9454
:1022C600E101B394EAE0BE16E8F0BB2473947E16EF
:1022D60010F07724F39A8394E3E08E1610F08824A6
:1022E600F29A6394E4E16E1638F06624F49AF69B4B
:1022F60002C0F69801C0F69A9394E4E69E1610F092
:102306009924F59AE991EFBFF991E991B991A991CB
:102316009991899179916991F990199009901895F7
:102326002A9A229AE4B1E663E4B9E3EAE0938000EC
:10233600E9E0E0938100E0E0E0938500E09384002B
:10234600E0938700E0938600E1E0E0938900E0E017
:10235600E0938800E3E0E0938B00E0E0E0938A00FE
:10236600219A229AE093B600E3E2E093B000E1E01E
:10237600E093B100E0E0E093B200E093B300E0E365
:10238600E093B400539AEDE5ECBDE0E0EDBD0E94AC
:102396002F070E9400060E94B112E0E0E093E002DF
:1023A600E093E102A0E1B0E00E943216E093E2027F
:1023B600F093E302A091E202B091E3025A9744F44B
:1023C600A091E202B091E302A73EEFEFBE072CF424
:1023D600E0E0E093E202E093E302A2E1B0E00E94D3
:1023E6003616E03010F0E43028F0A2E1B0E0E3E089
:1023F6000E944A1678940E946001509AE0916A03FE
:10240600E03029F0E0E0E0936A030E945302F29B79
:1024160002C0F29846DEF39B0CC0F398CEDE0E9413
:10242600BA060E947D0839DCDDDD0E9401070E94A4
:102436008C05F49B05C0F49824DD0E94C709FCD9DD
:10244600F59B2DC0F5980E94BB080E9442090E9488
:102456004906A091E802B091E902A83EE3E0BE0772
:1024660024F4A8EEB2E00E944613A091CD02AA3A47
:1024760021F0A091DF02A33011F40E941D08E09123
:102486000103EF5FE0930103A0910103AA3028F056
:10249600E0E0E09301030E94600135DBA8DAA8952D
:1024A600ADCFFFCFAA93E881EEBDEDB5E7FFFDCF37
:1024B600EEB521960895E4B1EC62E4B92498209A29
:1024C600289808950E945512A9810C945512E091FE
:1024D6008B03F0E0EA0FFB1F0895AAE0B0E00C942E
:1024E6004715EA93AFEF0C94D500EA93A0EC0C9451
:1024F600D500EA93A0E00C94D500EA93A1E30C94EE
:10250600D500E0910503A0914203EA170895A09132
:102516004303E0910503EA170895A0914703B0E04D
:10252600E0E0F1E00E947E150895B0E0E0E0F1E021
:102536000E947E1508950E941701E0910503EA9313
:10254600EBEDEA93E091B402EA93E0E0EA93E091DE
:10255600B602EA93E091E202EA930895E0E0E0939E
:10256600CE02E093CF02E5E5E093CD020895A4E123
:10257600B0E00E943616E0300895ADE8B3E0ED9184
:10258600FD913196FE93EE930895E091A002F091AD
:10259600A1020895E0914503EF70E2300895A2E0AC
:1025A600B0E00E9432160895E0914503EF70E330E3
:1025B6000895E0914503EF70E4300895E0914503F6
:1025C600EF70E5300895A6E0B0E00E943216089557
:1025D600AAE0B0E00E9432160895AEE0B0E00E9494
:1025E60032160895FA93EA93A8EEB3E00895A7E1A8
:1025F600B0E00E9432160895A091460396CFA091AE
:102606004503B0E0EA0FFB1F0895A09148038DCF64
:10261600A0914703B0E0EA0FFB1F0895ABE1B0E0DD
:102626000E9432160895ADE1B0E00E943216089578
:10263600A3E2B0E00E9432160895A5E1B0E00E9440
:1026460032160895DF01E0914903F0E0EA17FB072F
:102656000895E091B602E17EE093B602E0E0E093F1
:10266600D002E093D102E093D202E093D302E0934A
:10267600D802E093D902E093DA02E093DB02EEE1BE
:10268600E093C4020895ED91FD913196FE93EE9389
:102696000895EA93E0910B03A5E1B3E0F0E0EE0FB5
:1026A600FF1FAE0FBF1F0895E091E202F091E30213
:1026B6000895E093C502F093C6026093C702709333
:1026C600C8020895E093C902F093CA026093CB0250
:1026D6007093CC020895E0937C00E6EAE0937A00DA
:1026E600E0917A00E064E0937A00F7CEE09178001A
:1026F600F09179000895A091DA02B091DB02089575
:10270600A091D802B091D9020895A091CE02B091BD
:10271600CF020895A091B402B091B5020895FA933C
:10272600EA93E0E0F0E0FA93EA93ACE3B0E00C94CD
:102736000A06A091B002B091B1020895E8EDF2E068
:10274600FA93EA93E0E0F0E0FA93EA93AAE0B0E0C5
:102756000E940A06D5DF1A970895EAEDF2E0FA9389
:10276600EA93E0E0F0E0FA93EA93AAE0B0E00E9490
:102776000A06C1DF1A970895E5E5F5E565E575E50D
:102786000895E093BC02F093BD026093BE0270937D
:10279600BF020895A5E0B0E00E94A615A091E00250
:1027A600B091E1020895E0E0E093BC02E093BD023F
:1027B600E093BE02E093BF020895E3E0F3E063E036
:1027C60073E00895E5E5F5E565E070E0DADFEFEF43
:1027D600FFEF6FEF7FEF0895EC59FF4FA091E002F6
:1027E600B091E102AE17BF070895A1E2B0E00E94E2
:1027F6003216E535A0E0FA070895EFEFFFEF6FEF29
:102806007FEF0895B9DFBDDFF8CFE091B602EE7332
:10281600E4300895E1E0F0E061E070E0B2CFE0E09E
:10282600E093C002E093C102E093C202E093C302C8
:102836000895E9E0F0E069E070E0A3DFF0CFE9E4B5
:10284600F0E069E470E008959CDFE9CFE3E3F3E3A9
:1028560063E373E3E093C002F093C1026093C202A4
:102866007093C3020895ECECFCEC6CEC7CECECCFC2
:10287600EA5BFF4FA091E002B091E102AE17BF07FD
:102886000895E5E0F0E060E070E0E093C002F093C8
:10289600C1026093C2027093C30208950E94ED15AF
:1028A600EE83FF83688779870895AE81BF81888527
:1028B60099850895E0E9F1E095CEA0910803B091DD
:1028C60009030895A7E2B0E00E9432160895A9E22E
:1028D600B0E00E9432160895A091AE02B091AF0208
:1028E600AE17BF070895E0911303F09114030895FE
:1028F600E0931303F09314030895A091AE02B091F0
:10290600AF02EA17FB070895E12FF0E0E35DFC4F05
:102916000895E12FA1E2B3E0F0E0EE0FFF1FAE0F46
:10292600BF1F0E9413160895E12FA5E1B3E0F0E062
:10293600EE0FFF1FAE0FBF1FED91FD910895E12F22
:10294600A5E1B3E0F0E0EE0FFF1FAE0FBF1F089545
:10295600E093D402F093D502A091D602B091D702AB
:10296600AC3FE3E0BE070895E091D602F091D702AE
:102976007E96E093D602F093D702A091D602B0914C
:10298600D702AD3FE3E0BE070895ECEFF3E0E09336
:10299600D602F093D7020895E0E0E093D402E093E4
:1029A600D5020895E0E0E093D602E093D702F79AC5
:1029B6000895A091D602B091D702AC3FE3E0BE07DE
:1029C6000895E093D402F093D5020895FA93EA931A
:1029D600ACEFB3E00C940A0667DEA091B802B091A2
:1029E600B902EA0FFB1FEDDF23CEE0913E03F09123
:1029F6003F030895A091D602B091D7020895EEE163
:102A0600F0E00E94B015F6DFEA0FFB1F0895E09193
:102A1600BA02F091BB020895FA93EA93EAE0F0E075
:102A2600D5CFE091AB02F0E0EE0FFF1F0E946215DA
:102A3600E050FE4F0895E091AB02A0EAB2E0F0E06C
:102A4600EE0FFF1F0895662777270E941C1608952C
:102A56000E9417160E9479150895E0E00E94261636
:102A660008950E94AB150E941C160E941716089521
:102A76000E94ED150E941C16E881F9810895E8EE82
:102A8600F3E060E070E0F4CF109639F080ED97E067
:102A96000197F1F7A8951197C9F70895AE1BBF0BDB
:102AA600860B970B0895F195E195F0400895F09502
:102AB60060957095E195FF4F6F4F7F4F0895EE0F2C
:102AC600FF1FEE0FFF1FEE0FFF1FEE0FFF1F0895F4
:102AD60075956795F795E7950895F695E795F695B3
:102AE600E795F695E795F695E79508956F2F660FA6
:102AF600660B762F0895FA9FF02DEB9FF00DEA9F57
:102B0600E02DF10D08957A9F702D6B9F700DF89F43
:102B1600700DE99F700D6A9F602D710DFB9F600D12
:102B2600711DE89F600D711D8827FA9FF02D610DBC
:102B3600781FEB9FF00D611D781FEA9FE02DF10DC8
:102B4600681F781F08954BD0D6DF0EF4ACDF0895CA
:102B560054D0D9DF0EF4ABDF08950024112490E1A0
:102B6600AA0FBB1F001C111C0E1A1F0A18F40E0E0A
:102B76001F1E01C0A1609A9599F7FD01D001089525
:102B86002ED0EBDF0EF48FDF08953F934F935F93C4
:102B9600002411244427552730E2AA0FBB1F881FA3
:102BA600991F001C111C441F551F0E1A1F0A460BA5
:102BB600570B28F40E0E1F1E461F571F01C0A1609B
:102BC6003A9559F7FD01BC01D001CA015F914F91B9
:102BD6003F91089512D0D9DF0EF469DF0895E89485
:102BE600F7FF02C060DF6894B7FF06C0A095B095F6
:102BF600119600F8039400FA0895E89477FF02C04E
:102C060056DF689497FF0BC00024A095B095809579
:102C160090951196801D901D00F8039400FA089572
:102C2600ED91FC9111970895A881B9818A819B81C4
:102C36000895E883F9836A837B830895A883B9831B
:102C46008A839B830895E883E983EA83EB83089567
:102C56001B2EBF2FF12D1A2EAE2FE12D08951196A2
:102C660002D0FE2F1197F999FECFFF93FFB7F89484
:102C7600A1BDB2BDF89AE0B5FFBFFF91089507D098
:102C86001196EF93EF2F03D0EF9111970895F99BCB
:102C960002C0A895FCCF9FB7F894A1BDB2BDF89A23
:102CA60080B5E81719F0E0BDFA9AF99A9FBF089522
:102CB600EA17FB07680779070895AE17BF07860767
:102CC600970708955A934A933A932A931A930A9325
:102CD60008955D814C813B812A811981088108957F
:00000001FF
