:0A0000000C9488000C9400000C948E
:10000A0000000C9400000C9400000C9400000C9466
:10001A0000000C9400000C9400000C9400000C9456
:10002A0000000C9400000C9400000C9400000C9446
:10003A0000000C9400000C94A0120C9400000C9484
:10004A0000000C9400000C9400000C9400000C9426
:10005A0000000C9400000C9400000C94000010277F
:10006A00E80364000A00010000100001100001000A
:10007A00000048007D00B100D900FE001E013E01CB
:10008A005A0174019001AB01C501DE01F6010D02AE
:10009A00030303031E0032003200BC027B0015007A
:1000AA0009000400E7070700060001002D4E414E33
:1000BA0000494E4600000400CC029A000100D0021A
:1000CA009E000100E002A0000100E202A20002007C
:1000DA001F03A40001009903A60001000002A80062
:1000EA0001000202AA0001000402AC00020006029A
:1000FA00AE0001000802B00001000A02B2000100CD
:10010A009C03B4000000F894EE27EFBBF1E0F5BFC2
:10011A00E5BFF8E1A895A4B7A77FA4BFF093600054
:10012A00E09360008DE0A2E0BB27ED938A95E9F7A2
:10013A0080E094E0A0E0B1E0ED930197E9F7E0EC0C
:10014A00F0E085919591009761F0A591B5910590A0
:10015A001590BF01F00105900D920197E1F7FB019F
:10016A00F0CFE0E0EEBBEABDEBBDEFEFEDBFE4E0C0
:10017A00EEBFC0E0D2E00C94E012F8940E94B713EC
:10018A00289A78940895AA931A93F8940E94B71318
:10019A008BE18A95F1F7A3E00E94BE13A5E50E94C0
:1001AA00AE131E2F289A7894E12F1881229608956B
:1001BA00AA93F8940E94B713A5E00E94AE13AA81ED
:1001CA000E94BE13A8810E94AE13289A78940FC089
:1001DA00AA931A93F8940E94B713A2E00E94AE134E
:1001EA00AA810E94BE13289A7894E12F1881239637
:1001FA0008951A93F8940E94B713000000000000B3
:10020A0000000000000000000000A0EA0E94AE13F7
:10021A00A5E50E94AE131E2F289A7894E12FE2C01A
:10022A00AA93F8940E94B713E881E03011F4E1E848
:10023A0009C0A881A13011F4E2E804C0A881A23063
:10024A0011F4E4E8E883A8810E94AE13289A78940E
:10025A0021960895AA93A0919703A03010F0A43094
:10026A0018F0E0E0E0939703E0919703F0E0E95893
:10027A00FC4FAF81A083ABE7B3E00E94C313AE810A
:10028A00A083AFE7B3E00E94C313AD81A083A3E8C4
:10029A00B3E00E94C313AC81A083A7E8B3E00E9435
:1002AA00C313AB81A083ABE8B3E00E94C313AA8156
:1002BA00A083AFE8B3E00E94C313A981A083A3E996
:1002CA00B3E00E94C313A881A083E0919703EF5F74
:1002DA00E0939703A0919703A43018F0E0E0E0932D
:1002EA009703289608951A930E94C200AEE00E94CE
:1002FA00C8001E2FE07EE03831F0EFE0EA93E0EE2E
:10030A00EA93A0E855DF8BE18A95F1F7EAE2EA93EE
:10031A00A3EC5EDFE9E2EA93AEEF5ADFE8E2EA93A2
:10032A00A3E056DFE0E6EA93A0E252DFE0E7EA93D1
:10033A00A0E24EDF0E94C913E0E20E94CD13E1E27F
:10034A000E94CD13E0E00E94CD13E1E00E94CD139C
:10035A00E4E00E94CD13E5E00E94CD13E4E20E949E
:10036A00CD13E5E2EA93A0EE33DFE8E0EA93A3E1F6
:10037A002FDFE9E00E94D113E0E10E94D513E1E109
:10038A000E94D513E4E10E94D513E5E10E94D5133A
:10039A00E8E10E94D513E9E10E94D513E1E50E9444
:1003AA00D913E2E50E94D113E1E40E94D913E2E4F1
:1003BA000E94D113E1E30E94D913E2E30E94D11310
:1003CA00EFE0EA93E7EEEA93A5E00E94DD00EBE2B4
:1003DA00EA93A6E0FDDEA4E6B0E00E94B516ECE0E2
:1003EA000E94D513199108950E94D917F89401DF34
:1003FA00E0934C03A0914D03EA2BE0934D03E09167
:10040A004C03E270E9F000E0083078F4E02FF0E005
:10041A00E25BFC4FFF93EF93A02FAA580E94C800FB
:10042A00AF91BF91EC930F5FEFCFECE2EA93E2E07A
:10043A00EA93A0E00E94DD00E1E0E093760341C088
:10044A00E0914C03E475E9F52197ECE2EA93ECE1DB
:10045A00EA93A0E00E94DD00E0919703A09198033F
:10046A00EA1771F1E0E0E883A881A830B0F4E881E6
:10047A00EA5CEA93E981A7E7B3E0F0E00E94D416C8
:10048A00AE0FBF1FE0919803F0E0AE0FBF1FAC9113
:10049A009FDEE881EF5FE883E7CFE5E3EA93A8E030
:1004AA000E94ED00A0E0BCDEE0919803EF5FE093CC
:1004BA009803A0919803A43018F0E0E0E093980321
:1004CA00219678940E94E017249608950E94D717DF
:1004DA00A0914E03A130E1F4A0914F03A230C1F4E0
:1004EA00A0915003A330A1F4A0915103A43081F448
:1004FA00A0915203A53061F4A0915303A63041F4B0
:10050A00A0915403A73021F4A0915503A83009F013
:10051A0010C0E1E0EA93E2E0EA93E3E0EA93E4E080
:10052A00EA93E5E0EA93E6E0EA93E7E0EA93A8E0F3
:10053A0091DE0E94DD1381F40E94E31369F4A09115
:10054A005003AD3E41F0A0915003AB3E21F0A09183
:10055A005003AC3E09F401C00BC1E0E0E0930D0387
:10056A00E0915103E093C302E170B9F0A091E8026F
:10057A00A43078F4E091E802EF5FE093E802A091FA
:10058A00E802A43028F0E091C202E062E093C202DD
:10059A0003C0E4E0E093E8021DC0E091E802E03025
:1005AA00B1F0E150E093E802A091E802A03071F4C2
:1005BA00E091C202EF7DE093C202A2E1B0E00E94A4
:1005CA00A417A5E0EA9FF001E0930C0303C0E0E062
:1005DA00E093E802E091C302E27021F0E091C202E6
:1005EA00E06403C0E091C202EF7BE093C2020E9482
:1005FA00E913A0915203B0E0EA0FFB1FE093C40293
:10060A00F093C502A09155030E94F113A0915403DF
:10061A00B0E0EA0FFB1FE093C602F093C702F09125
:10062A00C202E0E0A091C302B0E0EA0FFB1FE09330
:10063A009903F0939A03A091C202EAE0EA9FF001BB
:10064A00E093F802F093F902E0911103EA93EAEDDC
:10065A00EA93E091B802EA93E091B902EA93E09151
:10066A00BA02EA93E091BB02EA93E091BC02EA93F0
:10067A00A091BD020E94F713E091FA02EA93A091B9
:10068A00FB02E8DDA0915003AD3E59F4E09111035D
:10069A00EA93ECED0E940F14E0E00E940F14A0E030
:1006AA00D9DDA0915003AB3EB9F4E0911103EA936E
:1006BA00EDEDEA93E0910102EA93E0910002EA93F8
:1006CA00E0910302EA93E0910202EA93E0910502C3
:1006DA00EA93A0910402BEDDA0915003AC3EB9F4A6
:1006EA00E0911103EA93E5EDEA93E0910702EA93B8
:1006FA00E0910602EA93E0910902EA93E091080286
:10070A00EA93E0910B02EA93A0910A02A3DD0E9408
:10071A001414E091C302E07889F0A3E1B0E00E94EA
:10072A00A417E03051F4A3E1B0E0E1E00E94B81769
:10073A00E0930903E0E0E0930B0311C0A091F402F7
:10074A00B091F50255975CF0A3E1B0E00E94A417BE
:10075A00E03029F0A3E1B0E0E0E00E94B8170E947F
:10076A001D1429F0A4E1B0E0E0E00E94B8175DC2D0
:10077A000E94DD1369F40E94E31351F4A09150031F
:10078A00AE3E31F4A0915103E0915203EA1709F009
:10079A00DAC00E942314E0915103E07FE032D1F5E0
:1007AA00E0915103EF70E13039F40E942B14A0E07C
:1007BA00B0E00E94B01723C00E94301431F40E94A6
:1007CA00351431960E94B0171AC00E943A1421F4C7
:1007DA000E9435143A960FC00E943F1431F40E94C9
:1007EA00351431970E94B0170AC00E94441439F494
:1007FA000E9435143A97A2E0B0E00E94B017E2E0F6
:10080A00F0E0FA93EA93ECE2F1E0FA93EA93A8E8CB
:10081A00B3E18DC0E0915103E07FE03121F50E9400
:10082A00301431F40E94491431960E94B0171AC04C
:10083A000E943A1421F40E9449143A960FC00E9469
:10084A003F1431F40E94491431970E94B0170AC02C
:10085A000E94441439F40E9449143A97A6E0B0E081
:10086A000E94B01765C0E0915103E07F81F5E091E5
:10087A005103EF70E13039F4A8E0B0E00E942B1484
:10088A000E94B01723C00E94301431F40E944E1403
:10089A0031960E94B0171AC00E943A1421F40E949D
:1008AA004E143A960FC00E943F1431F40E944E141F
:1008BA0031970E94B0170AC00E94441439F40E946A
:1008CA004E143A97AAE0B0E00E94B01731C0E09106
:1008DA005103E07FE03361F50E94301431F40E9445
:1008EA00531431960E94B0171AC00E943A1421F488
:1008FA000E9453143A960FC00E943F1431F40E948A
:10090A00531431970E94B0170AC00E94441439F454
:10091A000E9453143A97AEE0B0E00E94B017EEE09E
:10092A00F0E0FA93EA93E8ECF0E00E94581420D23F
:10093A000E9414140E941D1429F0A4E1B0E0E0E022
:10094A000E94B81772C1A0914E03AF3F41F4A09123
:10095A004F03AF3F21F4A0915003A23609F046C0DD
:10096A000E945D14BF010E9462140E946514E6177A
:10097A00F70741F00E9462140E946514A7E1B0E0F3
:10098A000E94B017A9E1B0E00E94A017BF010E941F
:10099A006B140E946E14E617F70741F00E946B145D
:1009AA000E946E14A9E1B0E00E94B017E0915503CD
:1009BA00EF70E53069F40E947414E535A0E0FA0797
:1009CA0031F0A1E2B0E0E5E5F0E00E94B0170DC019
:1009DA00E0915503EF70EA3041F40E9474143097A5
:1009EA0021F0A1E2B0E00E9479141FC1A0914E0348
:1009FA00AF3F69F4A0914F03AF3F49F4A091500370
:100A0A00A63221F0A0915003A93209F401C067C0AF
:100A1A000E947E14BF010E9462140E946514E617A8
:100A2A00F70741F00E9462140E946514ABE1B0E03E
:100A3A000E94B0170E948314BF010E94E9130E940A
:100A4A006E14E617F70741F00E946B140E946E14A9
:100A5A00ADE1B0E00E94B017A0915003A632A1F414
:100A6A000E948814309721F0A3E2B0E00E94791422
:100A7A000E948D140E94921439F0E0915503F0E01F
:100A8A00A5E1B0E00E94B017A0915003A93231F558
:100A9A000E948814E130A0E0FA0731F0A3E2B0E046
:100AAA00E1E0F0E00E94B017A5E2B0E00E94A017D2
:100ABA000E94921439F0E0915503F0E0A5E2B0E00B
:100ACA000E94B0170E948D14E330A0E0FA0731F0BB
:100ADA00A5E1B0E0E3E0F0E00E94B017A6C00E94F2
:100AEA00DD1359F40E94E31341F4A0915003A63197
:100AFA0021F4A0915103A33609F003C00E9499146E
:100B0A0094C00E94DD1359F40E94E31341F4A091AA
:100B1A005003A63121F4A0915103A43609F005C06F
:100B2A00A7E2B0E00E94791480C0A0914E03AF3FC3
:100B3A0061F4A0914F03AF3F41F4A0915003A63155
:100B4A0021F4A0915103A63109F039C0A0915203B2
:100B5A00A53521F4A0915303A53509F005C0AEEEE1
:100B6A00B2E00E94B3141FC0A0915203A63621F42A
:100B7A00A0915303A63609F008C0AEEEB2E0ED919B
:100B8A00FD913197FE93EE930EC0A0915203A737C1
:100B9A0021F4A0915303A73709F005C0E0E0E093E0
:100BAA00EE02E093EF02EEEEF2E0FA93EA93E7EE5A
:100BBA00FFEFFA93EA93A9E1B0E0BBD036C00E94F6
:100BCA00DD1389F40E94E31371F4A0915003A63156
:100BDA0051F4A0915103E0915203EA1721F4A09134
:100BEA005103AE3E09F021C00E9423144091E00255
:100BFA005091E102FA01AFE1B0E00E94B017A4E619
:100C0A00B0E00E94B5160E94B9144E175F0769F446
:100C1A00E0911103EA93E1E9EA93EDEDEA930E9488
:100C2A000F14E0E0EA93A0E015DBE0E0E09376033E
:100C3A000E94DE17BBC0EAB5E1FF70C0A09117039E
:100C4A00AF5FA0931703A73018F0E0E0E093170313
:100C5A00A0911703A630C0F5E0911703EA93EA932F
:100C6A00EDEEEA93E0E00E94BE14EC91A0911F031E
:100C7A00EA0F0E94BE140E948117A0911F03B0912F
:100C8A002003AE0FBF1FE0E0F1E00E943117EA93A4
:100C9A00E8EEEA93A8EEDEDAA0911703B0E0AC5BC7
:100CAA00BC4FEC91EF5FEC93E0911703F0E0EC5B43
:100CBA00FC4FA081AB3038F0E0911703F0E0E75C1D
:100CCA00FC4FA0E0A0832AC0A0911703A63031F5FB
:100CDA00E091E002F091E102E093FA02F093FB0264
:100CEA00E0911103EA93EAEDEA93E091B902EA93FB
:100CFA00E091B802EA93E091BB02EA93E091BA026A
:100D0A00EA93E091BD02EA93A091BC020E94F71314
:100D1A00E091FB02EA93A091FA029CDA0895E0E0DE
:100D2A00E4BDE5E0E5BDE8EFE6BDE1E0E0936E0095
:100D3A000895BA93AA93AC81BD810E948117DF01FD
:100D4A00EA81FB81AE17BF0724F4AC81BD81ED9324
:100D5A00FC93AC81BD810E948117DF01E881F98192
:100D6A00EA17FB0724F4AC81BD81ED93FC931EC006
:100D7A00BA93AA93AC81BD810E94A017DF01EA81D0
:100D8A00FB81AE17BF0724F4AC81BD810E94B01766
:100D9A00AC81BD810E94A017DF01E881F981EA17C1
:100DAA00FB0724F4AC81BD810E94B01726960895F2
:100DBA000E94C914A091F002B091F102EA17FB0750
:100DCA0009F5A091F202B091F302DC97D4F4A2EFF4
:100DDA00B2E00E94B314A091F202B091F302DC9740
:100DEA0084F0A0E1B0E00E94A017DF010E94C914BC
:100DFA00EA17FB0731F00E94C914A0E1B0E00E9493
:100E0A00B01705C0E0E0E093F202E093F302A0918C
:100E1A00F202B091F302DD972CF0E0E0E093F202E7
:100E2A00E093F3020E94C914E093F002F093F102F6
:100E3A000895A0910203A03061F4A0910303A030A9
:100E4A0041F4A0910403A03021F4E0910703E030BB
:100E5A0009F010C0ECE3E0930203E0930303E0938C
:100E6A000403E0E1FEE0E0930503F0930603E1E00A
:100E7A00E09307030895E0E0E0930203E09303039D
:100E8A00E0930403E0930503E0930603E09307036A
:100E9A000895509AE091D102E17011F0589A01C078
:100EAA005898519AE091D502E17011F0599A01C00F
:100EBA005998E091D102F091D2026091D3027091D7
:100ECA00D4020E94D9160E94CE14E091D502F09164
:100EDA00D6026091D7027091D8020E94D9160E9458
:100EEA00D714A091D002AF5FA093D002A132B8F07C
:100EFA00E0E0E093D002E091C802F091C90260916B
:100F0A00CA027091CB020E94CE14E091CC02F091F9
:100F1A00CD026091CE027091CF020E94D71408953B
:100F2A00A091EB02A330E9F0E091C202E87021F04F
:100F3A00E0919B03E87079F0E091C202E07151F010
:100F4A00E0919B03E07131F40E947414E535A0E04E
:100F5A00FA0709F405C0A091D902AA3A09F469DF8F
:100F6A000EC0A091EB02A33051F4E091C202E870E6
:100F7A0021F0E0919B03E87009F001C05ADFE0918B
:100F8A00C202E0939B03089529971A930A93E0E01B
:100F9A00E7B9E8B9E6E00E94E0140E94EB14ED8399
:100FAA00FE83E7E00E94E0140E94EB14EF83F887C7
:100FBA00E0E00E94E0140E94EB14E987FA87AD8111
:100FCA00BE81A631E2E0BE0724F0A736E2E0BE0702
:100FDA000CF002C0E0E028C0AD81BE81A935E3E093
:100FEA00BE0724F0AA3AE3E0BE070CF002C0E1E033
:100FFA001BC0AD81BE81AF38E2E0BE0724F0A03E3F
:10100A00E2E0BE070CF002C0E2E00EC0AD81BE8194
:10101A00AF3CE3E0BE0724F0A032E4E0BE070CF0E8
:10102A0002C0E3E001C0E5E0E0930E03AF81B885BA
:10103A00A631E2E0BE0724F0A736E2E0BE070CF0D4
:10104A0002C0E0E028C0AF81B885A935E3E0BE0759
:10105A0024F0AA3AE3E0BE070CF002C0E1E01BC0AC
:10106A00AF81B885AF38E2E0BE0724F0A03EE2E0E7
:10107A00BE070CF002C0E2E00EC0AF81B885AF3CFB
:10108A00E3E0BE0724F0A032E4E0BE070CF002C0A1
:10109A00E3E001C0E5E0E0930F03A985BA85A63134
:1010AA00E2E0BE0724F0A736E2E0BE070CF002C079
:1010BA00E0E028C0A985BA85A935E3E0BE0724F097
:1010CA00AA3AE3E0BE070CF002C0E1E01BC0A98522
:1010DA00BA85AF38E2E0BE0724F0A03EE2E0BE07E0
:1010EA000CF002C0E2E00EC0A985BA85AF3CE3E08D
:1010FA00BE0724F0A032E4E0BE070CF002C0E3E031
:10110A0001C0E5E0E0931003A0910E03A53041F081
:10111A00A0910F03A53021F0A0911003A53021F46E
:10112A00E1E0E09312031AC0E0911003E27011F0BB
:10113A00E1E001C0E0E0E0931303E0910F03EE0F5A
:10114A00EE0FA0910E03EA0F6E2FE0911003E170EB
:10115A00A0E1EA9FF001E60FE093110319810881EB
:10116A002B960895E0910203E03041F0E150E093BC
:10117A000203E03011F40E9499141FC0E0910303A6
:10118A00E03061F0E0910303E150E0930303E09162
:10119A000303E03011F40E9499140FC0E091040394
:1011AA00E03059F0E0910403E150E0930403E09148
:1011BA000403E03011F40E949914E0910503F091C0
:1011CA000603309789F0A5E0B3E0ED91FD913197E0
:1011DA00FE93EE93E0910503F0910603309721F414
:1011EA00E0E0E093070325DE0E94F014109731F443
:1011FA000E94F514109711F44C9B01C00FC0A091E6
:10120A000803A43150F4E0910803EF5FE093080368
:10121A00A0910803A43108F02EDE03C0E0E0E093B9
:10122A0008030895A091EB02A330B1F10E94FA14C9
:10123A00AA35E2E0BE0724F4AAEDB2E00E94B31494
:10124A000E94FA14AE34E2E0BE0729F4E091C20229
:10125A00E17CE093C2020E94FA14A835E2E0BE07DC
:10126A00D1F4EAEAE093D902A0911303A13019F468
:10127A00EAB5E26002C0EAB5ED7FEABDE0E0E093DC
:10128A0017030E941D1439F4E1E0E0930A03A4E174
:10129A00B0E00E94B81703C0EAEAE093D9020895C1
:1012AA000E9483140E94FF14EA17FB0734F4ACED82
:1012BA00B2E0ED91FD9131960DC00E9483143197F1
:1012CA000E94FF14AE17BF073CF4ACEDB2E0ED91FB
:1012DA00FD913197FE93EE93ECEDF2E00E94041536
:1012EA00A091DC02B091DD02D79794F0A091EB02B5
:1012FA00A03021F4E091C202E07421F0A091EB0247
:10130A00A33029F4E091C202E460E093C2020BC068
:10131A00A091DC02B091DD0216972CF4E091C20292
:10132A00EB7FE093C2020E947E140E94FF14EA1728
:10133A00FB0734F4AEEDB2E0ED91FD9131960DC0AC
:10134A000E947E1431970E94FF14AE17BF073CF427
:10135A00AEEDB2E0ED91FD913197FE93EE93EEED95
:10136A00F2E00E940415A091DE02B091DF02D79745
:10137A0094F0A091EB02A03021F4E091C202E07453
:10138A0021F0A091EB02A33029F4E091C202E260BD
:10139A00E093C2020BC0A091DE02B091DF02169761
:1013AA002CF4E091C202ED7FE093C2020895A0916D
:1013BA00EB02A33009F484C00E945D140E940E154A
:1013CA00EA17FB0728F4A4EEB2E00E94B31405C0A2
:1013DA00E0E0E093E402E093E5020E9413152CF0AA
:1013EA00E091C202E860E093C2020E947414E535FB
:1013FA00A0E0FA07C9F522970E945D14E883F983F1
:10140A00A881B981EAE0F0E00E943117E883F98304
:10141A00A9E0B0E00E941417E883F9830E940E1530
:10142A00AE17BF0710F44C9B01C006C0A6EEB2E08F
:10143A00ED91FD91319605C0A6EEB2E0ED91FD91D8
:10144A003197FE93EE930E94221514F00E943115F3
:10145A000E94F0140E94C9172CF0E091C202EF7E9C
:10146A00E093C20222962BC0E091BA02F091BB022D
:10147A000E940E15AE17BF0790F40E940E15E09158
:10148A00BA02F091BB02EA1BFB0B0F01A9E1B0E023
:10149A000E94A017E015F10510F44C9B01C005C08D
:1014AA00A6EEB2E00E94B31405C0E0E0E093E602C3
:1014BA00E093E7020E94221514F00E94311534C00D
:1014CA00A091EB02A33081F50E940E15AD3BE2E03C
:1014DA00BE0728F0A4EEB2E00E94B31405C0E0E013
:1014EA00E093E402E093E5020E9413152CF0E091E8
:1014FA00C202E860E093C2020E940E15A83CE0E036
:10150A00BE0710F44C9B01C005C0A6EEB2E00E94D3
:10151A00B31405C0E0E0E093E602E093E7020E941C
:10152A00221514F00E9431150895E0911203E0305B
:10153A0039F00E9437150E943C150E943715A2C245
:10154A000E947414E535A0E0FA0709F05DC00E9414
:10155A0045150E944F150E945415A091EB02A33025
:10156A0009F451C0A091D902A53521F4E091C20233
:10157A00EE7309F00BC0E1E1F1E060E070E00E9477
:10158A003C15E1E1F1E060E070E026C00E945D15E3
:10159A0019F40E94621516C0E091C202E27029F0A5
:1015AA000E9467150E9469151FC0E091C202E87087
:1015BA0019F00E94731518C0E091C202E071A1F0FF
:1015CA000E947915E093C802F093C9026093CA0297
:1015DA007093CB020E944F15E093CC02F093CD0298
:1015EA006093CE027093CF02A091EB02A13029F44E
:1015FA000E9445150E947E1506C0A091EB02A230FA
:10160A0011F40E94831546C2E0911303E03009F0F9
:10161A00ECC0A091EB02A33009F490C00E948D1493
:10162A000E948915AE17BF072CF40E9445150E9427
:10163A0092156CC0A091D902A53521F4E091C3029C
:10164A00E07809F403C00E94971560C00E948D14C7
:10165A000E948915EA17FB071CF40E949D150CF0DD
:10166A000AC00E947414E535A0E0FA0721F00E942E
:10167A008814309709F005C00E9445150E944F153D
:10168A0045C0A091D902AA3A19F40E94A6153EC0F3
:10169A00A091D902A53521F4E091C202EE7309F0B6
:1016AA0005C00E9445150E944F1530C00E945D1565
:1016BA0029F40E9467150E944F1528C0E091C202C2
:1016CA00E27029F00E9467150E94691527C0E0910F
:1016DA00C202E87019F00E94731520C0E091C2029C
:1016EA00E07129F00E94A9150E94691517C0A091FE
:1016FA00D902A53521F4E091C202E07209F40EC0C4
:10170A000E944515E3E0F0E063E070E0E093CC026C
:10171A00F093CD026093CE027093CF02A091EB02B8
:10172A00A13029F40E9445150E947E1506C0A09199
:10173A00EB02A23011F40E94831556C0A091EB026D
:10174A00A33009F051C00E948D140E948915AE176A
:10175A00BF072CF40E9445150E9492153DC00E94B5
:10176A008D140E948915EA17FB071CF40E94AB1519
:10177A000CF003C00E9445152BC0E091C202EE7125
:10178A0019F40E94451524C00E945D1519F40E949F
:10179A00621516C0E091C202E27029F00E94671534
:1017AA000E94691521C0E091C202E87019F00E94F6
:1017BA0073151AC0E091C202E071B1F00E94791566
:1017CA00E093C802F093C9026093CA027093CB02F5
:1017DA00EFEFFFEF6FEF7FEFE093CC02F093CD02D4
:1017EA006093CE027093CF0255C1A0911303A1302A
:1017FA0009F050C1A091EB02A33009F4F5C00E9490
:10180A008D140E948915AE17BF072CF40E94451546
:10181A000E949215D1C0A091D902A53521F4E09178
:10182A00C302E07809F403C00E949715C5C00E945C
:10183A008D140E948915EA17FB071CF40E949D1556
:10184A000CF00AC00E947414E535A0E0FA0721F0F2
:10185A000E948814309709F005C00E9445150E941D
:10186A004F15AAC0A091D902AA3A09F067C0E0911F
:10187A00C202EE71A9F40E944515EAB5E1FF05C05E
:10188A00E5EFFFEF6FEF7FEF02C00E944F15E09385
:10189A00CC02F093CD026093CE027093CF024DC07A
:1018AA000E945D15A9F40E946715EAB5E1FF05C01B
:1018BA00E5EFFFEF6FEF7FEF02C00E944F15E09355
:1018CA00CC02F093CD026093CE027093CF0235C062
:1018DA00E091C202E27059F00E946715EAB5E1FF91
:1018EA0003C00E94B41502C00E94691526C0E09187
:1018FA00C202E87079F0E9E0F0E069E070E00E9485
:10190A003C15EAB5E1FF03C00E94B41502C00E946B
:10191A00691513C0E091C202E07159F00E94A9153D
:10192A00EAB5E1FF03C00E94B41502C00E9469151E
:10193A0004C00E94A6150E94541546C0A091D9025F
:10194A00A53521F4E091C202EE7309F005C00E94A8
:10195A0045150E944F1530C00E945D1529F40E945A
:10196A0067150E944F1528C0E091C202E27029F063
:10197A000E9467150E94691527C0E091C202E870AB
:10198A0019F00E94731520C0E091C202E07129F09B
:10199A000E94A9150E94691517C0A091D902A53500
:1019AA0021F4E091C202E07209F40EC00E944515CA
:1019BA00E3E0F0E063E070E0E093CC02F093CD0264
:1019CA006093CE027093CF02A091EB02A13029F46A
:1019DA000E9445150E947E1506C0A091EB02A23016
:1019EA0011F40E94831556C0A091EB02A33009F0AE
:1019FA0051C00E948D140E948915AE17BF072CF49E
:101A0A000E9445150E9492153DC00E948D140E94A5
:101A1A008915EA17FB071CF40E94AB150CF003C0EA
:101A2A000E9445152BC0E091C202EE7119F40E9482
:101A3A00451524C00E945D1519F40E94621516C04E
:101A4A00E091C202E27029F00E9467150E946915AE
:101A5A0021C0E091C202E87019F00E9473151AC001
:101A6A00E091C202E071B1F00E947915E093C802D8
:101A7A00F093C9026093CA027093CB02EFEFFFEFB3
:101A8A006FEF7FEFE093CC02F093CD026093CE022A
:101A9A007093CF02089524970E94D71700E911E0A6
:101AAA0020E931E040E951E00E945D140E94E71606
:101ABA00A0EABCE880E090E00E94B915A091B802C3
:101ACA00B091B90288279927EE81FF8168857985C7
:101ADA000E94B9150E948814E130A0E0FA0781F447
:101AEA00A5E2B0E00E94A017A091B802B091B90295
:101AFA000E941E1766277727EE83FF8368877987F8
:101B0A000E94C015AB30E0E0BE07E0E08E07E0E0DF
:101B1A009E071CF008EE13E016C00E94C015A13003
:101B2A00E0E0BE07E0E08E07E0E09E071CF400E973
:101B3A0011E009C0EE81FF81ACE3B0E00E94141706
:101B4A00E057FE4F8F01EDB7FEB73197FA93EA934C
:101B5A001F930F930E94C515ECD80F911F91E09126
:101B6A00C002F091C1020E94E716EE83FF836887E4
:101B7A0079870E9483140E94E716EE51F040604074
:101B8A0070400E94C0150E94CD171CF020E931E078
:101B9A001CC00E9483140E94C0150E94E7160E946E
:101BAA00D2171CF028EE33E010C00E9483147E97EF
:101BBA00AE81BF810E949917EA1BFB0BA4E1B0E03A
:101BCA000E941417E057FE4F9F01EDB7FEB73197F9
:101BDA00FA93EA933F932F930E94C515AAD82F919F
:101BEA003F91A801021713070CF4A9010E94C81516
:101BFA00A417B5074CF4E0911403F09115033A9633
:101C0A00E0931403F09315030E94C8154A175B0763
:101C1A004CF4E0911403F09115033A97E0931403FE
:101C2A00F0931503E4E1F3E0FA93EA930E94C515F1
:101C3A0080D8E0911603E03029F0E0E0E093140345
:101C4A00E09315030E94DE172A9608951A93E091ED
:101C5A001603E03021F4A8E1B3E00E94B314A09186
:101C6A001803B0911903A131EEE0BE0780F00E947B
:101C7A00CD15E036AAEEFA0728F40E94CD15319662
:101C8A000E94B017E0E0E0931803E09319030E9462
:101C9A00CD15EF70F070E0931A030E94CD15E07F26
:101CAA00F0700E94DE16F0E0E064E0931B030E94ED
:101CBA00CD15E070FF70EF2FF0E0F0E0E068E09300
:101CCA001C030E94CD15E070F07F0E94DE16EF2FF4
:101CDA00F0E0F0E0E06CE0931D03E0911A03EF708E
:101CEA001E2FE0911B03EF701E27E0911C03EF707B
:101CFA001E27E0911D03EF701E27E12FE370E29586
:101D0A00E07FA0911A03EA2BE0931A03EBE1F3E0D8
:101D1A000F01A081E12FEC70EE0FEE0FEA2BD0013C
:101D2A00EC93ECE1F3E00F01A081E12FE073EA2BE1
:101D3A00D001EC93EDE1F3E00F01A081E12FE07C0B
:101D4A00E695E695EA2BD001EC93E0911E03EF5F4E
:101D5A00E0931E03A0911E03A43018F0E0E0E09384
:101D6A001E03C8C01A93EAB5E1FFC4C00E94D21587
:101D7A003A970E94D71530F40E94DE1535960E94D4
:101D8A00E31525C00E94D21531970E94D71530F469
:101D9A00AFE1B3E0ED91FD91319617C00E94D215E3
:101DAA003A960E94E81530F40E94DE153A970E948E
:101DBA00E3150DC00E94D21531960E94E81538F439
:101DCA00AFE1B3E0ED91FD913197FE93EE93A091CF
:101DDA001F03B0912003AD3FE3E0BE0724F0ECEF10
:101DEA00F3E00E94E315A0912003AA232AF4E0E07D
:101DFA00E0931F03E0932003E0E0E0934203E093C3
:101E0A004303E093410310E0163008F50E94EF15F2
:101E1A00E081E030B1F00E94F415A0914203B09144
:101E2A004303EA0FFB1FE0934203F09343030E942C
:101E3A00EF15A1E0A083E0914103EF5FE093410336
:101E4A0004C00E94EF15A0E0A0831F5FDDCFE091E0
:101E5A004103A0914203B0914303F0E00E9431177D
:101E6A00E0933F03F093400310E0163008F042C0BD
:101E7A000E94EF15E081E030D9F10E94F415DF01EC
:101E8A00E0913F03F09140033A97AE17BF0724F45D
:101E9A000E94FF1531960EC00E94F415DF01E091F1
:101EAA003F03F09140033A96EA17FB072CF40E948D
:101EBA00FF153197FE93EE930E940A160E9481172E
:101ECA00E536A0E0FA0734F00E940A16E4E6F0E0EC
:101EDA00ED93FC930E940A160E948117EC39AFEF2A
:101EEA00FA0734F40E940A16ECE9FFEFED93FC932B
:101EFA001F5FBBCF199108950E947414E535A0E0C5
:101F0A00FA07F1F4E091C202EA7181F40E94B9146D
:101F1A000E9413160E94181628F40E942C1610F01C
:101F2A000E943D16F798EAB5EE7F08C0E091C2021A
:101F3A00EA7029F00E944416EAB5E160EABDE5C0FC
:101F4A00A091EB02A330B9F4E091C202EA7061F405
:101F5A00E4EFF1E00E944F1628F40E942C1610F0CC
:101F6A000E943D16F79806C0E091C202EA7011F08D
:101F7A000E944416CAC0A091EB02A23091F4E0E09C
:101F8A00E093E002E093E1020E945816AC3FE3E0DE
:101F9A00BE0728F40E942C1610F00E943D16F798EE
:101FAA00B4C0A091EB02A13061F4EFEFF3E00E941C
:101FBA004F1628F40E942C1610F00E943D16F7982E
:101FCA00A4C0EAB5E1FF04C0A091D902A53509F081
:101FDA000EC00E94DE150E944F1628F40E942C168D
:101FEA0010F00E943D16EAB5EE7FEABD8EC0A091C0
:101FFA00D902AA3A29F50E948814309719F00E944A
:10200A0044161DC0E091C202EA7181F40E94B9141B
:10201A000E9413160E94181628F40E942C1610F01B
:10202A000E943D16F798EAB5EE7F08C0E091C20219
:10203A00EA7129F00E944416EAB5E160EABD65C07A
:10204A00A091D902A53509F060C0E091C202E07200
:10205A0009F055C0E091C202EE71E43001F50E9428
:10206A005D163097A9F40E9466160E945816AE179C
:10207A00BF0738F4A0914A03B0914B030E946B1634
:10208A0002C00E946616E093E202F093E30206C0E1
:10209A000E946616E093E202F093E302F798E09159
:1020AA00C202EA7121F0E091C202E07409F10E94D1
:1020BA005D163097A9F40E9473160E945816AE173F
:1020CA00BF0738F4A091C602B091C7020E946B16EE
:1020DA0002C00E947316E093E202F093E30206C084
:1020EA000E947316E093E202F093E302F79806C0A7
:1020FA00E091C202EA7111F00E94441606C0E09112
:10210A00C202E07211F00E9444160895549AA091F6
:10211A00EC02B091ED02AC3DE5E0BE0724F4ACEE72
:10212A00B2E00E94B314A091EC02B091ED0259976B
:10213A0024F40E948814309709F403C05C9AE1E001
:10214A0062C00E948814309761F0F79B03C05C9AC2
:10215A00E1E004C0F79904C05C98E0E0E09316035C
:10216A0054C00E948D140E948915AE17BF0724F42B
:10217A00A0911303A13009F403C05C9AE1E043C0C3
:10218A00A0911303A13071F4EAB5E0FF03C05C9A91
:10219A00E1E005C0EAB5E0FD04C05C98E0E0E09348
:1021AA00160333C00E948D140E948915EA17FB0793
:1021BA001CF40E94AB150CF01DC0A0911303A130B2
:1021CA00A1F0E0911303E030A1F40E948814309743
:1021DA0061F0E091C202E07219F05C9AE1E002C09B
:1021EA005C98E0E0E093160304C05C98E0E0E093BA
:1021FA0016030BC0F79B03C05C9AE1E004C0F79991
:10220A0004C05C98E0E0E0931603E0EEF2E00E947E
:10221A007816E2EEF2E00E9478160E947414E53510
:10222A00A0E0FA0789F00E948814309741F40E94CE
:10223A008D143A960E948915AE17BF070CF004C098
:10224A00EAE0F0E00E941316E091E102E0938900CF
:10225A00E091E002E0938800E091E302E0938B00D2
:10226A00E091E202E0938A000E94C815E4E0F0E0FF
:10227A000E943117E093B4000895269A279A2E9A5D
:10228A002F9A1E9B0AC0A091E902AA3028F4E09175
:10229A00E902EF5FE093E90209C01E9907C0E091E5
:1022AA00E902E03019F0E150E093E9021F9B0AC00D
:1022BA00A091EA02AA3028F4E091EA02EF5FE093E3
:1022CA00EA0209C01F9907C0E091EA02E03019F05A
:1022DA00E150E093EA02A091E902AA3021F4A09128
:1022EA00EA02AA3009F003C0E0E0E093EB02A09111
:1022FA00E902A03021F4A091EA02AA3009F003C051
:10230A00E1E0E093EB02A091E902AA3021F4A09166
:10231A00EA02A03009F003C0E2E0E093EB02A091E8
:10232A00E902A03021F4A091EA02A03009F003C02A
:10233A00E3E0E093EB0208951A930A930091780080
:10234A00109179000E948216DF01E091B602F0E056
:10235A00EE0FFF1FEA0FFB1F00831183E091B60205
:10236A00E37099F521970E948C16AE0FBF1FE0E02B
:10237A00F0E0ED93FC93E883A881A031D8F40E94A1
:10238A008C16EA0FFB1FBF01008011800E94821683
:10239A00DF01E881F0E0EE0FFF1FAE0FBF1F0E94C2
:1023AA008117E00DF11DDB01ED93FC93E881EF5FEE
:1023BA00E883E2CF0E948C16AE0FBF1FED91FD910C
:1023CA000E94DE16FE93EE932196A091B702AF5FAC
:1023DA00A093B702A53060F0E0E0E093B702A091C5
:1023EA00B602AF5FA093B602A03110F0E093B60236
:1023FA00E7B1E07CE7B9E8B1E07CE8B9E091B7027F
:10240A00E03011F4E1E017C0A091B702A13011F455
:10241A00E4E011C0A091B702A23011F4E2E00BC0CF
:10242A00A091B702A33011F4E3E005C0A091B7026E
:10243A00A43019F4E5E0E0937C00E6EAE0937A0040
:10244A00E0917A00E064E0937A0009911991089585
:10245A0024970E942B140E949416A0E0B0E00E94D8
:10246A00A0170E9499160E94BF160E948F17AB816F
:10247A00AA2312F40E949E160E9435140E949916ED
:10248A000E94A216E0E6F9E060E070E00E94A91658
:10249A00E093B802F093B902E091AE02F091AF0274
:1024AA000E949416AB81AA2312F40E949E160E94DF
:1024BA004E140E9499160E94A2160E94B016E0932A
:1024CA00BC02F093BD02E091B002F091B1020E9409
:1024DA009416AB81AA2312F40E949E160E944914F4
:1024EA000E9499160E94A2160E94B016E093BA02A0
:1024FA00F093BB02E091B202F091B3020E949416EB
:10250A000E9453140E9499160E94A216EEE2F5E068
:10251A0060E070E00E94A916E151F140E093C00228
:10252A00F093C102E091C202F0E0E093BE02F093A0
:10253A00BF02249608950A921A92FA926A937A939B
:10254A008A939A93AA93BA93EA93FA93EFB7EA9380
:10255A000E9494060E94F901B394EAE0BE16E8F0DC
:10256A00BB2473947E1610F07724F39A8394E3E0E5
:10257A008E1610F08824F29A6394E4E16E1638F00D
:10258A006624F49AF69B02C0F69801C0F69A9394D0
:10259A00E4E69E1610F09924F59AE991EFBFF991B5
:1025AA00E991B991A9919991899179916991F99052
:1025BA001990099018952A9A229AE4B1E663E4B927
:1025CA00E3EAE0938000E9E0E0938100E0E0E09351
:1025DA008500E0938400E0938700E0938600E1E0C1
:1025EA00E0938900E0E0E0938800E3E0E0938B0069
:1025FA00E0E0E0938A00219A229AE093B600E3E2AF
:10260A00E093B000E1E0E093B100E0E0E093B200D3
:10261A00E093B300E0E3E093B400539AEDE5ECBD38
:10262A00E0E0EDBD0E94C9070E949406E0E0E09355
:10263A00DA02E093DB020E947414E535A0E0FA079F
:10264A0019F0E5E5E093D902E0E0E093EC02E093CB
:10265A00ED02A0E1B0E00E94A017E093EE02F09331
:10266A00EF02A091EE02B091EF025A9744F4A091C2
:10267A00EE02B091EF02A73EEFEFBE072CF4E0E0C6
:10268A00E093EE02E093EF02A2E1B0E00E94A41709
:10269A00E03010F0E43028F0A2E1B0E0E3E00E947C
:1026AA00B81778940E947801509AE0917603E03046
:1026BA0029F0E0E0E09376030E946B02F29B02C0ED
:1026CA00F2983ADEF39B0CC0F398C2DE0E944E07E2
:1026DA000E94170911DCD1DD0E9495070E9420068D
:1026EA00F49B05C0F49812DD0E949A0AD4D9F59B8E
:1026FA002DC0F5980E9455090E94DC090E94DD064A
:10270A00A091F402B091F502A83EE3E0BE0724F4DA
:10271A00A4EFB2E00E94B314A091D902AA3A21F020
:10272A00A091EB02A33011F40E94B708E0910D03C7
:10273A00EF5FE0930D03A0910D03AA3028F0E0E0CB
:10274A00E0930D030E9478010DDB80DAA895ADCFE6
:10275A00FFCFAA93E881EEBDEDB5E7FFFDCFEEB559
:10276A0021960895E4B1EC62E4B92498209A289855
:10277A0008950E94AE13A9810C94AE13E0919703B9
:10278A00F0E0EA0FFB1F0895AAE0B0E00C94B5163A
:10279A00EA93AFEF0C94ED00EA93A0EC0C94ED00F1
:1027AA00EA93A0E00C94ED00EA93A1E30C94ED0007
:1027BA00E0911103A0914E03EA170895A0914F03E7
:1027CA00E0911103EA170895A0915303B0E0E0E005
:1027DA00F1E00E94EC160895B0E0E0E0F1E00E941A
:1027EA00EC1608950E942F01E0911103EA93EBED94
:1027FA00EA93E091C002EA93E0911E03F0E0E65EFC
:10280A00FC4FE081EA93E091C202EA93E091EE0282
:10281A00EA930895EA93E0E0EA93EA930895E0E000
:10282A00E093DA02E093DB02E5E5E093D90208954A
:10283A00A4E1B0E00E94A417E0300895A9E9B3E04A
:10284A00ED91FD913196FE93EE930895E091AC02DD
:10285A00F091AD020895E0915103EF70E2300895CE
:10286A00A2E0B0E00E94A0170895E0915103EF7032
:10287A00E3300895E0915103EF70E4300895E09158
:10288A005103EF70E5300895A6E0B0E00E94A0176A
:10289A000895AAE0B0E00E94A0170895AEE0B0E063
:1028AA000E94A0170895FA93EA93A8EEB3E0089558
:1028BA00A7E1B0E00E94A0170895A09152038CCF1F
:1028CA00A0915103B0E0EA0FFB1F0895A0915403B1
:1028DA0083CFA0915303B0E0EA0FFB1F0895A1E252
:1028EA00B0E00E94A0170895E0E0F0E00E94B0175F
:1028FA000895ABE1B0E00E94A0170895ADE1B0E001
:10290A000E94A0170895A3E2B0E00E94A0170895BC
:10291A00A5E1B0E00E94A0170895DF01E0915503F8
:10292A00F0E0EA17FB070895E091C202E17EE09326
:10293A00C202E0E0E093DC02E093DD02E093DE0213
:10294A00E093DF02E093E402E093E502E093E6021B
:10295A00E093E702EEE1E093D0020895ED91FD9154
:10296A003196FE93EE930895AFE1B0E00E94A0176E
:10297A000895EA93E0911703A1E2B3E0F0E0EE0FC5
:10298A00FF1FAE0FBF1F0895E091EE02F091EF0214
:10299A000895E093D102F093D2026093D302709328
:1029AA00D4020895E093D502F093D6026093D70239
:1029BA007093D8020895E0937C00E6EAE0937A00E7
:1029CA00E0917A00E064E0937A00DECEE09178004C
:1029DA00F09179000895A091E602B091E702089576
:1029EA00A091E402B091E5020895A091DA02B091B3
:1029FA00DB020895A091C002B091C1020895FA9332
:102A0A00EA93E0E0F0E0FA93EA93ACE3B0E00C94E6
:102A1A009E06A091BC02B091BD020895E4EEF2E0D8
:102A2A00FA93EA93E0E0F0E0FA93EA93AAE0B0E0DE
:102A3A000E949E06D5DF1A970895E6EEF2E0FA9311
:102A4A00EA93E0E0F0E0FA93EA93AAE0B0E00E94A9
:102A5A009E06C1DF1A970895E091C202E061E093F1
:102A6A00C2020895E5E5F5E565E575E50895E093A3
:102A7A00C802F093C9026093CA027093CB02089508
:102A8A00E0E0E093C802E093C902E093CA02E0934F
:102A9A00CB020895EFEFFFEF6FEF7FEF0895E0931A
:102AAA00CC02F093CD026093CE027093CF020895C8
:102ABA00E091C202EE73E4300895E1E0F0E061E0F3
:102ACA0070E00895FADFD3CFE0E0E093CC02E09320
:102ADA00CD02E093CE02E093CF020895E9E0F0E060
:102AEA0069E070E0C4DFF0CFE9E4F0E069E470E0A7
:102AFA000895E3E3F3E363E373E3D1CFECECFCEC97
:102B0A006CEC7CECB4DFE0CFA5E0B0E00E941417D7
:102B1A00A091EC02B091ED020895E3E0F3E063E0E6
:102B2A0073E00895E5E5F5E565E070E0A0DFB2CF72
:102B3A00EC59FF4FA091EC02B091ED02AE17BF071E
:102B4A00089590DF94DFA6CFCFDF91CFEA5BFF4FE6
:102B5A00A091EC02B091ED02AE17BF070895E5E02F
:102B6A00F0E060E070E09BCF0E945B17EE83FF838A
:102B7A00688779870895AE81BF8188859985089588
:102B8A00E0E9F1E090CEA0911403B0911503089505
:102B9A00A7E2B0E00E94A0170895A9E2B0E00E945F
:102BAA00A0170895A091BA02B091BB02AE17BF0751
:102BBA000895E0911F03F09120030895E0931F0305
:102BCA00F09320030895A091BA02B091BB02EA17CC
:102BDA00FB070895E12FF0E0E75CFC4F0895E12F31
:102BEA00ADE2B3E0F0E0EE0FFF1FAE0FBF1F0E9491
:102BFA0081170895E12FA1E2B3E0F0E0EE0FFF1F85
:102C0A00AE0FBF1FED91FD910895E12FA1E2B3E050
:102C1A00F0E0EE0FFF1FAE0FBF1F0895E093E00232
:102C2A00F093E1020895E0EEF2E0FA93EA93E0E02D
:102C3A00F0E0FA93EA93ACEFB3E00E949E06A0910B
:102C4A00E202B091E302AC3FE3E0BE070895E091EF
:102C5A00E202F091E3027E96E093E202F093E3024D
:102C6A00A091E202B091E302AD3FE3E0BE0708950E
:102C7A00ECEFF3E0E093E202F093E3020895E0E080
:102C8A00E093E002E093E102E093E202E093E302E0
:102C9A00F79A0895C3DFA091E202B091E302AC3F34
:102CAA00E3E0BE070895A091E202B091E30208951D
:102CBA006BDEA091C402B091C502EA0FFB1FAEDF22
:102CCA0022CEE0914A03F0914B030895EEE1F0E041
:102CDA000E941E17E8DFEA0FFB1F0895E091C60263
:102CEA00F091C7020895FA93EA93E1E0F0E0FA93CB
:102CFA00EA93ACEFB3E00C949E06E091B702F0E0E1
:102D0A00EE0FFF1F0E94D016E45FFD4F0895E09179
:102D1A00B702ACEAB2E0F0E0EE0FFF1F08956627B3
:102D2A0077270E948A1708950E9485170E94E7163E
:102D3A000895E0E00E94941708950E9419170E94CE
:102D4A008A170E94851708950E945B170E948A17A6
:102D5A00E881F9810895E8EEF3E060E070E0F4CFED
:102D6A00109639F080ED97E00197F1F7A895119741
:102D7A00C9F70895AE1BBF0B860B970B0895F19503
:102D8A00E195F0400895F09560957095E195FF4FB3
:102D9A006F4F7F4F0895EE0FFF1FEE0FFF1FEE0FCD
:102DAA00FF1FEE0FFF1F089575956795F795E79535
:102DBA000895F695E795F695E795F695E795F695CC
:102DCA00E79508956F2F660F660B762F0895FA9F81
:102DDA00F02DEB9FF00DEA9FE02DF10D08957A9FFB
:102DEA00702D6B9F700DF89F700DE99F700D6A9F93
:102DFA00602D710DFB9F600D711DE89F600D711DA7
:102E0A008827FA9FF02D610D781FEB9FF00D611D49
:102E1A00781FEA9FE02DF10D681F781F08954BD0A7
:102E2A00D6DF0EF4ACDF089554D0D9DF0EF4ABDF51
:102E3A0008950024112490E1AA0FBB1F001C111C45
:102E4A000E1A1F0A18F40E0E1F1E01C0A1609A95D1
:102E5A0099F7FD01D00108952ED0EBDF0EF48FDF34
:102E6A0008953F934F935F930024112444275527D5
:102E7A0030E2AA0FBB1F881F991F001C111C441F98
:102E8A00551F0E1A1F0A460B570B28F40E0E1F1E4B
:102E9A00461F571F01C0A1603A9559F7FD01BC01B1
:102EAA00D001CA015F914F913F91089512D0D9DFA5
:102EBA000EF469DF0895E894F7FF02C060DF6894B2
:102ECA00B7FF06C0A095B095119600F8039400FAD2
:102EDA000895E89477FF02C056DF689497FF0BC005
:102EEA000024A095B095809590951196801D901D0F
:102EFA0000F8039400FA0895ED91FC911197089552
:102F0A00A881B9818A819B810895E883F9836A83BC
:102F1A007B830895A883B9838A839B830895E88372
:102F2A00E983EA83EB8308951B2EBF2FF12D1A2E16
:102F3A00AE2FE12D0895119602D0FE2F1197F9991F
:102F4A00FECFFF93FFB7F894A1BDB2BDF89AE0B5E2
:102F5A00FFBFFF91089507D01196EF93EF2F03D08B
:102F6A00EF9111970895F99B02C0A895FCCF9FB7DE
:102F7A00F894A1BDB2BDF89A80B5E81719F0E0BD82
:102F8A00FA9AF99A9FBF089500240A160B06089523
:102F9A00EA17FB07680779070895AE17BF07860780
:102FAA00970708955A934A933A932A931A930A933E
:102FBA0008955D814C813B812A8119810881089598
:00000001FF
