:020000000C945E
:1000020088000C9400000C9400000C9400000C94E6
:1000120000000C9400000C9400000C9400000C945E
:1000220000000C9400000C9400000C9400000C944E
:1000320000000C9400000C9400000C9400000C943E
:1000420097120C9400000C9400000C9400000C9485
:1000520000000C9400000C9400000C9400000C941E
:1000620000000C9400001027E80364000A0001005D
:100072000010000110000100000048007D00B100E6
:10008200D900FE001E013E015A0174019001AB012C
:10009200C501DE01F6010D02030303031E00320057
:1000A2003200BC027B00150009000900E7070B00C3
:1000B2001D0001002D4E414E00494E460000040035
:1000C200CC029A000100D0029E000100E002A000D2
:1000D2000100E202A20002001F03A4000100990332
:1000E200A60001000002A80001000202AA0001000D
:1000F2000402AC0002000602AE0001000802B000D9
:1001020001000A02B20001009C03B4000000F8944E
:10011200EE27EFBBF1E0F5BFE5BFF8E1A895A4B784
:10012200A77FA4BFF0936000E09360008DE0A2E09F
:10013200BB27ED938A95E9F780E094E0A0E0B1E077
:10014200ED930197E9F7E0ECF0E085919591009746
:1001520061F0A591B59105901590BF01F001059050
:100162000D920197E1F7FB01F0CFE0E0EEBBEABDB3
:10017200EBBDEFEFEDBFE4E0EEBFC0E0D2E00C94E8
:10018200D712F8940E94AC13289A78940895AA93EF
:100192001A93F8940E94AC138BE18A95F1F7A3E0CD
:1001A2000E94B313A5E50E94A3131E2F289A7894E8
:1001B200E12F188122960895AA93F8940E94AC1315
:1001C200A5E00E94A313AA810E94B313A8810E94F2
:1001D200A313289A78940FC0AA931A93F8940E94B2
:1001E200AC13A2E00E94A313AA810E94B313289A1F
:1001F2007894E12F1881239608951A93F8940E9417
:10020200AC1300000000000000000000000000002D
:100212000000A0EA0E94A313A5E50E94A3131E2FCB
:10022200289A7894E12FE2C0AA93F8940E94AC1322
:10023200E881E03011F4E1E809C0A881A13011F4AD
:10024200E2E804C0A881A23011F4E4E8E883A881BE
:100252000E94A313289A789421960895AA93A091B4
:100262009703A03010F0A43018F0E0E0E093970379
:10027200E0919703F0E0E958FC4FAF81A083ABE730
:10028200B3E00E94B813AE81A083AFE7B3E00E944F
:10029200B813AD81A083A3E8B3E00E94B813AC8188
:1002A200A083A7E8B3E00E94B813AB81A083ABE8B8
:1002B200B3E00E94B813AA81A083AFE8B3E00E9422
:1002C200B813A981A083A3E9B3E00E94B813A8815F
:1002D200A083E0919703EF5FE0939703A0919703C8
:1002E200A43018F0E0E0E0939703289608951A935B
:1002F2000E94C200AEE00E94C8001E2FE07EE038DD
:1003020031F0EFE0EA93E0EEEA93A0E855DF8BE10B
:100312008A95F1F7EAE2EA93A3EC5EDFE9E2EA9377
:10032200AEEF5ADFE8E2EA93A3E056DFE0E6EA93B3
:10033200A0E252DFE0E7EA93A0E24EDF0E94BE13A2
:10034200E0E20E94C213E1E20E94C213E0E00E94D6
:10035200C213E1E00E94C213E4E00E94C213E5E08E
:100362000E94C213E4E20E94C213E5E2EA93A0EE05
:1003720033DFE8E0EA93A3E12FDFE9E00E94C6134E
:10038200E0E10E94CA13E1E10E94CA13E4E10E9483
:10039200CA13E5E10E94CA13E8E10E94CA13E9E127
:1003A2000E94CA13E1E50E94CE13E2E50E94C61341
:1003B200E1E40E94CE13E2E40E94C613E1E30E944C
:1003C200CE13E2E30E94C613EFE0EA93E7EEEA936C
:1003D200A5E00E94DD00EBE2EA93A6E0FDDEA4E6E2
:1003E200B0E00E94B116ECE00E94CA131991089580
:1003F2000E94D517F89401DFE0934C03A0914D03BE
:10040200EA2BE0934D03E0914C03E270E9F000E047
:10041200083078F4E02FF0E0E25BFC4FFF93EF93BB
:10042200A02FAA580E94C800AF91BF91EC930F5F12
:10043200EFCFECE2EA93E2E0EA93A0E00E94DD0073
:10044200E1E0E093760341C0E0914C03E475E9F505
:100452002197ECE2EA93ECE1EA93A0E00E94DD004E
:10046200E0919703A0919803EA1771F1E0E0E88325
:10047200A881A830B0F4E881EA5CEA93E981A7E7B1
:10048200B3E0F0E00E94D016AE0FBF1FE0919803D8
:10049200F0E0AE0FBF1FAC919FDEE881EF5FE88313
:1004A200E7CFE5E3EA93A8E00E94ED00A0E0BCDE1E
:1004B200E0919803EF5FE0939803A0919803A43032
:1004C20018F0E0E0E0939803219678940E94DC17FC
:1004D200249608950E94D317A0914E03A130E1F40F
:1004E200A0914F03A230C1F4A0915003A330A1F414
:1004F200A0915103A43081F4A0915203A53061F47C
:10050200A0915303A63041F4A0915403A73021F4E3
:10051200A0915503A83009F010C0E1E0EA93E2E0AF
:10052200EA93E3E0EA93E4E0EA93E5E0EA93E6E0C3
:10053200EA93E7E0EA93A8E091DE0E94D21381F405
:100542000E94D81369F4A0915003AD3E41F0A091EE
:100552005003AB3E21F0A0915003AC3E09F401C020
:100562000BC1E0E0E0930D03E0915103E093C3027D
:10057200E170B9F0A091E802A43078F4E091E802C9
:10058200EF5FE093E802A091E802A43028F0E09146
:10059200C202E062E093C20203C0E4E0E093E80238
:1005A2001DC0E091E802E030B1F0E150E093E802D2
:1005B200A091E802A03071F4E091C202EF7DE093D5
:1005C200C202A2E1B0E00E94A017A5E0EA9FF001FA
:1005D200E0930C0303C0E0E0E093E802E091C30281
:1005E200E27021F0E091C202E06403C0E091C20235
:1005F200EF7BE093C2020E94DE13A0915203B0E0AF
:10060200EA0FFB1FE093C402F093C502A0915503C9
:100612000E94E613A0915403B0E0EA0FFB1FE0939F
:10062200C602F093C702F091C202E0E0A091C302B9
:10063200B0E0EA0FFB1FE0939903F0939A03A091B5
:10064200C202EAE0EA9FF001E093F802F093F902B5
:10065200E0911103EA93EAEDEA93E091B802EA939A
:10066200E091B902EA93E091BA02EA93E091BB0207
:10067200EA93E091BC02EA93A091BD020E94EC13BE
:10068200E091FA02EA93A091FB02E8DDA091500307
:10069200AD3E59F4E0911103EA93ECED0E9404148B
:1006A200E0E00E940414A0E0D9DDA0915003AB3E2B
:1006B200B9F4E0911103EA93EDEDEA93E0910102BE
:1006C200EA93E0910002EA93E0910302EA93E09157
:1006D2000202EA93E0910502EA93A0910402BEDDD0
:1006E200A0915003AC3EB9F4E0911103EA93E5ED19
:1006F200EA93E0910702EA93E0910602EA93E0911D
:100702000902EA93E0910802EA93E0910B02EA936C
:10071200A0910A02A3DD0E940914E091C302E078CD
:1007220089F0A3E1B0E00E94A017E03051F4A3E108
:10073200B0E0E1E00E94B417E0930903E0E0E09347
:100742000B0311C0A091F402B091F50255975CF031
:10075200A3E1B0E00E94A017E03029F0A3E1B0E0ED
:10076200E0E00E94B4170E94121429F0A4E1B0E064
:10077200E0E00E94B41757C20E94D21369F40E94AB
:10078200D81351F4A0915003AE3E31F4A09151031D
:10079200E0915203EA1709F0D4C00E941814E091C4
:1007A2005103E07FE032B1F5E0915103EF70E130A7
:1007B20039F40E942014A0E0B0E00E94AC1723C0DC
:1007C2000E94251431F40E942A1431960E94AC171B
:1007D2001AC00E942F1421F40E942A143A960FC0C4
:1007E2000E94341431F40E942A1431970E94AC17EB
:1007F2000AC00E94391439F40E942A143A97A2E0DE
:10080200B0E00E94AC17E2E0F0E00E943E14A8E8DB
:10081200B3E18BC0E0915103E07FE03121F50E940A
:10082200251431F40E94451431960E94AC171AC067
:100832000E942F1421F40E9445143A960FC00E9480
:10084200341431F40E94451431970E94AC170AC047
:100852000E94391439F40E9445143A97A6E0B0E098
:100862000E94AC1763C0E0915103E07F81F5E091F3
:100872005103EF70E13039F4A8E0B0E00E94201497
:100882000E94AC1723C00E94251431F40E944A141E
:1008920031960E94AC171AC00E942F1421F40E94B4
:1008A2004A143A960FC00E94341431F40E944A143A
:1008B20031970E94AC170AC00E94391439F40E9481
:1008C2004A143A97AAE0B0E00E94AC172FC0E09118
:1008D2005103E07FE03351F50E94251431F40E9468
:1008E2004F1431960E94AC171AC00E942F1421F4A3
:1008F2000E944F143A960FC00E94341431F40E94A1
:100902004F1431970E94AC170AC00E94391439F46F
:100912000E944F143A97AEE0B0E00E94AC17EEE0AE
:10092200F0E00E943E14A8EEB3E020D20E94091427
:100932000E94121429F0A4E1B0E0E0E00E94B41792
:1009420072C1A0914E03AF3F41F4A0914F03AF3F5C
:1009520021F4A0915003A23609F046C00E9454141B
:10096200BF010E9459140E945C14E617F70741F078
:100972000E9459140E945C14A7E1B0E00E94AC17D7
:10098200A9E1B0E00E949C17BF010E9462140E947C
:100992006514E617F70741F00E9462140E9465147D
:1009A200A9E1B0E00E94AC17E0915503EF70E53089
:1009B20069F40E946B14E535A0E0FA0731F0A1E278
:1009C200B0E0E5E5F0E00E94AC170DC0E091550300
:1009D200EF70EA3041F40E946B14309721F0A1E2EB
:1009E200B0E00E9470141FC1A0914E03AF3F69F4A2
:1009F200A0914F03AF3F49F4A0915003A63221F0DA
:100A0200A0915003A93209F401C067C00E94751475
:100A1200BF010E9459140E945C14E617F70741F0C7
:100A22000E9459140E945C14ABE1B0E00E94AC1722
:100A32000E947A14BF010E94DE130E946514E61719
:100A4200F70741F00E9462140E946514ADE1B0E024
:100A52000E94AC17A0915003A632A1F40E947F1409
:100A6200309721F0A3E2B0E00E9470140E94841437
:100A72000E94891439F0E0915503F0E0A5E1B0E05D
:100A82000E94AC17A0915003A93231F50E947F1445
:100A9200E130A0E0FA0731F0A3E2B0E0E1E0F0E0FB
:100AA2000E94AC17A5E2B0E00E949C170E94891434
:100AB20039F0E0915503F0E0A5E2B0E00E94AC17F6
:100AC2000E948414E330A0E0FA0731F0A5E1B0E01F
:100AD200E3E0F0E00E94AC17A6C00E94D21359F4E2
:100AE2000E94D81341F4A0915003A63121F4A091A1
:100AF2005103A33609F003C00E94901494C00E94CF
:100B0200D21359F40E94D81341F4A0915003A63194
:100B120021F4A0915103A43609F005C0A7E2B0E088
:100B22000E94701480C0A0914E03AF3F61F4A09167
:100B32004F03AF3F41F4A0915003A63121F4A0919D
:100B42005103A63109F039C0A0915203A53521F411
:100B5200A0915303A53509F005C0AEEEB2E00E94A4
:100B6200AA141FC0A0915203A63621F4A0915303E8
:100B7200A63609F008C0AEEEB2E0ED91FD913197D4
:100B8200FE93EE930EC0A0915203A73721F4A091D9
:100B92005303A73709F005C0E0E0E093EE02E093CB
:100BA200EF02EEEEF2E0FA93EA93E7EEFFEFFA934A
:100BB200EA93A9E1B0E0BBD036C00E94D21389F417
:100BC2000E94D81371F4A0915003A63151F4A09160
:100BD2005103E0915203EA1721F4A0915103AE3E72
:100BE20009F021C00E9418144091E0025091E102E4
:100BF200FA01AFE1B0E00E94AC17A4E6B0E00E94B7
:100C0200B1160E94B0144E175F0769F4E091110308
:100C1200EA93E1E9EA93EDEDEA930E940414E0E03D
:100C2200EA93A0E01BDBE0E0E09376030E94DA1790
:100C3200BBC0EAB5E1FF70C0A0911703AF5FA093FC
:100C42001703A73018F0E0E0E0931703A091170311
:100C5200A630C0F5E0911703EA93EA93EDEEEA932A
:100C6200E0E00E94B514EC91A0911F03EA0F0E94EC
:100C7200B5140E947D17A0911F03B0912003AE0FFF
:100C8200BF1FE0E0F1E00E942D17EA93E8EEEA933D
:100C9200A8EEE4DAA0911703B0E0AC5BBC4FEC9194
:100CA200EF5FEC93E0911703F0E0EC5BFC4FA08167
:100CB200AB3038F0E0911703F0E0E75CFC4FA0E0C6
:100CC200A0832AC0A0911703A63031F5E091E0027B
:100CD200F091E102E093FA02F093FB02E09111033A
:100CE200EA93EAEDEA93E091B902EA93E091B8025D
:100CF200EA93E091BB02EA93E091BA02EA93E091AF
:100D0200BD02EA93A091BC020E94EC13E091FB02A7
:100D1200EA93A091FA02A2DA0895E0E0E4BDE5E0E8
:100D2200E5BDE8EFE6BDE1E0E0936E000895BA9319
:100D3200AA93AC81BD810E947D17DF01EA81FB810C
:100D4200AE17BF0724F4AC81BD81ED93FC93AC8157
:100D5200BD810E947D17DF01E881F981EA17FB0757
:100D620024F4AC81BD81ED93FC931EC0BA93AA9387
:100D7200AC81BD810E949C17DF01EA81FB81AE1725
:100D8200BF0724F4AC81BD810E94AC17AC81BD8148
:100D92000E949C17DF01E881F981EA17FB0724F41E
:100DA200AC81BD810E94AC17269608950E94C014A2
:100DB200A091F002B091F102EA17FB0709F5A091A8
:100DC200F202B091F302DC97D4F4A2EFB2E00E94F7
:100DD200AA14A091F202B091F302DC9784F0A0E190
:100DE200B0E00E949C17DF010E94C014EA17FB07C3
:100DF20031F00E94C014A0E1B0E00E94AC1705C01F
:100E0200E0E0E093F202E093F302A091F202B091EB
:100E1200F302DD972CF0E0E0E093F202E093F302BC
:100E22000E94C014E093F002F093F1020895A091A1
:100E32000203A03061F4A0910303A03041F4A09119
:100E42000403A03021F4E0910703E03009F010C060
:100E5200ECE3E0930203E0930303E0930403E0E195
:100E6200FEE0E0930503F0930603E1E0E09307035D
:100E72000895E0E0E0930203E0930303E0930403A8
:100E8200E0930503E0930603E09307030895509A65
:100E9200E091D102E17011F0589A01C05898519A2C
:100EA200E091D502E17011F0599A01C05998E09190
:100EB200D102F091D2026091D3027091D4020E94C9
:100EC200D5160E94C514E091D502F091D602609128
:100ED200D7027091D8020E94D5160E94CE14A0911A
:100EE200D002AF5FA093D002A132B8F0E0E0E0936D
:100EF200D002E091C802F091C9026091CA027091D9
:100F0200CB020E94C514E091CC02F091CD02609117
:100F1200CE027091CF020E94CE140895A091EB02EE
:100F2200A330E9F0E091C202E87021F0E0919B0366
:100F3200E87079F0E091C202E07151F0E0919B0318
:100F4200E07131F40E946B14E535A0E0FA0709F470
:100F520005C0A091D902AA3A09F469DF0EC0A09196
:100F6200EB02A33051F4E091C202E87021F0E0916B
:100F72009B03E87009F001C05ADFE091C202E093DE
:100F82009B03089529971A930A93E0E0E7B9E8B919
:100F9200E6E00E94D7140E94E214ED83FE83E7E0AC
:100FA2000E94D7140E94E214EF83F887E0E00E94C7
:100FB200D7140E94E214E987FA87AD81BE81A63177
:100FC200E2E0BE0724F0A736E2E0BE070CF002C062
:100FD200E0E028C0AD81BE81A935E3E0BE0724F080
:100FE200AA3AE3E0BE070CF002C0E1E01BC0AD810B
:100FF200BE81AF38E2E0BE0724F0A03EE2E0BE07C9
:101002000CF002C0E2E00EC0AD81BE81AF3CE3E075
:10101200BE0724F0A032E4E0BE070CF002C0E3E019
:1010220001C0E5E0E0930E03AF81B885A631E2E0AE
:10103200BE0724F0A736E2E0BE070CF002C0E0E0F3
:1010420028C0AF81B885A935E3E0BE0724F0AA3AEB
:10105200E3E0BE070CF002C0E1E01BC0AF81B8853F
:10106200AF38E2E0BE0724F0A03EE2E0BE070CF09B
:1010720002C0E2E00EC0AF81B885AF3CE3E0BE073C
:1010820024F0A032E4E0BE070CF002C0E3E001C0AD
:10109200E5E0E0930F03A985BA85A631E2E0BE0739
:1010A20024F0A736E2E0BE070CF002C0E0E028C060
:1010B200A985BA85A935E3E0BE0724F0AA3AE3E0A0
:1010C200BE070CF002C0E1E01BC0A985BA85AF38AB
:1010D200E2E0BE0724F0A03EE2E0BE070CF002C050
:1010E200E2E00EC0A985BA85AF3CE3E0BE0724F07A
:1010F200A032E4E0BE070CF002C0E3E001C0E5E08C
:10110200E0931003A0910E03A53041F0A0910F03CC
:10111200A53021F0A0911003A53021F4E1E0E09385
:1011220012031AC0E0911003E27011F0E1E001C075
:10113200E0E0E0931303E0910F03EE0FEE0FA091B6
:101142000E03EA0F6E2FE0911003E170A0E1EA9F17
:10115200F001E60FE0931103198108812B9608959F
:10116200E0910203E03041F0E150E0930203E0300D
:1011720011F40E9490141FC0E0910303E03061F06B
:10118200E0910303E150E0930303E0910303E030B5
:1011920011F40E9490140FC0E0910403E03059F062
:1011A200E0910403E150E0930403E0910403E03092
:1011B20011F40E949014E0910503F0910603309718
:1011C20089F0A5E0B3E0ED91FD913197FE93EE93A6
:1011D200E0910503F0910603309721F4E0E0E093FB
:1011E200070325DE0E94E714109731F40E94EC14E5
:1011F200109711F44C9B01C00FC0A0910803A431B9
:1012020050F4E0910803EF5FE0930803A091080314
:10121200A43108F02EDE03C0E0E0E0930803089555
:10122200A091EB02A330B1F10E94F114AA35E2E0E1
:10123200BE0724F4AAEDB2E00E94AA140E94F1149F
:10124200AE34E2E0BE0729F4E091C202E17CE09311
:10125200C2020E94F114A835E2E0BE07D1F4EAEA24
:10126200E093D902A0911303A13019F4EAB5E26028
:1012720002C0EAB5ED7FEABDE0E0E09317030E9409
:10128200121439F4E1E0E0930A03A4E1B0E00E9411
:10129200B41703C0EAEAE093D90208950E947A14CF
:1012A2000E94F614EA17FB0734F4ACEDB2E0ED91BC
:1012B200FD9131960DC00E947A1431970E94F61466
:1012C200AE17BF073CF4ACEDB2E0ED91FD91319762
:1012D200FE93EE93ECEDF2E00E94FB14A091DC028F
:1012E200B091DD02D79794F0A091EB02A03021F4E7
:1012F200E091C202E07421F0A091EB02A33029F444
:10130200E091C202E460E093C2020BC0A091DC0251
:10131200B091DD0216972CF4E091C202EB7FE093CC
:10132200C2020E9475140E94F614EA17FB0734F4F5
:10133200AEEDB2E0ED91FD9131960DC00E947514B3
:1013420031970E94F614AE17BF073CF4AEEDB2E03F
:10135200ED91FD913197FE93EE93EEEDF2E00E9456
:10136200FB14A091DE02B091DF02D79794F0A09116
:10137200EB02A03021F4E091C202E07421F0A091CE
:10138200EB02A33029F4E091C202E260E093C202D0
:101392000BC0A091DE02B091DF0216972CF4E0910F
:1013A200C202ED7FE093C2020895A091EB02A33046
:1013B20009F484C00E9454140E940515EA17FB0721
:1013C20028F4A4EEB2E00E94AA1405C0E0E0E09383
:1013D200E402E093E5020E940A152CF0E091C202B9
:1013E200E860E093C2020E946B14E535A0E0FA07C0
:1013F200C9F522970E945414E883F983A881B98120
:10140200EAE0F0E00E942D17E883F983A9E0B0E05A
:101412000E941017E883F9830E940515AE17BF07D3
:1014220010F44C9B01C006C0A6EEB2E0ED91FD9116
:10143200319605C0A6EEB2E0ED91FD913197FE9393
:10144200EE930E94191514F00E9428150E94E714C9
:101452000E94C5172CF0E091C202EF7EE093C20217
:1014620022962BC0E091BA02F091BB020E940515B0
:10147200AE17BF0790F40E940515E091BA02F091F1
:10148200BB02EA1BFB0B0F01A9E1B0E00E949C1713
:10149200E015F10510F44C9B01C005C0A6EEB2E0C8
:1014A2000E94AA1405C0E0E0E093E602E093E7029E
:1014B2000E94191514F00E94281534C0A091EB0265
:1014C200A33081F50E940515AD3BE2E0BE0728F08E
:1014D200A4EEB2E00E94AA1405C0E0E0E093E402A8
:1014E200E093E5020E940A152CF0E091C202E86046
:1014F200E093C2020E940515A83CE0E0BE0710F48A
:101502004C9B01C005C0A6EEB2E00E94AA1405C021
:10151200E0E0E093E602E093E7020E94191514F07E
:101522000E9428150895E0911203E03039F00E94DC
:101532002E150E9433150E942E15A2C20E946B1412
:10154200E535A0E0FA0709F05DC00E943C150E9453
:1015520046150E944B15A091EB02A33009F451C02D
:10156200A091D902A53521F4E091C202EE7309F0EF
:101572000BC0E1E1F1E060E070E00E943315E1E1CF
:10158200F1E060E070E026C00E94541519F40E9458
:10159200591516C0E091C202E27029F00E945E1550
:1015A2000E9460151FC0E091C202E87019F00E940B
:1015B2006A1518C0E091C202E071A1F00E94701594
:1015C200E093C802F093C9026093CA027093CB02FF
:1015D2000E944615E093CC02F093CD026093CE02B6
:1015E2007093CF02A091EB02A13029F40E943C1526
:1015F2000E94751506C0A091EB02A23011F40E9460
:101602007A1546C2E0911303E03009F0ECC0A091D4
:10161200EB02A33009F490C00E9484140E9480154A
:10162200AE17BF072CF40E943C150E9489156CC0AE
:10163200A091D902A53521F4E091C302E07809F422
:1016420003C00E948E1560C00E9484140E948015FF
:10165200EA17FB071CF40E9494150CF00AC00E94C2
:101662006B14E535A0E0FA0721F00E947F14309751
:1016720009F005C00E943C150E94461545C0A09184
:10168200D902AA3A19F40E949D153EC0A091D9022E
:10169200A53521F4E091C202EE7309F005C00E9463
:1016A2003C150E94461530C00E94541529F40E9430
:1016B2005E150E94461528C0E091C202E27029F030
:1016C2000E945E150E94601527C0E091C202E87078
:1016D20019F00E946A1520C0E091C202E07129F05F
:1016E2000E94A0150E94601517C0A091D902A535CD
:1016F20021F4E091C202E07209F40EC00E943C158E
:10170200E3E0F0E063E070E0E093CC02F093CD021E
:101712006093CE027093CF02A091EB02A13029F424
:101722000E943C150E94751506C0A091EB02A230E2
:1017320011F40E947A1556C0A091EB02A33009F071
:1017420051C00E9484140E948015AE17BF072CF46A
:101752000E943C150E9489153DC00E9484140E947B
:101762008015EA17FB071CF40E94A2150CF003C0B7
:101772000E943C152BC0E091C202EE7119F40E9446
:101782003C1524C00E94541519F40E94591516C024
:10179200E091C202E27029F00E945E150E9460157B
:1017A20021C0E091C202E87019F00E946A151AC0C5
:1017B200E091C202E071B1F00E947015E093C8029C
:1017C200F093C9026093CA027093CB02EFEFFFEF6E
:1017D2006FEF7FEFE093CC02F093CD026093CE02E5
:1017E2007093CF0255C1A0911303A13009F050C1EB
:1017F200A091EB02A33009F4F5C00E9484140E9468
:101802008015AE17BF072CF40E943C150E94891563
:10181200D1C0A091D902A53521F4E091C302E078AC
:1018220009F403C00E948E15C5C00E9484140E9450
:101832008015EA17FB071CF40E9494150CF00AC0ED
:101842000E946B14E535A0E0FA0721F00E947F1494
:10185200309709F005C00E943C150E944615AAC0A7
:10186200A091D902AA3A09F067C0E091C202EE71D2
:10187200A9F40E943C15EAB5E1FF05C0E5EFFFEFD0
:101882006FEF7FEF02C00E944615E093CC02F09307
:10189200CD026093CE027093CF024DC00E945415C8
:1018A200A9F40E945E15EAB5E1FF05C0E5EFFFEF7E
:1018B2006FEF7FEF02C00E944615E093CC02F093D7
:1018C200CD026093CE027093CF0235C0E091C20286
:1018D200E27059F00E945E15EAB5E1FF03C00E9472
:1018E200AB1502C00E94601526C0E091C202E870EA
:1018F20079F0E9E0F0E069E070E00E943315EAB5C2
:10190200E1FF03C00E94AB1502C00E94601513C024
:10191200E091C202E07159F00E94A015EAB5E1FF20
:1019220003C00E94AB1502C00E94601504C00E9451
:101932009D150E944B1546C0A091D902A53521F4F0
:10194200E091C202EE7309F005C00E943C150E94AC
:10195200461530C00E94541529F40E945E150E945B
:10196200461528C0E091C202E27029F00E945E157D
:101972000E94601527C0E091C202E87019F00E942F
:101982006A1520C0E091C202E07129F00E94A01500
:101992000E94601517C0A091D902A53521F4E091EB
:1019A200C202E07209F40EC00E943C15E3E0F0E0CE
:1019B20063E070E0E093CC02F093CD026093CE023C
:1019C2007093CF02A091EB02A13029F40E943C1542
:1019D2000E94751506C0A091EB02A23011F40E947C
:1019E2007A1556C0A091EB02A33009F051C00E94B3
:1019F20084140E948015AE17BF072CF40E943C1578
:101A02000E9489153DC00E9484140E948015EA1725
:101A1200FB071CF40E94A2150CF003C00E943C15A7
:101A22002BC0E091C202EE7119F40E943C1524C051
:101A32000E94541519F40E94591516C0E091C20271
:101A4200E27029F00E945E150E94601521C0E091AB
:101A5200C202E87019F00E946A151AC0E091C2022F
:101A6200E071B1F00E947015E093C802F093C902D0
:101A72006093CA027093CB02EFEFFFEF6FEF7FEF3D
:101A8200E093CC02F093CD026093CE027093CF022A
:101A9200089524970E94D31700E911E020E931E06C
:101AA20040E951E00E9454140E94E316A0EABCE807
:101AB20080E090E00E94B015A091B802B091B90206
:101AC20088279927EE81FF81688579850E94B01564
:101AD2000E947F14E130A0E0FA0781F4A5E2B0E0B1
:101AE2000E949C17A091B802B091B9020E941A17E5
:101AF20066277727EE83FF83688779870E94B71569
:101B0200AB30E0E0BE07E0E08E07E0E09E071CF0AD
:101B120008EE13E016C00E94B715A130E0E0BE0740
:101B2200E0E08E07E0E09E071CF400E911E009C046
:101B3200EE81FF81ACE3B0E00E941017E057FE4F48
:101B42008F01EDB7FEB73197FA93EA931F930F9384
:101B52000E94BC150F911F91E091C002F091C10249
:101B62000E94E316EE83FF83688779870E947A14C6
:101B72000E94E316EE51F040604070400E94B7159B
:101B82000E94C9171CF020E931E01CC00E947A149F
:101B92000E94B7150E94E3160E94CE171CF028EE91
:101BA20033E010C00E947A147E97AE81BF810E94FA
:101BB2009517EA1BFB0BA4E1B0E00E941017E05757
:101BC200FE4F9F01EDB7FEB73197FA93EA933F9329
:101BD2002F930E94BC152F913F91A8010217130762
:101BE2000CF4A9010E94C415A417B5074CF4E091A6
:101BF2001403F09115033A96E0931403F09315033E
:101C02000E94C4154A175B074CF4E0911403F0914B
:101C120015033A97E0931403F0931503E4E1F3E01C
:101C2200FA93EA930E94BC15E0911603E03029F082
:101C3200E0E0E0931403E09315030E94DA172A967A
:101C420008951A93E0911603E03021F4A8E1B3E07D
:101C52000E94AA14A0911803B0911903A131EEE0D9
:101C6200BE0780F00E94C915E036AAEEFA0728F4F2
:101C72000E94C91531960E94AC17E0E0E093180368
:101C8200E09319030E94C915EF70F070E0931A03F4
:101C92000E94C915E07FF0700E94DA16F0E0E0645D
:101CA200E0931B030E94C915E070FF70EF2FF0E074
:101CB200F0E0E068E0931C030E94C915E070F07F39
:101CC2000E94DA16EF2FF0E0F0E0E06CE0931D03E3
:101CD200E0911A03EF701E2FE0911B03EF701E2795
:101CE200E0911C03EF701E27E0911D03EF701E2789
:101CF200E12FE370E295E07FA0911A03EA2BE093D3
:101D02001A03EBE1F3E00F01A081E12FEC70EE0F7B
:101D1200EE0FEA2BD001EC93ECE1F3E00F01A0818E
:101D2200E12FE073EA2BD001EC93EDE1F3E00F0138
:101D3200A081E12FE07CE695E695EA2BD001EC93B9
:101D4200E0911E03EF5FE0931E03A0911E03A430F7
:101D520018F0E0E0E0931E03C8C01A93EAB5E1FF71
:101D6200C4C00E94CE153A970E94D31530F40E9447
:101D7200DA1535960E94DF1525C00E94CE153197DF
:101D82000E94D31530F4AFE1B3E0ED91FD913196AD
:101D920017C00E94CE153A960E94E41530F40E94B4
:101DA200DA153A970E94DF150DC00E94CE153196C2
:101DB2000E94E41538F4AFE1B3E0ED91FD91319763
:101DC200FE93EE93A0911F03B0912003AD3FE3E099
:101DD200BE0724F0ECEFF3E00E94DF15A091200390
:101DE200AA232AF4E0E0E0931F03E0932003E0E05B
:101DF200E0934203E0934303E093410310E0163083
:101E020008F50E94EB15E081E030B1F00E94F01578
:101E1200A0914203B0914303EA0FFB1FE0934203F8
:101E2200F09343030E94EB15A1E0A083E0914103EC
:101E3200EF5FE093410304C00E94EB15A0E0A08392
:101E42001F5FDDCFE0914103A0914203B0914303B4
:101E5200F0E00E942D17E0933F03F093400310E05F
:101E6200163008F042C00E94EB15E081E030D9F153
:101E72000E94F015DF01E0913F03F09140033A9791
:101E8200AE17BF0724F40E94FB1531960EC00E94C4
:101E9200F015DF01E0913F03F09140033A96EA1713
:101EA200FB072CF40E94FB153197FE93EE930E94E0
:101EB20006160E947D17E536A0E0FA0734F00E946C
:101EC2000616E4E6F0E0ED93FC930E9406160E94EB
:101ED2007D17EC39AFEFFA0734F40E940616ECE9ED
:101EE200FFEFED93FC931F5FBBCF199108950E9402
:101EF2006B14E535A0E0FA07F1F4E091C202EA7151
:101F020081F40E94B0140E940F160E94141628F445
:101F12000E94281610F00E943916F798EAB5EE7F53
:101F220008C0E091C202EA7029F00E944016EAB5A8
:101F3200E160EABDE5C0A091EB02A330B9F4E09103
:101F4200C202EA7061F4E4EFF1E00E944B1628F459
:101F52000E94281610F00E943916F79806C0E091E8
:101F6200C202EA7011F00E944016CAC0A091EB02B0
:101F7200A23091F4E0E0E093E002E093E1020E94FB
:101F82005416AC3FE3E0BE0728F40E94281610F076
:101F92000E943916F798B4C0A091EB02A13061F407
:101FA200EFEFF3E00E944B1628F40E94281610F07F
:101FB2000E943916F798A4C0EAB5E1FF04C0A091C7
:101FC200D902A53509F00EC00E94DA150E944B16FF
:101FD20028F40E94281610F00E943916EAB5EE7F06
:101FE200EABD8EC0A091D902AA3A29F50E947F14B7
:101FF200309719F00E9440161DC0E091C202EA71AA
:1020020081F40E94B0140E940F160E94141628F444
:102012000E94281610F00E943916F798EAB5EE7F52
:1020220008C0E091C202EA7129F00E944016EAB5A6
:10203200E160EABD65C0A091D902A53509F060C092
:10204200E091C202E07209F055C0E091C202EE7165
:10205200E43001F50E9459163097A9F40E946216E5
:102062000E945416AE17BF0738F4A0914A03B091EC
:102072004B030E94671602C00E946216E093E202BE
:10208200F093E30206C00E946216E093E202F0932C
:10209200E302F798E091C202EA7121F0E091C202F4
:1020A200E07409F10E9459163097A9F40E946F1644
:1020B2000E945416AE17BF0738F4A091C602B09121
:1020C200C7020E94671602C00E946F16E093E202E6
:1020D200F093E30206C00E946F16E093E202F093CF
:1020E200E302F79806C0E091C202EA7111F00E9481
:1020F200401606C0E091C202E07211F00E94401642
:102102000895549AA091EC02B091ED02AC3DE5E045
:10211200BE0724F4ACEEB2E00E94AA14A091EC0235
:10212200B091ED02599724F40E947F14309709F47C
:1021320003C05C9AE1E062C00E947F14309761F0B4
:10214200F79B03C05C9AE1E004C0F79904C05C9875
:10215200E0E0E093160354C00E9484140E948015AC
:10216200AE17BF0724F4A0911303A13009F403C0F2
:102172005C9AE1E043C0A0911303A13071F4EAB587
:10218200E0FF03C05C9AE1E005C0EAB5E0FD04C0EF
:102192005C98E0E0E093160333C00E9484140E942E
:1021A2008015EA17FB071CF40E94A2150CF01DC053
:1021B200A0911303A130A1F0E0911303E030A1F448
:1021C2000E947F14309761F0E091C202E07219F030
:1021D2005C9AE1E002C05C98E0E0E093160304C080
:1021E2005C98E0E0E09316030BC0F79B03C05C9A97
:1021F200E1E004C0F79904C05C98E0E0E0931603C4
:10220200E0EEF2E00E947416E2EEF2E00E94741632
:102212000E946B14E535A0E0FA0789F00E947F1452
:10222200309741F40E9484143A960E948015AE17AA
:10223200BF070CF004C0EAE0F0E00E940F16E09144
:10224200E102E0938900E091E002E0938800E091EE
:10225200E302E0938B00E091E202E0938A000E94A5
:10226200C415E4E0F0E00E942D17E093B400089555
:10227200269A279A2E9A2F9A1E9B0AC0A091E902AB
:10228200AA3028F4E091E902EF5FE093E90209C085
:102292001E9907C0E091E902E03019F0E150E093A5
:1022A200E9021F9B0AC0A091EA02AA3028F4E09139
:1022B200EA02EF5FE093EA0209C01F9907C0E091CA
:1022C200EA02E03019F0E150E093EA02A091E9025B
:1022D200AA3021F4A091EA02AA3009F003C0E0E09A
:1022E200E093EB02A091E902A03021F4A091EA026E
:1022F200AA3009F003C0E1E0E093EB02A091E90209
:10230200AA3021F4A091EA02A03009F003C0E2E071
:10231200E093EB02A091E902A03021F4A091EA023D
:10232200A03009F003C0E3E0E093EB0208951A93B2
:102332000A9300917800109179000E947E16DF01C5
:10234200E091B602F0E0EE0FFF1FEA0FFB1F0083E1
:102352001183E091B602E37099F521970E948816E5
:10236200AE0FBF1FE0E0F0E0ED93FC93E883A8819D
:10237200A031D8F40E948816EA0FFB1FBF0100802B
:1023820011800E947E16DF01E881F0E0EE0FFF1F50
:10239200AE0FBF1F0E947D17E00DF11DDB01ED9313
:1023A200FC93E881EF5FE883E2CF0E948816AE0FCC
:1023B200BF1FED91FD910E94DA16FE93EE932196D6
:1023C200A091B702AF5FA093B702A53060F0E0E042
:1023D200E093B702A091B602AF5FA093B602A0311C
:1023E20010F0E093B602E7B1E07CE7B9E8B1E07C37
:1023F200E8B9E091B702E03011F4E1E017C0A09132
:10240200B702A13011F4E4E011C0A091B702A230EA
:1024120011F4E2E00BC0A091B702A33011F4E3E0A3
:1024220005C0A091B702A43019F4E5E0E0937C0066
:10243200E6EAE0937A00E0917A00E064E0937A00C1
:1024420009911991089524970E9420140E949016D0
:10245200A0E0B0E00E949C170E9495160E94BB1655
:102462000E948B17AB81AA2312F40E949A160E9433
:102472002A140E9495160E949E16E0E6F9E060E09A
:1024820070E00E94A516E093B802F093B902E091C1
:10249200AE02F091AF020E949016AB81AA2312F411
:1024A2000E949A160E944A140E9495160E949E1635
:1024B2000E94AC16E093BC02F093BD02E091B00220
:1024C200F091B1020E949016AB81AA2312F40E94ED
:1024D2009A160E9445140E9495160E949E160E940A
:1024E200AC16E093BA02F093BB02E091B202F09113
:1024F200B3020E9490160E944F140E9495160E94E9
:102502009E16EEE2F5E060E070E00E94A516E15151
:10251200F140E093C002F093C102E091C202F0E008
:10252200E093BE02F093BF02249608950A921A9293
:10253200FA926A937A938A939A93AA93BA93EA93B2
:10254200FA93EFB7EA930E948E060E94F901B394C0
:10255200EAE0BE16E8F0BB2473947E1610F07724EE
:10256200F39A8394E3E08E1610F08824F29A63942F
:10257200E4E16E1638F06624F49AF69B02C0F698EF
:1025820001C0F69A9394E4E69E1610F09924F59A07
:10259200E991EFBFF991E991B991A9919991899145
:1025A20079916991F9901990099018952A9A229A2D
:1025B200E4B1E663E4B9E3EAE0938000E9E0E093A2
:1025C2008100E0E0E0938500E0938400E0938700DF
:1025D200E0938600E0938900E0938800E0938B000B
:1025E200E0938A00219A229AE093B600E3E2E09314
:1025F200B000E1E0E093B100E0E0E093B200E093EC
:10260200B300E0E3E093B400539AEDE5ECBDE0E003
:10261200EDBD0E94C3070E948E06E0E0E093DA025D
:10262200E093DB020E946B14E535A0E0FA0719F093
:10263200E5E5E093D902E0E0E093EC02E093ED02FD
:10264200A0E1B0E00E949C17E093EE02F093EF024B
:10265200A091EE02B091EF025A9744F4A091EE02DB
:10266200B091EF02A73EEFEFBE072CF4E0E0E0935B
:10267200EE02E093EF02A2E1B0E00E94A017E03088
:1026820010F0E43028F0A2E1B0E0E3E00E94B417D9
:1026920078940E947801509A0E944016E091760345
:1026A200E03029F0E0E0E09376030E946B02F29BB7
:1026B20002C0F2983CDEF39B0CC0F398C4DE0E9489
:1026C20048070E94110913DCD3DD0E948F070E9484
:1026D2001A06F49B05C0F49814DD0E94940AD9D915
:1026E200F59B2DC0F5980E944F090E94D6090E94C1
:1026F200D706A091F402B091F502A83EE3E0BE072E
:1027020024F4A4EFB2E00E94AA14A091D902AA3A3A
:1027120021F0A091EB02A33011F40E94B108E091E4
:102722000D03EF5FE0930D03A0910D03AA3028F093
:10273200E0E0E0930D030E9478010FDB82DAA895B6
:10274200ADCFFFCFAA93E881EEBDEDB5E7FFFDCF98
:10275200EEB521960895E4B1EC62E4B92498209A8A
:10276200289808950E94A313A9810C94A313E091C1
:102772009703F0E0EA0FFB1F0895AAE0B0E00C9483
:10278200B116EA93AFEF0C94ED00EA93A0EC0C942F
:10279200ED00EA93A0E00C94ED00EA93A1E30C941F
:1027A200ED00E0911103A0914E03EA170895A09164
:1027B2004F03E0911103EA170895A0915303B0E08B
:1027C200E0E0F1E00E94E8160895B0E0E0E0F1E018
:1027D2000E94E81608950E942F01E0911103EA93E6
:1027E200EBEDEA93E091C002EA93E0911E03F0E080
:1027F200E65EFC4FE081EA93E091C202EA93E09147
:10280200EE02EA930895EA93E0E0EA93EA930895E8
:10281200E0E0E093DA02E093DB02E5E5E093D9023F
:102822000895A4E1B0E00E94A017E0300895A9E95C
:10283200B3E0ED91FD913196FE93EE930895E09110
:10284200AC02F091AD020895E0915103EF70E230D5
:102852000895A2E0B0E00E949C170895E091510310
:10286200EF70E3300895E0915103EF70E430089582
:10287200E0915103EF70E5300895FA93EA93E8ECA2
:10288200F0E0FA93EA930895A6E0B0E00E949C1764
:102892000895AAE0B0E00E949C170895AEE0B0E06F
:1028A2000E949C170895A7E1B0E00E949C1708952A
:1028B200A09152038ACFA0915103B0E0EA0FFB1F0F
:1028C2000895A091540381CFA0915303B0E0EA0F81
:1028D200FB1F0895A1E2B0E00E949C170895E0E07A
:1028E200F0E00E94AC170895ABE1B0E00E949C17A3
:1028F2000895ADE1B0E00E949C170895A3E2B0E014
:102902000E949C170895A5E1B0E00E949C170895CB
:10291200DF01E0915503F0E0EA17FB070895E0912B
:10292200C202E17EE093C202E0E0E093DC02E093C7
:10293200DD02E093DE02E093DF02E093E402E09343
:10294200E502E093E602E093E702EEE1E093D002D3
:102952000895ED91FD913196FE93EE930895AFE1C6
:10296200B0E00E949C170895EA93E0911703A1E258
:10297200B3E0F0E0EE0FFF1FAE0FBF1F0895E0912E
:10298200EE02F091EF020895E093D102F093D202A9
:102992006093D3027093D4020895E093D502F0932A
:1029A200D6026093D7027093D8020895E0937C0018
:1029B200E6EAE0937A00E0917A00E064E0937A003C
:1029C200DCCEE0917800F09179000895A091E602C2
:1029D200B091E7020895A091E402B091E502089552
:1029E200A091DA02B091DB020895A091C002B091E9
:1029F200C1020895FA93EA93E0E0F0E0FA93EA93D1
:102A0200ACE3B0E00C949806A091BC02B091BD0278
:102A12000895E4EEF2E0FA93EA93E0E0F0E0FA934C
:102A2200EA93AAE0B0E00E949806D5DF1A970895CB
:102A3200E6EEF2E0FA93EA93E0E0F0E0FA93EA934A
:102A4200AAE0B0E00E949806C1DF1A970895E091CB
:102A5200C202E061E093C2020895E5E5F5E565E5AD
:102A620075E50895E093C802F093C9026093CA0223
:102A72007093CB020895E0E0E093C802E093C902AC
:102A8200E093CA02E093CB020895EFEFFFEF6FEFFE
:102A92007FEF0895E093CC02F093CD026093CE02D3
:102AA2007093CF020895E091C202EE73E43008956C
:102AB200E1E0F0E061E070E00895FADFD3CFE0E01A
:102AC200E093CC02E093CD02E093CE02E093CF02FA
:102AD2000895E9E0F0E069E070E0C4DFF0CFE9E4F6
:102AE200F0E069E470E00895E3E3F3E363E373E3A2
:102AF200D1CFECECFCEC6CEC7CECB4DFE0CFA5E0ED
:102B0200B0E00E941017A091EC02B091ED0208957E
:102B1200E3E0F3E063E073E00895E5E5F5E565E001
:102B220070E0A0DFB2CFEC59FF4FA091EC02B09160
:102B3200ED02AE17BF07089590DF94DFA6CFCFDF77
:102B420091CFEA5BFF4FA091EC02B091ED02AE177C
:102B5200BF070895E5E0F0E060E070E09BCF0E94DF
:102B62005717EE83FF83688779870895AE81BF8107
:102B7200888599850895E0E9F1E0FA93EA93A8EE51
:102B8200B3E00C949806A0911403B0911503089534
:102B9200A7E2B0E00E949C170895A9E2B0E00E946B
:102BA2009C170895A091BA02B091BB02AE17BF075D
:102BB2000895E0911F03F09120030895E0931F030D
:102BC200F09320030895A091BA02B091BB02EA17D4
:102BD200FB070895E12FF0E0E75CFC4F0895E12F39
:102BE200ADE2B3E0F0E0EE0FFF1FAE0FBF1F0E9499
:102BF2007D170895E12FA1E2B3E0F0E0EE0FFF1F91
:102C0200AE0FBF1FED91FD910895E12FA1E2B3E058
:102C1200F0E0EE0FFF1FAE0FBF1F0895E093E0023A
:102C2200F093E1020895E0EEF2E0FA93EA93E0E035
:102C3200F0E0FA93EA93ACEFB3E00E949806A09119
:102C4200E202B091E302AC3FE3E0BE070895E091F7
:102C5200E202F091E3027E96E093E202F093E30255
:102C6200A091E202B091E302AD3FE3E0BE07089516
:102C7200ECEFF3E0E093E202F093E3020895E0E088
:102C8200E093E002E093E102E093E202E093E302E8
:102C9200F79A0895C3DFA091E202B091E302AC3F3C
:102CA200E3E0BE070895A091E202B091E302089525
:102CB20066DEA091C402B091C502EA0FFB1FAEDF2F
:102CC2001DCEE0914A03F0914B030895EEE1F0E04E
:102CD2000E941A17E8DFEA0FFB1F0895E091C6026F
:102CE200F091C7020895FA93EA93E1E0F0E0FA93D3
:102CF200EA93ACEFB3E00C949806E091B702F0E0EF
:102D0200EE0FFF1F0E94CC16E45FFD4F0895E09185
:102D1200B702ACEAB2E0F0E0EE0FFF1F08956627BB
:102D220077270E94861708950E9481170E94E31652
:102D32000895E0E00E94901708950E9415170E94DE
:102D420086170E94811708950E9457170E948617BE
:102D5200E881F9810895E8EEF3E060E070E0F4CFF5
:102D6200109639F080ED97E00197F1F7A895119749
:102D7200C9F70895AE1BBF0B860B970B0895F1950B
:102D8200E195F0400895F09560957095E195FF4FBB
:102D92006F4F7F4F0895EE0FFF1FEE0FFF1FEE0FD5
:102DA200FF1FEE0FFF1F089575956795F795E7953D
:102DB2000895F695E795F695E795F695E795F695D4
:102DC200E79508956F2F660F660B762F0895FA9F89
:102DD200F02DEB9FF00DEA9FE02DF10D08957A9F03
:102DE200702D6B9F700DF89F700DE99F700D6A9F9B
:102DF200602D710DFB9F600D711DE89F600D711DAF
:102E02008827FA9FF02D610D781FEB9FF00D611D51
:102E1200781FEA9FE02DF10D681F781F08954BD0AF
:102E2200D6DF0EF4ACDF089554D0D9DF0EF4ABDF59
:102E320008950024112490E1AA0FBB1F001C111C4D
:102E42000E1A1F0A18F40E0E1F1E01C0A1609A95D9
:102E520099F7FD01D00108952ED0EBDF0EF48FDF3C
:102E620008953F934F935F930024112444275527DD
:102E720030E2AA0FBB1F881F991F001C111C441FA0
:102E8200551F0E1A1F0A460B570B28F40E0E1F1E53
:102E9200461F571F01C0A1603A9559F7FD01BC01B9
:102EA200D001CA015F914F913F91089512D0D9DFAD
:102EB2000EF469DF0895E894F7FF02C060DF6894BA
:102EC200B7FF06C0A095B095119600F8039400FADA
:102ED2000895E89477FF02C056DF689497FF0BC00D
:102EE2000024A095B095809590951196801D901D17
:102EF20000F8039400FA0895ED91FC91119708955A
:102F0200A881B9818A819B810895E883F9836A83C4
:102F12007B830895A883B9838A839B830895E8837A
:102F2200E983EA83EB8308951B2EBF2FF12D1A2E1E
:102F3200AE2FE12D0895119602D0FE2F1197F99927
:102F4200FECFFF93FFB7F894A1BDB2BDF89AE0B5EA
:102F5200FFBFFF91089507D01196EF93EF2F03D093
:102F6200EF9111970895F99B02C0A895FCCF9FB7E6
:102F7200F894A1BDB2BDF89A80B5E81719F0E0BD8A
:102F8200FA9AF99A9FBF089500240A160B0608952B
:102F9200EA17FB07680779070895AE17BF07860788
:102FA200970708955A934A933A932A931A930A9346
:102FB20008955D814C813B812A81198108810895A0
:00000001FF
