:080000000C9488000C94000030
:100008000C9400000C9400000C9400000C94000068
:100018000C9400000C9400000C9400000C94000058
:100028000C9400000C9400000C9400000C94000048
:100038000C9400000C9400000C94B3120C94000073
:100048000C9400000C9400000C9400000C94000028
:100058000C9400000C9400000C9400000C94000018
:100068001027E80364000A000100001000011000D6
:100078000100000048007D00B100D900FE001E010B
:100088003E015A0174019001AB01C501DE01F60180
:100098000D02030303031E0032003200BC027B0082
:1000A800150009001000E8070300190001002D4E93
:1000B800414E00494E4600000400CD029A0001005E
:1000C800D1029E000100E102A0000100E302A200AB
:1000D80002002003A40001009A03A6000100000208
:1000E800A80001000202AA0001000402AC000200FC
:1000F8000602AE0001000802B00001000A02B200C8
:1001080001009D03B4000000F894EE27EFBBF1E076
:10011800F5BFE5BFF8E1A895A4B7A77FA4BFF09302
:100128006000E09360008DE0A2E0BB27ED938A9524
:10013800E9F780E094E0A0E0B1E0ED930197E9F7FA
:10014800E0ECF0E085919591009761F0A591B5916B
:1001580005901590BF01F00105900D920197E1F708
:10016800FB01F0CFE0E0EEBBEABDEBBDEFEFEDBF8A
:10017800E4E0EEBFC0E0D2E00C94F312F8940E94E1
:10018800C813289A78940895AA931A93F8940E9409
:10019800C8138BE18A95F1F7A3E00E94CF13A5E578
:1001A8000E94BF131E2F289A7894E12F1881229657
:1001B8000895AA93F8940E94C813A5E00E94BF135B
:1001C800AA810E94CF13A8810E94BF13289A78940D
:1001D8000FC0AA931A93F8940E94C813A2E00E9431
:1001E800BF13AA810E94CF13289A7894E12F18810F
:1001F800239608951A93F8940E94C81300000000EB
:10020800000000000000000000000000A0EA0E94BA
:10021800BF13A5E50E94BF131E2F289A7894E12FDB
:10022800E2C0AA93F8940E94C813E881E03011F460
:10023800E1E809C0A881A13011F4E2E804C0A8816E
:10024800A23011F4E4E8E883A8810E94BF13289A39
:10025800789421960895AA93A0919803A03010F05D
:10026800A43018F0E0E0E0939803E0919803F0E000
:10027800E858FC4FAF81A083ACE7B3E00E94D413E9
:10028800AE81A083A0E8B3E00E94D413AD81A0831F
:10029800A4E8B3E00E94D413AC81A083A8E8B3E03B
:1002A8000E94D413AB81A083ACE8B3E00E94D413BE
:1002B800AA81A083A0E9B3E00E94D413A981A083F6
:1002C800A4E9B3E00E94D413A881A083E091980325
:1002D800EF5FE0939803A0919803A43018F0E0E052
:1002E800E0939803289608951A930E94C200AEE0FE
:1002F8000E94C8001E2FE07EE03831F0EFE0EA935C
:10030800E0EEEA93A0E855DF8BE18A95F1F7EAE29F
:10031800EA93A3EC5EDFE9E2EA93AEEF5ADFE8E2A4
:10032800EA93A3E056DFE0E6EA93A0E252DFE0E7D3
:10033800EA93A0E24EDF0E94DA13E0E20E94DE13A5
:10034800E1E20E94DE13E0E00E94DE13E1E00E9499
:10035800DE13E4E00E94DE13E5E00E94DE13E4E22F
:100368000E94DE13E5E2EA93A0EE33DFE8E0EA93C9
:10037800A3E12FDFE9E00E94E213E0E10E94E61327
:10038800E1E10E94E613E4E10E94E613E5E10E9440
:10039800E613E8E10E94E613E9E10E94E613E1E5CD
:1003A8000E94EA13E2E50E94E213E1E40E94EA13E4
:1003B800E2E40E94E213E1E30E94EA13E2E30E940E
:1003C800E213EFE0EA93E7EEEA93A5E00E94DD008E
:1003D800EBE2EA93A6E0FDDEA4E6B0E00E94CC16CC
:1003E800ECE00E94E613199108950E94F017F89422
:1003F80001DFE0934D03A0914E03EA2BE0934E03F7
:10040800E0914D03E270E9F000E0083078F4E02F65
:10041800F0E0E15BFC4FFF93EF93A02FAA580E94F6
:10042800C800AF91BF91EC930F5FEFCFECE2EA9376
:10043800E2E0EA93A0E00E94DD00E1E0E0937703C8
:1004480041C0E0914D03E475E9F52197ECE2EA93A8
:10045800ECE1EA93A0E00E94DD00E0919803A0910E
:100468009903EA1771F1E0E0E883A881A830B0F4B5
:10047800E881EA5CEA93E981A8E7B3E0F0E00E944A
:10048800EB16AE0FBF1FE0919903F0E0AE0FBF1F50
:10049800AC919FDEE881EF5FE883E7CFE5E3EA937D
:1004A800A8E00E94ED00A0E0BCDEE0919903EF5FB8
:1004B800E0939903A0919903A43018F0E0E0E09349
:1004C8009903219678940E94F717249608950E941C
:1004D800EE17A0914F03A130E1F4A0915003A23090
:1004E800C1F4A0915103A330A1F4A0915203A43008
:1004F80081F4A0915303A53061F4A0915403A63070
:1005080041F4A0915503A73021F4A0915603A830D7
:1005180009F010C0E1E0EA93E2E0EA93E3E0EA934D
:10052800E4E0EA93E5E0EA93E6E0EA93E7E0EA93B9
:10053800A8E091DE0E94EE1381F40E94F41369F49E
:10054800A0915103AD3E41F0A0915103AB3E21F083
:10055800A0915103AC3E09F401C00FC1E0E0E09363
:100568000E03E0915203E093C402E170B9F0A09148
:10057800E902A43078F4E091E902EF5FE093E90240
:10058800A091E902A43028F0E091C302E062E09370
:10059800C30203C0E4E0E093E9021DC0E091E90270
:1005A800E030B1F0E150E093E902A091E902A03017
:1005B80071F4E091C302EF7DE093C302A2E1B0E0E1
:1005C8000E94BB17A5E0EA9FF001E0930D0303C06A
:1005D800E0E0E093E902E091C402E27021F0E091EA
:1005E800C302E06403C0E091C302EF7BE093C3025F
:1005F8000E94FA13A0915303B0E0EA0FFB1FE093A7
:10060800C502F093C602A09156030E940214A0915D
:100618005503B0E0EA0FFB1FE093C702F093C8024E
:10062800F091C302E0E0A091C402B0E0EA0FFB1F22
:10063800E0939A03F0939B03A091C302EAE0EA9F38
:10064800F001E093F902F093FA02E0911203EA93C1
:10065800EAEDEA93E091B802EA93E091B902EA93ED
:10066800E091BA02EA93E091BB02EA93E091BC02FE
:10067800EA93A091BD020E940814E091C2020E9470
:100688001014E091FB02EA93A091FC02E4DDA09132
:100698005103AD3E59F4E0911203EA93ECED0E9448
:1006A8001F14E0E00E941F14A0E0D5DDA0915103C3
:1006B800AB3EB9F4E0911203EA93EDEDEA93E091D1
:1006C8000102EA93E0910002EA93E0910302EA93BF
:1006D800E0910202EA93E0910502EA93A0910402F4
:1006E800BADDA0915103AC3EB9F4E0911203EA934C
:1006F800E5EDEA93E0910702EA93E0910602EA93B6
:10070800E0910902EA93E0910802EA93E0910B0272
:10071800EA93A0910A029FDD0E942414E091C4028A
:10072800E07889F0A3E1B0E00E94BB17E03051F413
:10073800A3E1B0E0E1E00E94CF17E0930A03E0E014
:10074800E0930C0311C0A091F502B091F602559701
:100758005CF0A3E1B0E00E94BB17E03029F0A3E110
:10076800B0E0E0E00E94CF170E942D1429F0A4E128
:10077800B0E0E0E00E94CF1757C20E94EE1369F480
:100788000E94F41351F4A0915103AE3E31F4A091AC
:100798005203E0915303EA1709F0D4C00E943314BE
:1007A800E0915203E07FE032B1F5E0915203EF703F
:1007B800E13039F40E943B14A0E0B0E00E94C71772
:1007C80023C00E94401431F40E94451431960E94BF
:1007D800C7171AC00E944A1421F40E9445143A9679
:1007E8000FC00E944F1431F40E94451431970E94A3
:1007F800C7170AC00E94541439F40E9445143A9746
:10080800A2E0B0E00E94C717E2E0F0E00E945914AD
:10081800A8E8B3E18BC0E0915203E07FE03121F515
:100828000E94401431F40E94601431960E94C71748
:100838001AC00E944A1421F40E9460143A960FC00C
:100848000E944F1431F40E94601431970E94C71718
:100858000AC00E94541439F40E9460143A97A6E022
:10086800B0E00E94C71763C0E0915203E07F81F5B2
:10087800E0915203EF70E13039F4A8E0B0E00E9453
:100888003B140E94C71723C00E94401431F40E94F1
:10089800651431960E94C7171AC00E944A1421F4A1
:1008A8000E9465143A960FC00E944F1431F40E94BA
:1008B800651431970E94C7170AC00E94541439F46E
:1008C8000E9465143A97AAE0B0E00E94C7172FC0AB
:1008D800E0915203E07FE03351F50E94401431F477
:1008E8000E946A1431960E94C7171AC00E944A14BF
:1008F80021F40E946A143A960FC00E944F1431F4F2
:100908000E946A1431970E94C7170AC00E945414A3
:1009180039F40E946A143A97AEE0B0E00E94C71713
:10092800EEE0F0E00E945914A8EEB3E024D20E9451
:1009380024140E942D1429F0A4E1B0E0E0E00E9404
:10094800CF1772C1A0914F03AF3F41F4A09150035C
:10095800AF3F21F4A0915103A23609F046C00E948E
:100968006F14BF010E9474140E947714E617F707EA
:1009780041F00E9474140E947714A7E1B0E00E942D
:10098800C717A9E1B0E00E94B717BF010E947D1404
:100998000E948014E617F70741F00E947D140E9418
:1009A8008014A9E1B0E00E94C717E0915603EF70E8
:1009B800E53069F40E948614E535A0E0FA0731F0C5
:1009C800A1E2B0E0E5E5F0E00E94C7170DC0E091B4
:1009D8005603EF70EA3041F40E948614309721F0F4
:1009E800A1E2B0E00E948B141FC1A0914F03AF3F5A
:1009F80069F4A0915003AF3F49F4A0915103A63286
:100A080021F0A0915103A93209F401C067C00E94E6
:100A18009014BF010E9474140E947714E617F70718
:100A280041F00E9474140E947714ABE1B0E00E9478
:100A3800C7170E949514BF010E94FA130E948014E0
:100A4800E617F70741F00E947D140E948014ADE17B
:100A5800B0E00E94C717A0915103A632A1F40E94EA
:100A68009A14309721F0A3E2B0E00E948B140E9400
:100A78009F140E94A41439F0E0915603F0E0A5E118
:100A8800B0E00E94C717A0915103A93231F50E9426
:100A98009A14E130A0E0FA0731F0A3E2B0E0E1E017
:100AA800F0E00E94C717A5E2B0E00E94B7170E94C5
:100AB800A41439F0E0915603F0E0A5E2B0E00E94FA
:100AC800C7170E949F14E330A0E0FA0731F0A5E1B0
:100AD800B0E0E3E0F0E00E94C717A6C00E94EE1362
:100AE80059F40E94F41341F4A0915103A63121F462
:100AF800A0915203A33609F003C00E94AB1494C01E
:100B08000E94EE1359F40E94F41341F4A09151038A
:100B1800A63121F4A0915203A43609F005C0A7E23A
:100B2800B0E00E948B1480C0A0914F03AF3F61F4E6
:100B3800A0915003AF3F41F4A0915103A63121F495
:100B4800A0915203A63109F039C0A0915303A535ED
:100B580021F4A0915403A53509F005C0AFEEB2E029
:100B68000E94C5141FC0A0915303A63621F4A0917A
:100B78005403A63609F008C0AFEEB2E0ED91FD913E
:100B88003197FE93EE930EC0A0915303A73721F43B
:100B9800A0915403A73709F005C0E0E0E093EF0205
:100BA800E093F002EFEEF2E0FA93EA93E7EEFFEF5C
:100BB800FA93EA93A9E1B0E0BFD036C00E94EE13E1
:100BC80089F40E94F41371F4A0915103A63151F4F1
:100BD800A0915203E0915303EA1721F4A091520324
:100BE800AE3E09F021C00E9433144091E1025091B9
:100BF800E202FA01AFE1B0E00E94C717A4E6B0E054
:100C08000E94CC160E94CB144E175F0769F4E0913E
:100C18001203EA93E1E9EA93EDEDEA930E941F14C7
:100C2800E0E0EA93A0E017DBE0E0E09377030E94BE
:100C3800F517BFC0EAB5E1FF74C0A0911803AF5F14
:100C4800A0931803A73018F0E0E0E0931803A091F0
:100C58001803A630C0F5E0911803EA93EA93EDEE85
:100C6800EA93E0E00E94D014EC91A0912003EA0FEF
:100C78000E94D0140E949817A0912003B0912103DC
:100C8800AE0FBF1FE0E0F1E00E944817EA93E8EEDC
:100C9800EA93A8EEE0DAA0911803B0E0AB5BBC4F92
:100CA800EC91EF5FEC93E0911803F0E0EB5BFC4F05
:100CB800A081AB3038F0E0911803F0E0E65CFC4F1F
:100CC800A0E0A0832EC0A0911803A63051F5E091B2
:100CD800E102F091E202E093FB02F093FC02E09162
:100CE8001203EA93EAEDEA93E091B902EA93E091FC
:100CF800B802EA93E091BB02EA93E091BA02EA9360
:100D0800E091BD02EA93A091BC020E940814E09110
:100D1800C0020E941014E091FC02EA93A091FB0229
:100D28009ADA0895E0E0E4BDE5E0E5BDE8EFE6BD68
:100D3800E1E0E0936E000895BA93AA93AC81BD8177
:100D48000E949817DF01EA81FB81AE17BF0724F4E0
:100D5800AC81BD81ED93FC93AC81BD810E94981755
:100D6800DF01E881F981EA17FB0724F4AC81BD8132
:100D7800ED93FC931EC0BA93AA93AC81BD810E94E7
:100D8800B717DF01EA81FB81AE17BF0724F4AC81F6
:100D9800BD810E94C717AC81BD810E94B717DF01D2
:100DA800E881F981EA17FB0724F4AC81BD810E9430
:100DB800C717269608950E94DB14A091F102B091FE
:100DC800F202EA17FB0709F5A091F302B091F402C9
:100DD800DC97D4F4A3EFB2E00E94C514A091F3020B
:100DE800B091F402DC9784F0A0E1B0E00E94B7175C
:100DF800DF010E94DB14EA17FB0731F00E94DB14C5
:100E0800A0E1B0E00E94C71705C0E0E0E093F3025C
:100E1800E093F402A091F302B091F402DD972CF074
:100E2800E0E0E093F302E093F4020E94DB14E09325
:100E3800F102F093F2020895A0910303A03061F447
:100E4800A0910403A03041F4A0910503A03021F43F
:100E5800E0910803E03009F010C0ECE3E0930303ED
:100E6800E0930403E0930503E0E1FEE0E09306036A
:100E7800F0930703E1E0E09308030895E0E0E093CE
:100E88000303E0930403E0930503E0930603E09370
:100E98000703E09308030895509AE091D202E170A5
:100EA80011F0589A01C05898519AE091D602E17011
:100EB80011F0599A01C05998E091D202F091D302E9
:100EC8006091D4027091D5020E94F0160E94E0143D
:100ED800E091D602F091D7026091D8027091D902C0
:100EE8000E94F0160E94E914A091D102AF5FA0936E
:100EF800D102A132B8F0E0E0E093D102E091C9025A
:100F0800F091CA026091CB027091CC020E94E01469
:100F1800E091CD02F091CE026091CF027091D002A3
:100F28000E94E9140895A091EC02A330E9F0E09141
:100F3800C302E87021F0E0919C03E87079F0E09139
:100F4800C302E07151F0E0919C03E07131F40E941A
:100F58008614E535A0E0FA0709F405C0A091DA0285
:100F6800AA3A09F469DF0EC0A091EC02A33051F44B
:100F7800E091C302E87021F0E0919C03E87009F069
:100F880001C05ADFE091C302E0939C0308952997BA
:100F98001A930A93E0E0E7B9E8B9E6E00E94F21490
:100FA8000E94FD14ED83FE83E7E00E94F2140E9484
:100FB800FD14EF83F887E0E00E94F2140E94FD140C
:100FC800E987FA87AD81BE81A631E2E0BE0724F049
:100FD800A736E2E0BE070CF002C0E0E028C0AD8111
:100FE800BE81A935E3E0BE0724F0AA3AE3E0BE07D4
:100FF8000CF002C0E1E01BC0AD81BE81AF38E2E079
:10100800BE0724F0A03EE2E0BE070CF002C0E2E01A
:101018000EC0AD81BE81AF3CE3E0BE0724F0A03234
:10102800E4E0BE070CF002C0E3E001C0E5E0E093B5
:101038000F03AF81B885A631E2E0BE0724F0A736DA
:10104800E2E0BE070CF002C0E0E028C0AF81B8853E
:10105800A935E3E0BE0724F0AA3AE3E0BE070CF0A6
:1010680002C0E1E01BC0AF81B885AF38E2E0BE073F
:1010780024F0A03EE2E0BE070CF002C0E2E00EC0A1
:10108800AF81B885AF3CE3E0BE0724F0A032E4E0CE
:10109800BE070CF002C0E3E001C0E5E0E0931003F6
:1010A800A985BA85A631E2E0BE0724F0A736E2E0BA
:1010B800BE070CF002C0E0E028C0A985BA85A935B2
:1010C800E3E0BE0724F0AA3AE3E0BE070CF002C052
:1010D800E1E01BC0A985BA85AF38E2E0BE0724F07D
:1010E800A03EE2E0BE070CF002C0E2E00EC0A98517
:1010F800BA85AF3CE3E0BE0724F0A032E4E0BE07C7
:101108000CF002C0E3E001C0E5E0E0931103A09118
:101118000F03A53041F0A0911003A53021F0A09154
:101128001103A53021F4E1E0E09313031AC0E09124
:101138001103E27011F0E1E001C0E0E0E093140374
:10114800E0911003EE0FEE0FA0910F03EA0F6E2F40
:10115800E0911103E170A0E1EA9FF001E60FE0934E
:101168001203198108812B960895E0910303E0305A
:1011780041F0E150E0930303E03011F40E94AB1416
:101188001FC0E0910403E03061F0E0910403E150F6
:10119800E0930403E0910403E03011F40E94AB14DF
:1011A8000FC0E0910503E03059F0E0910503E150EC
:1011B800E0930503E0910503E03011F40E94AB14BD
:1011C800E0910603F0910703309789F0A6E0B3E0B9
:1011D800ED91FD913197FE93EE93E0910603F09126
:1011E8000703309721F4E0E0E093080325DE0E942E
:1011F8000215109731F40E940715109711F44C9BB3
:1012080001C00FC0A0910903A43150F4E091090373
:10121800EF5FE0930903A0910903A43108F02EDEE3
:1012280003C0E0E0E09309030895A091EC02A33025
:10123800B1F10E940C15AA35E2E0BE0724F4ABED2B
:10124800B2E00E94C5140E940C15AE34E2E0BE075D
:1012580029F4E091C302E17CE093C3020E940C15DB
:10126800A835E2E0BE07D1F4EAEAE093DA02A091F9
:101278001403A13019F4EAB5E26002C0EAB5ED7FC3
:10128800EABDE0E0E09318030E942D1439F4E1E090
:10129800E0930B03A4E1B0E00E94CF1703C0EAEA91
:1012A800E093DA0208950E9495140E941115EA1736
:1012B800FB0734F4ADEDB2E0ED91FD9131960DC030
:1012C8000E94951431970E941115AE17BF073CF480
:1012D800ADEDB2E0ED91FD913197FE93EE93EDED1A
:1012E800F2E00E941615A091DD02B091DE02D797B8
:1012F80094F0A091EC02A03021F4E091C302E074D4
:1013080021F0A091EC02A33029F4E091C302E4603B
:10131800E093C3020BC0A091DD02B091DE021697E4
:101328002CF4E091C302EB7FE093C3020E94901477
:101338000E941115EA17FB0734F4AFEDB2E0ED9106
:10134800FD9131960DC00E94901431970E9411159D
:10135800AE17BF073CF4AFEDB2E0ED91FD913197C8
:10136800FE93EE93EFEDF2E00E941615A091DF02D6
:10137800B091E002D79794F0A091EC02A03021F44C
:10138800E091C302E07421F0A091EC02A33029F4AB
:10139800E091C302E260E093C3020BC0A091DF02B8
:1013A800B091E00216972CF4E091C302ED7FE09330
:1013B800C3020895A091EC02A33009F484C00E94EE
:1013C8006F140E942015EA17FB0728F4A5EEB2E077
:1013D8000E94C51405C0E0E0E093E502E093E60250
:1013E8000E9425152CF0E091C302E860E093C30247
:1013F8000E948614E535A0E0FA07C9F522970E94F5
:101408006F14E883F983A881B981E4E1F0E00E94D0
:101418004817E883F983ADE0B0E00E942B17E88312
:10142800F9830E942015AE17BF0710F44C9B01C02A
:1014380006C0A7EEB2E0ED91FD91319605C0A7EE8A
:10144800B2E0ED91FD913197FE93EE930E94341531
:1014580014F00E9443150E9402150E94E0172CF018
:10146800E091C302EF7EE093C30222962BC0E09185
:10147800BA02F091BB020E942015AE17BF0790F484
:101488000E942015E091BA02F091BB02EA1BFB0B07
:101498000F01A9E1B0E00E94B717E015F10510F4BB
:1014A8004C9B01C005C0A7EEB2E00E94C51405C060
:1014B800E0E0E093E702E093E8020E94341514F0BC
:1014C8000E94431534C0A091EC02A33081F50E941C
:1014D8002015AD3BE2E0BE0728F0A5EEB2E00E9481
:1014E800C51405C0E0E0E093E502E093E6020E943F
:1014F80025152CF0E091C302E860E093C3020E9436
:101508002015A83CE0E0BE0710F44C9B01C005C0C4
:10151800A7EEB2E00E94C51405C0E0E0E093E70240
:10152800E093E8020E94341514F00E9443150895D0
:10153800E0911303E03039F00E9449150E944E15DE
:101548000E944915A2C20E948614E535A0E0FA0758
:1015580009F05DC00E9457150E9461150E9466152A
:10156800A091EC02A33009F451C0A091DA02A5358C
:1015780021F4E091C302EE7309F00BC0E1E1F1E060
:1015880060E070E00E944E15E1E1F1E060E070E09B
:1015980026C00E946F1519F40E94741516C0E091B8
:1015A800C302E27029F00E9479150E947B151FC0C2
:1015B800E091C302E87019F00E94851518C0E09107
:1015C800C302E071A1F00E948B15E093C902F09369
:1015D800CA026093CB027093CC020E946115E0931B
:1015E800CD02F093CE026093CF027093D002A09107
:1015F800EC02A13029F40E9457150E94901506C0EC
:10160800A091EC02A23011F40E94951546C2E09117
:101618001403E03009F0ECC0A091EC02A33009F407
:1016280090C00E949F140E949B15AE17BF072CF410
:101638000E9457150E94A4156CC0A091DA02A53526
:1016480021F4E091C402E07809F403C00E94A915CE
:1016580060C00E949F140E949B15EA17FB071CF4A8
:101668000E94AF150CF00AC00E948614E535A0E070
:10167800FA0721F00E949A14309709F005C00E94D9
:1016880057150E94611545C0A091DA02AA3A19F4CB
:101698000E94B8153EC0A091DA02A53521F4E09168
:1016A800C302EE7309F005C00E9457150E94611528
:1016B80030C00E946F1529F40E9479150E946115A7
:1016C80028C0E091C302E27029F00E9479150E94B7
:1016D8007B1527C0E091C302E87019F00E948515B8
:1016E80020C0E091C302E07129F00E94BB150E945E
:1016F8007B1517C0A091DA02A53521F4E091C30249
:10170800E07209F40EC00E945715E3E0F0E063E0D0
:1017180070E0E093CD02F093CE026093CF02709315
:10172800D002A091EC02A13029F40E9457150E9422
:10173800901506C0A091EC02A23011F40E949515F4
:1017480056C0A091EC02A33009F051C00E949F142A
:101758000E949B15AE17BF072CF40E9457150E94D4
:10176800A4153DC00E949F140E949B15EA17FB0711
:101778001CF40E94BD150CF003C00E9457152BC025
:10178800E091C302EE7119F40E94571524C00E941B
:101798006F1519F40E94741516C0E091C302E27027
:1017A80029F00E9479150E947B1521C0E091C3029F
:1017B800E87019F00E9485151AC0E091C302E07123
:1017C800B1F00E948B15E093C902F093CA026093AE
:1017D800CB027093CC02EFEFFFEF6FEF7FEFE09358
:1017E800CD02F093CE026093CF027093D00255C120
:1017F800A0911403A13009F050C1A091EC02A330CC
:1018080009F4F5C00E949F140E949B15AE17BF07EC
:101818002CF40E9457150E94A415D1C0A091DA0299
:10182800A53521F4E091C402E07809F403C00E94D0
:10183800A915C5C00E949F140E949B15EA17FB07B3
:101848001CF40E94AF150CF00AC00E948614E535FE
:10185800A0E0FA0721F00E949A14309709F005C019
:101868000E9457150E946115AAC0A091DA02AA3AEF
:1018780009F067C0E091C302EE71A9F40E94571500
:10188800EAB5E1FF05C0E5EFFFEF6FEF7FEF02C0BC
:101898000E946115E093CD02F093CE026093CF02CF
:1018A8007093D0024DC00E946F15A9F40E9479155B
:1018B800EAB5E1FF05C0E5EFFFEF6FEF7FEF02C08C
:1018C8000E946115E093CD02F093CE026093CF029F
:1018D8007093D00235C0E091C302E27059F00E94C3
:1018E8007915EAB5E1FF03C00E94C61502C00E943F
:1018F8007B1526C0E091C302E87079F0E9E0F0E0DA
:1019080069E070E00E944E15EAB5E1FF03C00E944D
:10191800C61502C00E947B1513C0E091C302E07196
:1019280059F00E94BB15EAB5E1FF03C00E94C61535
:1019380002C00E947B1504C00E94B8150E9466155B
:1019480046C0A091DA02A53521F4E091C302EE73F6
:1019580009F005C00E9457150E94611530C00E9409
:101968006F1529F40E9479150E94611528C0E0912D
:10197800C302E27029F00E9479150E947B1527C0E6
:10198800E091C302E87019F00E94851520C0E0912B
:10199800C302E07129F00E94BB150E947B1517C095
:1019A800A091DA02A53521F4E091C302E07209F4AE
:1019B8000EC00E945715E3E0F0E063E070E0E093AA
:1019C800CD02F093CE026093CF027093D002A09123
:1019D800EC02A13029F40E9457150E94901506C008
:1019E800A091EC02A23011F40E94951556C0A09166
:1019F800EC02A33009F051C00E949F140E949B156D
:101A0800AE17BF072CF40E9457150E94A4153DC0BD
:101A18000E949F140E949B15EA17FB071CF40E9462
:101A2800BD150CF003C00E9457152BC0E091C302EE
:101A3800EE7119F40E94571524C00E946F1519F40D
:101A48000E94741516C0E091C302E27029F00E944A
:101A580079150E947B1521C0E091C302E87019F046
:101A68000E9485151AC0E091C302E071B1F00E948E
:101A78008B15E093C902F093CA026093CB0270936E
:101A8800CC02EFEFFFEF6FEF7FEFE093CD02F09323
:101A9800CE026093CF027093D002089524970E94DB
:101AA800EE1700E911E020E931E040E951E00E9439
:101AB8006F140E94FE16A0EABCE880E090E00E9445
:101AC800CB15A091B802B091B90288279927EE8169
:101AD800FF81688579850E94CB150E949A14E130B0
:101AE800A0E0FA0781F4A5E2B0E00E94B717A09140
:101AF800B802B091B9020E94351766277727EE839E
:101B0800FF83688779870E94D215AB30E0E0BE0773
:101B1800E0E08E07E0E09E071CF008EE13E016C038
:101B28000E94D215A130E0E0BE07E0E08E07E0E0B9
:101B38009E071CF400E911E009C0EE81FF81ACE3C7
:101B4800B0E00E942B17E057FE4F8F01EDB7FEB7AC
:101B58003197FA93EA931F930F930E94D7150F9129
:101B68001F91E091C002F091C1020E94FE16EE831F
:101B7800FF83688779870E9495140E94FE16EE51AC
:101B8800F040604070400E94D2150E94E4171CF09B
:101B980020E931E01CC00E9495140E94D2150E94D1
:101BA800FE160E94E9171CF028EE33E010C00E94D0
:101BB80095147E97AE81BF810E94B017EA1BFB0B7C
:101BC800A4E1B0E00E942B17E057FE4F9F01EDB74C
:101BD800FEB73197FA93EA933F932F930E94D71554
:101BE8002F913F91A801021713070CF4A9010E9435
:101BF800DF15A417B5074CF4E0911503F09116030F
:101C08003A96E0931503F09316030E94DF154A17DE
:101C18005B074CF4E0911503F09116033A97E093B3
:101C28001503F0931603E5E1F3E0FA93EA930E94B3
:101C3800D715E0911703E03029F0E0E0E0931503B1
:101C4800E09316030E94F5172A9608951A93E091D7
:101C58001703E03021F4A9E1B3E00E94C514A09174
:101C68001903B0911A03A131EEE0BE0780F00E947B
:101C7800E415E036AAEEFA0728F40E94E415319636
:101C88000E94C717E0E0E0931903E0931A030E944B
:101C9800E415EF70F070E0931B030E94E415E07FF9
:101CA800F0700E94F516F0E0E064E0931C030E94D7
:101CB800E415E070FF70EF2FF0E0F0E0E068E093EB
:101CC8001D030E94E415E070F07F0E94F516EF2FC7
:101CD800F0E0F0E0E06CE0931E03E0911B03EF708E
:101CE8001E2FE0911C03EF701E27E0911D03EF707B
:101CF8001E27E0911E03EF701E27E12FE370E29587
:101D0800E07FA0911B03EA2BE0931B03ECE1F3E0D7
:101D18000F01A081E12FEC70EE0FEE0FEA2BD0013E
:101D2800EC93EDE1F3E00F01A081E12FE073EA2BE2
:101D3800D001EC93EEE1F3E00F01A081E12FE07C0C
:101D4800E695E695EA2BD001EC93E0911F03EF5F4F
:101D5800E0931F03A0911F03A43018F0E0E0E09384
:101D68001F03C8C01A93EAB5E1FFC4C00E94E91571
:101D78003A970E94EE1530F40E94F51535960E94A8
:101D8800FA1525C00E94E91531970E94EE1530F426
:101D9800A0E2B3E0ED91FD91319617C00E94E915DC
:101DA8003A960E94FF1530F40E94F5153A970E9462
:101DB800FA150DC00E94E91531960E94FF1538F4F6
:101DC800A0E2B3E0ED91FD913197FE93EE93A091DF
:101DD8002003B0912103AD3FE3E0BE0724F0ECEF10
:101DE800F3E00E94FA15A0912103AA232AF4E0E067
:101DF800E0932003E0932103E0E0E0934303E093C2
:101E08004403E093420310E0163008F50E940616DA
:101E1800E081E030B1F00E940B16A0914303B0912D
:101E28004403EA0FFB1FE0934303F09344030E942B
:101E38000616A1E0A083E0914203EF5FE09342031E
:101E480004C00E940616A0E0A0831F5FDDCFE091CA
:101E58004203A0914303B0914403F0E00E94481765
:101E6800E0934003F093410310E0163008F042C0BD
:101E78000E940616E081E030D9F10E940B16DF01BE
:101E8800E0914003F09141033A97AE17BF0724F45D
:101E98000E94161631960EC00E940B16DF01E091C3
:101EA8004003F09141033A96EA17FB072CF40E948D
:101EB80016163197FE93EE930E9421160E949817EA
:101EC800E536A0E0FA0734F00E942116E4E6F0E0D7
:101ED800ED93FC930E9421160E949817EC39AFEFFE
:101EE800FA0734F40E942116ECE9FFEFED93FC9316
:101EF8001F5FBBCF199108950E948614E535A0E0B5
:101F0800FA07F1F4E091C302EA7181F40E94CB145C
:101F18000E942A160E942F1628F40E94431610F0D9
:101F28000E945416F798EAB5EE7F08C0E091C30204
:101F3800EA7029F00E945B16EAB5E160EABDE5C0E7
:101F4800A091EC02A330B9F4E091C302EA7061F405
:101F5800E4EFF1E00E94661628F40E94431610F0A0
:101F68000E945416F79806C0E091C302EA7011F077
:101F78000E945B16CAC0A091EC02A23091F4E0E086
:101F8800E093E102E093E2020E946F16AC3FE3E0C7
:101F9800BE0728F40E94431610F00E945416F798C2
:101FA800B4C0A091EC02A13061F4EFEFF3E00E941D
:101FB800661628F40E94431610F00E945416F798EB
:101FC800A4C0EAB5E1FF04C0A091DA02A53509F082
:101FD8000EC00E94F5150E94661628F40E9443164A
:101FE80010F00E945416EAB5EE7FEABD8EC0A091AB
:101FF800DA02AA3A29F50E949A14309719F00E9439
:102008005B161DC0E091C302EA7181F40E94CB14F3
:102018000E942A160E942F1628F40E94431610F0D8
:102028000E945416F798EAB5EE7F08C0E091C30203
:10203800EA7129F00E945B16EAB5E160EABD65C065
:10204800A091DA02A53509F060C0E091C302E07200
:1020580009F055C0E091C302EE71E43001F50E9429
:1020680074163097A9F40E947D160E946F16AE1759
:10207800BF0738F4A0914B03B0914C030E9482161D
:1020880002C00E947D16E093E302F093E40206C0CA
:102098000E947D16E093E302F093E402F798E09142
:1020A800C302EA7121F0E091C302E07409F10E94D1
:1020B80074163097A9F40E948A160E946F16AE17FC
:1020C800BF0738F4A091C702B091C8020E948216D7
:1020D80002C00E948A16E093E302F093E40206C06D
:1020E8000E948A16E093E302F093E402F79806C090
:1020F800E091C302EA7111F00E945B1606C0E091FC
:10210800C302E07211F00E945B160895549AA091E0
:10211800ED02B091EE02AC3DE5E0BE0724F4ADEE71
:10212800B2E00E94C514A091ED02B091EE02599759
:1021380024F40E949A14309709F403C05C9AE1E0F1
:1021480062C00E949A14309761F0F79B03C05C9AB2
:10215800E1E004C0F79904C05C98E0E0E09317035D
:1021680054C00E949F140E949B15AE17BF0724F409
:10217800A0911403A13009F403C05C9AE1E043C0C4
:10218800A0911403A13071F4EAB5E0FF03C05C9A92
:10219800E1E005C0EAB5E0FD04C05C98E0E0E0934A
:1021A800170333C00E949F140E949B15EA17FB0770
:1021B8001CF40E94BD150CF01DC0A0911403A130A1
:1021C800A1F0E0911403E030A1F40E949A14309732
:1021D80061F0E091C302E07219F05C9AE1E002C09C
:1021E8005C98E0E0E093170304C05C98E0E0E093BB
:1021F80017030BC0F79B03C05C9AE1E004C0F79992
:1022080004C05C98E0E0E0931703E1EEF2E00E947E
:102218008F16E3EEF2E00E948F160E948614E535D1
:10222800A0E0FA0789F00E949A14309741F40E94BE
:102238009F143A960E949B15AE17BF070CF004C076
:10224800EAE0F0E00E942A16E091E202E0938900B9
:10225800E091E102E0938800E091E402E0938B00D2
:10226800E091E302E0938A000E94DF15E4E0F0E0E9
:102278000E944817E093B4000895269A279A2E9A48
:102288002F9A1E9B0AC0A091EA02AA3028F4E09176
:10229800EA02EF5FE093EA0209C01E9907C0E091E5
:1022A800EA02E03019F0E150E093EA021F9B0AC00D
:1022B800A091EB02AA3028F4E091EB02EF5FE093E3
:1022C800EB0209C01F9907C0E091EB02E03019F05A
:1022D800E150E093EB02A091EA02AA3021F4A09128
:1022E800EB02AA3009F003C0E0E0E093EC02A09111
:1022F800EA02A03021F4A091EB02AA3009F003C051
:10230800E1E0E093EC02A091EA02AA3021F4A09166
:10231800EB02A03009F003C0E2E0E093EC02A091E8
:10232800EA02A03021F4A091EB02A03009F003C02A
:10233800E3E0E093EC0208951A930A930091780081
:10234800109179000E949916DF01E091B602F0E041
:10235800EE0FFF1FEA0FFB1F00831183E091B60207
:10236800E37099F521970E94A316AE0FBF1FE0E016
:10237800F0E0ED93FC93E883A881A031D8F40E94A3
:10238800A316EA0FFB1FBF01008011800E94991657
:10239800DF01E881F0E0EE0FFF1FAE0FBF1F0E94C4
:1023A8009817E00DF11DDB01ED93FC93E881EF5FD9
:1023B800E883E2CF0E94A316AE0FBF1FED91FD91F7
:1023C8000E94F516FE93EE932196A091B702AF5F97
:1023D800A093B702A53060F0E0E0E093B702A091C7
:1023E800B602AF5FA093B602A03110F0E093B60238
:1023F800E7B1E07CE7B9E8B1E07CE8B9E091B70281
:10240800E03011F4E1E017C0A091B702A13011F457
:10241800E4E011C0A091B702A23011F4E2E00BC0D1
:10242800A091B702A33011F4E3E005C0A091B70270
:10243800A43019F4E5E0E0937C00E6EAE0937A0042
:10244800E0917A00E064E0937A0009911991089587
:1024580024970E943B140E94AB16A0E0B0E00E94B3
:10246800B7170E94B0160E94D6160E94A617AB8115
:10247800AA2312F40E94B5160E9445140E94B016B1
:102488000E94B916E0E6F9E060E070E00E94C0162C
:10249800E093B802F093B902E091AE02F091AF0276
:1024A8000E94AB16AB81AA2312F40E94B5160E94B3
:1024B80065140E94B0160E94B9160E94C716E093D0
:1024C800BC02F093BD02E091B002F091B1020E940B
:1024D800AB16AB81AA2312F40E94B5160E946014B1
:1024E8000E94B0160E94B9160E94C716E093BA025D
:1024F800F093BB02E091B202F091B3020E94AB16D6
:102508000E946A140E94B0160E94B916EEE2F5E025
:1025180060E070E00E94C016E151F140E093C00213
:10252800F093C1020E941115A338EFEFBE0714F40F
:10253800E3E80AC00E941115AE37E0E0BE0714F0C8
:10254800EDE702C0E091C002E093C202E091C3024D
:10255800F0E0E093BE02F093BF02249608950A9239
:102568001A92FA926A937A938A939A93AA93BA934D
:10257800EA93FA93EFB7EA930E9496060E94F9014C
:10258800B394EAE0BE16E8F0BB2473947E1610F00C
:102598007724F39A8394E3E08E1610F08824F29A55
:1025A8006394E4E16E1638F06624F49AF69B02C050
:1025B800F69801C0F69A9394E4E69E1610F09924D2
:1025C800F59AE991EFBFF991E991B991A99199919A
:1025D800899179916991F9901990099018952A9A99
:1025E800229AE4B1E663E4B9E3EAE0938000E9E023
:1025F800E0938100E0E0E0938500E0938400E093BD
:102608008700E0938600E0938900E0938800E093D8
:102618008B00E0938A00219A229AE093B600E3E2C5
:10262800E093B000E1E0E093B100E0E0E093B200B5
:10263800E093B300E0E3E093B400539AEDE5ECBD1A
:10264800E0E0EDBD0E94CB070E949606E0E0E09333
:10265800DB02E093DC020E948614E535A0E0FA076D
:1026680019F0E5E5E093DA02E0E0E093ED02E093AB
:10267800EE02A0E1B0E00E94B717E093EF02F093FA
:10268800F002A091EF02B091F0025A9744F4A091A1
:10269800EF02B091F002A73EEFEFBE072CF4E0E0A6
:1026A800E093EF02E093F002A2E1B0E00E94BB17D2
:1026B800E03010F0E43028F0A2E1B0E0E3E00E945E
:1026C800CF1778940E947801509A0E945B16E09187
:1026D8007703E03029F0E0E0E09377030E946B0293
:1026E800F29B02C0F29828DEF39B0CC0F398B0DE90
:1026F8000E9450070E941909FFDBBFDD0E9497075F
:102708000E941E06F49B05C0F49800DD0E949C0AF6
:10271800C5D9F59B2DC0F5980E9457090E94DE097E
:102728000E94DF06A091F502B091F602A83EE3E010
:10273800BE0724F4A5EFB2E00E94C514A091DA0206
:10274800AA3A21F0A091EC02A33011F40E94B90832
:10275800E0910E03EF5FE0930E03A0910E03AA3001
:1027680028F0E0E0E0930E030E947801FBDA6EDACD
:10277800A895ADCFFFCFAA93E881EEBDEDB5E7FFF1
:10278800FDCFEEB521960895E4B1EC62E4B9249842
:10279800209A289808950E94BF13A9810C94BF130A
:1027A800E0919803F0E0EA0FFB1F0895AAE0B0E07B
:1027B8000C94CC16EA93AFEF0C94ED00EA93A0ECDE
:1027C8000C94ED00EA93A0E00C94ED00EA93A1E3E9
:1027D8000C94ED00E0911203A0914F03EA170895BD
:1027E800A0915003E0911203EA170895A0915403B1
:1027F800B0E0E0E0F1E00E9403170895B0E0E0E007
:10280800F1E00E94031708950E942F01E09112033E
:10281800EA93EBEDEA930895EA93E0911F03F0E061
:10282800E55EFC4FE081EA93E091C302EA93E09110
:10283800EF02EA930895EA93E0E0EA93EA930895B1
:10284800E0E0E093DB02E093DC02E5E5E093DA0206
:102858000895A4E1B0E00E94BB17E0300895AAE90A
:10286800B3E0ED91FD913196FE93EE930895E091DA
:10287800AC02F091AD020895E0915203EF70E2309E
:102888000895A2E0B0E00E94B7170895E0915203BE
:10289800EF70E3300895E0915203EF70E43008954B
:1028A800E0915203EF70E5300895FA93EA93E8EC6B
:1028B800F0E0FA93EA930895A6E0B0E00E94B71713
:1028C8000895AAE0B0E00E94B7170895AEE0B0E01E
:1028D8000E94B7170895A7E1B0E00E94B7170895BE
:1028E800A09153038BCFA0915203B0E0EA0FFB1FD6
:1028F8000895A091550382CFA0915403B0E0EA0F48
:10290800FB1F0895A1E2B0E00E94B7170895E0E028
:10291800F0E00E94C7170895ABE1B0E00E94B71736
:102928000895ADE1B0E00E94B7170895A3E2B0E0C2
:102938000E94B7170895A5E1B0E00E94B71708955F
:10294800DF01E0915603F0E0EA17FB070895E091F4
:10295800C302E17EE093C302E0E0E093DD02E0938E
:10296800DE02E093DF02E093E002E093E502E09309
:10297800E602E093E702E093E802EEE1E093D10299
:102988000895ED91FD913196FE93EE930895AFE190
:10299800B0E00E94B7170895EA93E0911803A2E205
:1029A800B3E0F0E0EE0FFF1FAE0FBF1F0895E091F8
:1029B800EF02F091F0020895E093D202F093D3026F
:1029C8006093D4027093D5020895E093D602F093F1
:1029D800D7026093D8027093D9020895E0937C00DF
:1029E800E6EAE0937A00E0917A00E064E0937A0006
:1029F800DDCEE0917800F09179000895A091E7028A
:102A0800B091E8020895A091E502B091E602089518
:102A1800A091DB02B091DC020895A091C002B091B0
:102A2800C1020895FA93EA93E0E0F0E0FA93EA939A
:102A3800ACE3B0E00C94A006A091BC02B091BD023A
:102A48000895E5EEF2E0FA93EA93E0E0F0E0FA9315
:102A5800EA93AAE0B0E00E94A006D5DF1A9708958D
:102A6800E7EEF2E0FA93EA93E0E0F0E0FA93EA9313
:102A7800AAE0B0E00E94A006C1DF1A970895E0918D
:102A8800C302E061E093C3020895E5E5F5E565E575
:102A980075E50895E093C902F093CA026093CB02EA
:102AA8007093CC020895E0E0E093C902E093CA0273
:102AB800E093CB02E093CC020895EFEFFFEF6FEFC6
:102AC8007FEF0895E093CD02F093CE026093CF029A
:102AD8007093D0020895E091C302EE73E430089534
:102AE800E1E0F0E061E070E00895FADFD3CFE0E0E4
:102AF800E093CD02E093CE02E093CF02E093D002C0
:102B08000895E9E0F0E069E070E0C4DFF0CFE9E4BF
:102B1800F0E069E470E00895E3E3F3E363E373E36B
:102B2800D1CFECECFCEC6CEC7CECB4DFE0CFA5E0B6
:102B3800B0E00E942B17A091ED02B091EE0208952B
:102B4800E3E0F3E063E073E00895E5E5F5E565E0CB
:102B580070E0A0DFB2CFEC59FF4FA091ED02B09129
:102B6800EE02AE17BF07089590DF94DFA6CFCFDF40
:102B780091CFEA5BFF4FA091ED02B091EE02AE1744
:102B8800BF070895E5E0F0E060E070E09BCF0E94A9
:102B98007217EE83FF83688779870895AE81BF81B6
:102BA800888599850895E0E9F1E0FA93EA93A8EE1B
:102BB800B3E00C94A006A0911503B09116030895F4
:102BC800A7E2B0E00E94B7170895A9E2B0E00E941A
:102BD800B7170895A091BA02B091BB02AE17BF070C
:102BE8000895E0912003F09121030895E0932003D4
:102BF800F09321030895A091BA02B091BB02EA179D
:102C0800FB070895E12FF0E0E65CFC4F0895E12F03
:102C1800AEE2B3E0F0E0EE0FFF1FAE0FBF1F0E9461
:102C280098170895E12FA2E2B3E0F0E0EE0FFF1F3E
:102C3800AE0FBF1FED91FD910895E12FA2E2B3E021
:102C4800F0E0EE0FFF1FAE0FBF1F0895E093E10203
:102C5800F093E2020895E1EEF2E0FA93EA93E0E0FD
:102C6800F0E0FA93EA93ACEFB3E00E94A006A091DB
:102C7800E302B091E402AC3FE3E0BE070895E091BF
:102C8800E302F091E4027E96E093E302F093E4021B
:102C9800A091E302B091E402AD3FE3E0BE070895DE
:102CA800ECEFF3E0E093E302F093E4020895E0E050
:102CB800E093E102E093E202E093E302E093E402AE
:102CC800F79A0895C3DFA091E302B091E402AC3F04
:102CD800E3E0BE070895A091E302B091E4020895ED
:102CE80066DEA091C502B091C602EA0FFB1FAEDFF7
:102CF8001DCEE0914B03F0914C030895EEE1F0E016
:102D08000E943517E8DFEA0FFB1F0895E091C7021C
:102D1800F091C8020895FA93EA93E1E0F0E0FA939B
:102D2800EA93ACEFB3E00C94A006E091B702F0E0B0
:102D3800EE0FFF1F0E94E716E45FFD4F0895E09134
:102D4800B702ACEAB2E0F0E0EE0FFF1F0895662785
:102D580077270E94A11708950E949C170E94FE16CB
:102D68000895E0E00E94AB1708950E9430170E9472
:102D7800A1170E949C1708950E9472170E94A1171C
:102D8800E881F9810895E8EEF3E060E070E0F4CFBF
:102D9800109639F080ED97E00197F1F7A895119713
:102DA800C9F70895AE1BBF0B860B970B0895F195D5
:102DB800E195F0400895F09560957095E195FF4F85
:102DC8006F4F7F4F0895EE0FFF1FEE0FFF1FEE0F9F
:102DD800FF1FEE0FFF1F089575956795F795E79507
:102DE8000895F695E795F695E795F695E795F6959E
:102DF800E79508956F2F660F660B762F0895FA9F53
:102E0800F02DEB9FF00DEA9FE02DF10D08957A9FCC
:102E1800702D6B9F700DF89F700DE99F700D6A9F64
:102E2800602D710DFB9F600D711DE89F600D711D78
:102E38008827FA9FF02D610D781FEB9FF00D611D1B
:102E4800781FEA9FE02DF10D681F781F08954BD079
:102E5800D6DF0EF4ACDF089554D0D9DF0EF4ABDF23
:102E680008950024112490E1AA0FBB1F001C111C17
:102E78000E1A1F0A18F40E0E1F1E01C0A1609A95A3
:102E880099F7FD01D00108952ED0EBDF0EF48FDF06
:102E980008953F934F935F930024112444275527A7
:102EA80030E2AA0FBB1F881F991F001C111C441F6A
:102EB800551F0E1A1F0A460B570B28F40E0E1F1E1D
:102EC800461F571F01C0A1603A9559F7FD01BC0183
:102ED800D001CA015F914F913F91089512D0D9DF77
:102EE8000EF469DF0895E894F7FF02C060DF689484
:102EF800B7FF06C0A095B095119600F8039400FAA4
:102F08000895E89477FF02C056DF689497FF0BC0D6
:102F18000024A095B095809590951196801D901DE0
:102F280000F8039400FA0895ED91FC911197089523
:102F3800A881B9818A819B810895E883F9836A838E
:102F48007B830895A883B9838A839B830895E88344
:102F5800E983EA83EB8308951B2EBF2FF12D1A2EE8
:102F6800AE2FE12D0895119602D0FE2F1197F999F1
:102F7800FECFFF93FFB7F894A1BDB2BDF89AE0B5B4
:102F8800FFBFFF91089507D01196EF93EF2F03D05D
:102F9800EF9111970895F99B02C0A895FCCF9FB7B0
:102FA800F894A1BDB2BDF89A80B5E81719F0E0BD54
:102FB800FA9AF99A9FBF089500240A160B060895F5
:102FC800EA17FB07680779070895AE17BF07860752
:102FD800970708955A934A933A932A931A930A9310
:102FE80008955D814C813B812A811981088108956A
:00000001FF
