:020000000C945E
:1000020088000C9400000C9400000C9400000C94E6
:1000120000000C9400000C9400000C9400000C945E
:1000220000000C9400000C9400000C9400000C944E
:1000320000000C9400000C9400000C9400000C943E
:10004200AF120C9400000C9400000C9400000C946D
:1000520000000C9400000C9400000C9400000C941E
:1000620000000C9400001027E80364000A0001005D
:100072000010000110000100000048007D00B100E6
:10008200D900FE001E013E015A0174019001AB012C
:10009200C501DE01F6010D02030303031E00320057
:1000A2003200BC027B00150009001300E8070700BC
:1000B200020001002D4E414E00494E460000040050
:1000C200CD029A000100D1029E000100E102A000CF
:1000D2000100E302A20002002003A40001009A032F
:1000E200A60001000002A80001000202AA0001000D
:1000F2000402AC0002000602AE0001000802B000D9
:1001020001000A02B20001009D03B4000000F8944D
:10011200EE27EFBBF1E0F5BFE5BFF8E1A895A4B784
:10012200A77FA4BFF0936000E09360008DE0A2E09F
:10013200BB27ED938A95E9F780E094E0A0E0B1E077
:10014200ED930197E9F7E0ECF0E085919591009746
:1001520061F0A591B59105901590BF01F001059050
:100162000D920197E1F7FB01F0CFE0E0EEBBEABDB3
:10017200EBBDEFEFEDBFE4E0EEBFC0E0D2E00C94E8
:10018200EF12F8940E94F113289A78940895AA9392
:100192001A93F8940E94F1138BE18A95F1F7A3E088
:1001A2000E94F813A5E50E94E8131E2F289A78945E
:1001B200E12F188122960895AA93F8940E94F113D0
:1001C200A5E00E94E813AA810E94F813A8810E9468
:1001D200E813289A78940FC0AA931A93F8940E946D
:1001E200F113A2E00E94E813AA810E94F813289A50
:1001F2007894E12F1881239608951A93F8940E9417
:10020200F1130000000000000000000000000000E8
:100212000000A0EA0E94E813A5E50E94E8131E2F41
:10022200289A7894E12FE0C0AA93F8940E94F113DF
:10023200E881E03011F4E1E809C0A881A13011F4AD
:10024200E2E804C0A881A23011F4E4E8E883A881BE
:100252000E94E813289A789421960895AA93A0916F
:100262009803A03010F0A43018F0E0E0E093980377
:10027200E0919803F0E0E858FC4FAF81A083ACE72F
:10028200B3E00E94FD13AE81A083A0E8B3E00E9418
:10029200FD13AD81A083A4E8B3E00E94FD13AC81FD
:1002A200A083A8E8B3E00E94FD13AB81A083ACE871
:1002B200B3E00E94FD13AA81A083A0E9B3E00E94EB
:1002C200FD13A981A083A4E9B3E00E94FD13A881D4
:1002D200A083E0919803EF5FE0939803A0919803C5
:1002E200A43018F0E0E0E0939803289608951A935A
:1002F2000E94C200AEE00E94C8001E2FE07EE038DD
:1003020031F0EFE0EA93E0EEEA93A0E855DF8BE10B
:100312008A95F1F7EAE2EA93A3EC5EDFE9E2EA9377
:10032200AEEF5ADFE8E2EA93A3E056DFE0E6EA93B3
:10033200A0E252DFE0E7EA93A0E24EDF0E9403145C
:10034200E0E20E940714E1E20E940714E0E00E944A
:100352000714E1E00E940714E4E00E940714E5E0BC
:100362000E940714E4E20E940714E5E2EA93A0EE79
:1003720033DFE8E0EA93A3E12FDFE9E00E940B1408
:10038200E0E10E940F14E1E10E940F14E4E10E94F7
:100392000F14E5E10E940F14E8E10E940F14E9E155
:1003A2000E940F14E1E50E941314E2E50E940B146F
:1003B200E1E40E941314E2E40E940B14E1E30E94C0
:1003C2001314E2E30E940B14EFE0EA93E7EEEA93E0
:1003D200A5E00E94DD00EBE2EA93A6E0FDDE0E94CA
:1003E2001714ECE00E940F14199108950E941D1831
:1003F200F89403DFE0934D03A0914E03EA2BE093C0
:100402004E03E0914D03E270E9F000E0083078F429
:10041200E02FF0E0E15BFC4FFF93EF93A02FAA588F
:100422000E94C800AF91BF91EC930F5FEFCFECE257
:10043200EA93E2E0EA93A0E00E94DD00E1E0E093CB
:10044200770341C0E0914D03E475E9F52197ECE2B1
:10045200EA93ECE1EA93A0E00E94DD00E0919803C8
:10046200A0919903EA1771F1E0E0E883A881A8302E
:10047200B0F4E881EA5CEA93E981A8E7B3E0F0E04E
:100482000E941817AE0FBF1FE0919903F0E0AE0F64
:10049200BF1FAC91A1DEE881EF5FE883E7CFE5E320
:1004A200EA93A8E00E94ED00A0E0BEDEE09199038D
:1004B200EF5FE0939903A0919903A43018F0E0E074
:1004C200E0939903219678940E9424182496089523
:1004D2000E941B18A0914F03A130E1F4A091500398
:1004E200A230C1F4A0915103A330A1F4A091520310
:1004F200A43081F4A0915303A53061F4A091540378
:10050200A63041F4A0915503A73021F4A0915603DF
:10051200A83009F010C0E1E0EA93E2E0EA93E3E0F8
:10052200EA93E4E0EA93E5E0EA93E6E0EA93E7E0BF
:10053200EA93A8E093DE0E941B1481F40E94211426
:1005420069F4A0915103AD3E41F0A0915103AB3E3D
:1005520021F0A0915103AC3E09F401C00FC1E0E0CB
:10056200E0930E03E0915203E093C402E170B9F00C
:10057200A091E902A43078F4E091E902EF5FE09300
:10058200E902A091E902A43028F0E091C302E062FE
:10059200E093C30203C0E4E0E093E9021DC0E091EE
:1005A200E902E030B1F0E150E093E902A091E90202
:1005B200A03071F4E091C302EF7DE093C302A2E1A7
:1005C200B0E00E94E817A5E0EA9FF001E0930D0376
:1005D20003C0E0E0E093E902E091C402E27021F09E
:1005E200E091C302E06403C0E091C302EF7BE093B9
:1005F200C3020E942714A0915303B0E0EA0FFB1F2D
:10060200E093C502F093C602A09156030E942F14F4
:10061200A0915503B0E0EA0FFB1FE093C702F093ED
:10062200C802F091C302E0E0A091C402B0E0EA0F78
:10063200FB1FE0939A03F0939B03A091C302EAE0AD
:10064200EA9FF001E093F902F093FA02E0911203BB
:10065200EA93EAEDEA93E091B802EA93E091B902F3
:10066200EA93E091BA02EA93E091BB02EA93E09145
:10067200BC02EA93A091BD020E943514E091C2022D
:100682000E943D14E091FB02EA93A091FC02E6DD98
:10069200A0915103AD3E59F4E0911203EA93ECEDBF
:1006A2000E944C14E0E00E944C14A0E0D7DDA0911F
:1006B2005103AB3EB9F4E0911203EA93EDEDEA93F4
:1006C200E0910102EA93E0910002EA93E0910302D1
:1006D200EA93E0910202EA93E0910502EA93A09183
:1006E2000402BCDDA0915103AC3EB9F4E0911203C7
:1006F200EA93E5EDEA93E0910702EA93E0910602BC
:10070200EA93E0910902EA93E0910802EA93E09108
:100712000B02EA93A0910A02A1DD0E945114E0911A
:10072200C402E07889F0A3E1B0E00E94E817E0306B
:1007320051F4A3E1B0E0E1E00E94FC17E0930A0368
:10074200E0E0E0930C0311C0A091F502B091F60233
:1007520055975CF0A3E1B0E00E94E817E03029F081
:10076200A3E1B0E0E0E00E94FC170E945A1429F0D5
:10077200A4E1B0E0E0E00E94FC1755C20E941B1405
:1007820069F40E94211451F4A0915103AE3E31F458
:10079200A0915203E0915303EA1709F0D4C00E94DA
:1007A2006014E0915203E07FE032B1F5E091520330
:1007B200EF70E13039F40E946814A0E0B0E00E94CA
:1007C200F41723C00E946D1431F40E947214319602
:1007D2000E94F4171AC00E94771421F40E94721426
:1007E2003A960FC00E947C1431F40E947214319721
:1007F2000E94F4170AC00E94811439F40E947214F4
:100802003A97A2E0B0E00E94F417E2E0F0E00E9422
:100812008614A8E5BBE18BC0E0915203E07FE03192
:1008220021F50E946D1431F40E948D1431960E94BC
:10083200F4171AC00E94771421F40E948D143A967C
:100842000FC00E947C1431F40E948D1431970E94D3
:10085200F4170AC00E94811439F40E948D143A9749
:10086200A6E0B0E00E94F41763C0E0915203E07F7B
:1008720081F5E0915203EF70E13039F4A8E0B0E085
:100882000E9468140E94F41723C00E946D1431F470
:100892000E94921431960E94F4171AC00E94771493
:1008A20021F40E9492143A960FC00E947C1431F4F3
:1008B2000E94921431970E94F4170AC00E94811478
:1008C20039F40E9492143A97AAE0B0E00E94F41719
:1008D2002FC0E0915203E07FE03351F50E946D1486
:1008E20031F40E94971431960E94F4171AC00E94A4
:1008F200771421F40E9497143A960FC00E947C1438
:1009020031F40E94971431970E94F4170AC00E9492
:10091200811439F40E9497143A97AEE0B0E00E9435
:10092200F417EEE0F0E00E948614A8EEB3E022D2C3
:100932000E9451140E945A1429F0A4E1B0E0E0E0B0
:100942000E94FC1770C1A0914F03AF3F41F4A091E8
:100952005003AF3F21F4A0915103A23609F046C0E3
:100962000E949C14BF010E94A1140E94A414E617C5
:10097200F70741F00E94A1140E94A414A7E1B0E07D
:100982000E94F417A9E1B0E00E94E417BF010E949F
:10099200AA140E94AD14E617F70741F00E94AA14A8
:1009A2000E94AD14A9E1B0E00E94F417E091560351
:1009B200EF70E53069F40E94B314E535A0E0FA0760
:1009C20031F0A1E2B0E0E5E5F0E00E94F4170DC0DD
:1009D200E0915603EF70EA3041F40E94B31430976D
:1009E20021F0A1E2B0E00E94B8141DC1A0914F0312
:1009F200AF3F69F4A0915003AF3F49F4A091510376
:100A0200A63221F0A0915103A93209F401C067C0B6
:100A12000E94BD14BF010E94A1140E94A414E617F3
:100A2200F70741F00E94A1140E94A414ABE1B0E0C8
:100A32000E94F4170E94C214BF010E9427140E9450
:100A4200AD14E617F70741F00E94AA140E94AD14F4
:100A5200ADE1B0E00E94F417A0915103A632A1F4D7
:100A62000E94C714309721F0A3E2B0E00E94B814AC
:100A72000E94CC140E94D11439F0E0915603F0E0A8
:100A8200A5E1B0E00E94F417A0915103A93231F51B
:100A92000E94C714E130A0E0FA0731F0A3E2B0E00F
:100AA200E1E0F0E00E94F417A5E2B0E00E94E41752
:100AB2000E94D11439F0E0915603F0E0A5E2B0E0D3
:100AC2000E94F4170E94CC14E330A0E0FA0731F040
:100AD200A5E1B0E0E3E0F0E00E94F417A4C00E94B8
:100AE2001B1459F40E94211441F4A0915103A63120
:100AF20021F4A0915203A33609F003C00E94D81436
:100B020092C00E941B1459F40E94211441F4A09136
:100B12005103A63121F4A0915203A43609F005C075
:100B2200A7E2B0E00E94B8147EC0A0914F03AF3F8D
:100B320061F4A0915003AF3F41F4A0915103A6315B
:100B420021F4A0915203A63109F039C0A0915303B8
:100B5200A53521F4A0915403A53509F005C0AFEEE7
:100B6200B2E00E94F2141FC0A0915303A63621F4F2
:100B7200A0915403A63609F008C0AFEEB2E0ED91A1
:100B8200FD913197FE93EE930EC0A0915303A737C8
:100B920021F4A0915403A73709F005C0E0E0E093E7
:100BA200EF02E093F002EFEEF2E0FA93EA93E7EE5F
:100BB200FFEFFA93EA93A9E1B0E0BDD034C00E94FE
:100BC2001B1489F40E94211471F4A0915103A631DF
:100BD20051F4A0915203E0915303EA1721F4A0913A
:100BE2005203AE3E09F01FC00E9460144091E10220
:100BF2005091E202FA01AFE1B0E00E94F4170E94C4
:100C020017140E94F8144E175F0769F4E09112035B
:100C1200EA93E1E9EA93EDEDEA930E944C14E0E0F5
:100C2200EA93A0E01BDBE0E0E09377030E94221846
:100C3200BFC0EAB5E1FF74C0A0911803AF5FA093F3
:100C42001803A73018F0E0E0E0931803A09118030E
:100C5200A630C0F5E0911803EA93EA93EDEEEA9329
:100C6200E0E00E94FD14EC91A0912003EA0F0E94A3
:100C7200FD140E94C517A0912003B0912103AE0F6D
:100C8200BF1FE0E0F1E00E947517EA93E8EEEA93F5
:100C9200A8EEE4DAA0911803B0E0AB5BBC4FEC9194
:100CA200EF5FEC93E0911803F0E0EB5BFC4FA08167
:100CB200AB3038F0E0911803F0E0E65CFC4FA0E0C6
:100CC200A0832EC0A0911803A63051F5E091E10255
:100CD200F091E202E093FB02F093FC02E091120336
:100CE200EA93EAEDEA93E091B902EA93E091B8025D
:100CF200EA93E091BB02EA93E091BA02EA93E091AF
:100D0200BD02EA93A091BC020E943514E091C00298
:100D12000E943D14E091FC02EA93A091FB029EDA4C
:100D22000895E0E0E4BDE5E0E5BDE8EFE6BDE1E021
:100D3200E0936E000895BA93AA93AC81BD810E949C
:100D4200C517DF01EA81FB81AE17BF0724F4AC812E
:100D5200BD81ED93FC93AC81BD810E94C517DF017B
:100D6200E881F981EA17FB0724F4AC81BD81ED9398
:100D7200FC931EC0BA93AA93AC81BD810E94E41772
:100D8200DF01EA81FB81AE17BF0724F4AC81BD818C
:100D92000E94F417AC81BD810E94E417DF01E88153
:100DA200F981EA17FB0724F4AC81BD810E94F41794
:100DB200269608950E940815A091F102B091F202C0
:100DC200EA17FB0709F5A091F302B091F402DC9750
:100DD200D4F4A3EFB2E00E94F214A091F302B09116
:100DE200F402DC9784F0A0E1B0E00E94E417DF0196
:100DF2000E940815EA17FB0731F00E940815A0E1CE
:100E0200B0E00E94F41705C0E0E0E093F302E09343
:100E1200F402A091F302B091F402DD972CF0E0E02D
:100E2200E093F302E093F4020E940815E093F102CA
:100E3200F093F2020895A0910303A03061F4A0910F
:100E42000403A03041F4A0910503A03021F4E09105
:100E52000803E03009F010C0ECE3E0930303E093F1
:100E62000403E0930503E0E1FEE0E0930603F09360
:100E72000703E1E0E09308030895E0E0E093030351
:100E8200E0930403E0930503E0930603E093070372
:100E9200E09308030895509AE091D202E17011F0B4
:100EA200589A01C05898519AE091D602E17011F017
:100EB200599A01C05998E091D202F091D3026091FF
:100EC200D4027091D5020E941D170E940D15E09167
:100ED200D602F091D7026091D8027091D9020E9495
:100EE2001D170E941615A091D102AF5FA093D102E7
:100EF200A132B8F0E0E0E093D102E091C902F091B2
:100F0200CA026091CB027091CC020E940D15E09151
:100F1200CD02F091CE026091CF027091D0020E9478
:100F220016150895A091EC02A330E9F0E091C302F6
:100F3200E87021F0E0919C03E87079F0E091C3023F
:100F4200E07151F0E0919C03E07131F40E94B3141E
:100F5200E535A0E0FA0709F405C0A091DA02AA3A41
:100F620009F469DF0EC0A091EC02A33051F4E091C4
:100F7200C302E87021F0E0919C03E87009F001C01F
:100F82005ADFE091C302E0939C03089529971A93D4
:100F92000A93E0E0E7B9E8B9E6E00E941F150E9473
:100FA2002A15ED83FE83E7E00E941F150E942A1591
:100FB200EF83F887E0E00E941F150E942A15E98757
:100FC200FA87AD81BE81A631E2E0BE0724F0A736E2
:100FD200E2E0BE070CF002C0E0E028C0AD81BE81B5
:100FE200A935E3E0BE0724F0AA3AE3E0BE070CF01D
:100FF20002C0E1E01BC0AD81BE81AF38E2E0BE07B6
:1010020024F0A03EE2E0BE070CF002C0E2E00EC017
:10101200AD81BE81AF3CE3E0BE0724F0A032E4E044
:10102200BE070CF002C0E3E001C0E5E0E0930F036D
:10103200AF81B885A631E2E0BE0724F0A736E2E030
:10104200BE070CF002C0E0E028C0AF81B885A93528
:10105200E3E0BE0724F0AA3AE3E0BE070CF002C0C8
:10106200E1E01BC0AF81B885AF38E2E0BE0724F0F3
:10107200A03EE2E0BE070CF002C0E2E00EC0AF818B
:10108200B885AF3CE3E0BE0724F0A032E4E0BE073F
:101092000CF002C0E3E001C0E5E0E0931003A98593
:1010A200BA85A631E2E0BE0724F0A736E2E0BE0729
:1010B2000CF002C0E0E028C0A985BA85A935E3E0BA
:1010C200BE0724F0AA3AE3E0BE070CF002C0E1E05A
:1010D2001BC0A985BA85AF38E2E0BE0724F0A03E66
:1010E200E2E0BE070CF002C0E2E00EC0A985BA85BC
:1010F200AF3CE3E0BE0724F0A032E4E0BE070CF010
:1011020002C0E3E001C0E5E0E0931103A0910F0308
:10111200A53041F0A0911003A53021F0A091110358
:10112200A53021F4E1E0E09313031AC0E09111032A
:10113200E27011F0E1E001C0E0E0E0931403E0911D
:101142001003EE0FEE0FA0910F03EA0F6E2FE09146
:101152001103E170A0E1EA9FF001E60FE0931203B0
:10116200198108812B960895E0910303E03041F044
:10117200E150E0930303E03011F40E94D8141FC041
:10118200E0910403E03061F0E0910403E150E09368
:101192000403E0910403E03011F40E94D8140FC05C
:1011A200E0910503E03059F0E0910503E150E0934E
:1011B2000503E0910503E03011F40E94D814E09198
:1011C2000603F0910703309789F0A6E0B3E0ED91B2
:1011D200FD913197FE93EE93E0910603F0910703A0
:1011E200309721F4E0E0E093080325DE0E942F15FA
:1011F200109731F40E943415109711F44C9B01C0E2
:101202000FC0A0910903A43150F4E0910903EF5FEC
:10121200E0930903A0910903A43108F02EDE03C074
:10122200E0E0E09309030895A091EC02A330B1F14C
:101232000E943915AA35E2E0BE0724F4ABEDB2E014
:101242000E94F2140E943915AE34E2E0BE0729F47E
:10125200E091C302E17CE093C3020E943915A835F4
:10126200E2E0BE07D1F4EAEAE093DA02A0911403C5
:10127200A13019F4EAB5E26002C0EAB5ED7FEABD39
:10128200E0E0E09318030E945A1439F4E1E0E0939D
:101292000B03A4E1B0E00E94FC1703C0EAEAE0936A
:1012A200DA0208950E94C2140E943E15EA17FB0753
:1012B20034F4ADEDB2E0ED91FD9131960DC00E9496
:1012C200C21431970E943E15AE17BF073CF4ADED34
:1012D200B2E0ED91FD913197FE93EE93EDEDF2E0E8
:1012E2000E944315A091DD02B091DE02D79794F0DF
:1012F200A091EC02A03021F4E091C302E07421F04D
:10130200A091EC02A33029F4E091C302E460E093DF
:10131200C3020BC0A091DD02B091DE0216972CF43D
:10132200E091C302EB7FE093C3020E94BD140E94CE
:101332003E15EA17FB0734F4AFEDB2E0ED91FD91F3
:1013420031960DC00E94BD1431970E943E15AE1712
:10135200BF073CF4AFEDB2E0ED91FD913197FE9302
:10136200EE93EFEDF2E00E944315A091DF02B091FF
:10137200E002D79794F0A091EC02A03021F4E09122
:10138200C302E07421F0A091EC02A33029F4E091B1
:10139200C302E260E093C3020BC0A091DF02B091EE
:1013A200E00216972CF4E091C302ED7FE093C302B2
:1013B2000895A091EC02A33009F484C00E949C1409
:1013C2000E944D15EA17FB0728F4A5EEB2E00E9431
:1013D200F21405C0E0E0E093E502E093E6020E9429
:1013E20052152CF0E091C302E860E093C3020E9420
:1013F200B314E535A0E0FA07C9F522970E949C14C0
:10140200E883F983A881B981E4E1F0E00E947517CD
:10141200E883F983ADE0B0E00E945817E883F983CE
:101422000E944D15AE17BF0710F44C9B01C006C0B9
:10143200A7EEB2E0ED91FD91319605C0A7EEB2E0C4
:10144200ED91FD913197FE93EE930E94611514F098
:101452000E9470150E942F150E940D182CF0E09129
:10146200C302EF7EE093C30222962BC0E091BA0240
:10147200F091BB020E944D15AE17BF0790F40E9477
:101482004D15E091BA02F091BB02EA1BFB0B0F0172
:10149200A9E1B0E00E94E417E015F10510F44C9BBD
:1014A20001C005C0A7EEB2E00E94F21405C0E0E060
:1014B200E093E702E093E8020E94611514F00E94B3
:1014C200701534C0A091EC02A33081F50E944D1535
:1014D200AD3BE2E0BE0728F0A5EEB2E00E94F214B6
:1014E20005C0E0E0E093E502E093E6020E945215B7
:1014F2002CF0E091C302E860E093C3020E944D1514
:10150200A83CE0E0BE0710F44C9B01C005C0A7EE6A
:10151200B2E00E94F21405C0E0E0E093E702E0933B
:10152200E8020E94611514F00E9470150895E0917E
:101532001303E03039F00E9476150E947B150E9459
:101542007615A2C20E94B314E535A0E0FA0709F0AD
:101552005DC00E9484150E948E150E949315A09171
:10156200EC02A33009F451C0A091DA02A53521F4AE
:10157200E091C302EE7309F00BC0E1E1F1E060E03B
:1015820070E00E947B15E1E1F1E060E070E026C0CE
:101592000E949C1519F40E94A11516C0E091C30285
:1015A200E27029F00E94A6150E94A8151FC0E091C2
:1015B200C302E87019F00E94B21518C0E091C3028C
:1015C200E071A1F00E94B815E093C902F093CA023B
:1015D2006093CB027093CC020E948E15E093CD02F1
:1015E200F093CE026093CF027093D002A091EC02EE
:1015F200A13029F40E9484150E94BD1506C0A09155
:10160200EC02A23011F40E94C21546C2E09114030A
:10161200E03009F0ECC0A091EC02A33009F490C0D4
:101622000E94CC140E94C815AE17BF072CF40E946A
:1016320084150E94D1156CC0A091DA02A53521F45F
:10164200E091C402E07809F403C00E94D61560C09C
:101652000E94CC140E94C815EA17FB071CF40E94D2
:10166200DC150CF00AC00E94B314E535A0E0FA07BD
:1016720021F00E94C714309709F005C00E9484151A
:101682000E948E1545C0A091DA02AA3A19F40E946E
:10169200E5153EC0A091DA02A53521F4E091C3021E
:1016A200EE7309F005C00E9484150E948E1530C0A9
:1016B2000E949C1529F40E94A6150E948E1528C02E
:1016C200E091C302E27029F00E94A6150E94A815BB
:1016D20027C0E091C302E87019F00E94B21520C041
:1016E200E091C302E07129F00E94E8150E94A8155A
:1016F20017C0A091DA02A53521F4E091C302E0728D
:1017020009F40EC00E948415E3E0F0E063E070E0AB
:10171200E093CD02F093CE026093CF027093D00299
:10172200A091EC02A13029F40E9484150E94BD15FB
:1017320006C0A091EC02A23011F40E94C21556C05C
:10174200A091EC02A33009F051C00E94CC140E9477
:10175200C815AE17BF072CF40E9484150E94D1153C
:101762003DC00E94CC140E94C815EA17FB071CF466
:101772000E94EA150CF003C00E9484152BC0E09170
:10178200C302EE7119F40E94841524C00E949C15B4
:1017920019F40E94A11516C0E091C302E27029F06B
:1017A2000E94A6150E94A81521C0E091C302E8700C
:1017B20019F00E94B2151AC0E091C302E071B1F0B3
:1017C2000E94B815E093C902F093CA026093CB025B
:1017D2007093CC02EFEFFFEF6FEF7FEFE093CD025C
:1017E200F093CE026093CF027093D00255C1A091C4
:1017F2001403A13009F050C1A091EC02A33009F406
:10180200F5C00E94CC140E94C815AE17BF072CF475
:101812000E9484150E94D115D1C0A091DA02A5358B
:1018220021F4E091C402E07809F403C00E94D615C5
:10183200C5C00E94CC140E94C815EA17FB071CF40D
:101842000E94DC150CF00AC00E94B314E535A0E03A
:10185200FA0721F00E94C714309709F005C00E94D0
:1018620084150E948E15AAC0A091DA02AA3A09F044
:1018720067C0E091C302EE71A9F40E948415EAB533
:10188200E1FF05C0E5EFFFEF6FEF7FEF02C00E94BF
:101892008E15E093CD02F093CE026093CF02709347
:1018A200D0024DC00E949C15A9F40E94A615EAB56B
:1018B200E1FF05C0E5EFFFEF6FEF7FEF02C00E948F
:1018C2008E15E093CD02F093CE026093CF02709317
:1018D200D00235C0E091C302E27059F00E94A61511
:1018E200EAB5E1FF03C00E94F31502C00E94A815E9
:1018F20026C0E091C302E87079F0E9E0F0E069E027
:1019020070E00E947B15EAB5E1FF03C00E94F31567
:1019120002C00E94A81513C0E091C302E07159F001
:101922000E94E815EAB5E1FF03C00E94F31502C068
:101932000E94A81504C00E94E5150E94931546C096
:10194200A091DA02A53521F4E091C302EE7309F009
:1019520005C00E9484150E948E1530C00E949C15FD
:1019620029F40E94A6150E948E1528C0E091C30298
:10197200E27029F00E94A6150E94A81527C0E091E6
:10198200C302E87019F00E94B21520C0E091C302B0
:10199200E07129F00E94E8150E94A81517C0A091D5
:1019A200DA02A53521F4E091C302E07209F40EC017
:1019B2000E948415E3E0F0E063E070E0E093CD0282
:1019C200F093CE026093CF027093D002A091EC020A
:1019D200A13029F40E9484150E94BD1506C0A09171
:1019E200EC02A23011F40E94C21556C0A091EC0282
:1019F200A33009F051C00E94CC140E94C815AE1742
:101A0200BF072CF40E9484150E94D1153DC00E948C
:101A1200CC140E94C815EA17FB071CF40E94EA15B1
:101A22000CF003C00E9484152BC0E091C302EE713A
:101A320019F40E94841524C00E949C1519F40E9476
:101A4200A11516C0E091C302E27029F00E94A6150A
:101A52000E94A81521C0E091C302E87019F00E940B
:101A6200B2151AC0E091C302E071B1F00E94B8153C
:101A7200E093C902F093CA026093CB027093CC0246
:101A8200EFEFFFEF6FEF7FEFE093CD02F093CE0227
:101A92006093CF027093D002089524970E941B187E
:101AA20000E911E020E931E040E951E00E949C1494
:101AB2000E942B17A0EABCE880E090E00E94F81593
:101AC200A091B802B091B90288279927EE81FF81CF
:101AD200688579850E94F8150E94C714E130A0E05C
:101AE200FA0781F4A5E2B0E00E94E417A091B802DF
:101AF200B091B9020E94621766277727EE83FF83AF
:101B0200688779870E94FF15AB30E0E0BE07E0E00E
:101B12008E07E0E09E071CF008EE13E016C00E945C
:101B2200FF15A130E0E0BE07E0E08E07E0E09E078F
:101B32001CF400E911E009C0EE81FF81ACE3B0E0E2
:101B42000E945817E057FE4F8F01EDB7FEB731974D
:101B5200FA93EA931F930F930E9404160F911F9119
:101B6200E091C002F091C1020E942B17EE83FF8325
:101B7200688779870E94C2140E942B17EE51F040A9
:101B8200604070400E94FF150E9411181CF020E96D
:101B920031E01CC00E94C2140E94FF150E942B1744
:101BA2000E9416181CF028EE33E010C00E94C214E6
:101BB2007E97AE81BF810E94DD17EA1BFB0BA4E179
:101BC200B0E00E945817E057FE4F9F01EDB7FEB7F5
:101BD2003197FA93EA933F932F930E9404162F9121
:101BE2003F91A801021713070CF4A9010E940C16D9
:101BF200A417B5074CF4E0911503F09116033A9639
:101C0200E0931503F09316030E940C164A175B0724
:101C12004CF4E0911503F09116033A97E093150303
:101C2200F0931603E5E1F3E0FA93EA930E940416B7
:101C3200E0911703E03029F0E0E0E0931503E09330
:101C420016030E9422182A9608951A93E091170308
:101C5200E03021F4A9E1B3E00E94F214A09119034B
:101C6200B0911A03A131EEE0BE0780F00E94111676
:101C7200E036AAEEFA0728F40E94111631960E9465
:101C8200F417E0E0E0931903E0931A030E9411169F
:101C9200EF70F070E0931B030E941116E07FF0706A
:101CA2000E942217F0E0E064E0931C030E941116E8
:101CB200E070FF70EF2FF0E0F0E0E068E0931D03CA
:101CC2000E941116E070F07F0E942217EF2FF0E0C1
:101CD200F0E0E06CE0931E03E0911B03EF701E2F17
:101CE200E0911C03EF701E27E0911D03EF701E2789
:101CF200E0911E03EF701E27E12FE370E295E07F73
:101D0200A0911B03EA2BE0931B03ECE1F3E00F012C
:101D1200A081E12FEC70EE0FEE0FEA2BD001EC93D5
:101D2200EDE1F3E00F01A081E12FE073EA2BD00196
:101D3200EC93EEE1F3E00F01A081E12FE07CE69568
:101D4200E695EA2BD001EC93E0911F03EF5FE0935D
:101D52001F03A0911F03A43018F0E0E0E0931F03DB
:101D6200C8C01A93EAB5E1FFC4C00E9416163A979A
:101D72000E941B1630F40E94221635960E942716E6
:101D820025C00E94161631970E941B1630F4A0E25D
:101D9200B3E0ED91FD91319617C00E9416163A9666
:101DA2000E942C1630F40E9422163A970E9427169F
:101DB2000DC00E94161631960E942C1638F4A0E22D
:101DC200B3E0ED91FD913197FE93EE93A091200344
:101DD200B0912103AD3FE3E0BE0724F0ECEFF3E066
:101DE2000E942716A0912103AA232AF4E0E0E0939F
:101DF2002003E0932103E0E0E0934303E0934403F4
:101E0200E093420310E0163008F50E943316E08199
:101E1200E030B1F00E943816A0914303B091440320
:101E2200EA0FFB1FE0934303F09344030E9433162F
:101E3200A1E0A083E0914203EF5FE093420304C07C
:101E42000E943316A0E0A0831F5FDDCFE091420322
:101E5200A0914303B0914403F0E00E947517E09310
:101E62004003F093410310E0163008F042C00E9494
:101E72003316E081E030D9F10E943816DF01E0919B
:101E82004003F09141033A97AE17BF0724F40E9432
:101E9200431631960EC00E943816DF01E0914003CE
:101EA200F09141033A96EA17FB072CF40E9443167D
:101EB2003197FE93EE930E944E160E94C517E536A7
:101EC200A0E0FA0734F00E944E16E4E6F0E0ED934B
:101ED200FC930E944E160E94C517EC39AFEFFA0729
:101EE20034F40E944E16ECE9FFEFED93FC931F5F72
:101EF200BBCF199108950E94B314E535A0E0FA070B
:101F0200F1F4E091C302EA7181F40E94F8140E9494
:101F120057160E945C1628F40E94701610F00E9458
:101F22008116F798EAB5EE7F08C0E091C302EA7025
:101F320029F00E948816EAB5E160EABDE5C0A091E9
:101F4200EC02A330B9F4E091C302EA7061F4E4EF69
:101F5200F1E00E94931628F40E94701610F00E947D
:101F62008116F79806C0E091C302EA7011F00E9450
:101F72008816CAC0A091EC02A23091F4E0E0E0938E
:101F8200E102E093E2020E949C16AC3FE3E0BE074E
:101F920028F40E94701610F00E948116F798B4C0BF
:101FA200A091EC02A13061F4EFEFF3E00E949316EE
:101FB20028F40E94701610F00E948116F798A4C0AF
:101FC200EAB5E1FF04C0A091DA02A53509F00EC01E
:101FD2000E9422160E94931628F40E94701610F096
:101FE2000E948116EAB5EE7FEABD8EC0A091DA02A8
:101FF200AA3A29F50E94C714309719F00E94881650
:102002001DC0E091C302EA7181F40E94F8140E949B
:1020120057160E945C1628F40E94701610F00E9457
:102022008116F798EAB5EE7F08C0E091C302EA7123
:1020320029F00E948816EAB5E160EABD65C0A09168
:10204200DA02A53509F060C0E091C302E07209F03E
:1020520055C0E091C302EE71E43001F50E94A11671
:102062003097A9F40E94AA160E949C16AE17BF07C9
:1020720038F4A0914B03B0914C030E94AF1602C0FA
:102082000E94AA16E093E302F093E40206C00E94C3
:10209200AA16E093E302F093E402F798E091C302F8
:1020A200EA7121F0E091C302E07409F10E94A116E5
:1020B2003097A9F40E94B7160E949C16AE17BF076C
:1020C20038F4A091C702B091C8020E94AF1602C0B4
:1020D2000E94B716E093E302F093E40206C00E9466
:1020E200B716E093E302F093E402F79806C0E0919A
:1020F200C302EA7111F00E94881606C0E091C30281
:10210200E07211F00E9488160895549AA091ED028F
:10211200B091EE02AC3DE5E0BE0724F4ADEEB2E0D4
:102122000E94F214A091ED02B091EE02599724F4AC
:102132000E94C714309709F403C05C9AE1E062C0C0
:102142000E94C714309761F0F79B03C05C9AE1E0EC
:1021520004C0F79904C05C98E0E0E093170354C010
:102162000E94CC140E94C815AE17BF0724F4A09198
:102172001403A13009F403C05C9AE1E043C0A091CA
:102182001403A13071F4EAB5E0FF03C05C9AE1E008
:1021920005C0EAB5E0FD04C05C98E0E0E0931703F7
:1021A20033C00E94CC140E94C815EA17FB071CF426
:1021B2000E94EA150CF01DC0A0911403A130A1F0F9
:1021C200E0911403E030A1F40E94C714309761F04B
:1021D200E091C302E07219F05C9AE1E002C05C98FF
:1021E200E0E0E093170304C05C98E0E0E09317039B
:1021F2000BC0F79B03C05C9AE1E004C0F79904C0EE
:102202005C98E0E0E0931703E1EEF2E00E94BC1676
:10221200E3EEF2E00E94BC160E94B314E535A0E0A2
:10222200FA0789F00E94C714309741F40E94CC1437
:102232003A960E94C815AE17BF070CF004C0EAE038
:10224200F0E00E945716E091E202E0938900E091EB
:10225200E102E0938800E091E402E0938B00E091D8
:10226200E302E0938A000E940C16E4E0F0E00E9490
:102272007517E093B4000895269A279A2E9A2F9AFA
:102282001E9B0AC0A091EA02AA3028F4E091EA0259
:10229200EF5FE093EA0209C01E9907C0E091EA02EB
:1022A200E03019F0E150E093EA021F9B0AC0A091CE
:1022B200EB02AA3028F4E091EB02EF5FE093EB022D
:1022C20009C01F9907C0E091EB02E03019F0E1501C
:1022D200E093EB02A091EA02AA3021F4A091EB0272
:1022E200AA3009F003C0E0E0E093EC02A091EA0218
:1022F200A03021F4A091EB02AA3009F003C0E1E082
:10230200E093EC02A091EA02AA3021F4A091EB0240
:10231200A03009F003C0E2E0E093EC02A091EA02EF
:10232200A03021F4A091EB02A03009F003C0E3E059
:10233200E093EC0208951A930A93009178001091A9
:1023420079000E94C616DF01E091B602F0E0EE0FBE
:10235200FF1FEA0FFB1F00831183E091B602E370B7
:1023620099F521970E94D016AE0FBF1FE0E0F0E072
:10237200ED93FC93E883A881A031D8F40E94D01693
:10238200EA0FFB1FBF01008011800E94C616DF0109
:10239200E881F0E0EE0FFF1FAE0FBF1F0E94C517CE
:1023A200E00DF11DDB01ED93FC93E881EF5FE88323
:1023B200E2CF0E94D016AE0FBF1FED91FD910E9499
:1023C2002217FE93EE932196A091B702AF5FA093DE
:1023D200B702A53060F0E0E0E093B702A091B60248
:1023E200AF5FA093B602A03110F0E093B602E7B15E
:1023F200E07CE7B9E8B1E07CE8B9E091B702E0300F
:1024020011F4E1E017C0A091B702A13011F4E4E0A9
:1024120011C0A091B702A23011F4E2E00BC0A0916A
:10242200B702A33011F4E3E005C0A091B702A430D3
:1024320019F4E5E0E0937C00E6EAE0937A00E091AB
:102442007A00E064E0937A00099119910895249743
:102452000E9468140E94D816A0E0B0E00E94E4171F
:102462000E94DD160E9403170E94D317AB81AA2394
:1024720012F40E94E2160E9472140E94DD160E945B
:10248200E616E0E6F9E060E070E00E94ED16E09307
:10249200B802F093B902E091AE02F091AF020E944D
:1024A200D816AB81AA2312F40E94E2160E9492145B
:1024B2000E94DD160E94E6160E94F416E093BC020A
:1024C200F093BD02E091B002F091B1020E94D816E1
:1024D200AB81AA2312F40E94E2160E948D140E947C
:1024E200DD160E94E6160E94F416E093BA02F093FB
:1024F200BB02E091B202F091B3020E94D8160E9490
:1025020097140E94DD160E94E616EEE2F5E060E006
:1025120070E00E94ED16E151F140E093C002F093A9
:10252200C1020E943E15A338EFEFBE0714F4E3E8A0
:102532000AC00E943E15AE37E0E0BE0714F0EDE798
:1025420002C0E091C002E093C202E091C302F0E057
:10255200E093BE02F093BF02249608950A921A9263
:10256200FA926A937A938A939A93AA93BA93EA9382
:10257200FA93EFB7EA930E9492060E94F701B3948E
:10258200EAE0BE16E8F0BB2473947E1610F07724BE
:10259200F39A8394E3E08E1610F08824F29A6394FF
:1025A200E4E16E1638F06624F49AF69B02C0F698BF
:1025B20001C0F69A9394E4E69E1610F09924F59AD7
:1025C200E991EFBFF991E991B991A9919991899115
:1025D20079916991F9901990099018952A9A229AFD
:1025E200E4B1E663E4B9549A5C9AE1E0E09317033C
:1025F200E3EAE0938000E9E0E0938100E0E0E09329
:102602008500E0938400E0938700E0938600E093E6
:102612008900E0938800E0938B00E0938A00219A7E
:10262200229AE093B600E3E2E093B000E1E0E093A7
:10263200B100E0E0E093B200E093B300E0E3E093A6
:10264200B400539AEDE5ECBDE0E0EDBD0E94171435
:102652000E9417140E9417140E9417140E94171444
:102662000E9417140E9417140E9417140E94171434
:102672000E9417140E94C7070E9417140E94171481
:102682000E9417140E9417140E9417140E94171414
:102692000E9417140E9417140E9417140E94171404
:1026A2000E949206E0E0E093DB02E093DC020E94EB
:1026B200B314E535A0E0FA0719F0E5E5E093DA0294
:1026C200E0E0E093ED02E093EE02A0E1B0E00E94D0
:1026D200E417E093EF02F093F002A091EF02B091C1
:1026E200F0025A9744F4A091EF02B091F002A73E93
:1026F200EFEFBE072CF4E0E0E093EF02E093F0028C
:10270200A2E1B0E00E94E817E03010F0E43028F0D7
:10271200A2E1B0E0E3E00E94FC1778940E94780105
:10272200509A0E948816E0917703E03029F0E0E0A9
:10273200E09377030E946902F29B02C0F298FBDDEC
:10274200F39B0CC0F39883DE0E944C070E9415098C
:10275200D2DB92DD0E9493070E941A06F49B05C009
:10276200F498D3DC0E94980A98D9F59B2DC0F5986D
:102772000E9453090E94DA090E94DB06A091F50229
:10278200B091F602A83EE3E0BE0724F4A5EFB2E062
:102792000E94F214A091DA02AA3A21F0A091EC026E
:1027A200A33011F40E94B508E0910E03EF5FE093AD
:1027B2000E03A0910E03AA3028F0E0E0E0930E038E
:1027C2000E947801CEDA41DAA895ADCFFFCFAA9365
:1027D200E881EEBDEDB5E7FFFDCFEEB52196089598
:1027E200E4B1EC62E4B92498209A289808950E94F2
:1027F200E813A9810C94E813E0919803F0E0EA0F42
:10280200FB1F0895AAE0B0E00C94F916EA93AFEF2B
:102812000C94ED00EA93A0EC0C94ED00EA93A0E096
:102822000C94ED00EA93A1E30C94ED00A4E6B0E071
:102832000C94F916E0911203A0914F03EA17089540
:10284200A0915003E0911203EA170895A091540356
:10285200B0E0E0E0F1E00E9430170895B0E0E0E07F
:10286200F1E00E94301708950E942F01E0911203B7
:10287200EA93EBEDEA930895EA93E0911F03F0E007
:10288200E55EFC4FE081EA93E091C302EA93E091B6
:10289200EF02EA930895EA93E0E0EA93EA93089557
:1028A200E0E0E093DB02E093DC02E5E5E093DA02AC
:1028B2000895A4E1B0E00E94E817E0300895AAE983
:1028C200B3E0ED91FD913196FE93EE930895E09180
:1028D200AC02F091AD020895E0915203EF70E23044
:1028E2000895A2E0B0E00E94E4170895E091520337
:1028F200EF70E3300895E0915203EF70E4300895F1
:10290200E0915203EF70E5300895FA93EA93E8EC10
:10291200F0E0FA93EA930895A6E0B0E00E94E4178B
:102922000895AAE0B0E00E94E4170895AEE0B0E096
:102932000E94E4170895A7E1B0E00E94E417089509
:10294200A09153038BCFA0915203B0E0EA0FFB1F7B
:102952000895A091550382CFA0915403B0E0EA0FED
:10296200FB1F0895A1E2B0E00E94E4170895E0E0A1
:10297200F0E00E94F4170895ABE1B0E00E94E41782
:102982000895ADE1B0E00E94E4170895A3E2B0E03B
:102992000E94E4170895A5E1B0E00E94E4170895AB
:1029A200DF01E0915603F0E0EA17FB070895E0919A
:1029B200C302E17EE093C302E0E0E093DD02E09334
:1029C200DE02E093DF02E093E002E093E502E093AF
:1029D200E602E093E702E093E802EEE1E093D1023F
:1029E2000895ED91FD913196FE93EE930895AFE136
:1029F200B0E00E94E4170895EA93E0911803A2E27E
:102A0200B3E0F0E0EE0FFF1FAE0FBF1F0895E0919D
:102A1200EF02F091F0020895E093D202F093D30214
:102A22006093D4027093D5020895E093D602F09396
:102A3200D7026093D8027093D9020895E0937C0084
:102A4200E6EAE0937A00E0917A00E064E0937A00AB
:102A5200D9CEE0917800F09179000895A091E70233
:102A6200B091E8020895A091E502B091E6020895BE
:102A7200A091DB02B091DC020895A091C002B09156
:102A8200C1020895FA93EA93E0E0F0E0FA93EA9340
:102A9200ACE3B0E00C949C06A091BC02B091BD02E4
:102AA2000895E5EEF2E0FA93EA93E0E0F0E0FA93BB
:102AB200EA93AAE0B0E00E949C06D5DF1A97089537
:102AC200E7EEF2E0FA93EA93E0E0F0E0FA93EA93B9
:102AD200AAE0B0E00E949C06C1DF1A970895E09137
:102AE200C302E061E093C3020895E5E5F5E565E51B
:102AF20075E50895E093C902F093CA026093CB0290
:102B02007093CC020895E0E0E093C902E093CA0218
:102B1200E093CB02E093CC020895EFEFFFEF6FEF6B
:102B22007FEF0895E093CD02F093CE026093CF023F
:102B32007093D0020895E091C302EE73E4300895D9
:102B4200E1E0F0E061E070E00895FADFD3CFE0E089
:102B5200E093CD02E093CE02E093CF02E093D00265
:102B62000895E9E0F0E069E070E0C4DFF0CFE9E465
:102B7200F0E069E470E00895E3E3F3E363E373E311
:102B8200D1CFECECFCEC6CEC7CECB4DFE0CFA5E05C
:102B9200B0E00E945817A091ED02B091EE020895A4
:102BA200E3E0F3E063E073E00895E5E5F5E565E071
:102BB20070E0A0DFB2CFEC59FF4FA091ED02B091CF
:102BC200EE02AE17BF07089590DF94DFA6CFCFDFE6
:102BD20091CFEA5BFF4FA091ED02B091EE02AE17EA
:102BE200BF070895E5E0F0E060E070E09BCF0E944F
:102BF2009F17EE83FF83688779870895AE81BF812F
:102C0200888599850895E0E9F1E0FA93EA93A8EEC0
:102C1200B3E00C949C06A0911503B091160308959D
:102C2200A7E2B0E00E94E4170895A9E2B0E00E9492
:102C3200E4170895A091BA02B091BB02AE17BF0784
:102C42000895E0912003F09121030895E093200379
:102C5200F09321030895A091BA02B091BB02EA1742
:102C6200FB070895E12FF0E0E65CFC4F0895E12FA9
:102C7200AEE2B3E0F0E0EE0FFF1FAE0FBF1F0E9407
:102C8200C5170895E12FA2E2B3E0F0E0EE0FFF1FB7
:102C9200AE0FBF1FED91FD910895E12FA2E2B3E0C7
:102CA200F0E0EE0FFF1FAE0FBF1F0895E093E102A9
:102CB200F093E2020895E1EEF2E0FA93EA93E0E0A3
:102CC200F0E0FA93EA93ACEFB3E00E949C06A09185
:102CD200E302B091E402AC3FE3E0BE070895E09165
:102CE200E302F091E4027E96E093E302F093E402C1
:102CF200A091E302B091E402AD3FE3E0BE07089584
:102D0200ECEFF3E0E093E302F093E4020895E0E0F5
:102D1200E093E102E093E202E093E302E093E40253
:102D2200F79A0895C3DFA091E302B091E402AC3FA9
:102D3200E3E0BE070895A091E302B091E402089592
:102D420066DEA091C502B091C602EA0FFB1FAEDF9C
:102D52001DCEE0914B03F0914C030895EEE1F0E0BB
:102D62000E946217E8DFEA0FFB1F0895E091C70295
:102D7200F091C8020895FA93EA93E1E0F0E0FA9341
:102D8200EA93ACEFB3E00C949C06E091B702F0E05A
:102D9200EE0FFF1F0E941417E45FFD4F0895E091AC
:102DA200B702ACEAB2E0F0E0EE0FFF1F089566272B
:102DB20077270E94CE1708950E94C9170E942B17E9
:102DC2000895E0E00E94D81708950E945D170E94BE
:102DD200CE170E94C91708950E949F170E94CE170E
:102DE200E881F9810895E8EEF3E060E070E0F4CF65
:102DF200109639F080ED97E00197F1F7A8951197B9
:102E0200C9F70895AE1BBF0B860B970B0895F1957A
:102E1200E195F0400895F09560957095E195FF4F2A
:102E22006F4F7F4F0895EE0FFF1FEE0FFF1FEE0F44
:102E3200FF1FEE0FFF1F089575956795F795E795AC
:102E42000895F695E795F695E795F695E795F69543
:102E5200E79508956F2F660F660B762F0895FA9FF8
:102E6200F02DEB9FF00DEA9FE02DF10D08957A9F72
:102E7200702D6B9F700DF89F700DE99F700D6A9F0A
:102E8200602D710DFB9F600D711DE89F600D711D1E
:102E92008827FA9FF02D610D781FEB9FF00D611DC1
:102EA200781FEA9FE02DF10D681F781F08954BD01F
:102EB200D6DF0EF4ACDF089554D0D9DF0EF4ABDFC9
:102EC20008950024112490E1AA0FBB1F001C111CBD
:102ED2000E1A1F0A18F40E0E1F1E01C0A1609A9549
:102EE20099F7FD01D00108952ED0EBDF0EF48FDFAC
:102EF20008953F934F935F9300241124442755274D
:102F020030E2AA0FBB1F881F991F001C111C441F0F
:102F1200551F0E1A1F0A460B570B28F40E0E1F1EC2
:102F2200461F571F01C0A1603A9559F7FD01BC0128
:102F3200D001CA015F914F913F91089512D0D9DF1C
:102F42000EF469DF0895E894F7FF02C060DF689429
:102F5200B7FF06C0A095B095119600F8039400FA49
:102F62000895E89477FF02C056DF689497FF0BC07C
:102F72000024A095B095809590951196801D901D86
:102F820000F8039400FA0895ED91FC9111970895C9
:102F9200A881B9818A819B810895E883F9836A8334
:102FA2007B830895A883B9838A839B830895E883EA
:102FB200E983EA83EB8308951B2EBF2FF12D1A2E8E
:102FC200AE2FE12D0895119602D0FE2F1197F99997
:102FD200FECFFF93FFB7F894A1BDB2BDF89AE0B55A
:102FE200FFBFFF91089507D01196EF93EF2F03D003
:102FF200EF9111970895F99B02C0A895FCCF9FB756
:10300200F894A1BDB2BDF89A80B5E81719F0E0BDF9
:10301200FA9AF99A9FBF089500240A160B0608959A
:10302200EA17FB07680779070895AE17BF078607F7
:10303200970708955A934A933A932A931A930A93B5
:1030420008955D814C813B812A811981088108950F
:00000001FF
