:0C0000000C9470000C9400000C940000A4
:10000C000C9400000C9400000C9400000C94000064
:10001C000C9400000C9400000C9400000C94000054
:10002C000C9400000C9400000C9400000C94000044
:10003C000C9400000C9469110C9400000C940000BA
:10004C000C9400000C9400000C9400000C94000024
:10005C000C9400000C9400000C9400001027E80392
:10006C0064000A00010000100001100001000000F3
:10007C0048007D00B100D900FE001E013E015A016E
:10008C0074019001AB01C501DE01F6010D02030301
:10009C0003031E0032003200BC027B0001002D4E17
:1000AC00414E00494E4600000400C0029A00010077
:1000BC00C4029E000100D402A0000100D602A200DE
:1000CC0002001303A40001008D03A600010090039D
:1000DC00A8000000F894EE27EFBBF1E0F5BFE5BFF8
:1000EC00F8E1A895A4B7A77FA4BFF0936000E093B4
:1000FC0060008DE0A2E0BB27ED938A95E9F780E0E4
:10010C0094E0A0E0B1E0ED930197E9F7E4EBF0E0C7
:10011C0085919591009761F0A591B59105901590F9
:10012C00BF01F00105900D920197E1F7FB01F0CFB3
:10013C00E0E0EEBBEABDEBBDEFEFEDBFE4E0EEBF00
:10014C00C0E0D2E00C94A911F8940E947412289A81
:10015C0078940895AA931A93F8940E9474128BE1E0
:10016C008A95F1F7A3E00E947B12A5E50E946B1221
:10017C001E2F289A7894E12F188122960895AA931D
:10018C00F8940E947412A5E00E946B12AA810E943E
:10019C007B12A8810E946B12289A78940FC0AA93A4
:1001AC001A93F8940E947412A2E00E946B12AA8116
:1001BC000E947B12289A7894E12F18812396089537
:1001CC001A93F8940E9474120000000000000000C2
:1001DC000000000000000000A0EA0E946B12A5E5E0
:1001EC000E946B121E2F289A7894E12FE2C0AA93DA
:1001FC00F8940E947412E881E03011F4E1E809C02F
:10020C00A881A13011F4E2E804C0A881A23011F455
:10021C00E4E8E883A8810E946B12289A78942196CE
:10022C000895AA93A0918B03A03010F0A43018F07D
:10023C00E0E0E0938B03E0918B03F0E0E559FC4F99
:10024C00AF81A083AFE6B3E00E948012AE81A083A1
:10025C00A3E7B3E00E948012AD81A083A7E7B3E0CF
:10026C000E948012AC81A083ABE7B3E00E948012A5
:10027C00AB81A083AFE7B3E00E948012AA81A08378
:10028C00A3E8B3E00E948012A981A083A7E8B3E0A1
:10029C000E948012A881A083E0918B03EF5FE09312
:1002AC008B03A0918B03A43018F0E0E0E0938B0358
:1002BC00289608951A930E94AA00AEE00E94B000FE
:1002CC001E2FE07EE03831F0EFE0EA93E0EEEA93A7
:1002DC00A0E855DF8BE18A95F1F7EAE2EA93A3EC0B
:1002EC005EDFE9E2EA93AEEF5ADFE8E2EA93A3E0DD
:1002FC0056DFE0E6EA93A0E252DFE0E7EA93A0E201
:10030C004EDF0E948612E0E20E948A12E1E20E9415
:10031C008A12E0E00E948A12E1E00E948A12E4E074
:10032C000E948A12E5E00E948A12E4E20E948A127C
:10033C00E5E2EA93A0EE33DFE8E0EA93A3E12FDFF6
:10034C00E9E00E948E12E0E10E949212E1E10E942B
:10035C009212E4E10E949212E5E10E949212E8E10D
:10036C000E949212E9E10E949212E1E50E9496121B
:10037C00E2E50E948E12E1E40E949612E2E40E94F1
:10038C008E12E1E30E949612E2E30E948E12EFE0DD
:10039C00EA93E7EEEA93A5E00E94C500EBE2EA934C
:1003AC00A6E0FDDEA4E6B0E00E946215ECE00E943F
:1003BC009212199108950E948216F89401DFE0932D
:1003CC004003A0914103EA2BE0934103E0914003E9
:1003DC00E270E9F000E0083078F4E02FF0E0EE5B3A
:1003EC00FC4FFF93EF93A02FAA580E94B000AF913F
:1003FC00BF91EC930F5FEFCFECE2EA93E2E0EA936C
:10040C00A0E00E94C500E1E0E0936A0341C0E091E6
:10041C004003E475E9F52197ECE2EA93ECE1EA9309
:10042C00A0E00E94C500E0918B03A0918C03EA1719
:10043C0071F1E0E0E883A881A830B0F4E881EA5CCF
:10044C00EA93E981ABE6B3E0F0E00E948115AE0FD0
:10045C00BF1FE0918C03F0E0AE0FBF1FAC919FDE8D
:10046C00E881EF5FE883E7CFE5E3EA93A8E00E9439
:10047C00D500A0E0BCDEE0918C03EF5FE0938C0331
:10048C00A0918C03A43018F0E0E0E0938C0321964B
:10049C0078940E948916249608950E948016A09143
:1004AC004203A130E1F4A0914303A230C1F4A09126
:1004BC004403A330A1F4A0914503A43081F4A0918E
:1004CC004603A53061F4A0914703A63041F4A091F6
:1004DC004803A73021F4A0914903A83009F010C0BB
:1004EC00E1E0EA93E2E0EA93E3E0EA93E4E0EA9302
:1004FC00E5E0EA93E6E0EA93E7E0EA93A8E091DE30
:10050C000E949A1239F40E94A01221F4A091440383
:10051C00AD3E09F0C6C0E0E0E0930103E091450375
:10052C00E093B702E170B9F0A091DC02A43078F44A
:10053C00E091DC02EF5FE093DC02A091DC02A430DE
:10054C0028F0E091B602E062E093B60203C0E4E06A
:10055C00E093DC021DC0E091DC02E030B1F0E15030
:10056C00E093DC02A091DC02A03071F4E091B602C1
:10057C00EF7DE093B602A2E1B0E00E945116A5E037
:10058C00EA9FF001E093000303C0E0E0E093DC029B
:10059C00E091B702E27021F0E091B602E06403C092
:1005AC00E091B602EF7BE093B6020E94A612A091F6
:1005BC004603B0E0EA0FFB1FE093B802F093B902D8
:1005CC00A09149030E94AE12A0914803B0E0EA0F3B
:1005DC00FB1FE093BA02F093BB02F091B602E0E08D
:1005EC00A091B702B0E0EA0FFB1FE0938D03F093EC
:1005FC008E03A091B602EAE0EA9FF001E093EC02D0
:10060C00F093ED02E0910503EA93EAEDEA93E091B1
:10061C00AC02EA93E091AD02EA93E091AE02EA9368
:10062C00E091AF02EA93E091B002EA93A091B1029B
:10063C000E94B412E091EE02EA93A091EF02F1DD78
:10064C000E94CC12E091B702E07889F0A3E1B0E00F
:10065C000E945116E03051F4A3E1B0E0E1E00E94B9
:10066C006516E093FD02E0E0E093FF0211C0A0915B
:10067C00E802B091E90255975CF0A3E1B0E00E946A
:10068C005116E03029F0A3E1B0E0E0E00E946516DD
:10069C000E94D51229F0A4E1B0E0E0E00E946516BA
:1006AC0045C20E949A1269F40E94A01251F4A091C2
:1006BC004403AE3E31F4A0914503E0914603EA17A2
:1006CC0009F0DAC00E94DB12E0914503E07FE032D2
:1006DC00D1F5E0914503EF70E13039F40E94E3125B
:1006EC00A0E0B0E00E945D1623C00E94E81231F435
:1006FC000E94ED1231960E945D161AC00E94F212F1
:10070C0021F40E94ED123A960FC00E94F71231F4B8
:10071C000E94ED1231970E945D160AC00E94FC12D5
:10072C0039F40E94ED123A97A2E0B0E00E945D16F7
:10073C00E2E0F0E0FA93EA93ECE2F1E0FA93EA9368
:10074C00A8E8B3E18DC0E0914503E07FE03121F5ED
:10075C000E94E81231F40E94011331960E945D163A
:10076C001AC00E94F21221F40E9401133A960FC093
:10077C000E94F71231F40E94011331970E945D160A
:10078C000AC00E94FC1239F40E9401133A97A6E0A9
:10079C00B0E00E945D1665C0E0914503E07F81F5F5
:1007AC00E0914503EF70E13039F4A8E0B0E00E942D
:1007BC00E3120E945D1623C00E94E81231F40E94DD
:1007CC00061331960E945D161AC00E94F21221F493
:1007DC000E9406133A960FC00E94F71231F40E9441
:1007EC00061331970E945D160AC00E94FC1239F460
:1007FC000E9406133A97AAE0B0E00E945D1631C041
:10080C00E0914503E07FE03361F50E94E81231F49A
:10081C000E940B1331960E945D161AC00E94F212B0
:10082C0021F40E940B133A960FC00E94F71231F478
:10083C000E940B1331970E945D160AC00E94FC1295
:10084C0039F40E940B133A97AEE0B0E00E945D16AB
:10085C00EEE0F0E0FA93EA93E8ECF0E00E9410137B
:10086C0008D20E94CC120E94D51229F0A4E1B0E06B
:10087C00E0E00E9465165AC1A0914203AF3F41F4DB
:10088C00A0914303AF3F21F4A0914403A23609F099
:10089C0027C00E941513BF010E941A130E941D133A
:1008AC00E617F70741F00E941A130E941D13A7E1E7
:1008BC00B0E00E945D16A9E1B0E00E944D16BF01A8
:1008CC000E9423130E942613E617F70741F00E949B
:1008DC0023130E942613A9E1B0E00E945D1626C1E5
:1008EC00A0914203AF3F69F4A0914303AF3F49F499
:1008FC00A0914403A63221F0A0914403A93209F43B
:10090C0001C069C00E942C13BF010E941A130E94DF
:10091C001D13E617F70741F00E941A130E941D13CE
:10092C00ABE1B0E00E945D160E943113BF010E9442
:10093C00A6120E942613E617F70741F00E94231314
:10094C000E942613ADE1B0E00E945D16A091440315
:10095C00A632B1F40E943613309731F0A3E2B0E026
:10096C00E0E0F0E00E945D160E943B130E944013F1
:10097C0039F0E0914903F0E0A5E1B0E00E945D168A
:10098C00A0914403A93231F50E943613E130A0E066
:10099C00FA0731F0A3E2B0E0E1E0F0E00E945D166E
:1009AC00A5E2B0E00E944D160E94401339F0E09190
:1009BC004903F0E0A5E2B0E00E945D160E943B13F3
:1009CC00E330A0E0FA0731F0A5E1B0E0E3E0F0E0BD
:1009DC000E945D16ABC00E949A1259F40E94A0129C
:1009EC0041F4A0914403A63121F4A0914503A33610
:1009FC0009F003C00E94471399C00E949A1259F43F
:100A0C000E94A01241F4A0914403A63121F4A091BC
:100A1C004503A43609F007C0A7E2B0E0E0E0F0E03F
:100A2C000E945D1683C0A0914203AF3F61F4A09178
:100A3C004303AF3F41F4A0914403A63121F4A091AC
:100A4C004503A63109F039C0A0914603A53521F420
:100A5C00A0914703A53509F005C0A2EEB2E00E94B3
:100A6C0061131FC0A0914603A63621F4A091470341
:100A7C00A63609F008C0A2EEB2E0ED91FD913197D7
:100A8C00FE93EE930EC0A0914603A73721F4A091DC
:100A9C004703A73709F005C0E0E0E093E202E093DA
:100AAC00E302E2EEF2E0FA93EA93E7EEFFEFFA9359
:100ABC00EA93A9E1B0E0BED039C00E949A1289F441
:100ACC000E94A01271F4A0914403A63151F4A0919C
:100ADC004503E0914603EA1721F4A0914503AE3E8D
:100AEC0009F024C00E94DB124091D4025091D5022F
:100AFC00FA01AFE1B0E00E945D16A4E6B0E00E94FE
:100B0C006215AFE1B0E00E944D164E175F0771F40D
:100B1C00E0910503EA93E1E9EA93EDEDEA93EA93B8
:100B2C00E0E0EA93EA93EA93A0E07BDBE0E0E09379
:100B3C006A030E948716BBC0EAB5E1FF70C0A091A2
:100B4C000B03AF5FA0930B03A73018F0E0E0E0932A
:100B5C000B03A0910B03A630C0F5E0910B03EA93B5
:100B6C00EA93EDEEEA93E0E00E946713EC91A0911A
:100B7C001303EA0F0E9467130E942E16A091130311
:100B8C00B0911403AE0FBF1FE0E0F1E00E94DE1540
:100B9C00EA93E8EEEA93A8EE44DBA0910B03B0E0F5
:100BAC00A85CBC4FEC91EF5FEC93E0910B03F0E091
:100BBC00E85CFC4FA081AB3038F0E0910B03F0E027
:100BCC00E35DFC4FA0E0A0832AC0A0910B03A630EC
:100BDC0031F5E091D402F091D502E093EE02F0935E
:100BEC00EF02E0910503EA93EAEDEA93E091AD029E
:100BFC00EA93E091AC02EA93E091AF02EA93E091C0
:100C0C00AE02EA93E091B102EA93A091B0020E9485
:100C1C00B412E091EF02EA93A091EE0202DB089588
:100C2C00E0E0E4BDE5E0E5BDE8EFE6BDE1E0E09342
:100C3C006E000895BA93AA93AC81BD810E942E16C2
:100C4C00DF01EA81FB81AE17BF0724F4AC81BD81C3
:100C5C00ED93FC93AC81BD810E942E16DF01E881DF
:100C6C00F981EA17FB0724F4AC81BD81ED93FC9369
:100C7C001EC0BA93AA93AC81BD810E944D16DF01B0
:100C8C00EA81FB81AE17BF0724F4AC81BD810E94C1
:100C9C005D16AC81BD810E944D16DF01E881F981A2
:100CAC00EA17FB0724F4AC81BD810E945D162696E1
:100CBC0008950E947213A091E402B091E502EA1724
:100CCC00FB0709F5A091E602B091E702DC97D4F49A
:100CDC00A6EEB2E00E946113A091E602B091E70289
:100CEC00DC9784F0A0E1B0E00E944D16DF010E9479
:100CFC007213EA17FB0731F00E947213A0E1B0E007
:100D0C000E945D1605C0E0E0E093E602E093E70286
:100D1C00A091E602B091E702DD972CF0E0E0E093C1
:100D2C00E602E093E7020E947213E093E402F09370
:100D3C00E5020895A091F602A03061F4A091F702AB
:100D4C00A03041F4A091F802A03021F4E091FB0214
:100D5C00E03009F010C0ECE3E093F602E093F70208
:100D6C00E093F802E0E1FEE0E093F902F093FA027E
:100D7C00E1E0E093FB020895E0E0E093F602E093FB
:100D8C00F702E093F802E093F902E093FA02E093A1
:100D9C00FB020895509AE091C502E17011F0589A47
:100DAC0001C05898519AE091C902E17011F0599A1A
:100DBC0001C05998E091C502F091C6026091C7023A
:100DCC007091C8020E9486150E947713E091C902A7
:100DDC00F091CA026091CB027091CC020E948615F0
:100DEC000E948013A091C402AF5FA093C402A132F1
:100DFC00B8F0E0E0E093C402E091BC02F091BD02D7
:100E0C006091BE027091BF020E947713E091C00204
:100E1C00F091C1026091C2027091C3020E948013D2
:100E2C000895A091DF02A330B9F0E091B602E8700A
:100E3C0021F0E0918F03E87049F0E091B602E07187
:100E4C0021F0E0918F03E07109F005C0A091CD0273
:100E5C00AA3A09F46FDF0EC0A091DF02A33051F45F
:100E6C00E091B602E87021F0E0918F03E87009F090
:100E7C0001C060DFE091B602E0938F0308952997DB
:100E8C001A930A93E0E0E7B9E8B9E6E00E94891307
:100E9C000E949413ED83FE83E7E00E9489130E9465
:100EAC009413EF83F887E0E00E9489130E94941357
:100EBC00E987FA87AD81BE81A631E2E0BE0724F056
:100ECC00A736E2E0BE070CF002C0E0E028C0AD811E
:100EDC00BE81A935E3E0BE0724F0AA3AE3E0BE07E1
:100EEC000CF002C0E1E01BC0AD81BE81AF38E2E086
:100EFC00BE0724F0A03EE2E0BE070CF002C0E2E028
:100F0C000EC0AD81BE81AF3CE3E0BE0724F0A03241
:100F1C00E4E0BE070CF002C0E3E001C0E5E0E093C2
:100F2C000203AF81B885A631E2E0BE0724F0A736F4
:100F3C00E2E0BE070CF002C0E0E028C0AF81B8854B
:100F4C00A935E3E0BE0724F0AA3AE3E0BE070CF0B3
:100F5C0002C0E1E01BC0AF81B885AF38E2E0BE074C
:100F6C0024F0A03EE2E0BE070CF002C0E2E00EC0AE
:100F7C00AF81B885AF3CE3E0BE0724F0A032E4E0DB
:100F8C00BE070CF002C0E3E001C0E5E0E093030310
:100F9C00A985BA85A631E2E0BE0724F0A736E2E0C7
:100FAC00BE070CF002C0E0E028C0A985BA85A935BF
:100FBC00E3E0BE0724F0AA3AE3E0BE070CF002C05F
:100FCC00E1E01BC0A985BA85AF38E2E0BE0724F08A
:100FDC00A03EE2E0BE070CF002C0E2E00EC0A98524
:100FEC00BA85AF3CE3E0BE0724F0A032E4E0BE07D4
:100FFC000CF002C0E3E001C0E5E0E0930403A09133
:10100C000203A53041F0A0910303A53021F0A0917B
:10101C000403A53021F4E1E0E09306031AC0E0914B
:10102C000403E27011F0E1E001C0E0E0E09307039B
:10103C00E0910303EE0FEE0FA0910203EA0F6E2F67
:10104C00E0910403E170A0E1EA9FF001E60FE09368
:10105C000503198108812B960895E091F602E03082
:10106C0041F0E150E093F602E03011F40E94471396
:10107C001FC0E091F702E03061F0E091F702E1501F
:10108C00E093F702E091F702E03011F40E9447136D
:10109C000FC0E091F802E03059F0E091F802E15015
:1010AC00E093F802E091F802E03011F40E9447134B
:1010BC00E091F902F091FA02309789F0A9EFB2E0D1
:1010CC00ED91FD913197FE93EE93E091F902F09141
:1010DC00FA02309721F4E0E0E093FB022BDE0E9451
:1010EC009913109731F40E949E13109711F44C9B96
:1010FC0001C00FC0A091FC02A43150F4E091FC029D
:10110C00EF5FE093FC02A091FC02A43108F034DE06
:10111C0003C0E0E0E093FC020895A091DF02A3304D
:10112C00B1F10E94A313AA35E2E0BE0724F4AEECA1
:10113C00B2E00E9461130E94A313AE34E2E0BE073A
:10114C0029F4E091B602E17CE093B6020E94A3136D
:10115C00A835E2E0BE07D1F4EAEAE093CD02A09113
:10116C000703A13019F4EAB5E26002C0EAB5ED7FDD
:10117C00EABDE0E0E0930B030E94D51239F4E1E004
:10118C00E093FE02A4E1B0E00E94651603C0EAEA17
:10119C00E093CD0208950E9431130E94A813EA1720
:1011AC00FB0734F4A0EDB2E0ED91FD9131960DC04A
:1011BC000E94311331970E94A813AE17BF073CF45D
:1011CC00A0EDB2E0ED91FD913197FE93EE93E0ED41
:1011DC00F2E00E94AD13A091D002B091D102D7974A
:1011EC0094F0A091DF02A03021F4E091B602E074FB
:1011FC0021F0A091DF02A33029F4E091B602E46063
:10120C00E093B6020BC0A091D002B091D102169718
:10121C002CF4E091B602EB7FE093B6020E942C1303
:10122C000E94A813EA17FB0734F4A2EDB2E0ED918B
:10123C00FD9131960DC00E942C1331970E94A8137A
:10124C00AE17BF073CF4A2EDB2E0ED91FD913197E2
:10125C00FE93EE93E2EDF2E00E94AD13A091D20268
:10126C00B091D302D79794F0A091DF02A03021F473
:10127C00E091B602E07421F0A091DF02A33029F4D2
:10128C00E091B602E260E093B6020BC0A091D202EC
:10129C00B091D30216972CF4E091B602ED7FE09357
:1012AC00B6020895A091DF02A33009F448C00E9451
:1012BC0015130E94B713EA17FB0728F4A8EDB2E048
:1012CC000E94611305C0E0E0E093D802E093D902DC
:1012DC000E94BC132CF0E091B602E860E093B602D9
:1012EC00E091AE02F091AF020E94B713AE17BF07A8
:1012FC0090F40E94B713E091AE02F091AF02EA1B9A
:10130C00FB0B0F01A9E1B0E00E944D16E015F105B1
:10131C0010F44C9B01C005C0AAEDB2E00E94611311
:10132C0005C0E0E0E093DA02E093DB020E94CB130D
:10133C002CF0E091B602E061E093B60237C0A091C8
:10134C00DF02A33099F50E94B713AD3BE2E0BE0774
:10135C0028F0A8EDB2E00E94611305C0E0E0E09334
:10136C00D802E093D9020E94BC132CF0E091B60293
:10137C00E860E093B6020E94B713A83CE0E0BE0719
:10138C0010F44C9B01C005C0AAEDB2E00E946113A1
:10139C0005C0E0E0E093DA02E093DB020E94CB139D
:1013AC002CF0E091B602E061E093B6020895E09172
:1013BC000603E03039F00E94DA130E94DF130E941A
:1013CC00DA1344C2E0910703E03009F0EBC0A091BE
:1013DC00DF02A33009F48DC00E943B130E94E81376
:1013EC00AE17BF072CF40E94F1130E94FB1369C0C7
:1013FC00A091CD02A53521F4E091B702E07809F473
:10140C0003C00E9400145DC00E943B130E94E813AD
:10141C00EA17FB071CF40E940A140CF007C00E9488
:10142C00131421F00E943613309709F005C00E9466
:10143C00F1130E941B1445C0A091CD02AA3A19F4D5
:10144C000E9420143EC0A091CD02A53521F4E0915C
:10145C00B602EE7309F005C00E94F1130E941B1432
:10146C0030C00E94231429F40E9428140E941B14DB
:10147C0028C0E091B602E27029F00E9428140E9464
:10148C002D1427C0E091B602E87019F00E943714B1
:10149C0020C0E091B602E07129F00E943D140E9438
:1014AC00421417C0A091CD02A53521F4E091B602EB
:1014BC00E07209F40EC00E94F113E3E0F0E063E087
:1014CC0070E0E093C002F093C1026093C20270938B
:1014DC00C302A091DF02A13029F40E94F1130E94F3
:1014EC00441406C0A091DF02A23011F40E945114E2
:1014FC0058C0A091DF02A33009F053C00E943B13E7
:10150C000E94E813AE17BF072CF40E94F1130E943F
:10151C00FB133FC00E943B130E94E813EA17FB0722
:10152C001CF40E9456140CF003C00E94F1132DC041
:10153C00E091B602EE7119F40E94F11326C00E94DC
:10154C00231429F4E1E0F0E061E070E016C0E091D2
:10155C00B602E27029F00E9428140E942D1421C0BA
:10156C00E091B602E87019F00E9437141AC0E091AD
:10157C00B602E071B1F00E943D14E093BC02F0930E
:10158C00BD026093BE027093BF02EFEFFFEF6FEFEF
:10159C007FEFE093C002F093C1026093C20270939C
:1015AC00C3025CC1A0910703A13009F057C1A091FF
:1015BC00DF02A33009F4FAC00E943B130E94E81327
:1015CC00AE17BF072CF40E94F1130E94FB13D6C078
:1015DC00A091CD02A53521F4E091B702E07809F491
:1015EC0003C00E940014CAC00E943B130E94E8135F
:1015FC00EA17FB071CF40E940A140CF007C00E94A7
:10160C00131421F00E943613309709F005C00E9484
:10161C00F1130E941B14B2C0A091CD02AA3A09F09A
:10162C006FC0E091B602EE71A9F40E94F113EAB515
:10163C00E1FF05C0E5EFFFEF6FEF7FEF02C00E9407
:10164C001B14E093C002F093C1026093C20270932A
:10165C00C30255C00E942314A9F40E942814EAB5B1
:10166C00E1FF05C0E5EFFFEF6FEF7FEF02C00E94D7
:10167C001B14E093C002F093C1026093C2027093FA
:10168C00C3023DC0E091B602E27059F00E942814EA
:10169C00EAB5E1FF03C00E945F1402C00E942D1442
:1016AC002EC0E091B602E87079F0E9E0F0E069E074
:1016BC0070E00E94DF13EAB5E1FF03C00E945F14E3
:1016CC0002C00E942D141BC0E091B602E07169F0BB
:1016DC000E943D140E94DF13EAB5E1FF03C00E9493
:1016EC005F1402C00E942D140AC00E942014E093C3
:1016FC00C002F093C1026093C2027093C30246C051
:10170C00A091CD02A53521F4E091B602EE7309F05B
:10171C0005C00E94F1130E941B1430C00E942314B8
:10172C0029F40E9428140E941B1428C0E091B602D0
:10173C00E27029F00E9428140E942D1427C0E09119
:10174C00B602E87019F00E94371420C0E091B6027E
:10175C00E07129F00E943D140E94421417C0A09120
:10176C00CD02A53521F4E091B602E07209F40EC069
:10177C000E94F113E3E0F0E063E070E0E093C0025C
:10178C00F093C1026093C2027093C302A091DF0276
:10179C00A13029F40E94F1130E94441406C0A091B8
:1017AC00DF02A23011F40E94511458C0A091DF0244
:1017BC00A33009F053C00E943B130E94E813AE17EC
:1017CC00BF072CF40E94F1130E94FB133FC00E9430
:1017DC003B130E94E813EA17FB071CF40E945614F3
:1017EC000CF003C00E94F1132DC0E091B602EE7113
:1017FC0019F40E94F11326C00E94231429F4E1E08D
:10180C00F0E061E070E016C0E091B602E27029F001
:10181C000E9428140E942D1421C0E091B602E87099
:10182C0019F00E9437141AC0E091B602E071B1F0C1
:10183C000E943D14E093BC02F093BD026093BE0283
:10184C007093BF02EFEFFFEF6FEF7FEFE093C002FB
:10185C00F093C1026093C2027093C302089524975F
:10186C000E94801600E911E020E931E040E951E0E6
:10187C000E9415130E949415A0EABCE880E090E049
:10188C000E946C14A091AC02B091AD0288279927EC
:10189C00EE81FF81688579850E946C140E94361355
:1018AC00E130A0E0FA0781F4A5E2B0E00E944D1609
:1018BC00A091AC02B091AD020E94CB1566277727A0
:1018CC00EE83FF83688779870E947314AB30E0E066
:1018DC00BE07E0E08E07E0E09E071CF008EE13E088
:1018EC0016C00E947314A130E0E0BE07E0E08E0742
:1018FC00E0E09E071CF400E911E009C0EE81FF81D5
:10190C00ACE3B0E00E94C115E057FE4F8F01EDB77C
:10191C00FEB73197FA93EA931F930F930E947814B2
:10192C0089D90F911F91E091B402F091B5020E94F8
:10193C009415EE83FF83688779870E9431130E9488
:10194C009415EE51F040604070400E9473140E9458
:10195C0076161CF020E931E01CC00E9431130E9465
:10196C0073140E9494150E947B161CF028EE33E031
:10197C0010C00E9431137E97AE81BF810E94461623
:10198C00EA1BFB0BA4E1B0E00E94C115E057FE4F2F
:10199C009F01EDB7FEB73197FA93EA933F932F93DC
:1019AC000E94781447D92F913F91A8010217130771
:1019BC000CF4A9010E947B14A417B5074CF4E09118
:1019CC000803F09109033A96E0930803F093090396
:1019DC000E947B144A175B074CF4E0910803F091CA
:1019EC0009033A97E0930803F0930903E8E0F3E066
:1019FC00FA93EA930E9478141DD9E0910A03E0301F
:101A0C0029F0E0E0E0930803E09309030E948716B5
:101A1C002A9608951A93E0910A03E03021F4ACE081
:101A2C00B3E00E946113A0910C03B0910D03A1319E
:101A3C00EEE0BE0780F00E948014E036AAEEFA07B2
:101A4C0028F40E94801431960E945D16E0E0E09329
:101A5C000C03E0930D030E948014EF70F070E09380
:101A6C000E030E948014E07FF0700E948B15F0E052
:101A7C00E064E0930F030E948014E070FF70EF2F7E
:101A8C00F0E0F0E0E068E09310030E948014E07056
:101A9C00F07F0E948B15EF2FF0E0F0E0E06CE0930C
:101AAC001103E0910E03EF701E2FE0910F03EF7006
:101ABC001E27E0911003EF701E27E0911103EF70C9
:101ACC001E27E12FE370E295E07FA0910E03EA2B35
:101ADC00E0930E03EFE0F3E00F01A081E12FEC7037
:101AEC00EE0FEE0FEA2BD001EC93E0E1F3E00F01E7
:101AFC00A081E12FE073EA2BD001EC93E1E1F3E05C
:101B0C000F01A081E12FE07CE695E695EA2BD00150
:101B1C00EC93E0911203EF5FE0931203A091120398
:101B2C00A43018F0E0E0E0931203C8C01A93EAB5B1
:101B3C00E1FFC4C00E9485143A970E948A1430F4C5
:101B4C000E94911435960E94961425C00E9485140B
:101B5C0031970E948A1430F4A3E1B3E0ED91FD912A
:101B6C00319617C00E9485143A960E949B1430F44B
:101B7C000E9491143A970E9496140DC00E948514ED
:101B8C0031960E949B1438F4A3E1B3E0ED91FD91E2
:101B9C003197FE93EE93A0911303B0911403AD3FD4
:101BAC00E3E0BE0724F0ECEFF3E00E949614A09162
:101BBC001403AA232AF4E0E0E0931303E093140344
:101BCC00E0E0E0933603E0933703E093350310E055
:101BDC00163008F50E94A214E081E030B1F00E94AA
:101BEC00A714A0913603B0913703EA0FFB1FE093C3
:101BFC003603F09337030E94A214A1E0A083E09176
:101C0C003503EF5FE093350304C00E94A214A0E0FB
:101C1C00A0831F5FDDCFE0913503A0913603B09117
:101C2C003703F0E00E94DE15E0933303F0933403A6
:101C3C0010E0163008F042C00E94A214E081E0309F
:101C4C00D9F10E94A714DF01E0913303F091340322
:101C5C003A97AE17BF0724F40E94B21431960EC007
:101C6C000E94A714DF01E0913303F09134033A96FC
:101C7C00EA17FB072CF40E94B2143197FE93EE93F3
:101C8C000E94BD140E942E16E536A0E0FA0734F02F
:101C9C000E94BD14E4E6F0E0ED93FC930E94BD14A9
:101CAC000E942E16EC39AFEFFA0734F40E94BD14E3
:101CBC00ECE9FFEFED93FC931F5FBBCF19910895F7
:101CCC00A091DF02A330C9F4E091B602EA7061F48E
:101CDC00E4EFF1E00E94C61428F40E94D21410F034
:101CEC000E94E314F79808C0E091B602EA7021F064
:101CFC000E94EA140E94F014D6C0A091DF02A23018
:101D0C0061F40E94EA140E94F71428F40E94D21481
:101D1C0010F00E94E314F798C6C0A091DF02A13026
:101D2C0061F4EFEFF3E00E94C61428F40E94D21481
:101D3C0010F00E94E314F798B6C0EAB5E1FF04C0B6
:101D4C00A091CD02A53509F00EC00E9491140E94FD
:101D5C00C61428F40E94D21410F00E94E314EAB5C1
:101D6C00EE7FEABDA0C0A091CD02AA3A99F50E94DF
:101D7C003613309729F00E94EA140E94F01429C0FF
:101D8C00E091B602EA71D1F4AFE1B0E00E944D16D9
:101D9C000E94FF14E4EDF2E0FA93EA93E0E0F0E045
:101DAC000E9404150E94F71428F40E94D21410F01B
:101DBC000E94E314F798EAB5EE7F0AC0E091B602F0
:101DCC00EA7139F00E94EA140E94F014EAB5E1605D
:101DDC00EABD69C0A091CD02A53509F064C0E091BF
:101DEC00B602E07209F057C0E091B602EE71E43031
:101DFC0001F50E940A153097A9F40E9413150E9450
:101E0C001815AE17BF0738F4A0913E03B0913F03ED
:101E1C000E941D1502C00E941315E093D602F09388
:101E2C00D70206C00E941315E093D602F093D70296
:101E3C00F798E091B602EA7121F0E091B602E074F5
:101E4C0009F10E940A153097A9F40E9425150E94E9
:101E5C001815AE17BF0738F4A091BA02B091BB02A7
:101E6C000E941D1502C00E942515E093D602F09326
:101E7C00D70206C00E942515E093D602F093D70234
:101E8C00F79808C0E091B602EA7121F00E94EA14BA
:101E9C000E94F01408C0E091B602E07221F00E949A
:101EAC00EA140E94F0140895549AA091E002B091A3
:101EBC00E102AC3DE5E0BE0724F4A0EEB2E00E94E6
:101ECC006113A091E002B091E102599724F40E94B1
:101EDC003613309709F403C05C9AE1E062C00E94AB
:101EEC003613309761F0F79B03C05C9AE1E004C0B5
:101EFC00F79904C05C98E0E0E0930A0354C00E9498
:101F0C003B130E94E813AE17BF0724F4A0910703FC
:101F1C00A13009F403C05C9AE1E043C0A09107032F
:101F2C00A13071F4EAB5E0FF03C05C9AE1E005C0B2
:101F3C00EAB5E0FD04C05C98E0E0E0930A0333C02E
:101F4C000E943B130E94E813EA17FB071CF40E9443
:101F5C0056140CF01DC0A0910703A130A1F0E09124
:101F6C000703E030A1F40E943613309761F0E09142
:101F7C00B602E07219F05C9AE1E002C05C98E0E015
:101F8C00E0930A0304C05C98E0E0E0930A030BC002
:101F9C00F79B03C05C9AE1E004C0F79904C05C981D
:101FAC00E0E0E0930A03E4EDF2E00E942A15E6ED8E
:101FBC00F2E00E942A150E943613309741F40E94D9
:101FCC003B133A960E94E813AE17BF070CF004C0FF
:101FDC00EAE0F0E00E94FF14E091D502E093890062
:101FEC00E091D402E0938800E091D702E0938B005B
:101FFC00E091D602E0938A000E947B14E4E0F0E0CA
:10200C000E94DE15E093B4000895269A279A2E9A22
:10201C002F9A1E9B0AC0A091DD02AA3028F4E091F1
:10202C00DD02EF5FE093DD0209C01E9907C0E0916D
:10203C00DD02E03019F0E150E093DD021F9B0AC095
:10204C00A091DE02AA3028F4E091DE02EF5FE0936B
:10205C00DE0209C01F9907C0E091DE02E03019F0E2
:10206C00E150E093DE02A091DD02AA3021F4A091B0
:10207C00DE02AA3009F003C0E0E0E093DF02A09199
:10208C00DD02A03021F4A091DE02AA3009F003C0D9
:10209C00E1E0E093DF02A091DD02AA3021F4A091EF
:1020AC00DE02A03009F003C0E2E0E093DF02A09171
:1020BC00DD02A03021F4A091DE02A03009F003C0B3
:1020CC00E3E0E093DF0208951A930A9300917800FD
:1020DC00109179000E942F15DF01E091AA02F0E027
:1020EC00EE0FFF1FEA0FFB1F00831183E091AA0282
:1020FC00E37099F521970E943915AE0FBF1FE0E0F0
:10210C00F0E0ED93FC93E883A881A031D8F40E9411
:10211C003915EA0FFB1FBF01008011800E942F159B
:10212C00DF01E881F0E0EE0FFF1FAE0FBF1F0E9432
:10213C002E16E00DF11DDB01ED93FC93E881EF5FB2
:10214C00E883E2CF0E943915AE0FBF1FED91FD91D0
:10215C000E948B15FE93EE932196A091AB02AF5F7C
:10216C00A093AB02A53060F0E0E0E093AB02A0914D
:10217C00AA02AF5FA093AA02A03110F0E093AA02CA
:10218C00E7B1E07CE7B9E8B1E07CE8B9E091AB02FB
:10219C00E03011F4E1E017C0A091AB02A13011F4D2
:1021AC00E4E011C0A091AB02A23011F4E2E00BC04C
:1021BC00A091AB02A33011F4E3E005C0A091AB02F7
:1021CC00A43019F4E5E0E0937C00E6EAE0937A00B1
:1021DC00E0917A00E064E0937A00099119910895F6
:1021EC0024970E94E3120E944115A0E0B0E00E94E7
:1021FC004D160E9446150E946C150E943C16AB8130
:10220C00AA2312F40E944B150E94ED120E9446154F
:10221C000E944F15E0E6F9E060E070E00E94561570
:10222C00E093AC02F093AD02E091A202F091A30214
:10223C000E944115AB81AA2312F40E944B150E94F7
:10224C0006130E9446150E944F150E945D15E093DF
:10225C00B002F093B102E091A402F091A5020E94A9
:10226C004115AB81AA2312F40E944B150E94011355
:10227C000E9446150E944F150E945D15E093AE0218
:10228C00F093AF02E091A602F091A7020E944115D3
:10229C000E940B130E9446150E944F15EEE2F5E0CA
:1022AC0060E070E00E945615E151F140E093B402F9
:1022BC00F093B502E091B602F0E0E093B202F09335
:1022CC00B302249608950A921A92FA926A937A9318
:1022DC008A939A93AA93BA93EA93FA93EFB7EA93F1
:1022EC000E9416060E94E101B394EAE0BE16E8F0E3
:1022FC00BB2473947E1610F07724F39A8394E3E056
:10230C008E1610F08824F29A6394E4E16E1638F07D
:10231C006624F49AF69B02C0F69801C0F69A939440
:10232C00E4E69E1610F09924F59AE991EFBFF99125
:10233C00E991B991A9919991899179916991F990C2
:10234C001990099018952A9A229AE4B1E663E4B997
:10235C00E3EAE0938000E9E0E0938100E0E0E093C1
:10236C008500E0938400E0938700E0938600E1E031
:10237C00E0938900E0E0E0938800E3E0E0938B00D9
:10238C00E0E0E0938A00219A229AE093B600E3E21F
:10239C00E093B000E1E0E093B100E0E0E093B20044
:1023AC00E093B300E0E3E093B400539AEDE5ECBDA9
:1023BC00E0E0EDBD0E9445070E9416060E94CC127B
:1023CC00E0E0E093E002E093E102A0E1B0E00E94E3
:1023DC004D16E093E202F093E302A091E202B09179
:1023EC00E3025A9744F4A091E202B091E302A73EB3
:1023FC00EFEFBE072CF4E0E0E093E202E093E3029F
:10240C00A2E1B0E00E945116E03010F0E43028F068
:10241C00A2E1B0E0E3E00E94651678940E946001AE
:10242C00509AE0916A03E03029F0E0E0E0936A030F
:10243C000E945302F29B02C0F29846DEF39B0CC042
:10244C00F398CEDE0E94D0060E94930839DCDDDDC5
:10245C000E9417070E94A205F49B05C0F49824DD86
:10246C000E94DD09FCD9F59B2DC0F5980E94D1087E
:10247C000E9458090E945F06A091E802B091E902FF
:10248C00A83EE3E0BE0724F4A8EEB2E00E9461137C
:10249C00A091CD02AA3A21F0A091DF02A33011F451
:1024AC000E943308E0910103EF5FE0930103A091D8
:1024BC000103AA3028F0E0E0E09301030E946001E0
:1024CC0035DBA8DAA895ADCFFFCFAA93E881EEBD96
:1024DC00EDB5E7FFFDCFEEB521960895E4B1EC62C2
:1024EC00E4B92498209A289808950E946B12A98127
:1024FC000C946B12E0918B03F0E0EA0FFB1F089534
:10250C00AAE0B0E00C946215EA93AFEF0C94D500FE
:10251C00EA93A0EC0C94D500EA93A0E00C94D500BF
:10252C00EA93A1E30C94D500E0910503A09142033A
:10253C00EA170895A0914303E0910503EA17089563
:10254C00A0914703B0E0E0E0F1E00E9499150895F6
:10255C00B0E0E0E0F1E00E94991508950E941701A7
:10256C00E0910503EA93EBEDEA93E091B402EA9370
:10257C00E0911203F0E0E25FFC4FE081EA93E0911E
:10258C00B602EA93E091E202EA930895E0E0E09368
:10259C00CE02E093CF02E5E5E093CD020895A4E1ED
:1025AC00B0E00E945116E0300895ADE8B3E0ED9133
:1025BC00FD913196FE93EE930895E091A002F09177
:1025CC00A1020895E0914503EF70E2300895A2E076
:1025DC00B0E00E944D160895E0914503EF70E33092
:1025EC000895E0914503EF70E4300895E0914503C0
:1025FC00EF70E5300895A6E0B0E00E944D16089506
:10260C00AAE0B0E00E944D160895AEE0B0E00E9442
:10261C004D160895FA93EA93A8EEB3E00895A7E156
:10262C00B0E00E944D160895A091460391CFA09161
:10263C004503B0E0EA0FFB1F0895A091480388CF33
:10264C00A0914703B0E0EA0FFB1F0895ABE1B0E0A7
:10265C000E944D160895ADE1B0E00E944D1608950C
:10266C00A3E2B0E00E944D160895A5E1B0E00E94EF
:10267C004D160895DF01E0914903F0E0EA17FB07DE
:10268C000895E091B602E17EE093B602E0E0E093BB
:10269C00D002E093D102E093D202E093D302E09314
:1026AC00D802E093D902E093DA02E093DB02EEE188
:1026BC00E093C4020895ED91FD913196FE93EE9353
:1026CC000895EA93E0910B03A5E1B3E0F0E0EE0F7F
:1026DC00FF1FAE0FBF1F0895E091E202F091E302DD
:1026EC000895E093C502F093C6026093C7027093FD
:1026FC00C8020895E093C902F093CA026093CB021A
:10270C007093CC020895E0937C00E6EAE0937A00A3
:10271C00E0917A00E064E0937A00F2CEE0917800E8
:10272C00F09179000895A091DA02B091DB0208953E
:10273C00A091D802B091D9020895A091CE02B09187
:10274C00CF020895A091B402B091B5020895FA9306
:10275C00EA93E0E0F0E0FA93EA93ACE3B0E00C9497
:10276C002006A091B002B091B1020895E8EDF2E01C
:10277C00FA93EA93E0E0F0E0FA93EA93AAE0B0E08F
:10278C000E942006D5DF1A970895EAEDF2E0FA933D
:10279C00EA93E0E0F0E0FA93EA93AAE0B0E00E945A
:1027AC002006C1DF1A970895E5E5F5E565E575E5C1
:1027BC000895E093BC02F093BD026093BE02709347
:1027CC00BF020895A5E0B0E00E94C115A091E002FF
:1027DC00B091E1020895E0E0E093BC02E093BD0209
:1027EC00E093BE02E093BF020895E3E0F3E063E000
:1027FC0073E00895E5E5F5E565E070E0DADFEFEF0D
:10280C00FFEF6FEF7FEF0895EC59FF4FA091E002BF
:10281C00B091E102AE17BF070895A1E2B0E00E94AB
:10282C004D16E535A0E0FA070895EFEFFFEF6FEFD7
:10283C007FEF0895B9DFBDDFF8CFE091B602EE73FC
:10284C00E4300895E1E0F0E061E070E0B2CFE0E068
:10285C00E093C002E093C102E093C202E093C30292
:10286C000895E9E0F0E069E070E0A3DFF0CFE9E47F
:10287C00F0E069E470E008959CDFE9CFE3E3F3E373
:10288C0063E373E3E093C002F093C1026093C2026E
:10289C007093C3020895ECECFCEC6CEC7CECECCF8C
:1028AC00EA5BFF4FA091E002B091E102AE17BF07C7
:1028BC000895E5E0F0E060E070E0E093C002F09392
:1028CC00C1026093C2027093C30208950E9408165D
:1028DC00EE83FF83688779870895AE81BF818885F1
:1028EC0099850895E0E9F1E095CEA0910803B091A7
:1028FC0009030895A7E2B0E00E944D160895A9E2DD
:10290C00B0E00E944D160895A091AE02B091AF02B6
:10291C00AE17BF070895E0911303F09114030895C7
:10292C00E0931303F09314030895A091AE02B091B9
:10293C00AF02EA17FB070895E12FF0E0E35DFC4FCF
:10294C000895E12FA1E2B3E0F0E0EE0FFF1FAE0F10
:10295C00BF1F0E942E160895E12FA5E1B3E0F0E011
:10296C00EE0FFF1FAE0FBF1FED91FD910895E12FEC
:10297C00A5E1B3E0F0E0EE0FFF1FAE0FBF1F08950F
:10298C00E093D402F093D502A091D602B091D70275
:10299C00AC3FE3E0BE070895E091D602F091D70278
:1029AC007E96E093D602F093D702A091D602B09116
:1029BC00D702AD3FE3E0BE070895ECEFF3E0E09300
:1029CC00D602F093D7020895E0E0E093D402E093AE
:1029DC00D5020895E0E0E093D602E093D702F79A8F
:1029EC000895A091D602B091D702AC3FE3E0BE07A8
:1029FC000895E093D402F093D5020895FA93EA93E4
:102A0C00ACEFB3E00C94200667DEA091B802B09155
:102A1C00B902EA0FFB1FEDDF23CEE0913E03F091EC
:102A2C003F030895A091D602B091D7020895EEE12C
:102A3C00F0E00E94CB15F6DFEA0FFB1F0895E09142
:102A4C00BA02F091BB020895FA93EA93E1E0F0E048
:102A5C00D5CFE091AB02F0E0EE0FFF1F0E947D1589
:102A6C00E050FE4F0895E091AB02A0EAB2E0F0E036
:102A7C00EE0FFF1F0895662777270E9437160895DB
:102A8C000E9432160E9494150895E0E00E944116AF
:102A9C0008950E94C6150E9437160E94321608959A
:102AAC000E9408160E943716E881F9810895E8EE15
:102ABC00F3E060E070E0F4CF109639F080ED97E031
:102ACC000197F1F7A8951197C9F70895AE1BBF0BA5
:102ADC00860B970B0895F195E195F0400895F095CC
:102AEC0060957095E195FF4F6F4F7F4F0895EE0FF6
:102AFC00FF1FEE0FFF1FEE0FFF1FEE0FFF1F0895BE
:102B0C0075956795F795E7950895F695E795F6957C
:102B1C00E795F695E795F695E79508956F2F660F6F
:102B2C00660B762F0895FA9FF02DEB9FF00DEA9F20
:102B3C00E02DF10D08957A9F702D6B9F700DF89F0D
:102B4C00700DE99F700D6A9F602D710DFB9F600DDC
:102B5C00711DE89F600D711D8827FA9FF02D610D86
:102B6C00781FEB9FF00D611D781FEA9FE02DF10D92
:102B7C00681F781F08954BD0D6DF0EF4ACDF089594
:102B8C0054D0D9DF0EF4ABDF08950024112490E16A
:102B9C00AA0FBB1F001C111C0E1A1F0A18F40E0ED4
:102BAC001F1E01C0A1609A9599F7FD01D0010895EF
:102BBC002ED0EBDF0EF48FDF08953F934F935F938E
:102BCC00002411244427552730E2AA0FBB1F881F6D
:102BDC00991F001C111C441F551F0E1A1F0A460B6F
:102BEC00570B28F40E0E1F1E461F571F01C0A16065
:102BFC003A9559F7FD01BC01D001CA015F914F9183
:102C0C003F91089512D0D9DF0EF469DF0895E8944E
:102C1C00F7FF02C060DF6894B7FF06C0A095B095BF
:102C2C00119600F8039400FA0895E89477FF02C017
:102C3C0056DF689497FF0BC00024A095B095809543
:102C4C0090951196801D901D00F8039400FA08953C
:102C5C00ED91FC9111970895A881B9818A819B818E
:102C6C000895E883F9836A837B830895A883B983E5
:102C7C008A839B830895E883E983EA83EB83089531
:102C8C001B2EBF2FF12D1A2EAE2FE12D089511966C
:102C9C0002D0FE2F1197F999FECFFF93FFB7F8944E
:102CAC00A1BDB2BDF89AE0B5FFBFFF91089507D062
:102CBC001196EF93EF2F03D0EF9111970895F99B95
:102CCC0002C0A895FCCF9FB7F894A1BDB2BDF89AED
:102CDC0080B5E81719F0E0BDFA9AF99A9FBF0895EC
:102CEC00EA17FB07680779070895AE17BF07860731
:102CFC00970708955A934A933A932A931A930A93EF
:102D0C0008955D814C813B812A8119810881089548
:00000001FF
