:020000000C945E
:1000020070000C9400000C9400000C9400000C94FE
:1000120000000C9400000C9400000C9400000C945E
:1000220000000C9400000C9400000C9400000C944E
:1000320000000C9400000C9400000C9400000C943E
:10004200D0100C9400000C9400000C9400000C944E
:1000520000000C9400000C9400000C9400000C941E
:1000620000000C9400001027E80364000A0001005D
:100072000010000110000100000048007D00B100E6
:10008200D900FE001E013E015A0174019001AB012C
:10009200C501DE01F6010D02030303031E00320057
:1000A2003200BC027B0001002D4E414E00494E46FB
:1000B20000000400C0029A000100C4029E00010078
:1000C200D302A0000100D502A20002001203A40084
:1000D20001008C03A60001008F03A8000000F89421
:1000E200EE27EFBBF1E0F5BFE5BFF8E1A895A4B7B5
:1000F200A77FA4BFF0936000E09360008DE0A2E0D0
:10010200BB27ED938A95E9F780E094E0A0E0B1E0A7
:10011200ED930197E9F7E4EBF0E085919591009773
:1001220061F0A591B59105901590BF01F001059080
:100132000D920197E1F7FB01F0CFE0E0EEBBEABDE3
:10014200EBBDEFEFEDBFE4E0EEBFC0E0D2E00C9418
:100152001011F8940E94F111289A78940895AA93A4
:100162001A93F8940E94F1118BE18A95F1F7A3E0BA
:100172000E94F811A5E50E94E8111E2F289A789492
:10018200E12F188122960895AA93F8940E94F11102
:10019200A5E00E94E811AA810E94F811A8810E949C
:1001A200E811289A78940FC0AA931A93F8940E949F
:1001B200F111A2E00E94E811AA810E94F811289A86
:1001C2007894E12F1881239608951A93F8940E9447
:1001D200F11100000000000000000000000000001B
:1001E2000000A0EA0E94E811A5E50E94E8111E2F76
:1001F200289A7894E12FE2C0AA93F8940E94F11110
:10020200E881E03011F4E1E809C0A881A13011F4DD
:10021200E2E804C0A881A23011F4E4E8E883A881EE
:100222000E94E811289A789421960895AA93A091A1
:100232008A03A03010F0A43018F0E0E0E0938A03C3
:10024200E0918A03F0E0E659FC4FAF81A083AEE66D
:10025200B3E00E94FD11AE81A083A2E7B3E00E9449
:10026200FD11AD81A083A6E7B3E00E94FD11AC8130
:10027200A083AAE7B3E00E94FD11AB81A083AEE7A1
:10028200B3E00E94FD11AA81A083A2E8B3E00E941C
:10029200FD11A981A083A6E8B3E00E94FD11A88107
:1002A200A083E0918A03EF5FE0938A03A0918A031F
:1002B200A43018F0E0E0E0938A03289608951A9398
:1002C2000E94AA00AEE00E94B0001E2FE07EE0383D
:1002D20031F0EFE0EA93E0EEEA93A0E855DF8BE13C
:1002E2008A95F1F7EAE2EA93A3EC5EDFE9E2EA93A8
:1002F200AEEF5ADFE8E2EA93A3E056DFE0E6EA93E4
:10030200A0E252DFE0E7EA93A0E24EDF0E9403128E
:10031200E0E20E940712E1E20E940712E0E00E947E
:100322000712E1E00E940712E4E00E940712E5E0F2
:100332000E940712E4E20E940712E5E2EA93A0EEAD
:1003420033DFE8E0EA93A3E12FDFE9E00E940B123A
:10035200E0E10E940F12E1E10E940F12E4E10E942B
:100362000F12E5E10E940F12E8E10E940F12E9E18B
:100372000E940F12E1E50E941312E2E50E940B12A5
:10038200E1E40E941312E2E40E940B12E1E30E94F4
:100392001312E2E30E940B12EFE0EA93E7EEEA9314
:1003A200A5E00E94C500EBE2EA93A6E0FDDEA4E62A
:1003B200B0E00E94D514ECE00E940F12199108954A
:1003C2000E94F515F89401DFE0933F03A0914003EA
:1003D200EA2BE0934003E0913F03E270E9F000E092
:1003E200083078F4E02FF0E0EF5BFC4FFF93EF93DF
:1003F200A02FAA580E94B000AF91BF91EC930F5F5B
:10040200EFCFECE2EA93E2E0EA93A0E00E94C500BB
:10041200E1E0E093690341C0E0913F03E475E9F54F
:100422002197ECE2EA93ECE1EA93A0E00E94C50096
:10043200E0918A03A0918B03EA1771F1E0E0E8836F
:10044200A881A830B0F4E881EA5CEA93E981AAE6DF
:10045200B3E0F0E00E94F414AE0FBF1FE0918B03F3
:10046200F0E0AE0FBF1FAC919FDEE881EF5FE88343
:10047200E7CFE5E3EA93A8E00E94D500A0E0BCDE66
:10048200E0918B03EF5FE0938B03A0918B03A43089
:1004920018F0E0E0E0938B03219678940E94FC151B
:1004A200249608950E94F315A0914103A130E1F42E
:1004B200A0914203A230C1F4A0914303A330A1F45E
:1004C200A0914403A43081F4A0914503A53061F4C6
:1004D200A0914603A63041F4A0914703A73021F42E
:1004E200A0914803A83009F010C0E1E0EA93E2E0ED
:1004F200EA93E3E0EA93E4E0EA93E5E0EA93E6E0F4
:10050200EA93E7E0EA93A8E091DE0E94171239F439
:100512000E941D1221F4A0914303AD3E09F0BBC01D
:10052200E0E0E0930003E0914403E093B702E1705E
:10053200B9F0A091DB02A43078F4E091DB02EF5F26
:10054200E093DB02A091DB02A43028F0E091B60236
:10055200E062E093B60203C0E4E0E093DB021BC07A
:10056200E091DB02E030A1F0E150E093DB02A091E8
:10057200DB02A03061F4E091B602EF7DE093B602B7
:100582000E942312A5E0EA9FF001E093FF0203C05C
:10059200E0E0E093DB02E091B702E27021F0E0914B
:1005A200B602E06403C0E091B602EF7BE093B602CC
:1005B2000E942812A0914503B0E0EA0FFB1FE093CE
:1005C200B802F093B902A09148030E943012A091A0
:1005D2004703B0E0EA0FFB1FE093BA02F093BB02BD
:1005E200F091B602E0E0A091B702B0E0EA0FFB1F83
:1005F200E0938C03F0938D03E0910403EA93EAED18
:10060200EA93E091AC02EA93E091AD02EA93E091C1
:10061200AE02EA93E091AF02EA93E091B002EA936C
:10062200A091B1020E943612E091ED02EA93A091EC
:10063200EE02FCDD0E944912E091B702E07889F0F7
:10064200ADE1B0E00E94C415E03051F4ADE1B0E09C
:10065200E1E00E94D815E093FC02E0E0E093FE02A4
:1006620011C0A091E702B091E80255975CF0ADE1AC
:10067200B0E00E94C415E03029F0ADE1B0E0E0E066
:100682000E94D8150E94501229F0AEE1B0E0E0E0DD
:100692000E94D815E7C10E94171269F40E941D1228
:1006A20051F4A0914303AE3E31F4A0914403E09192
:1006B2004503EA1709F0CAC00E945612E0914403AA
:1006C200E07FE032A1F5E0914403EF70E13049F4BC
:1006D200E091A002F091A102A0E0B0E00E94D0154A
:1006E20023C00E945E1231F40E94631231960E946E
:1006F200D0151AC00E94681221F40E9463123A9621
:100702000FC00E946D1231F40E94631231970E9451
:10071200D0150AC00E94721239F40E9463123A97ED
:10072200A2E0B0E00E94D0150E94771283C0E0914F
:100732004403E07FE03121F50E945E1231F40E9411
:10074200821231960E94D0151AC00E94681221F4BA
:100752000E9482123A960FC00E946D1231F40E94DA
:10076200821231970E94D0150AC00E94721239F487
:100772000E9482123A97A6E0B0E00E94D0155BC0B8
:10078200E0914403E07F21F50E945E1231F40E9461
:10079200871231960E94D0151AC00E94681221F465
:1007A2000E9487123A960FC00E946D1231F40E9485
:1007B200871231970E94D0150AC00E94721239F432
:1007C2000E9487123A97AAE0B0E00E94D01533C087
:1007D200E0914403E07FE03371F50E945E1231F450
:1007E2000E948C1231960E94D0151AC00E94681283
:1007F20021F40E948C123A960FC00E946D1231F4BD
:100802000E948C1231970E94D0150AC00E94721267
:1008120039F40E948C123A97AEE0B0E00E94D015F3
:10082200EEE0F0E0FA93EA93E0EEF1E0FA93EA9375
:10083200A1EFB1E0BAD10E9449120E94501229F0F0
:10084200AEE1B0E0E0E00E94D8150CC1A0914103F6
:10085200AF3F41F4A0914203AF3F21F4A091430383
:10086200A23609F028C0A0E1B0E00E9491120E94D5
:100872009712E617F70751F0A09145030E94301234
:100882000E949712A0E1B0E00E94D015A2E1B0E070
:100892000E94C015BF010E949D120E94A012E6177D
:1008A200F70741F00E949D120E94A012A2E1B0E05F
:1008B2000E94D015D7C0A0914103AF3F41F4A0914F
:1008C2004203AF3F21F4A0914303A63209F035C0A1
:1008D200A4E1B0E00E9491120E949712E617F70776
:1008E20051F0A09145030E9430120E949712A4E198
:1008F200B0E00E94D015A6E1B0E00E94C015BF0191
:100902000E9428120E94A012E617F70741F00E94E7
:100912009D120E94A012A6E1B0E00E94D0150E9492
:100922002312AE2FE0914803EA1731F0E091480319
:10093200ACE1B0E00E94D81595C00E94171259F49C
:100942000E941D1241F4A0914303A63121F4A0910B
:100952004403A33609F003C00E94A61283C0A091EB
:100962004103AF3F61F4A0914203AF3F41F4A09134
:100972004303A63121F4A0914403A63109F039C002
:10098200A0914503A53521F4A0914603A53509F0B0
:1009920005C0A1EEB2E00E94C0121FC0A0914503A3
:1009A200A63621F4A0914603A63609F008C0A1EEAE
:1009B200B2E0ED91FD913197FE93EE930EC0A091BE
:1009C2004503A73721F4A0914603A73709F005C0D4
:1009D200E0E0E093E102E093E202E1EEF2E0FA937A
:1009E200EA93E7EEFFEFFA93EA93A9E1B0E0BED013
:1009F20039C00E94171289F40E941D1271F4A0914D
:100A02004303A63151F4A0914403E0914503EA1750
:100A120021F4A0914403AE3E09F024C00E94561274
:100A22004091D3025091D402FA01AAE1B0E00E94AF
:100A3200D015A4E6B0E00E94D514AAE1B0E00E946D
:100A4200C0154E175F0771F4E0910403EA93E1E9E0
:100A5200EA93EDEDEA93EA93E0E0EA93EA93EA930C
:100A6200A0E0E4DBE0E0E09369030E94FA15BBC07A
:100A7200EAB5E1FF70C0A0910A03AF5FA0930A0339
:100A8200A73018F0E0E0E0930A03A0910A03A63031
:100A9200C0F5E0910A03EA93EA93EDEEEA93E0E00F
:100AA2000E94C612EC91A0911203EA0F0E94C61294
:100AB2000E94A115A0911203B0911303AE0FBF1FA4
:100AC200E0E0F1E00E945115EA93E8EEEA93A8EE25
:100AD200ADDBA0910A03B0E0A95CBC4FEC91EF5FE3
:100AE200EC93E0910A03F0E0E95CFC4FA081AB30AB
:100AF20038F0E0910A03F0E0E45DFC4FA0E0A0834F
:100B02002AC0A0910A03A63031F5E091D302F091F8
:100B1200D402E093ED02F093EE02E0910403EA9333
:100B2200EAEDEA93E091AD02EA93E091AC02EA9336
:100B3200E091AF02EA93E091AE02EA93E091B10252
:100B4200EA93A091B0020E943612E091EE02EA937B
:100B5200A091ED026BDB0895E0E0E4BDE5E0E5BDC8
:100B6200E8EFE6BDE1E0E0936E000895BA93AA9340
:100B7200AC81BD810E94A115DF01EA81FB81AE1724
:100B8200BF0724F4AC81BD81ED93FC93AC81BD81A0
:100B92000E94A115DF01E881F981EA17FB0724F41D
:100BA200AC81BD81ED93FC931EC0BA93AA93AC8134
:100BB200BD810E94C015DF01EA81FB81AE17BF072C
:100BC20024F4AC81BD810E94D015AC81BD810E940C
:100BD200C015DF01E881F981EA17FB0724F4AC8133
:100BE200BD810E94D015269608950E94D112A0912F
:100BF200E302B091E402EA17FB0709F5A091E502CE
:100C0200B091E602DC97D4F4A5EEB2E00E94C012E5
:100C1200A091E502B091E602DC9784F0A8E1B0E091
:100C22000E94C015DF010E94D112EA17FB0731F0C2
:100C32000E94D112A8E1B0E00E94D01505C0E0E008
:100C4200E093E502E093E602A091E502B091E602AC
:100C5200DD972CF0E0E0E093E502E093E6020E94EB
:100C6200D112E093E302F093E4020895A091F50219
:100C7200A03061F4A091F602A03041F4A091F702F5
:100C8200A03021F4E091FA02E03009F010C0ECE368
:100C9200E093F502E093F602E093F702E0E1FEE072
:100CA200E093F802F093F902E1E0E093FA0208958A
:100CB200E0E0E093F502E093F602E093F702E093BE
:100CC200F802E093F902E093FA020895509AE09153
:100CD200C502E17011F0589A01C05898519AE091FA
:100CE200C902E17011F0599A01C05998E091C50208
:100CF200F091C6026091C7027091C8020E94F91475
:100D02000E94D612E091C902F091CA026091CB0210
:100D12007091CC020E94F9140E94DF12A091C402C9
:100D2200AF5FA093C402A132B8F0E0E0E093C40246
:100D3200E091BC02F091BD026091BE027091BF02CF
:100D42000E94D612E091C002F091C1026091C202EB
:100D52007091C3020E94DF120895A091DE02A330B7
:100D6200B9F0E091B602E87021F0E0918E03E870EC
:100D720049F0E091B602E07121F0E0918E03E0715A
:100D820009F005C0A091CD02AA3A09F46FDF0EC0A6
:100D9200A091DE02A33051F4E091B602E87021F096
:100DA200E0918E03E87009F001C060DFE091B602C5
:100DB200E0938E03089529971A930A93E0E0E7B926
:100DC200E8B9E6E00E94E8120E94F312ED83FE8386
:100DD200E7E00E94E8120E94F312EF83F887E0E056
:100DE2000E94E8120E94F312E987FA87AD81BE8160
:100DF200A631E2E0BE0724F0A736E2E0BE070CF01F
:100E020002C0E0E028C0AD81BE81A935E3E0BE07A3
:100E120024F0AA3AE3E0BE070CF002C0E1E01BC0F6
:100E2200AD81BE81AF38E2E0BE0724F0A03EE2E031
:100E3200BE070CF002C0E2E00EC0AD81BE81AF3C45
:100E4200E3E0BE0724F0A032E4E0BE070CF002C0EB
:100E5200E3E001C0E5E0E0930103AF81B885A6318C
:100E6200E2E0BE0724F0A736E2E0BE070CF002C0C3
:100E7200E0E028C0AF81B885A935E3E0BE0724F0E1
:100E8200AA3AE3E0BE070CF002C0E1E01BC0AF816A
:100E9200B885AF38E2E0BE0724F0A03EE2E0BE072C
:100EA2000CF002C0E2E00EC0AF81B885AF3CE3E0D7
:100EB200BE0724F0A032E4E0BE070CF002C0E3E07B
:100EC20001C0E5E0E0930203A985BA85A631E2E01C
:100ED200BE0724F0A736E2E0BE070CF002C0E0E055
:100EE20028C0A985BA85A935E3E0BE0724F0AA3A4D
:100EF200E3E0BE070CF002C0E1E01BC0A985BA85A1
:100F0200AF38E2E0BE0724F0A03EE2E0BE070CF0FC
:100F120002C0E2E00EC0A985BA85AF3CE3E0BE079D
:100F220024F0A032E4E0BE070CF002C0E3E001C00E
:100F3200E5E0E0930303A0910103A53041F0A09105
:100F42000203A53021F0A0910303A53021F4E1E0D2
:100F5200E09305031AC0E0910303E27011F0E1E0AF
:100F620001C0E0E0E0930603E0910203EE0FEE0F12
:100F7200A0910103EA0F6E2FE0910303E170A0E15B
:100F8200EA9FF001E60FE0930403198108812B9692
:100F92000895E091F502E03041F0E150E093F5026E
:100FA200E03011F40E94A6121FC0E091F602E03078
:100FB20061F0E091F602E150E093F602E091F60270
:100FC200E03011F40E94A6120FC0E091F702E03067
:100FD20059F0E091F702E150E093F702E091F70255
:100FE200E03011F40E94A612E091F802F091F902A9
:100FF200309789F0A8EFB2E0ED91FD913197FE9321
:10100200EE93E091F802F091F902309721F4E0E0DA
:10101200E093FA022BDE0E94F812109731F40E943C
:10102200FD12109711F44C9B01C00FC0A091FB025E
:10103200A43150F4E091FB02EF5FE093FB02A09138
:10104200FB02A43108F034DE03C0E0E0E093FB02CF
:101052000895A091DE02A330D1F1A091CE02BB2768
:10106200AA35E2E0BE072CF4E091CE02EF5FE093F6
:10107200CE02A091CE02B0E0AE34E2E0BE0729F487
:10108200E091B602E17CE093B602A091CE02B0E01C
:10109200A835E2E0BE07D1F4EAEAE093CD02A091DE
:1010A2000603A13019F4EAB5E26002C0EAB5ED7FA9
:1010B200EABDE0E0E0930A030E94501239F4E1E055
:1010C200E093FD02AEE1B0E00E94D81503C0EAEA67
:1010D200E093CD0208950E9402130E940713EA17BB
:1010E200FB0734F4AFECB2E0ED91FD9131960DC007
:1010F2000E94021331970E940713AE17BF073CF4F8
:10110200AFECB2E0ED91FD913197FE93EE93EFECEF
:10111200F2E00E940C13A091CF02B091D002D797B7
:1011220094F0A091DE02A03021F4E091B602E074C6
:1011320021F0A091DE02A33029F4E091B602E4602E
:10114200E093B6020BC0A091CF02B091D0021697E5
:101152002CF4E091B602EB7FE093B602A5E2B0E098
:101162000E94C0150E940713EA17FB0734F4A1ED91
:10117200B2E0ED91FD9131960FC0A5E2B0E00E9480
:10118200C01531970E940713AE17BF073CF4A1EDBB
:10119200B2E0ED91FD913197FE93EE93E1EDF2E035
:1011A2000E940C13A091D102B091D202D79794F071
:1011B200A091DE02A03021F4E091B602E07421F0A9
:1011C200A091DE02A33029F4E091B602E260E0933E
:1011D200B6020BC0A091D102B091D20216972CF4A4
:1011E200E091B602ED7FE093B6020895A091DE028F
:1011F200A33009F44AC0A1E2B0E00E94C0150E94E7
:101202001613EA17FB0728F4A7EDB2E00E94C012FA
:1012120005C0E0E0E093D702E093D8020E941B13DE
:101222002CF0E091B602E860E093B602E091AE02E3
:10123200F091AF020E941613AE17BF0790F40E94FE
:101242001613E091AE02F091AF02EA1BFB0B0F0105
:10125200A3E2B0E00E94C015E015F10510F44C9B2A
:1012620001C005C0A9EDB2E00E94C01205C0E0E0D5
:10127200E093D902E093DA020E942A132CF0E09163
:10128200B602E061E093B60237C0A091DE02A3305D
:1012920099F50E941613AD3BE2E0BE0728F0A7EDD8
:1012A200B2E00E94C01205C0E0E0E093D702E093F2
:1012B200D8020E941B132CF0E091B602E860E09382
:1012C200B6020E941613A83CE0E0BE0710F44C9B45
:1012D20001C005C0A9EDB2E00E94C01205C0E0E065
:1012E200E093D902E093DA020E942A132CF0E091F3
:1012F200B602E061E093B6020895E0910503E030A2
:1013020039F00E9439130E943E130E94391332C2EF
:10131200E0910603E03009F0E2C0A091DE02A330C2
:1013220009F488C00E944713AE17BF072CF40E942D
:1013320054130E945E1366C0A091CD02A53521F41C
:10134200E091B702E07809F403C00E9463135AC027
:101352000E944713EA17FB071CF40E946D130CF05E
:1013620006C00E94761319F00E947E1309F005C090
:101372000E9454130E94841345C0A091CD02AA3A40
:1013820019F40E9489133EC0A091CD02A53521F423
:10139200E091B602EE7309F005C00E9454130E9458
:1013A200841330C00E948C1329F40E9491130E946E
:1013B200841328C0E091B602E27029F00E949113D2
:1013C2000E94961327C0E091B602E87019F00E94BD
:1013D200A01320C0E091B602E07129F00E94A6138A
:1013E2000E94AB1317C0A091CD02A53521F4E09164
:1013F200B602E07209F40EC00E945413E3E0F0E07A
:1014020063E070E0E093C002F093C1026093C20215
:101412007093C302A091DE02A13029F40E945413FA
:101422000E94AD1306C0A091DE02A23011F40E9408
:10143200BA1354C0A091DE02A33009F04FC00E943B
:101442004713AE17BF072CF40E9454130E945E1379
:101452003DC00E944713EA17FB071CF40E94BF130A
:101462000CF003C00E9454132DC0E091B602EE713D
:1014720019F40E94541326C00E948C1329F4E1E04F
:10148200F0E061E070E016C0E091B602E27029F08F
:101492000E9491130E94961321C0E091B602E87057
:1014A20019F00E94A0131AC0E091B602E071B1F0E7
:1014B2000E94A613E093BC02F093BD026093BE02A9
:1014C2007093BF02EFEFFFEF6FEF7FEFE093C00289
:1014D200F093C1026093C2027093C30253C1A09100
:1014E2000603A13009F04EC1A091DE02A33009F437
:1014F200F5C00E944713AE17BF072CF40E94541385
:101502000E945E13D3C0A091CD02A53521F4E091D3
:10151200B702E07809F403C00E946313C7C00E94B7
:101522004713EA17FB071CF40E946D130CF006C068
:101532000E94761319F00E947E1309F005C00E94E2
:1015420054130E948413B2C0A091CD02AA3A09F0AA
:101552006FC0E091B602EE71A9F40E945413EAB58D
:10156200E1FF05C0E5EFFFEF6FEF7FEF02C00E94E2
:101572008413E093C002F093C1026093C20270939D
:10158200C30255C00E948C13A9F40E949113EAB5BC
:10159200E1FF05C0E5EFFFEF6FEF7FEF02C00E94B2
:1015A2008413E093C002F093C1026093C20270936D
:1015B200C3023DC0E091B602E27059F00E9491135D
:1015C200EAB5E1FF03C00E94C81302C00E9496134D
:1015D2002EC0E091B602E87079F0E9E0F0E069E04F
:1015E20070E00E943E13EAB5E1FF03C00E94C813F7
:1015F20002C00E9496131BC0E091B602E07169F02E
:101602000E94A6130E943E13EAB5E1FF03C00E94A6
:10161200C81302C00E9496130AC00E948913E09365
:10162200C002F093C1026093C2027093C30246C02B
:10163200A091CD02A53521F4E091B602EE7309F036
:1016420005C00E9454130E94841330C00E948C1360
:1016520029F40E9491130E94841328C0E091B602DB
:10166200E27029F00E9491130E94961327C0E09124
:10167200B602E87019F00E94A01320C0E091B602F1
:10168200E07129F00E94A6130E94AB1317C0A0912B
:10169200CD02A53521F4E091B602E07209F40EC044
:1016A2000E945413E3E0F0E063E070E0E093C002D4
:1016B200F093C1026093C2027093C302A091DE0252
:1016C200A13029F40E9454130E94AD1306C0A091C8
:1016D200DE02A23011F40E94BA1354C0A091DE02BD
:1016E200A33009F04FC00E944713AE17BF072CF476
:1016F2000E9454130E945E133DC00E944713EA17D2
:10170200FB071CF40E94BF130CF003C00E94541389
:101712002DC0E091B602EE7119F40E94541326C056
:101722000E948C1329F4E1E0F0E061E070E016C061
:10173200E091B602E27029F00E9491130E94961382
:1017420021C0E091B602E87019F00E94A0131AC0FD
:10175200E091B602E071B1F00E94A613E093BC02E0
:10176200F093BD026093BE027093BF02EFEFFFEFF2
:101772006FEF7FEFE093C002F093C1026093C20269
:101782007093C302089524970E94F31500E911E0B3
:1017920020E931E040E951E0A1E2B0E00E94C01549
:1017A2000E940715A0EABCE880E090E00E94D513F1
:1017B200A091AC02B091AD0288279927EE81FF81FA
:1017C200688579850E94D513ADE2B0E00E94C0150C
:1017D200E130A0E0FA0781F4AFE2B0E00E94C01568
:1017E200A091AC02B091AD020E943E156627772708
:1017F200EE83FF83688779870E94DC13AB30E0E0D9
:10180200BE07E0E08E07E0E09E071CF008EE13E062
:1018120016C00E94DC13A130E0E0BE07E0E08E07B4
:10182200E0E09E071CF400E911E009C0EE81FF81AF
:10183200ACE3B0E00E943415E057FE4F8F01EDB7E4
:10184200FEB73197FA93EA931F930F930E94E11325
:101852000F911F91E091B402F091B5020E94071519
:10186200EE83FF83688779870E9402130E9407151F
:10187200EE51F040604070400E94DC130E94E91576
:101882001CF020E931E01CC00E9402130E94DC130C
:101892000E9407150E94EE151CF028EE33E010C0DE
:1018A2000E9402137E97AE81BF810E94B915EA1B86
:1018B200FB0BA4E1B0E00E943415E057FE4F9F01FC
:1018C200EDB7FEB73197FA93EA933F932F930E94B5
:1018D200E1132F913F91A801021713070CF4A901FC
:1018E200A0910703B0910803A417B5074CF4E09147
:1018F2000703F09108033A96E0930703F093080375
:10190200A0910703B09108034A175B074CF4E091DA
:101912000703F09108033A97E0930703F093080353
:10192200E7E0F3E0FA93EA930E94E113E0910903FE
:10193200E03029F0E0E0E0930703E09308030E941F
:10194200FA152A9608951A93E0910903E03021F4DA
:10195200ABE0B3E00E94C012A0910B03B0910C0364
:10196200A131EEE0BE0780F00E94E913E036AAEE54
:10197200FA0728F40E94E91331960E94D015E0E09C
:10198200E0930B03E0930C030E94E913EF70F070F5
:10199200E0930D030E94E913E07FF0700E94FE14B1
:1019A200F0E0E064E0930E030E94E913E070FF7040
:1019B200EF2FF0E0F0E0E068E0930F030E94E913FC
:1019C200E070F07F0E94FE14EF2FF0E0F0E0E06C98
:1019D200E0931003E0910D03EF701E2FE0910E03D0
:1019E200EF701E27E0910F03EF701E27E0911003A6
:1019F200EF701E27E12FE370E295E07FA0910D03C7
:101A0200EA2BE0930D03EEE0F3E00F01A081E12F5A
:101A1200EC70EE0FEE0FEA2BD001EC93EFE0F3E067
:101A22000F01A081E12FE073EA2BD001EC93E0E1FA
:101A3200F3E00F01A081E12FE07CE695E695EA2B29
:101A4200D001EC93E0911103EF5FE0931103A091B9
:101A52001103A43018F0E0E0E0931103C8C01A9318
:101A6200EAB5E1FFC4C00E94EE133A970E94F31355
:101A720030F40E94FA1335960E94FF1325C00E948B
:101A8200EE1331970E94F31330F4A2E1B3E0ED912B
:101A9200FD91319617C00E94EE133A960E940414EB
:101AA20030F40E94FA133A970E94FF130DC00E946D
:101AB200EE1331960E94041438F4A2E1B3E0ED91E2
:101AC200FD913197FE93EE93A0911203B09113030F
:101AD200AD3FE3E0BE0724F0ECEFF3E00E94FF131A
:101AE200A0911303AA232AF4E0E0E0931203E09307
:101AF2001303E0E0E0933503E0933603E09334030D
:101B020010E0163008F50E940B14E081E030B1F0CD
:101B12000E941014A0913503B0913603EA0FFB1F07
:101B2200E0933503F09336030E940B14A1E0A083E7
:101B3200E0913403EF5FE093340304C00E940B147E
:101B4200A0E0A0831F5FDDCFE0913403A0913503B5
:101B5200B0913603F0E00E945115E0933203F09306
:101B6200330310E0163008F042C00E940B14E081EB
:101B7200E030D9F10E941014DF01E0913203F091BC
:101B820033033A97AE17BF0724F40E941B14319611
:101B92000EC00E941014DF01E0913203F091330372
:101BA2003A96EA17FB072CF40E941B143197FE9316
:101BB200EE930E9426140E94A115E536A0E0FA07D2
:101BC20034F00E942614E4E6F0E0ED93FC930E94C8
:101BD20026140E94A115EC39AFEFFA0734F40E94E3
:101BE2002614ECE9FFEFED93FC931F5FBBCF199135
:101BF2000895A091DE02A330C9F4E091B602EA7022
:101C020061F4E4EFF1E00E942F1428F40E943B14E7
:101C120010F00E944C14F79808C0E091B602EA70E6
:101C220021F00E9453140E945914D3C0A091DE02E5
:101C3200A23061F40E9453140E94601428F40E949E
:101C42003B1410F00E944C14F798C3C0A091DE021E
:101C5200A13061F4EFEFF3E00E942F1428F40E9408
:101C62003B1410F00E944C14F798B3C0EAB5E1FFA0
:101C720004C0A091CD02A53509F00EC00E94FA134E
:101C82000E942F1428F40E943B1410F00E944C145E
:101C9200EAB5EE7FEABD9DC0A091CD02AA3A91F5C8
:101CA2000E947E1329F00E9453140E94591429C0E5
:101CB200E091B602EA71D1F4A9E2B0E00E94C01547
:101CC2000E946814E3EDF2E0FA93EA93E0E0F0E0B8
:101CD2000E946D140E94601428F40E943B1410F0BC
:101CE2000E944C14F798EAB5EE7F0AC0E091B60262
:101CF200EA7139F00E9453140E945914EAB5E16066
:101D0200EABD67C0A091CD02A53509F062C0E0919D
:101D1200B602E07209F055C0E091B602EE71E4300D
:101D2200F9F40E947314A9F40E947C140E94811495
:101D3200AE17BF0738F4A0913D03B0913E030E9455
:101D4200861402C00E947C14E093D502F093D6025E
:101D520006C00E947C14E093D502F093D602F79855
:101D6200E091B602EA7121F0E091B602E07401F16D
:101D72000E947314A9F40E948E140E948114AE175B
:101D8200BF0738F4A091BA02B091BB020E94861438
:101D920002C00E948E14E093D502F093D60206C0D0
:101DA2000E948E14E093D502F093D602F79808C0F1
:101DB200E091B602EA7121F00E9453140E94591474
:101DC20008C0E091B602E07221F00E9453140E9412
:101DD20059140895549AA091DF02B091E002AC3DEB
:101DE200E5E0BE0724F4AFEDB2E00E94C0120E940B
:101DF2007E1339F0F79B02C05C9A02C0F79B5C9895
:101E02003DC00E944713AE17BF0724F4A0910603FA
:101E1200A13009F402C05C9A31C0A0910603A1303E
:101E220049F4EAB5E0FF02C05C9A03C0EAB5E0FFFC
:101E32005C9824C00E944713EA17FB071CF40E9417
:101E4200BF130CF015C0A0910603A13079F0E09108
:101E52000603E03061F40E947E1341F0E091B60285
:101E6200E07211F05C9A01C05C9801C05C9806C0F7
:101E7200F79B02C05C9A02C0F79B5C98E3EDF2E02C
:101E82000E949314E5EDF2E00E9493140E947E13E7
:101E920081F4AFE1B0E00E94C0153A96A5E0B0E04F
:101EA2000E943415A091DF02B091E002AE17BF0785
:101EB2000CF004C0EAE0F0E00E946814E091D40261
:101EC200E0938900E091D302E0938800E091D6028A
:101ED200E0938B00E091D502E0938A00E091070342
:101EE200E093B4000895269A279A2E9A2F9A1E9B61
:101EF2000AC0A091DC02AA3028F4E091DC02EF5F74
:101F0200E093DC0209C01E9907C0E091DC02E030D8
:101F120019F0E150E093DC021F9B0AC0A091DD02A0
:101F2200AA3028F4E091DD02EF5FE093DD0209C000
:101F32001F9907C0E091DD02E03019F0E150E09313
:101F4200DD02A091DC02AA3021F4A091DD02AA30C8
:101F520009F003C0E0E0E093DE02A091DC02A030D1
:101F620021F4A091DD02AA3009F003C0E1E0E09380
:101F7200DE02A091DC02AA3021F4A091DD02A030A1
:101F820009F003C0E2E0E093DE02A091DC02A0309F
:101F920021F4A091DD02A03009F003C0E3E0E09358
:101FA200DE0208951A930A93009178001091790045
:101FB2000E949814DF01E091AA02F0E0EE0FFF1FE9
:101FC200EA0FFB1F00831183E091AA02E37099F5E7
:101FD20021970E94A214AE0FBF1FE0E0F0E0ED9344
:101FE200FC93E883A881A031D8F40E94A214EA0FDE
:101FF200FB1FBF01008011800E949814DF01E8815D
:10200200F0E0EE0FFF1FAE0FBF1F0E94A115E00D03
:10201200F11DDB01ED93FC93E881EF5FE883E2CFF2
:102022000E94A214AE0FBF1FED91FD910E94FE14FB
:10203200FE93EE932196A091AB02AF5FA093AB0209
:10204200A53060F0E0E0E093AB02A091AA02AF5F9E
:10205200A093AA02A03110F0E093AA02E7B1E07CBB
:10206200E7B9E8B1E07CE8B9E091AB02E03011F405
:10207200E1E017C0A091AB02A13011F4E4E011C07D
:10208200A091AB02A23011F4E2E00BC0A091AB022E
:10209200A33011F4E3E005C0A091AB02A43019F41F
:1020A200E5E0E0937C00E6EAE0937A00E0917A00D2
:1020B200E064E0937A000991199108952497E091E0
:1020C200A002F091A1020E94AA14A0E0B0E00E9436
:1020D200C0150E94AF140E94DF140E94AF15AB819D
:1020E200AA2312F40E94B4140E9463120E94AF1435
:1020F2000E94B814E0E6F9E060E070E00E94BF14CC
:10210200E093AC02F093AD02E091A202F091A3023F
:102112000E94AA14AB81AA2312F40E94B4140E9452
:1021220087120E94AF140E94B8140E94C614E09352
:10213200B002F093B102E091A402F091A5020E94D4
:10214200AA14AB81AA2312F40E94B4140E94821230
:102152000E94AF140E94B8140E94C614E093AE020B
:10216200F093AF02E091A602F091A7020E94AA1496
:102172000E948C120E94AF140E94B8140E94C614CE
:10218200E151F140E093B402F093B502E091B6025E
:10219200F0E0E093B202F093B302249608950A921B
:1021A2001A92FA926A937A938A939A93AA93BA9317
:1021B200EA93FA93EFB7EA930E94AD050E94E10118
:1021C200B394EAE0BE16E8F0BB2473947E1610F0D6
:1021D2007724F39A8394E3E08E1610F08824F29A1F
:1021E2006394E4E16E1638F06624F49AF69B02C01A
:1021F200F69801C0F69A9394E4E69E1610F099249C
:10220200F59AE991EFBFF991E991B991A991999163
:10221200899179916991F9901990099018952A9A62
:10222200229AE4B1E663E4B9E3EAE0938000E9E0EC
:10223200E0938100E0E0E0938500E0938400E09386
:102242008700E0938600E1E0E0938900E0E0E0931C
:102252008800E3E0E0938B00E0E0E0938A00219ABB
:10226200229AE093B600E3E2E093B000E1E0E0936B
:10227200B100E0E0E093B200E093B300E0E3E0936A
:10228200B400539AEDE5ECBDE0E0EDBD0E94DC0642
:102292000E94AD050E944912E0E0E093DF02E09364
:1022A200E002A8E1B0E00E94C015E093E102F093E1
:1022B200E202A091E102B091E2025A9744F4A091A5
:1022C200E102B091E202A73EEFEFBE072CF4E0E09C
:1022D200E093E102E093E2020E942312E03010F068
:1022E200E43028F0ACE1B0E0E3E00E94D815789445
:1022F2000E9477120E94D605E6E0F0E00E94CB141D
:10230200EAE0F0E00E94CB14A6E0B0E0EBE7F0E0F8
:102312000E94D015AAE0B0E0E8ECF1E00E94D015EE
:102322000E946001509AE0916903E03029F0E0E0F8
:10233200E09369030E945302F29B02C0F29832DEDC
:10234200F39B0CC0F398BADE0E9467060E942A082B
:1023520050DCC9DD0E94AE060E943905F49B05C01F
:10236200F49838DD0E947E090EDAF59B2DC0F598AF
:102372000E946C080E94F7080E94F605A091E702ED
:10238200B091E802A83EE3E0BE0724F4A7EEB2E073
:102392000E94C012A091CD02AA3A21F0A091DE02C1
:1023A200A33011F40E94CA07E0910003EF5FE093AB
:1023B2000003A0910003AA3028F0E0E0E0930003BC
:1023C2000E9460014CDBBFDAA895ADCFFFCFAA9384
:1023D200E881EEBDEDB5E7FFFDCFEEB5219608959C
:1023E200E4B1EC62E4B92498209A289808950E94F6
:1023F200E811A9810C94E811E0918A03F0E0EA0F58
:10240200FB1F0895AAE0B0E00C94D514EA93AFEF55
:102412000C94D500EA93A0EC0C94D500EA93A0E0CA
:102422000C94D500EA93A1E30C94D500E091040347
:10243200A0914103EA170895A0914203E091040399
:10244200EA170895ACE1B0E00E94C4150895A09186
:102452004603B0E0E0E0F1E00E940C150895B0E020
:10246200E0E0F1E00E940C1508950E941701E0914E
:102472000403EA93EBEDEA93E091B402EA93E0E01D
:10248200EA93E091B602EA93E091E102EA930895B9
:10249200E0E0E093CE02E5E5E093CD020895AEE1FF
:1024A200B0E00E94C415E0300895ACE8B3E0ED91CD
:1024B200FD913196FE93EE930895E0914403EF70FF
:1024C200E2300895A2E0B0E00E94C0150895E091C4
:1024D2004403EF70E3300895E0914403EF70E43079
:1024E2000895E0914403EF70E5300895E2E0F0E0F2
:1024F200FA93EA93E4EAF1E0FA93EA93ACE4B4E003
:102502000895A6E0B0E00E94C0150895AAE0B0E0E8
:102512000E94C0150895AEE0B0E00E94C015089573
:102522000E94C015BF01A091450399CFA091440319
:10253200B0E0EA0FFB1F0895A091470390CFA0914E
:102542004603B0E0EA0FFB1F0895E091B602E17E78
:10255200E093B602E0E0E093CF02E093D002E09392
:10256200D102E093D202E093D702E093D802E09343
:10257200D902E093DA02EEE1E093C4020895ED910C
:10258200FD913196FE93EE930895EA93E0910A034A
:10259200A4E1B3E0F0E0EE0FFF1FAE0FBF1F0895FE
:1025A200E091E102F091E2020895E093C502F09316
:1025B200C6026093C7027093C8020895E093C902ED
:1025C200F093CA026093CB027093CC020895E09319
:1025D2007C00E6EAE0937A00E0917A00E064E0931E
:1025E2007A0010CFE0917800F09179000895A091DF
:1025F200D902B091DA020895A091D702B091D8021F
:102602000895A7E2B0E00E94C0150895A091B40217
:10261200B091B5020895FA93EA93E0E0F0E0FA93FC
:10262200EA93ACE3B0E00C94B705A091B002B0918C
:10263200B1020895E7EDF2E0FA93EA93E0E0F0E008
:10264200FA93EA93AAE0B0E00E94B705D5DF1A97A1
:102652000895E9EDF2E0FA93EA93E0E0F0E0FA930C
:10266200EA93AAE0B0E00E94B705C1DF1A97089585
:10267200E5E5F5E565E575E50895E093BC02F093BF
:10268200BD026093BE027093BF020895AFE1B0E055
:102692000E94C015A5E0B0E00E943415A091DF02AF
:1026A200B091E0020895E0E0E093BC02E093BD0245
:1026B200E093BE02E093BF020895E3E0F3E063E03B
:1026C20073E00895E5E5F5E565E070E0D6DFEFEF4C
:1026D200FFEF6FEF7FEF0895EC59FF4FA091DF02FC
:1026E200B091E002AE17BF070895ABE2B0E00E94DE
:1026F200C015E535A0E0FA070895ADE2B0E00E940A
:10270200C01530970895EFEFFFEF6FEF7FEF089559
:10271200AFDFB3DFF8CFE091B602EE73E430089595
:10272200E1E0F0E061E070E0A8CFE0E0E093C00219
:10273200E093C102E093C202E093C3020895E9E08C
:10274200F0E069E070E099DFF0CFE9E4F0E069E4FD
:1027520070E0089592DFE9CFE3E3F3E363E373E329
:10276200E093C002F093C1026093C2027093C3026D
:102772000895ECECFCEC6CEC7CECECCFEA5BFF4FEC
:10278200A091DF02B091E002AE17BF070895E5E025
:10279200F0E060E070E0E093C002F093C102609369
:1027A200C2027093C30208950E947B15EE83FF83D9
:1027B200688779870895AE81BF8188859985089554
:1027C200E0E9F1E0FA93EA93A8EEB3E00C94B705DE
:1027D200A1E3B0E00E94C0150895A3E3B0E00E9417
:1027E200C0150895A091AE02B091AF02AE17BF0717
:1027F2000895E0911203F09113030895E0931203F8
:10280200F09313030895A091AE02B091AF02EA17BC
:10281200FB070895E12FF0E0E45DFC4F0895E12FFE
:10282200A0E2B3E0F0E0EE0FFF1FAE0FBF1F0E9469
:10283200A1150895E12FA4E1B3E0F0E0EE0FFF1F30
:10284200AE0FBF1FED91FD910895E12FA4E1B3E01A
:10285200F0E0EE0FFF1FAE0FBF1F0895E093D3020B
:10286200F093D402A091D502B091D602AC3FE3E03E
:10287200BE070895E091D502F091D6027E96E093CC
:10288200D502F093D602A091D502B091D602AD3F07
:10289200E3E0BE070895ECEFF3E0E093D502F09396
:1028A200D6020895E0E0E093D302E093D4020895C3
:1028B200E0E0E093D502E093D602F79A0895A09162
:1028C200D502B091D602AC3FE3E0BE070895E09393
:1028D200D302F093D4020895FA93EA93ACEFB3E0F3
:1028E2000C94B7055DDEA091B802B091B902EA0F6F
:1028F200FB1FEDDF02CFE0913D03F0913E0308950F
:10290200A091D502B091D6020895EEE1F0E00E94C6
:102912003E15F6DFEA0FFB1F0895E091BA02F0912F
:10292200BB020895FA93EA93E2E0F0E0D5CFE0919A
:10293200AB02F0E0EE0FFF1F0E94F014E050FE4FDA
:102942000895E091AB02A0EAB2E0F0E0EE0FFF1FC3
:102952000895662777270E94AA1508950E94A51553
:102962000E9407150895E0E00E94B41508950E94A0
:1029720039150E94AA150E94A51508950E947B157B
:102982000E94AA15E881F9810895E8EEF3E060E07B
:1029920070E0F4CFFA93EA93E4E9F1E1FA93EA936F
:1029A200ACE7B5E10C94D605109639F080ED97E0CE
:1029B2000197F1F7A8951197C9F70895AE1BBF0BC0
:1029C200860B970B0895F195E195F0400895F095E7
:1029D20060957095E195FF4F6F4F7F4F0895EE0F11
:1029E200FF1FEE0FFF1FEE0FFF1FEE0FFF1F0895D9
:1029F20075956795F795E7950895F695E795F69598
:102A0200E795F695E795F695E79508956F2F660F8A
:102A1200660B762F0895FA9FF02DEB9FF00DEA9F3B
:102A2200E02DF10D08957A9F702D6B9F700DF89F28
:102A3200700DE99F700D6A9F602D710DFB9F600DF7
:102A4200711DE89F600D711D8827FA9FF02D610DA1
:102A5200781FEB9FF00D611D781FEA9FE02DF10DAD
:102A6200681F781F08954BD0D6DF0EF4ACDF0895AF
:102A720054D0D9DF0EF4ABDF08950024112490E185
:102A8200AA0FBB1F001C111C0E1A1F0A18F40E0EEF
:102A92001F1E01C0A1609A9599F7FD01D00108950A
:102AA2002ED0EBDF0EF48FDF08953F934F935F93A9
:102AB200002411244427552730E2AA0FBB1F881F88
:102AC200991F001C111C441F551F0E1A1F0A460B8A
:102AD200570B28F40E0E1F1E461F571F01C0A16080
:102AE2003A9559F7FD01BC01D001CA015F914F919E
:102AF2003F91089512D0D9DF0EF469DF0895E8946A
:102B0200F7FF02C060DF6894B7FF06C0A095B095DA
:102B1200119600F8039400FA0895E89477FF02C032
:102B220056DF689497FF0BC00024A095B09580955E
:102B320090951196801D901D00F8039400FA089557
:102B4200ED91FC9111970895A881B9818A819B81A9
:102B52000895E883F9836A837B830895A883B98300
:102B62008A839B830895E883E983EA83EB8308954C
:102B72001B2EBF2FF12D1A2EAE2FE12D0895119687
:102B820002D0FE2F1197F999FECFFF93FFB7F89469
:102B9200A1BDB2BDF89AE0B5FFBFFF91089507D07D
:102BA2001196EF93EF2F03D0EF9111970895F99BB0
:102BB20002C0A895FCCF9FB7F894A1BDB2BDF89A08
:102BC20080B5E81719F0E0BDFA9AF99A9FBF089507
:102BD200EA17FB07680779070895AE17BF0786074C
:102BE200970708955A934A933A932A931A930A930A
:102BF20008955D814C813B812A8119810881089564
:00000001FF
