:0E0000000C9470000C9400000C9400000C9402
:10000E0000000C9400000C9400000C9400000C9462
:10001E0000000C9400000C9400000C9400000C9452
:10002E0000000C9400000C9400000C9400000C9442
:10003E0000000C9453110C9400000C9400000C94CE
:10004E0000000C9400000C9400000C9400000C9422
:10005E0000000C9400000C9400001027E8036400CC
:10006E000A0001000010000110000100000048000D
:10007E007D00B100D900FE001E013E015A0174013F
:10008E009001AB01C501DE01F6010D02030303036E
:10009E001E0032003200BC027B0001002D4E414E8C
:1000AE0000494E4600000400C0029A000100C4023E
:1000BE009E000100D402A0000100D602A2000200A0
:1000CE001303A40001008D03A60001009003A800F5
:1000DE000000F894EE27EFBBF1E0F5BFE5BFF8E1C5
:1000EE00A895A4B7A77FA4BFF0936000E09360002B
:1000FE008DE0A2E0BB27ED938A95E9F780E094E0CE
:10010E00A0E0B1E0ED930197E9F7E4EBF0E0859123
:10011E009591009761F0A591B59105901590BF014D
:10012E00F00105900D920197E1F7FB01F0CFE0E0B1
:10013E00EEBBEABDEBBDEFEFEDBFE4E0EEBFC0E01E
:10014E00D2E00C949311F8940E946212289A78943B
:10015E000895AA931A93F8940E9462128BE18A95DD
:10016E00F1F7A3E00E946912A5E50E9459121E2F15
:10017E00289A7894E12F188122960895AA93F894DC
:10018E000E946212A5E00E945912AA810E94691271
:10019E00A8810E945912289A78940FC0AA931A9394
:1001AE00F8940E946212A2E00E945912AA810E9443
:1001BE006912289A7894E12F1881239608951A933C
:1001CE00F8940E946212000000000000000000007F
:1001DE00000000000000A0EA0E945912A5E50E944E
:1001EE0059121E2F289A7894E12FE2C0AA93F89400
:1001FE000E946212E881E03011F4E1E809C0A881A2
:10020E00A13011F4E2E804C0A881A23011F4E4E8B0
:10021E00E883A8810E945912289A7894219608950D
:10022E00AA93A0918B03A03010F0A43018F0E0E058
:10023E00E0938B03E0918B03F0E0E559FC4FAF8127
:10024E00A083AFE6B3E00E946E12AE81A083A3E757
:10025E00B3E00E946E12AD81A083A7E7B3E00E94C7
:10026E006E12AC81A083ABE7B3E00E946E12AB813D
:10027E00A083AFE7B3E00E946E12AA81A083A3E829
:10028E00B3E00E946E12A981A083A7E8B3E00E949A
:10029E006E12A881A083E0918B03EF5FE0938B0336
:1002AE00A0918B03A43018F0E0E0E0938B03289626
:1002BE0008951A930E94AA00AEE00E94B0001E2F6D
:1002CE00E07EE03831F0EFE0EA93E0EEEA93A0E86A
:1002DE0055DF8BE18A95F1F7EAE2EA93A3EC5EDF54
:1002EE00E9E2EA93AEEF5ADFE8E2EA93A3E056DFE3
:1002FE00E0E6EA93A0E252DFE0E7EA93A0E24EDF07
:10030E000E947412E0E20E947812E1E20E947812DA
:10031E00E0E00E947812E1E00E947812E4E00E9490
:10032E007812E5E00E947812E4E20E947812E5E28B
:10033E00EA93A0EE33DFE8E0EA93A3E12FDFE9E0F2
:10034E000E947C12E0E10E948012E1E10E94801284
:10035E00E4E10E948012E5E10E948012E8E10E9431
:10036E008012E9E10E948012E1E50E948412E2E52A
:10037E000E947C12E1E40E948412E2E40E947C124C
:10038E00E1E30E948412E2E30E947C12EFE0EA9322
:10039E00E7EEEA93A5E00E94C500EBE2EA93A6E041
:1003AE00FDDEA4E6B0E00E944B15ECE00E94801248
:1003BE00199108950E946B16F89401DFE0934003A3
:1003CE00A0914103EA2BE0934103E0914003E270D8
:1003DE00E9F000E0083078F4E02FF0E0EE5BFC4F3F
:1003EE00FF93EF93A02FAA580E94B000AF91BF9138
:1003FE00EC930F5FEFCFECE2EA93E2E0EA93A0E03A
:10040E000E94C500E1E0E0936A0341C0E091400321
:10041E00E475E9F52197ECE2EA93ECE1EA93A0E0CA
:10042E000E94C500E0918B03A0918C03EA1771F135
:10043E00E0E0E883A881A830B0F4E881EA5CEA93B2
:10044E00E981ABE6B3E0F0E00E946A15AE0FBF1F84
:10045E00E0918C03F0E0AE0FBF1FAC919FDEE88100
:10046E00EF5FE883E7CFE5E3EA93A8E00E94D500CB
:10047E00A0E0BCDEE0918C03EF5FE0938C03A091D3
:10048E008C03A43018F0E0E0E0938C03219678946E
:10049E000E947216249608950E946916A091420336
:1004AE00A130E1F4A0914303A230C1F4A091440322
:1004BE00A330A1F4A0914503A43081F4A09146038A
:1004CE00A53061F4A0914703A63041F4A0914803F2
:1004DE00A73021F4A0914903A83009F010C0E1E043
:1004EE00EA93E2E0EA93E3E0EA93E4E0EA93E5E0FC
:1004FE00EA93E6E0EA93E7E0EA93A8E091DE0E9451
:10050E00881239F40E948E1221F4A0914403AD3E5C
:10051E0009F0C6C0E0E0E0930103E0914503E093EB
:10052E00B702E170B9F0A091DC02A43078F4E0914A
:10053E00DC02EF5FE093DC02A091DC02A43028F035
:10054E00E091B602E062E093B60203C0E4E0E0930D
:10055E00DC021DC0E091DC02E030B1F0E150E0932E
:10056E00DC02A091DC02A03071F4E091B602EF7DC6
:10057E00E093B602A2E1B0E00E943A16A5E0EA9F2F
:10058E00F001E093000303C0E0E0E093DC02E091B1
:10059E00B702E27021F0E091B602E06403C0E09190
:1005AE00B602EF7BE093B6020E949412A09146032E
:1005BE00B0E0EA0FFB1FE093B802F093B902A091EE
:1005CE0049030E949C12A0914803B0E0EA0FFB1F62
:1005DE00E093BA02F093BB02F091B602E0E0A09174
:1005EE00B702B0E0EA0FFB1FE0938D03F0938E038A
:1005FE00A091B602EAE0EA9FF001E093EC02F093DC
:10060E00ED02E0910503EA93EAEDEA93E091AC0284
:10061E00EA93E091AD02EA93E091AE02EA93E091A3
:10062E00AF02EA93E091B002EA93A091B1020E9468
:10063E00A212E091EE02EA93A091EF02F1DD0E9488
:10064E00B512E091B702E07889F0A3E1B0E00E9424
:10065E003A16E03051F4A3E1B0E0E1E00E944E160C
:10066E00E093FD02E0E0E093FF0211C0A091E802EA
:10067E00B091E90255975CF0A3E1B0E00E943A1602
:10068E00E03029F0A3E1B0E0E0E00E944E160E94B7
:10069E00BE1229F0A4E1B0E0E0E00E944E1627C29F
:1006AE000E94881269F40E948E1251F4A0914403A4
:1006BE00AE3E31F4A0914503E0914603EA1709F0EE
:1006CE00D2C00E94C412E0914503E07FE03291F562
:1006DE00E0914503EF70E13039F40E94CC12A0E0B6
:1006EE00B0E00E94461623C00E94D11231F40E943F
:1006FE00D61231960E9446161AC00E94DB1221F4C1
:10070E000E94D6123A960FC00E94E01231F40E9457
:10071E00D61231970E9446160AC00E94E51239F48D
:10072E000E94D6123A97A2E0B0E00E9446160E94AE
:10073E00EA128DC0E0914503E07FE03121F50E9481
:10074E00D11231F40E94F51231960E9446161AC04B
:10075E000E94DB1221F40E94F5123A960FC00E94FD
:10076E00E01231F40E94F51231970E9446160AC02B
:10077E000E94E51239F40E94F5123A97A6E0B0E015
:10078E000E94461665C0E0914503E07F81F5E09139
:10079E004503EF70E13039F4A8E0B0E00E94CC12CE
:1007AE000E94461623C00E94D11231F40E94FA1202
:1007BE0031960E9446161AC00E94DB1221F40E9446
:1007CE00FA123A960FC00E94E01231F40E94FA1209
:1007DE0031970E9446160AC00E94E51239F40E9413
:1007EE00FA123A97AAE0B0E00E94461631C0E091A4
:1007FE004503E07FE03361F50E94D11231F40E948F
:10080E00FF1231960E9446161AC00E94DB1221F486
:10081E000E94FF123A960FC00E94E01231F40E941D
:10082E00FF1231970E9446160AC00E94E51239F453
:10083E000E94FF123A97AEE0B0E00E944616EEE03C
:10084E00F0E0FA93EA93E8ECF0E00E940413F2D1A0
:10085E000E94B5120E94BE1229F0A4E1B0E0E0E0C1
:10086E000E944E1644C1A0914203AF3F41F4A091A5
:10087E004303AF3F21F4A0914403A23609F027C0F1
:10088E000E940913BF010E940E130E941113E61756
:10089E00F70741F00E940E130E941113A7E1B0E07A
:1008AE000E944616A9E1B0E00E943616BF010E94D2
:1008BE0017130E941A13E617F70741F00E94171339
:1008CE000E941A13A9E1B0E00E94461610C1A09131
:1008DE004203AF3F69F4A0914303AF3F49F4A091A7
:1008EE004403A63221F0A0914403A93209F401C0B9
:1008FE0069C00E942013BF010E940E130E941113A3
:10090E00E617F70741F00E940E130E941113ABE198
:10091E00B0E00E9446160E942513BF010E94941259
:10092E000E941A13E617F70741F00E9417130E9450
:10093E001A13ADE1B0E00E944616A0914403A63210
:10094E00B1F40E942A13309731F0A3E2B0E0E0E058
:10095E00F0E00E9446160E942F130E94341339F0C5
:10096E00E0914903F0E0A5E1B0E00E944616A091A7
:10097E004403A93231F50E942A13E130A0E0FA07B0
:10098E0031F0A3E2B0E0E1E0F0E00E944616A5E20D
:10099E00B0E00E9436160E94341339F0E0914903FC
:1009AE00F0E0A5E2B0E00E9446160E942F13E3305D
:1009BE00A0E0FA0731F0A5E1B0E0E3E0F0E00E943C
:1009CE00461695C00E94881259F40E948E1241F468
:1009DE00A0914403A63121F4A0914503A33609F05A
:1009EE0003C00E943B1383C0A0914203AF3F61F44A
:1009FE00A0914303AF3F41F4A0914403A63121F4EB
:100A0E00A0914503A63109F039C0A0914603A53542
:100A1E0021F4A0914703A53509F005C0A2EEB2E07E
:100A2E000E9455131FC0A0914603A63621F4A09133
:100A3E004703A63609F008C0A2EEB2E0ED91FD9193
:100A4E003197FE93EE930EC0A0914603A73721F483
:100A5E00A0914703A73709F005C0E0E0E093E2025A
:100A6E00E093E302E2EEF2E0FA93EA93E7EEFFEFB1
:100A7E00FA93EA93A9E1B0E0BED039C00E94881281
:100A8E0089F40E948E1271F4A0914403A63151F4A0
:100A9E00A0914503E0914603EA1721F4A091450386
:100AAE00AE3E09F024C00E94C4124091D40250916F
:100ABE00D502FA01AFE1B0E00E944616A4E6B0E01E
:100ACE000E944B15AFE1B0E00E9436164E175F073D
:100ADE0071F4E0910503EA93E1E9EA93EDEDEA930F
:100AEE00EA93E0E0EA93EA93EA93A0E099DBE0E090
:100AFE00E0936A030E947016BBC0EAB5E1FF70C0B6
:100B0E00A0910B03AF5FA0930B03A73018F0E0E0AA
:100B1E00E0930B03A0910B03A630C0F5E0910B03FD
:100B2E00EA93EA93EDEEEA93E0E00E945B13EC9118
:100B3E00A0911303EA0F0E945B130E941716A09157
:100B4E001303B0911403AE0FBF1FE0E0F1E00E945B
:100B5E00C715EA93E8EEEA93A8EE62DBA0910B03C9
:100B6E00B0E0A85CBC4FEC91EF5FEC93E0910B030F
:100B7E00F0E0E85CFC4FA081AB3038F0E0910B0365
:100B8E00F0E0E35DFC4FA0E0A0832AC0A0910B0330
:100B9E00A63031F5E091D402F091D502E093EE0249
:100BAE00F093EF02E0910503EA93EAEDEA93E09108
:100BBE00AD02EA93E091AC02EA93E091AF02EA93C0
:100BCE00E091AE02EA93E091B102EA93A091B002F5
:100BDE000E94A212E091EF02EA93A091EE0220DBB6
:100BEE000895E0E0E4BDE5E0E5BDE8EFE6BDE1E057
:100BFE00E0936E000895BA93AA93AC81BD810E94D2
:100C0E001716DF01EA81FB81AE17BF0724F4AC8112
:100C1E00BD81ED93FC93AC81BD810E941716DF015F
:100C2E00E881F981EA17FB0724F4AC81BD81ED93CD
:100C3E00FC931EC0BA93AA93AC81BD810E94361656
:100C4E00DF01EA81FB81AE17BF0724F4AC81BD81C1
:100C5E000E944616AC81BD810E943616DF01E881E6
:100C6E00F981EA17FB0724F4AC81BD810E94461678
:100C7E00269608950E946613A091E402B091E502B3
:100C8E00EA17FB0709F5A091E602B091E702DC979F
:100C9E00D4F4A6EEB2E00E945513A091E602B091F4
:100CAE00E702DC9784F0A0E1B0E00E943616DF0187
:100CBE000E946613EA17FB0731F00E946613A0E14B
:100CCE00B0E00E94461605C0E0E0E093E602E09335
:100CDE00E702A091E602B091E702DD972CF0E0E08A
:100CEE00E093E602E093E7020E946613E093E402CB
:100CFE00F093E5020895A091F602A03061F4A09160
:100D0E00F702A03041F4A091F802A03021F4E09156
:100D1E00FB02E03009F010C0ECE3E093F602E09342
:100D2E00F702E093F802E0E1FEE0E093F902F093BF
:100D3E00FA02E1E0E093FB020895E0E0E093F602B0
:100D4E00E093F702E093F802E093F902E093FA02DF
:100D5E00E093FB020895509AE091C502E17011F004
:100D6E00589A01C05898519AE091C902E17011F059
:100D7E00599A01C05998E091C502F091C60260914E
:100D8E00C7027091C8020E946F150E946B13E0910A
:100D9E00C902F091CA026091CB027091CC020E94FE
:100DAE006F150E947413A091C402AF5FA093C4028A
:100DBE00A132B8F0E0E0E093C402E091BC02F09101
:100DCE00BD026091BE027091BF020E946B13E09152
:100DDE00C002F091C1026091C2027091C3020E94E2
:100DEE0074130895A091DF02A330B9F0E091B6021A
:100DFE00E87021F0E0918F03E87049F0E091B602BF
:100E0E00E07121F0E0918F03E07109F005C0A0912F
:100E1E00CD02AA3A09F46FDF0EC0A091DF02A33013
:100E2E0051F4E091B602E87021F0E0918F03E87082
:100E3E0009F001C060DFE091B602E0938F030895E0
:100E4E0029971A930A93E0E0E7B9E8B9E6E00E9421
:100E5E007D130E948813ED83FE83E7E00E947D13CD
:100E6E000E948813EF83F887E0E00E947D130E94B2
:100E7E008813E987FA87AD81BE81A631E2E0BE070D
:100E8E0024F0A736E2E0BE070CF002C0E0E028C076
:100E9E00AD81BE81A935E3E0BE0724F0AA3AE3E0B6
:100EAE00BE070CF002C0E1E01BC0AD81BE81AF38C1
:100EBE00E2E0BE0724F0A03EE2E0BE070CF002C066
:100ECE00E2E00EC0AD81BE81AF3CE3E0BE0724F090
:100EDE00A032E4E0BE070CF002C0E3E001C0E5E0A2
:100EEE00E0930203AF81B885A631E2E0BE0724F09D
:100EFE00A736E2E0BE070CF002C0E0E028C0AF81EA
:100F0E00B885A935E3E0BE0724F0AA3AE3E0BE07B0
:100F1E000CF002C0E1E01BC0AF81B885AF38E2E053
:100F2E00BE0724F0A03EE2E0BE070CF002C0E2E0F5
:100F3E000EC0AF81B885AF3CE3E0BE0724F0A0320F
:100F4E00E4E0BE070CF002C0E3E001C0E5E0E09390
:100F5E000303A985BA85A631E2E0BE0724F0A736C1
:100F6E00E2E0BE070CF002C0E0E028C0A985BA8519
:100F7E00A935E3E0BE0724F0AA3AE3E0BE070CF081
:100F8E0002C0E1E01BC0A985BA85AF38E2E0BE071A
:100F9E0024F0A03EE2E0BE070CF002C0E2E00EC07C
:100FAE00A985BA85AF3CE3E0BE0724F0A032E4E0A9
:100FBE00BE070CF002C0E3E001C0E5E0E0930403DD
:100FCE00A0910203A53041F0A0910303A53021F0BA
:100FDE00A0910403A53021F4E1E0E09306031AC0CA
:100FEE00E0910403E27011F0E1E001C0E0E0E09373
:100FFE000703E0910303EE0FEE0FA0910203EA0F39
:10100E006E2FE0910403E170A0E1EA9FF001E60F7C
:10101E00E0930503198108812B960895E091F6025D
:10102E00E03041F0E150E093F602E03011F40E941E
:10103E003B131FC0E091F702E03061F0E091F70240
:10104E00E150E093F702E091F702E03011F40E94D4
:10105E003B130FC0E091F802E03059F0E091F80236
:10106E00E150E093F802E091F802E03011F40E94B2
:10107E003B13E091F902F091FA02309789F0A9EF53
:10108E00B2E0ED91FD913197FE93EE93E091F9026E
:10109E00F091FA02309721F4E0E0E093FB022BDEB0
:1010AE000E948D13109731F40E949213109711F431
:1010BE004C9B01C00FC0A091FC02A43150F4E091F2
:1010CE00FC02EF5FE093FC02A091FC02A43108F059
:1010DE0034DE03C0E0E0E093FC020895A091DF024D
:1010EE00A330B1F10E949713AA35E2E0BE0724F4B3
:1010FE00AEECB2E00E9455130E949713AE34E2E0BC
:10110E00BE0729F4E091B602E17CE093B6020E949C
:10111E009713A835E2E0BE07D1F4EAEAE093CD02D8
:10112E00A0910703A13019F4EAB5E26002C0EAB556
:10113E00ED7FEABDE0E0E0930B030E94BE1239F4AE
:10114E00E1E0E093FE02A4E1B0E00E944E1603C07F
:10115E00EAEAE093CD0208950E9425130E949C13A3
:10116E00EA17FB0734F4A0EDB2E0ED91FD91319654
:10117E000DC00E94251331970E949C13AE17BF0716
:10118E003CF4A0EDB2E0ED91FD913197FE93EE931C
:10119E00E0EDF2E00E94A113A091D002B091D10235
:1011AE00D79794F0A091DF02A03021F4E091B6021F
:1011BE00E07421F0A091DF02A33029F4E091B60291
:1011CE00E460E093B6020BC0A091D002B091D102C0
:1011DE0016972CF4E091B602EB7FE093B6020E94D4
:1011EE0020130E949C13EA17FB0734F4A2EDB2E021
:1011FE00ED91FD9131960DC00E94201331970E9402
:10120E009C13AE17BF073CF4A2EDB2E0ED91FD9139
:10121E003197FE93EE93E2EDF2E00E94A113A091BE
:10122E00D202B091D302D79794F0A091DF02A030F2
:10123E0021F4E091B602E07421F0A091DF02A33018
:10124E0029F4E091B602E260E093B6020BC0A091E1
:10125E00D202B091D30216972CF4E091B602ED7F34
:10126E00E093B6020895A091DF02A33009F448C0BE
:10127E000E9409130E94AB13EA17FB0728F4A8ED8E
:10128E00B2E00E94551305C0E0E0E093D802E0936F
:10129E00D9020E94B0132CF0E091B602E860E09300
:1012AE00B602E091AE02F091AF020E94AB13AE1700
:1012BE00BF0790F40E94AB13E091AE02F091AF0223
:1012CE00EA1BFB0B0F01A9E1B0E00E943616E015F8
:1012DE00F10510F44C9B01C005C0AAEDB2E00E94CE
:1012EE00551305C0E0E0E093DA02E093DB020E94C2
:1012FE00BF132CF0E091B602E061E093B60237C066
:10130E00A091DF02A33099F50E94AB13AD3BE2E052
:10131E00BE0728F0A8EDB2E00E94551305C0E0E02C
:10132E00E093D802E093D9020E94B0132CF0E09122
:10133E00B602E860E093B6020E94AB13A83CE0E070
:10134E00BE0710F44C9B01C005C0AAEDB2E00E948E
:10135E00551305C0E0E0E093DA02E093DB020E9451
:10136E00BF132CF0E091B602E061E093B60208954F
:10137E00E0910603E03039F00E94CE130E94D313A1
:10138E000E94CE1344C2E0910703E03009F0EBC097
:10139E00A091DF02A33009F48DC00E942F130E948A
:1013AE00DC13AE17BF072CF40E94E5130E94EF1357
:1013BE0069C0A091CD02A53521F4E091B702E07885
:1013CE0009F403C00E94F4135DC00E942F130E9403
:1013DE00DC13EA17FB071CF40E94FE130CF007C087
:1013EE000E94071421F00E942A13309709F005C0BD
:1013FE000E94E5130E940F1445C0A091CD02AA3A97
:10140E0019F40E9414143EC0A091CD02A53521F40A
:10141E00E091B602EE7309F005C00E94E5130E943A
:10142E000F1430C00E94171429F40E941C140E943D
:10143E000F1428C0E091B602E27029F00E941C142D
:10144E000E94211427C0E091B602E87019F00E94A4
:10145E002B1420C0E091B602E07129F00E943114E5
:10146E000E94361417C0A091CD02A53521F4E0914B
:10147E00B602E07209F40EC00E94E513E3E0F0E05C
:10148E0063E070E0E093C002F093C1026093C20289
:10149E007093C302A091DF02A13029F40E94E513DC
:1014AE000E94381406C0A091DF02A23011F40E94EF
:1014BE00451458C0A091DF02A33009F053C00E941A
:1014CE002F130E94DC13AE17BF072CF40E94E513F6
:1014DE000E94EF133FC00E942F130E94DC13EA17E5
:1014EE00FB071CF40E944A140CF003C00E94E51383
:1014FE002DC0E091B602EE7119F40E94E51326C0DC
:10150E000E94171429F4E1E0F0E061E070E016C0EB
:10151E00E091B602E27029F00E941C140E94211480
:10152E0021C0E091B602E87019F00E942B141AC087
:10153E00E091B602E071B1F00E943114E093BC026A
:10154E00F093BD026093BE027093BF02EFEFFFEF08
:10155E006FEF7FEFE093C002F093C1026093C2027F
:10156E007093C3025CC1A0910703A13009F057C16B
:10157E00A091DF02A33009F4FAC00E942F130E943B
:10158E00DC13AE17BF072CF40E94E5130E94EF1375
:10159E00D6C0A091CD02A53521F4E091B702E07836
:1015AE0009F403C00E94F413CAC00E942F130E94B4
:1015BE00DC13EA17FB071CF40E94FE130CF007C0A5
:1015CE000E94071421F00E942A13309709F005C0DB
:1015DE000E94E5130E940F14B2C0A091CD02AA3A48
:1015EE0009F06FC0E091B602EE71A9F40E94E51306
:1015FE00EAB5E1FF05C0E5EFFFEF6FEF7FEF02C049
:10160E000E940F14E093C002F093C1026093C202D5
:10161E007093C30255C00E941714A9F40E941C14A3
:10162E00EAB5E1FF05C0E5EFFFEF6FEF7FEF02C018
:10163E000E940F14E093C002F093C1026093C202A5
:10164E007093C3023DC0E091B602E27059F00E9461
:10165E001C14EAB5E1FF03C00E94531402C00E949D
:10166E0021142EC0E091B602E87079F0E9E0F0E0C6
:10167E0069E070E00E94D313EAB5E1FF03C00E9457
:10168E00531402C00E9421141BC0E091B602E071F7
:10169E0069F00E9431140E94D313EAB5E1FF03C032
:1016AE000E94531402C00E9421140AC00E941414F6
:1016BE00E093C002F093C1026093C2027093C30222
:1016CE0046C0A091CD02A53521F4E091B602EE738D
:1016DE0009F005C00E94E5130E940F1430C00E944D
:1016EE00171429F40E941C140E940F1428C0E091B4
:1016FE00B602E27029F00E941C140E94211427C029
:10170E00E091B602E87019F00E942B1420C0E0910F
:10171E00B602E07129F00E9431140E94361417C0EF
:10172E00A091CD02A53521F4E091B602E07209F444
:10173E000EC00E94E513E3E0F0E063E070E0E0939A
:10174E00C002F093C1026093C2027093C302A091D3
:10175E00DF02A13029F40E94E5130E94381406C05E
:10176E00A091DF02A23011F40E94451458C0A0913E
:10177E00DF02A33009F053C00E942F130E94DC1326
:10178E00AE17BF072CF40E94E5130E94EF133FC063
:10179E000E942F130E94DC13EA17FB071CF40E9411
:1017AE004A140CF003C00E94E5132DC0E091B6025E
:1017BE00EE7119F40E94E51326C00E94171429F445
:1017CE00E1E0F0E061E070E016C0E091B602E27098
:1017DE0029F00E941C140E94211421C0E091B6022F
:1017EE00E87019F00E942B141AC0E091B602E07155
:1017FE00B1F00E943114E093BC02F093BD026093ED
:10180E00BE027093BF02EFEFFFEF6FEF7FEFE0933B
:10181E00C002F093C1026093C2027093C302089596
:10182E0024970E94691600E911E020E931E040E9B1
:10183E0051E00E9409130E947D15A0EABCE880E0E9
:10184E0090E00E946014A091AC02B091AD02882786
:10185E009927EE81FF81688579850E9460140E9428
:10186E002A13E130A0E0FA0781F4A5E2B0E00E946D
:10187E003616A091AC02B091AD020E94B415662747
:10188E007727EE83FF83688779870E946714AB30D2
:10189E00E0E0BE07E0E08E07E0E09E071CF008EEF9
:1018AE0013E016C00E946714A130E0E0BE07E0E02E
:1018BE008E07E0E09E071CF400E911E009C0EE81FE
:1018CE00FF81ACE3B0E00E94AA15E057FE4F8F01F6
:1018DE00EDB7FEB73197FA93EA931F930F930E94D9
:1018EE006C1489D90F911F91E091B402F091B50259
:1018FE000E947D15EE83FF83688779870E942513EA
:10190E000E947D15EE51F040604070400E946714B9
:10191E000E945F161CF020E931E01CC00E942513C6
:10192E000E9467140E947D150E9464161CF028EE1A
:10193E0033E010C00E9425137E97AE81BF810E94B6
:10194E002F16EA1BFB0BA4E1B0E00E94AA15E0578C
:10195E00FE4F9F01EDB7FEB73197FA93EA933F938F
:10196E002F930E946C1447D92F913F91A801021713
:10197E0013070CF4A901A0910803B0910903A41751
:10198E00B5074CF4E0910803F09109033A96E09301
:10199E000803F0930903A0910803B09109034A17B5
:1019AE005B074CF4E0910803F09109033A97E0933A
:1019BE000803F0930903E8E0F3E0FA93EA930E9438
:1019CE006C1419D9E0910A03E03029F0E0E0E093BD
:1019DE000803E09309030E9470162A9608951A933D
:1019EE00E0910A03E03021F4ACE0B3E00E9455131D
:1019FE00A0910C03B0910D03A131EEE0BE0780F073
:101A0E000E946F14E036AAEEFA0728F40E946F14B3
:101A1E0031960E944616E0E0E0930C03E0930D032E
:101A2E000E946F14EF70F070E0930E030E946F141B
:101A3E00E07FF0700E947415F0E0E064E0930F0315
:101A4E000E946F14E070FF70EF2FF0E0F0E0E0689E
:101A5E00E09310030E946F14E070F07F0E947415E3
:101A6E00EF2FF0E0F0E0E06CE0931103E0910E0355
:101A7E00EF701E2FE0910F03EF701E27E091100301
:101A8E00EF701E27E0911103EF701E27E12FE37018
:101A9E00E295E07FA0910E03EA2BE0930E03EFE0B8
:101AAE00F3E00F01A081E12FEC70EE0FEE0FEA2BA9
:101ABE00D001EC93E0E1F3E00F01A081E12FE073A0
:101ACE00EA2BD001EC93E1E1F3E00F01A081E12FCD
:101ADE00E07CE695E695EA2BD001EC93E0911203BB
:101AEE00EF5FE0931203A0911203A43018F0E0E030
:101AFE00E0931203C8C01A93EAB5E1FFC4C00E9476
:101B0E0074143A970E94791430F40E94801435961A
:101B1E000E94851425C00E94741431970E94791476
:101B2E0030F4A3E1B3E0ED91FD91319617C00E9420
:101B3E0074143A960E948A1430F40E9480143A97D4
:101B4E000E9485140DC00E94741431960E948A144E
:101B5E0038F4A3E1B3E0ED91FD913197FE93EE934E
:101B6E00A0911303B0911403AD3FE3E0BE0724F040
:101B7E00ECEFF3E00E948514A0911403AA232AF43B
:101B8E00E0E0E0931303E0931403E0E0E093360308
:101B9E00E0933703E093350310E0163008F50E940A
:101BAE009114E081E030B1F00E949614A0913603BA
:101BBE00B0913703EA0FFB1FE0933603F093370320
:101BCE000E949114A1E0A083E0913503EF5FE093B2
:101BDE00350304C00E949114A0E0A0831F5FDDCFE7
:101BEE00E0913503A0913603B0913703F0E00E94E7
:101BFE00C715E0933303F093340310E0163008F06A
:101C0E0042C00E949114E081E030D9F10E949614F6
:101C1E00DF01E0913303F09134033A97AE17BF071B
:101C2E0024F40E94A11431960EC00E949614DF0176
:101C3E00E0913303F09134033A96EA17FB072CF444
:101C4E000E94A1143197FE93EE930E94AC140E9451
:101C5E001716E536A0E0FA0734F00E94AC14E4E65D
:101C6E00F0E0ED93FC930E94AC140E941716EC3931
:101C7E00AFEFFA0734F40E94AC14ECE9FFEFED93EA
:101C8E00FC931F5FBBCF19910895A091DF02A33083
:101C9E00C9F4E091B602EA7061F4E4EFF1E00E945B
:101CAE00B51428F40E94C11410F00E94D214F798B3
:101CBE0008C0E091B602EA7021F00E94D9140E9489
:101CCE00DF14DAC0A091DF02A23061F40E94D914B1
:101CDE000E94E61428F40E94C11410F00E94D2143F
:101CEE00F798CAC0A091DF02A13061F4EFEFF3E0E4
:101CFE000E94B51428F40E94C11410F00E94D21450
:101D0E00F798BAC0EAB5E1FF04C0A091CD02A5359F
:101D1E0009F00EC00E9480140E94B51428F40E948F
:101D2E00C11410F00E94D214EAB5EE7FEABDA4C031
:101D3E00A091CD02AA3AB9F50E942A13309729F044
:101D4E000E94D9140E94DF142DC0E091B602EA71F0
:101D5E00F1F4AFE1B0E00E9436160E94EE14E4ED0D
:101D6E00F2E0FA93EA93E0E0F0E0FA93EA93ACEF54
:101D7E00B3E00E9402060E94E61428F40E94C114E9
:101D8E0010F00E94D214F798EAB5EE7F0AC0E091E7
:101D9E00B602EA7139F00E94D9140E94DF14EAB536
:101DAE00E160EABD69C0A091CD02A53509F064C01D
:101DBE00E091B602E07209F057C0E091B602EE7102
:101DCE00E43001F50E94F3143097A9F40E94FC143C
:101DDE000E940115AE17BF0738F4A0913E03B091D3
:101DEE003F030E94061502C00E94FC14E093D60227
:101DFE00F093D70206C00E94FC14E093D602F09333
:101E0E00D702F798E091B602EA7121F0E091B6029E
:101E1E00E07409F10E94F3143097A9F40E940E1594
:101E2E000E940115AE17BF0738F4A091BA02B09107
:101E3E00BB020E94061502C00E940E15E093D60248
:101E4E00F093D70206C00E940E15E093D602F093CF
:101E5E00D702F79808C0E091B602EA7121F00E940D
:101E6E00D9140E94DF1408C0E091B602E07221F08E
:101E7E000E94D9140E94DF140895549AA091E00292
:101E8E00B091E102AC3DE5E0BE0724F4A0EEB2E075
:101E9E000E945513A091E002B091E102599724F4EB
:101EAE000E942A13309709F403C05C9AE1E062C0E5
:101EBE000E942A13309761F0F79B03C05C9AE1E011
:101ECE0004C0F79904C05C98E0E0E0930A0354C0A4
:101EDE000E942F130E94DC13AE17BF0724F4A091AB
:101EEE000703A13009F403C05C9AE1E043C0A0915E
:101EFE000703A13071F4EAB5E0FF03C05C9AE1E09C
:101F0E0005C0EAB5E0FD04C05C98E0E0E0930A038A
:101F1E0033C00E942F130E94DC13EA17FB071CF438
:101F2E000E944A140CF01DC0A0910703A130A1F02D
:101F3E00E0910703E030A1F40E942A13309761F07C
:101F4E00E091B602E07219F05C9AE1E002C05C9892
:101F5E00E0E0E0930A0304C05C98E0E0E0930A033B
:101F6E000BC0F79B03C05C9AE1E004C0F79904C074
:101F7E005C98E0E0E0930A03E4EDF2E00E941315B2
:101F8E000E940206E6EDF2E00E9413150E94020680
:101F9E000E942A13309741F40E942F133A960E9402
:101FAE00DC13AE17BF070CF004C0EAE0F0E00E94AD
:101FBE00EE14E091D502E0938900E091D402E09313
:101FCE008800E091D702E0938B00E091D602E09377
:101FDE008A00E0910803E093B4000895269A279AA8
:101FEE002E9A2F9A1E9B0AC0A091DD02AA3028F4C9
:101FFE00E091DD02EF5FE093DD0209C01E9907C09C
:10200E00E091DD02E03019F0E150E093DD021F9B1C
:10201E000AC0A091DE02AA3028F4E091DE02EF5F42
:10202E00E093DE0209C01F9907C0E091DE02E030A6
:10203E0019F0E150E093DE02A091DD02AA3021F406
:10204E00A091DE02AA3009F003C0E0E0E093DF02C7
:10205E00A091DD02A03021F4A091DE02AA3009F099
:10206E0003C0E1E0E093DF02A091DD02AA3021F48B
:10207E00A091DE02A03009F003C0E2E0E093DF029F
:10208E00A091DD02A03021F4A091DE02A03009F073
:10209E0003C0E3E0E093DF0208951A930A930091E0
:1020AE007800109179000E941815DF01E091AA02C4
:1020BE00F0E0EE0FFF1FEA0FFB1F00831183E0918C
:1020CE00AA02E37099F521970E942215AE0FBF1F49
:1020DE00E0E0F0E0ED93FC93E883A881A031D8F422
:1020EE000E942215EA0FFB1FBF01008011800E9483
:1020FE001815DF01E881F0E0EE0FFF1FAE0FBF1FD6
:10210E000E941716E00DF11DDB01ED93FC93E881A3
:10211E00EF5FE883E2CF0E942215AE0FBF1FED9155
:10212E00FD910E947415FE93EE932196A091AB0241
:10213E00AF5FA093AB02A53060F0E0E0E093AB029E
:10214E00A091AA02AF5FA093AA02A03110F0E09373
:10215E00AA02E7B1E07CE7B9E8B1E07CE8B9E0912A
:10216E00AB02E03011F4E1E017C0A091AB02A13058
:10217E0011F4E4E011C0A091AB02A23011F4E2E040
:10218E000BC0A091AB02A33011F4E3E005C0A09107
:10219E00AB02A43019F4E5E0E0937C00E6EAE093AC
:1021AE007A00E0917A00E064E0937A000991199147
:1021BE00089524970E94CC120E942A15A0E0B0E048
:1021CE000E9436160E942F150E9455150E94251644
:1021DE00AB81AA2312F40E9434150E94D6120E94DB
:1021EE002F150E943815E0E6F9E060E070E00E94DD
:1021FE003F15E093AC02F093AD02E091A202F09194
:10220E00A3020E942A15AB81AA2312F40E94341550
:10221E000E94FA120E942F150E9438150E94461530
:10222E00E093B002F093B102E091A402F091A50206
:10223E000E942A15AB81AA2312F40E9434150E9423
:10224E00F5120E942F150E9438150E944615E09334
:10225E00AE02F093AF02E091A602F091A7020E94A7
:10226E002A150E94FF120E942F150E943815EEE2C9
:10227E00F5E060E070E00E943F15E151F140E0931F
:10228E00B402F093B502E091B602F0E0E093B20230
:10229E00F093B302249608950A921A92FA926A93D0
:1022AE007A938A939A93AA93BA93EA93FA93EFB78F
:1022BE00EA930E94F8050E94E101B394EAE0BE168B
:1022CE00E8F0BB2473947E1610F07724F39A83946F
:1022DE00E3E08E1610F08824F29A6394E4E16E1611
:1022EE0038F06624F49AF69B02C0F69801C0F69A6E
:1022FE009394E4E69E1610F09924F59AE991EFBFB7
:10230E00F991E991B991A9919991899179916991EF
:10231E00F9901990099018952A9A229AE4B1E663D9
:10232E00E4B9E3EAE0938000E9E0E0938100E0E0C5
:10233E00E0938500E0938400E0938700E0938600AD
:10234E00E1E0E0938900E0E0E0938800E3E0E093D1
:10235E008B00E0E0E0938A00219A229AE093B60087
:10236E00E3E2E093B000E1E0E093B100E0E0E0935F
:10237E00B200E093B300E0E3E093B400539AEDE5CE
:10238E00ECBDE0E0EDBD0E9427070E94F8050E941B
:10239E00B512E0E0E093E002E093E102A0E1B0E0EC
:1023AE000E943616E093E202F093E302A091E2025D
:1023BE00B091E3025A9744F4A091E202B091E30285
:1023CE00A73EEFEFBE072CF4E0E0E093E202E093CD
:1023DE00E302A2E1B0E00E943A16E03010F0E430E1
:1023EE0028F0A2E1B0E0E3E00E944E1678940E943D
:1023FE00EA120E9421060E946001509AE0916A033F
:10240E00E03029F0E0E0E0936A030E945302F29B71
:10241E0002C0F29842DEF39B0CC0F398CADE0E9413
:10242E00B2060E94750831DCD9DD0E94F9060E94C1
:10243E008405F49B05C0F49820DD0E94BF09F0D9F5
:10244E00F59B2DC0F5980E94B3080E943A090E9490
:10245E004106A091E802B091E902A83EE3E0BE0772
:10246E0024F4A8EEB2E00E945513A091CD02AA3A30
:10247E0021F0A091DF02A33011F40E941508E09123
:10248E000103EF5FE0930103A0910103AA3028F04E
:10249E00E0E0E09301030E9460012DDBA0DAA89535
:1024AE00ADCFFFCFAA93E881EEBDEDB5E7FFFDCF2F
:1024BE00EEB521960895E4B1EC62E4B92498209A21
:1024CE00289808950E945912A9810C945912E091EE
:1024DE008B03F0E0EA0FFB1F0895AAE0B0E00C9426
:1024EE004B15EA93AFEF0C94D500EA93A0EC0C9445
:1024FE00D500EA93A0E00C94D500EA93A1E30C94E6
:10250E00D500E0910503A0914203EA170895A0912A
:10251E004303E0910503EA170895A0914703B0E045
:10252E00E0E0F1E00E9482150895B0E0E0E0F1E015
:10253E000E94821508950E941701E0910503EA9307
:10254E00EBEDEA93E091B402EA93E0E0EA93E091D6
:10255E00B602EA93E091E202EA930895E0E0E09396
:10256E00CE02E093CF02E5E5E093CD020895A4E11B
:10257E00B0E00E943A16E0300895ADE8B3E0ED9178
:10258E00FD913196FE93EE930895E091A002F091A5
:10259E00A1020895E0914503EF70E2300895A2E0A4
:1025AE00B0E00E9436160895E0914503EF70E330D7
:1025BE000895E0914503EF70E4300895E0914503EE
:1025CE00EF70E5300895E2E0F0E0FA93EA93E4EA82
:1025DE00F1E0FA93EA93ACE4B4E00895A6E0B0E03B
:1025EE000E9436160895AAE0B0E00E9436160895AD
:1025FE00AEE0B0E00E9436160895FA93EA93A8EE84
:10260E00B3E00895A7E1B0E00E9436160895A091B8
:10261E0046038BCFA0914503B0E0EA0FFB1F089550
:10262E00A091480382CFA0914703B0E0EA0FFB1FB1
:10263E000895ABE1B0E00E9436160895ADE1B0E02A
:10264E000E9436160895A3E2B0E00E943616089551
:10265E00A5E1B0E00E9436160895DF01E09149032E
:10266E00F0E0EA17FB070895E091B602E17EE093F1
:10267E00B602E0E0E093D002E093D102E093D20202
:10268E00E093D302E093D802E093D902E093DA020A
:10269E00E093DB02EEE1E093C4020895ED91FD912B
:1026AE003196FE93EE930895EA93E0910B03A5E124
:1026BE00B3E0F0E0EE0FFF1FAE0FBF1F0895E091E5
:1026CE00E202F091E3020895E093C502F093C60290
:1026DE006093C7027093C8020895E093C902F09305
:1026EE00CA026093CB027093CC020895E0937C00F3
:1026FE00E6EAE0937A00E0917A00E064E0937A00F3
:10270E00ECCEE0917800F09179000895A091DA0274
:10271E00B091DB020895A091D802B091D90208952C
:10272E00A091CE02B091CF020895A091B402B091C3
:10273E00B5020895FA93EA93E0E0F0E0FA93EA9393
:10274E00ACE3B0E00C940206A091B002B091B102DD
:10275E000895E8EDF2E0FA93EA93E0E0F0E0FA9300
:10276E00EA93AAE0B0E00E940206D5DF1A97089518
:10277E00EAEDF2E0FA93EA93E0E0F0E0FA93EA93FE
:10278E00AAE0B0E00E940206C1DF1A970895E5E5BF
:10279E00F5E565E575E50895E093BC02F093BD029D
:1027AE006093BE027093BF020895A5E0B0E00E9450
:1027BE00AA15A091E002B091E1020895E0E0E09345
:1027CE00BC02E093BD02E093BE02E093BF02089507
:1027DE00E3E0F3E063E073E00895E5E5F5E565E039
:1027EE0070E0DADFEFEFFFEF6FEF7FEF0895EC5958
:1027FE00FF4FA091E002B091E102AE17BF0708951E
:10280E00A1E2B0E00E943616E535A0E0FA07089581
:10281E00EFEFFFEF6FEF7FEF0895B9DFBDDFF8CF7A
:10282E00E091B602EE73E4300895E1E0F0E061E08D
:10283E0070E0B2CFE0E0E093C002E093C102E0931B
:10284E00C202E093C3020895E9E0F0E069E070E0AF
:10285E00A3DFF0CFE9E4F0E069E470E008959CDFD7
:10286E00E9CFE3E3F3E363E373E3E093C002F093B2
:10287E00C1026093C2027093C3020895ECECFCECAB
:10288E006CEC7CECECCFEA5BFF4FA091E002B091D8
:10289E00E102AE17BF070895E5E0F0E060E070E0FA
:1028AE00E093C002F093C1026093C2027093C30220
:1028BE0008950E94F115EE83FF8368877987089546
:1028CE00AE81BF81888599850895E0E9F1E095CEC6
:1028DE00A7E2B0E00E9436160895A9E2B0E00E9489
:1028EE0036160895A091AE02B091AF02AE17BF0793
:1028FE000895E0911303F09114030895E0931303E8
:10290E00F09314030895A091AE02B091AF02EA17AE
:10291E00FB070895E12FF0E0E35DFC4F0895E12FF2
:10292E00A1E2B3E0F0E0EE0FFF1FAE0FBF1F0E945B
:10293E0017160895E12FA5E1B3E0F0E0EE0FFF1FAB
:10294E00AE0FBF1FED91FD910895E12FA5E1B3E00C
:10295E00F0E0EE0FFF1FAE0FBF1F0895E093D402FD
:10296E00F093D502A091D602B091D702AC3FE3E02E
:10297E00BE070895E091D602F091D7027E96E093BD
:10298E00D602F093D702A091D602B091D702AD3FF6
:10299E00E3E0BE070895ECEFF3E0E093D602F09388
:1029AE00D7020895E0E0E093D402E093D5020895B3
:1029BE00E0E0E093D602E093D702F79A0895A09153
:1029CE00D602B091D702AC3FE3E0BE070895E09384
:1029DE00D402F093D502089572DEA091B802B091A0
:1029EE00B902EA0FFB1FF3DF2ECEE0913E03F0910A
:1029FE003F030895A091D602B091D7020895EEE15B
:102A0E00F0E00E94B415F6DFEA0FFB1F0895E09187
:102A1E00BA02F091BB020895FA93EA93EAE0F0E06D
:102A2E00ECCDE091AB02F0E0EE0FFF1F0E946615B9
:102A3E00E050FE4F0895E091AB02A0EAB2E0F0E064
:102A4E00EE0FFF1F0895662777270E942016089520
:102A5E000E941B160E947D150895E0E00E942A1622
:102A6E0008950E94AF150E9420160E941B1608950D
:102A7E000E94F1150E942016E881F9810895E8EE72
:102A8E00F3E060E070E0F4CF109639F080ED97E05F
:102A9E000197F1F7A8951197C9F70895AE1BBF0BD3
:102AAE00860B970B0895F195E195F0400895F095FA
:102ABE0060957095E195FF4F6F4F7F4F0895EE0F24
:102ACE00FF1FEE0FFF1FEE0FFF1FEE0FFF1F0895EC
:102ADE0075956795F795E7950895F695E795F695AB
:102AEE00E795F695E795F695E79508956F2F660F9E
:102AFE00660B762F0895FA9FF02DEB9FF00DEA9F4F
:102B0E00E02DF10D08957A9F702D6B9F700DF89F3B
:102B1E00700DE99F700D6A9F602D710DFB9F600D0A
:102B2E00711DE89F600D711D8827FA9FF02D610DB4
:102B3E00781FEB9FF00D611D781FEA9FE02DF10DC0
:102B4E00681F781F08954BD0D6DF0EF4ACDF0895C2
:102B5E0054D0D9DF0EF4ABDF08950024112490E198
:102B6E00AA0FBB1F001C111C0E1A1F0A18F40E0E02
:102B7E001F1E01C0A1609A9599F7FD01D00108951D
:102B8E002ED0EBDF0EF48FDF08953F934F935F93BC
:102B9E00002411244427552730E2AA0FBB1F881F9B
:102BAE00991F001C111C441F551F0E1A1F0A460B9D
:102BBE00570B28F40E0E1F1E461F571F01C0A16093
:102BCE003A9559F7FD01BC01D001CA015F914F91B1
:102BDE003F91089512D0D9DF0EF469DF0895E8947D
:102BEE00F7FF02C060DF6894B7FF06C0A095B095EE
:102BFE00119600F8039400FA0895E89477FF02C046
:102C0E0056DF689497FF0BC00024A095B095809571
:102C1E0090951196801D901D00F8039400FA08956A
:102C2E00ED91FC9111970895A881B9818A819B81BC
:102C3E000895E883F9836A837B830895A883B98313
:102C4E008A839B830895E883E983EA83EB8308955F
:102C5E001B2EBF2FF12D1A2EAE2FE12D089511969A
:102C6E0002D0FE2F1197F999FECFFF93FFB7F8947C
:102C7E00A1BDB2BDF89AE0B5FFBFFF91089507D090
:102C8E001196EF93EF2F03D0EF9111970895F99BC3
:102C9E0002C0A895FCCF9FB7F894A1BDB2BDF89A1B
:102CAE0080B5E81719F0E0BDFA9AF99A9FBF08951A
:102CBE00EA17FB07680779070895AE17BF0786075F
:102CCE00970708955A934A933A932A931A930A931D
:102CDE0008955D814C813B812A8119810881089577
:00000001FF
