:0E0000000C9488000C9400000C9400000C94EA
:10000E0000000C9400000C9400000C9400000C9462
:10001E0000000C9400000C9400000C9400000C9452
:10002E0000000C9400000C9400000C9400000C9442
:10003E0000000C945D120C9400000C9400000C94C3
:10004E0000000C9400000C9400000C9400000C9422
:10005E0000000C9400000C9400001027E8036400CC
:10006E000A0001000010000110000100000048000D
:10007E007D00B100D900FE001E013E015A0174013F
:10008E009001AB01C501DE01F6010D02030303036E
:10009E001E0032003200BC027B0019000A00040070
:1000AE00E7070B001B0001002D4E414E00494E4646
:1000BE0000000400CC029A000100D0029E00010054
:1000CE00E002A0000100E202A20002001F03A40051
:1000DE0001009903A60001000002A800010002021F
:1000EE00AA0001000402AC0002000602AE000100EC
:1000FE000802B00001000A02B20001009C03B40025
:10010E000000F894EE27EFBBF1E0F5BFE5BFF8E194
:10011E00A895A4B7A77FA4BFF0936000E0936000FA
:10012E008DE0A2E0BB27ED938A95E9F780E094E09D
:10013E00A0E0B1E0ED930197E9F7E0ECF0E08591F6
:10014E009591009761F0A591B59105901590BF011D
:10015E00F00105900D920197E1F7FB01F0CFE0E081
:10016E00EEBBEABDEBBDEFEFEDBFE4E0EEBFC0E0EE
:10017E00D2E00C949D12F8940E947213289A7894EF
:10018E000895AA931A93F8940E9472138BE18A959C
:10019E00F1F7A3E00E947913A5E50E9469131E2FC3
:1001AE00289A7894E12F188122960895AA93F894AC
:1001BE000E947213A5E00E946913AA810E9479130E
:1001CE00A8810E946913289A78940FC0AA931A9353
:1001DE00F8940E947213A2E00E946913AA810E94F1
:1001EE007913289A7894E12F1881239608951A93FB
:1001FE00F8940E947213000000000000000000003E
:10020E00000000000000A0EA0E946913A5E50E940C
:10021E0069131E2F289A7894E12FE2C0AA93F894BE
:10022E000E947213E881E03011F4E1E809C0A88160
:10023E00A13011F4E2E804C0A881A23011F4E4E880
:10024E00E883A8810E946913289A789421960895CC
:10025E00AA93A0919703A03010F0A43018F0E0E01C
:10026E00E0939703E0919703F0E0E958FC4FAF81DC
:10027E00A083ABE7B3E00E947E13AE81A083AFE70D
:10028E00B3E00E947E13AD81A083A3E8B3E00E9489
:10029E007E13AC81A083A7E8B3E00E947E13AB81EE
:1002AE00A083ABE8B3E00E947E13AA81A083AFE8DF
:1002BE00B3E00E947E13A981A083A3E9B3E00E945C
:1002CE007E13A881A083E0919703EF5FE0939703DD
:1002DE00A0919703A43018F0E0E0E09397032896DE
:1002EE0008951A930E94C200AEE00E94C8001E2F0D
:1002FE00E07EE03831F0EFE0EA93E0EEEA93A0E83A
:10030E0055DF8BE18A95F1F7EAE2EA93A3EC5EDF23
:10031E00E9E2EA93AEEF5ADFE8E2EA93A3E056DFB2
:10032E00E0E6EA93A0E252DFE0E7EA93A0E24EDFD6
:10033E000E948413E0E20E948813E1E20E94881377
:10034E00E0E00E948813E1E00E948813E4E00E943E
:10035E008813E5E00E948813E4E20E948813E5E228
:10036E00EA93A0EE33DFE8E0EA93A3E12FDFE9E0C2
:10037E000E948C13E0E10E949013E1E10E94901321
:10038E00E4E10E949013E5E10E949013E8E10E94DF
:10039E009013E9E10E949013E1E50E949413E2E5C7
:1003AE000E948C13E1E40E949413E2E40E948C13E9
:1003BE00E1E30E949413E2E30E948C13EFE0EA93D0
:1003CE00E7EEEA93A5E00E94DD00EBE2EA93A6E0F9
:1003DE00FDDEA4E6B0E00E947F16ECE00E949013D2
:1003EE00199108950E94A317F89401DFE0934C032E
:1003FE00A0914D03EA2BE0934D03E0914C03E27084
:10040E00E9F000E0083078F4E02FF0E0E25BFC4F1A
:10041E00FF93EF93A02FAA580E94C800AF91BF91EF
:10042E00EC930F5FEFCFECE2EA93E2E0EA93A0E009
:10043E000E94DD00E1E0E093760341C0E0914C03C1
:10044E00E475E9F52197ECE2EA93ECE1EA93A0E09A
:10045E000E94DD00E0919703A0919803EA1771F1D5
:10046E00E0E0E883A881A830B0F4E881EA5CEA9382
:10047E00E981A7E7B3E0F0E00E949E16AE0FBF1F22
:10048E00E0919803F0E0AE0FBF1FAC919FDEE881C4
:10049E00EF5FE883E7CFE5E3EA93A8E00E94ED0083
:1004AE00A0E0BCDEE0919803EF5FE0939803A0918B
:1004BE009803A43018F0E0E0E09398032196789426
:1004CE000E94AA17249608950E94A117A0914E0388
:1004DE00A130E1F4A0914F03A230C1F4A0915003DA
:1004EE00A330A1F4A0915103A43081F4A091520342
:1004FE00A53061F4A0915303A63041F4A0915403AA
:10050E00A73021F4A0915503A83009F010C0E1E006
:10051E00EA93E2E0EA93E3E0EA93E4E0EA93E5E0CB
:10052E00EA93E6E0EA93E7E0EA93A8E091DE0E9420
:10053E00981381F40E949E1369F4A0915003AD3E6E
:10054E0041F0A0915003AB3E21F0A0915003AC3E80
:10055E0009F401C00BC1E0E0E0930D03E0915103FB
:10056E00E093C302E170B9F0A091E802A43078F4F0
:10057E00E091E802EF5FE093E802A091E802A43078
:10058E0028F0E091C202E062E093C20203C0E4E010
:10059E00E093E8021DC0E091E802E030B1F0E150D6
:1005AE00E093E802A091E802A03071F4E091C2025B
:1005BE00EF7DE093C202A2E1B0E00E946E17A5E0CB
:1005CE00EA9FF001E0930C0303C0E0E0E093E80241
:1005DE00E091C302E27021F0E091C202E06403C038
:1005EE00E091C202EF7BE093C2020E94A413A0919D
:1005FE005203B0E0EA0FFB1FE093C402F093C50272
:10060E00A09155030E94AC13A0915403B0E0EA0FE1
:10061E00FB1FE093C602F093C702F091C202E0E026
:10062E00A091C302B0E0EA0FFB1FE0939903F09391
:10063E009A03A091C202EAE0EA9FF001E093F80269
:10064E00F093F902E0911103EA93EAEDEA93E09157
:10065E00B802EA93E091B902EA93E091BA02EA9302
:10066E00E091BB02EA93E091BC02EA93A091BD0235
:10067E000E94B213E091FA02EA93A091FB02E8DD28
:10068E00A0915003AD3E59F4E0911103EA93ECEDC5
:10069E000E94CA13E0E00E94CA13A0E0D9DDA09127
:1006AE005003AB3EB9F4E0911103EA93EDEDEA93FA
:1006BE00E0910102EA93E0910002EA93E0910302D5
:1006CE00EA93E0910202EA93E0910502EA93A09187
:1006DE000402BEDDA0915003AC3EB9F4E0911103CB
:1006EE00EA93E5EDEA93E0910702EA93E0910602C0
:1006FE00EA93E0910902EA93E0910802EA93E0910D
:10070E000B02EA93A0910A02A3DD0E94CF13E0919F
:10071E00C302E07889F0A3E1B0E00E946E17E030EA
:10072E0051F4A3E1B0E0E1E00E948217E0930903E7
:10073E00E0E0E0930B0311C0A091F402B091F5023A
:10074E0055975CF0A3E1B0E00E946E17E03029F0FF
:10075E00A3E1B0E0E0E00E9482170E94D81329F0D6
:10076E00A4E1B0E0E0E00E9482175DC20E949813FF
:10077E0069F40E949E1351F4A0915003AE3E31F4E1
:10078E00A0915103E0915203EA1709F0DAC00E94DA
:10079E00DE13E0915103E07FE032D1F5E091510399
:1007AE00EF70E13039F40E94E613A0E0B0E00E9451
:1007BE007A1723C00E94EB1331F40E94F013319686
:1007CE000E947A171AC00E94F51321F40E94F013AA
:1007DE003A960FC00E94FA1331F40E94F01331972B
:1007EE000E947A170AC00E94FF1339F40E94F01378
:1007FE003A97A2E0B0E00E947A17E2E0F0E0FA93B6
:10080E00EA93ECE2F1E0FA93EA93A8E8B3E18DC043
:10081E00E0915103E07FE03121F50E94EB1331F4BA
:10082E000E94041431960E947A171AC00E94F51382
:10083E0021F40E9404143A960FC00E94FA1331F468
:10084E000E94041431970E947A170AC00E94FF1367
:10085E0039F40E9404143A97A6E0B0E00E947A1789
:10086E0065C0E0915103E07F81F5E0915103EF7097
:10087E00E13039F4A8E0B0E00E94E6130E947A1746
:10088E0023C00E94EB1331F40E94091431960E948A
:10089E007A171AC00E94F51321F40E9409143A9691
:1008AE000FC00E94FA1331F40E94091431970E946E
:1008BE007A170AC00E94FF1339F40E9409143A975E
:1008CE00AAE0B0E00E947A1731C0E0915103E07FB8
:1008DE00E03361F50E94EB1331F40E940E14319651
:1008EE000E947A171AC00E94F51321F40E940E146A
:1008FE003A960FC00E94FA1331F40E940E143197EB
:10090E000E947A170AC00E94FF1339F40E940E1437
:10091E003A97AEE0B0E00E947A17EEE0F0E0FA937C
:10092E00EA93E8ECF0E00E9413143AD20E94CF133F
:10093E000E94D81329F0A4E1B0E0E0E00E948217F3
:10094E0072C1A0914E03AF3F41F4A0914F03AF3F50
:10095E0021F4A0915003A23609F046C00E9418144B
:10096E00BF010E941D140E942014E617F70741F0E4
:10097E000E941D140E942014A7E1B0E00E947A1775
:10098E00A9E1B0E00E946A17BF010E9426140E94DE
:10099E002914E617F70741F00E9426140E94291425
:1009AE00A9E1B0E00E947A17E0915503EF70E530AF
:1009BE0069F40E942F14E535A0E0FA0731F0A1E2A8
:1009CE00B0E0E5E5F0E00E947A170DC0E091550326
:1009DE00EF70EA3041F40E942F14309721F0A1E21B
:1009EE00B0E00E9434141FC1A0914E03AF3F69F4D2
:1009FE00A0914F03AF3F49F4A0915003A63221F0CE
:100A0E00A0915003A93209F401C067C00E943914A5
:100A1E00BF010E941D140E942014E617F70741F033
:100A2E000E941D140E942014ABE1B0E00E947A17C0
:100A3E000E943E14BF010E94A4130E942914E617BF
:100A4E00F70741F00E9426140E942914ADE1B0E090
:100A5E000E947A17A0915003A632A1F40E9443146B
:100A6E00309721F0A3E2B0E00E9434140E944814A3
:100A7E000E944D1439F0E0915503F0E0A5E1B0E08D
:100A8E000E947A17A0915003A93231F50E944314A7
:100A9E00E130A0E0FA0731F0A3E2B0E0E1E0F0E0EF
:100AAE000E947A17A5E2B0E00E946A170E944D14C8
:100ABE0039F0E0915503F0E0A5E2B0E00E947A171C
:100ACE000E944814E330A0E0FA0731F0A5E1B0E04F
:100ADE00E3E0F0E00E947A17A6C00E94981359F442
:100AEE000E949E1341F4A0915003A63121F4A091CF
:100AFE005103A33609F003C00E94541494C00E94FF
:100B0E00981359F40E949E1341F4A0915003A631FC
:100B1E0021F4A0915103A43609F005C0A7E2B0E07C
:100B2E000E94341480C0A0914E03AF3F61F4A09197
:100B3E004F03AF3F41F4A0915003A63121F4A09191
:100B4E005103A63109F039C0A0915203A53521F405
:100B5E00A0915303A53509F005C0AEEEB2E00E9498
:100B6E006E141FC0A0915203A63621F4A091530318
:100B7E00A63609F008C0AEEEB2E0ED91FD913197C8
:100B8E00FE93EE930EC0A0915203A73721F4A091CD
:100B9E005303A73709F005C0E0E0E093EE02E093BF
:100BAE00EF02EEEEF2E0FA93EA93E7EEFFEFFA933E
:100BBE00EA93A9E1B0E0D5D036C00E94981389F42B
:100BCE000E949E1371F4A0915003A63151F4A0918E
:100BDE005103E0915203EA1721F4A0915103AE3E66
:100BEE0009F021C00E94DE134091E0025091E10213
:100BFE00FA01AFE1B0E00E947A17A4E6B0E00E94DD
:100C0E007F160E9474144E175F0769F4E09111036A
:100C1E00EA93E1E9EA93EDEDEA930E94CA13E0E06C
:100C2E00EA93A0E015DBE0E0E09376030E94A817BC
:100C3E00D5C0EAB5E1FF70C0A0911703AF5FA093D6
:100C4E001703A73018F0E0E0E0931703A091170305
:100C5E00A630C0F5E0911703EA93EA93EDEEEA931E
:100C6E00E0E00E947914EC91A0911F03EA0F0E941C
:100C7E0079140E944B17A0911F03B0912003AE0F61
:100C8E00BF1FE0E0F1E00E94FB16EA93E8EEEA9364
:100C9E00A8EEDEDAA0911703B0E0AC5BBC4FEC918E
:100CAE00EF5FEC93E0911703F0E0EC5BFC4FA0815B
:100CBE00AB3038F0E0911703F0E0E75CFC4FA0E0BA
:100CCE00A0832AC0A0911703A63031F5E091E0026F
:100CDE00F091E102E093FA02F093FB02E09111032E
:100CEE00EA93EAEDEA93E091B902EA93E091B80251
:100CFE00EA93E091BB02EA93E091BA02EA93E091A3
:100D0E00BD02EA93A091BC020E94B213E091FB02D5
:100D1E00EA93A091FA029CDA0895E0E0E4BDE5E0E2
:100D2E00E5BDE8EFE6BDE1E0E0936E000895BA930D
:100D3E00AA93A881B981A132E3E0BE0714F0E1E0E5
:100D4E000EC0A881B981A135E0E0BE0724F0A83716
:100D5E00E0E0BE070CF002C0E0E001C0E4E622963F
:100D6E000895BA93AA93AC81BD810E944B17DF01FF
:100D7E00EA81FB81AE17BF0724F4AC81BD81ED93F0
:100D8E00FC93AC81BD810E944B17DF01E881F98194
:100D9E00EA17FB0724F4AC81BD81ED93FC931EC0D2
:100DAE00BA93AA93AC81BD810E946A17DF01EA81D2
:100DBE00FB81AE17BF0724F4AC81BD810E947A1768
:100DCE00AC81BD810E946A17DF01E881F981EA17C3
:100DDE00FB0724F4AC81BD810E947A1726960895F4
:100DEE000E948414A091F002B091F102EA17FB0761
:100DFE0009F5A091F202B091F302DC97D4F4A2EFC0
:100E0E00B2E00E946E14A091F202B091F302DC9750
:100E1E0084F0A0E1B0E00E946A17DF010E94841402
:100E2E00EA17FB0731F00E948414A0E1B0E00E94A3
:100E3E007A1705C0E0E0E093F202E093F302A0918E
:100E4E00F202B091F302DD972CF0E0E0E093F202B3
:100E5E00E093F3020E948414E093F002F093F10207
:100E6E000895A0910203A03061F4A0910303A03075
:100E7E0041F4A0910403A03021F4E0910703E03087
:100E8E0009F010C0ECE3E0930203E0930303E09358
:100E9E000403E0E1FEE0E0930503F0930603E1E0D6
:100EAE00E09307030895E0E0E0930203E093030369
:100EBE00E0930403E0930503E0930603E093070336
:100ECE000895509AE091D102E17011F0589A01C044
:100EDE005898519AE091D502E17011F0599A01C0DB
:100EEE005998E091D102F091D2026091D3027091A3
:100EFE00D4020E94A3160E948914E091D502F091AB
:100F0E00D6026091D7027091D8020E94A3160E9459
:100F1E009214A091D002AF5FA093D002A132B8F08C
:100F2E00E0E0E093D002E091C802F091C902609136
:100F3E00CA027091CB020E948914E091CC02F0910A
:100F4E00CD026091CE027091CF020E94921408954C
:100F5E00A091EB02A330E9F0E091C202E87021F01B
:100F6E00E0919B03E87079F0E091C202E07151F0DC
:100F7E00E0919B03E07131F40E942F14E535A0E05F
:100F8E00FA0709F405C0A091D902AA3A09F469DF5B
:100F9E000EC0A091EB02A33051F4E091C202E870B2
:100FAE0021F0E0919B03E87009F001C05ADFE09157
:100FBE00C202E0939B03089526971A930A93E0E0EA
:100FCE00E7B9EEE1E8B9E6E40E949B140E94A6148C
:100FDE00AEDEED830E94AB14EDB7FEB73197FA93F8
:100FEE00EA931F930F930E94B2140F911F910A83DD
:100FFE00E7E40E949B140E94A61499DEEE830E94E1
:10100E00AB14EDB7FEB73197FA93EA931F930F9394
:10101E000E94B2140F911F91FE0133960083E0E4FB
:10102E000E949B140E94A61482DEEF830E94AB14D2
:10103E00EDB7FEB73197FA93EA931F930F930E9481
:10104E00B2140F911F91FE0134960083E4E6E093F3
:10105E001103AD81A43631F0AE81A43619F0AF8103
:10106E00A43609F418C0ED81E03049F4EE81E03089
:10107E0011F4E3E001C0E0E0E09311030BC0EE8158
:10108E00E03011F4E1E004C0EF81E03019F4E2E069
:10109E00E09311031EC0AD81A43631F4AE81A436A7
:1010AE0019F4AF81A43609F00EC0EB81EE0FEE0FEE
:1010BE00AA81EA0F6E2FEC81A0E1EA9FF001E60F04
:1010CE00E093110306C0E4E6E0931103E1E0E09340
:1010DE0012031981088128960895E0910203E030E9
:1010EE0041F0E150E0930203E03011F40E945414F9
:1010FE001FC0E0910303E03061F0E0910303E15083
:10110E00E0930303E0910303E03011F40E945414C2
:10111E000FC0E0910403E03059F0E0910403E15078
:10112E00E0930403E0910403E03011F40E945414A0
:10113E00E0910503F0910603309789F0A5E0B3E046
:10114E00ED91FD913197FE93EE93E0910503F091B1
:10115E000603309721F4E0E0E093070382DE0E945D
:10116E00BA14109731F40E94BF14109711F44C9BCF
:10117E0001C00FC0A0910803A43150F4E091080300
:10118E00EF5FE0930803A0910803A43108F08BDE13
:10119E0003C0E0E0E09308030895A091EB02A330B2
:1011AE00B1F10E94C414AA35E2E0BE0724F4AAED00
:1011BE00B2E00E946E140E94C414AE34E2E0BE0788
:1011CE0029F4E091C202E17CE093C2020E94C414B1
:1011DE00A835E2E0BE07D1F4EAEAE093D902A09185
:1011EE001303A13019F4EAB5E26002C0EAB5ED7F4F
:1011FE00EABDE0E0E09317030E94D81339F4E1E072
:10120E00E0930A03A4E1B0E00E94821703C0EAEA69
:10121E00E093D90208950E943E140E94C914EA1761
:10122E00FB0734F4ACEDB2E0ED91FD9131960DC0BB
:10123E000E943E1431970E94C914AE17BF073CF4AA
:10124E00ACEDB2E0ED91FD913197FE93EE93ECEDA6
:10125E00F2E00E94CE14A091DC02B091DD02D7978D
:10126E0094F0A091EB02A03021F4E091C202E07460
:10127E0021F0A091EB02A33029F4E091C202E460C8
:10128E00E093C2020BC0A091DC02B091DD02169772
:10129E002CF4E091C202EB7FE093C2020E9439145B
:1012AE000E94C914EA17FB0734F4AEEDB2E0ED91DB
:1012BE00FD9131960DC00E94391431970E94C914C8
:1012CE00AE17BF073CF4AEEDB2E0ED91FD91319754
:1012DE00FE93EE93EEEDF2E00E94CE14A091DE02AC
:1012EE00B091DF02D79794F0A091EB02A03021F4D9
:1012FE00E091C202E07421F0A091EB02A33029F438
:10130E00E091C202E260E093C2020BC0A091DE0245
:10131E00B091DF0216972CF4E091C202ED7FE093BC
:10132E00C2020895A091EB02A33009F484C00E947A
:10133E0018140E94D814EA17FB0728F4A4EEB2E0A2
:10134E000E946E1405C0E0E0E093E402E093E50233
:10135E000E94DD142CF0E091C202E860E093C2021C
:10136E000E942F14E535A0E0FA07C9F522970E94D6
:10137E001814E883F983A881B981EAE0F0E00E94AD
:10138E00FB16E883F983A9E0B0E00E94DE16E8833D
:10139E00F9830E94D814AE17BF0710F44C9B01C0FE
:1013AE0006C0A6EEB2E0ED91FD91319605C0A6EE17
:1013BE00B2E0ED91FD913197FE93EE930E94EC1405
:1013CE0014F00E94FB140E94BA140E9493172CF082
:1013DE00E091C202EF7EE093C20222962BC0E09112
:1013EE00BA02F091BB020E94D814AE17BF0790F458
:1013FE000E94D814E091BA02F091BB02EA1BFB0BDB
:10140E000F01A9E1B0E00E946A17E015F10510F492
:10141E004C9B01C005C0A6EEB2E00E946E1405C042
:10142E00E0E0E093E602E093E7020E94EC1414F091
:10143E000E94FB1434C0A091EB02A33081F50E94F0
:10144E00D814AD3BE2E0BE0728F0A4EEB2E00E9455
:10145E006E1405C0E0E0E093E402E093E5020E9422
:10146E00DD142CF0E091C202E860E093C2020E940B
:10147E00D814A83CE0E0BE0710F44C9B01C005C098
:10148E00A6EEB2E00E946E1405C0E0E0E093E60224
:10149E00E093E7020E94EC1414F00E94FB140895EE
:1014AE00E0911203E03039F00E9401150E940615FA
:1014BE000E940115A2C20E942F14E535A0E0FA0782
:1014CE0009F05DC00E940F150E9419150E941E158D
:1014DE00A091EB02A33009F451C0A091D902A53519
:1014EE0021F4E091C202EE7309F00BC0E1E1F1E0EC
:1014FE0060E070E00E940615E1E1F1E060E070E06E
:10150E0026C00E94271519F40E942C1516C0E091D2
:10151E00C202E27029F00E9431150E9433151FC0DD
:10152E00E091C202E87019F00E943D1518C0E091DA
:10153E00C202E071A1F00E944315E093C802F0933D
:10154E00C9026093CA027093CB020E941915E093F0
:10155E00CC02F093CD026093CE027093CF02A09195
:10156E00EB02A13029F40E940F150E94481506C007
:10157E00A091EB02A23011F40E944D1546C2E091EB
:10158E001303E03009F0ECC0A091EB02A33009F494
:10159E0090C00E9448140E945315AE17BF072CF43A
:1015AE000E940F150E945C156CC0A091D902A53542
:1015BE0021F4E091C302E07809F403C00E946115A2
:1015CE0060C00E9448140E945315EA17FB071CF4D2
:1015DE000E9467150CF00AC00E942F14E535A0E09A
:1015EE00FA0721F00E944314309709F005C00E94BB
:1015FE000F150E94191545C0A091D902AA3A19F4E7
:10160E000E9470153EC0A091D902A53521F4E0913B
:10161E00C202EE7309F005C00E940F150E94191543
:10162E0030C00E94271529F40E9431150E94191509
:10163E0028C0E091C202E27029F00E9431150E948A
:10164E00331527C0E091C202E87019F00E943D15D3
:10165E0020C0E091C202E07129F00E9473150E9431
:10166E00331517C0A091D902A53521F4E091C2021D
:10167E00E07209F40EC00E940F15E3E0F0E063E0A3
:10168E0070E0E093CC02F093CD026093CE027093A3
:10169E00CF02A091EB02A13029F40E940F150E94F7
:1016AE00481506C0A091EB02A23011F40E944D1510
:1016BE0056C0A091EB02A33009F051C00E9448140D
:1016CE000E945315AE17BF072CF40E940F150E94EF
:1016DE005C153DC00E9448140E945315EA17FB0783
:1016EE001CF40E9475150CF003C00E940F152BC040
:1016FE00E091C202EE7119F40E940F1524C00E94EF
:10170E00271519F40E942C1516C0E091C202E27042
:10171E0029F00E9431150E94331521C0E091C202BA
:10172E00E87019F00E943D151AC0E091C202E071F6
:10173E00B1F00E944315E093C802F093C902609382
:10174E00CA027093CB02EFEFFFEF6FEF7FEFE093E4
:10175E00CC02F093CD026093CE027093CF0255C1AE
:10176E00A0911303A13009F050C1A091EB02A33058
:10177E0009F4F5C00E9448140E945315AE17BF0716
:10178E002CF40E940F150E945C15D1C0A091D902B5
:10179E00A53521F4E091C302E07809F403C00E945C
:1017AE006115C5C00E9448140E945315EA17FB0725
:1017BE001CF40E9467150CF00AC00E942F14E53528
:1017CE00A0E0FA0721F00E944314309709F005C0FB
:1017DE000E940F150E941915AAC0A091D902AA3A0B
:1017EE0009F067C0E091C202EE71A9F40E940F15D4
:1017FE00EAB5E1FF05C0E5EFFFEF6FEF7FEF02C047
:10180E000E941915E093CC02F093CD026093CE02A4
:10181E007093CF024DC00E942715A9F40E94311576
:10182E00EAB5E1FF05C0E5EFFFEF6FEF7FEF02C016
:10183E000E941915E093CC02F093CD026093CE0274
:10184E007093CF0235C0E091C202E27059F00E944F
:10185E003115EAB5E1FF03C00E947E1502C00E9459
:10186E00331526C0E091C202E87079F0E9E0F0E0AD
:10187E0069E070E00E940615EAB5E1FF03C00E9420
:10188E007E1502C00E94331513C0E091C202E071B2
:10189E0059F00E947315EAB5E1FF03C00E947E1550
:1018AE0002C00E94331504C00E9470150E941E15BE
:1018BE0046C0A091D902A53521F4E091C202EE7383
:1018CE0009F005C00E940F150E94191530C00E9424
:1018DE00271529F40E9431150E94191528C0E09190
:1018EE00C202E27029F00E9431150E94331527C002
:1018FE00E091C202E87019F00E943D1520C0E091FF
:10190E00C202E07129F00E9473150E94331517C0B0
:10191E00A091D902A53521F4E091C202E07209F43A
:10192E000EC00E940F15E3E0F0E063E070E0E0937C
:10193E00CC02F093CD026093CE027093CF02A091B1
:10194E00EB02A13029F40E940F150E94481506C023
:10195E00A091EB02A23011F40E944D1556C0A09139
:10196E00EB02A33009F051C00E9448140E94531597
:10197E00AE17BF072CF40E940F150E945C153DC0D8
:10198E000E9448140E945315EA17FB071CF40E948C
:10199E0075150CF003C00E940F152BC0E091C2020A
:1019AE00EE7119F40E940F1524C00E94271519F428
:1019BE000E942C1516C0E091C202E27029F00E941E
:1019CE0031150E94331521C0E091C202E87019F062
:1019DE000E943D151AC0E091C202E071B1F00E9462
:1019EE004315E093C802F093C9026093CA02709344
:1019FE00CB02EFEFFFEF6FEF7FEFE093CC02F093B0
:101A0E00CD026093CE027093CF02089524970E9468
:101A1E00A11700E911E020E931E040E951E00E9410
:101A2E0018140E94B116A0EABCE880E090E00E9473
:101A3E008315A091B802B091B90288279927EE813B
:101A4E00FF81688579850E9483150E944314E130D9
:101A5E00A0E0FA0781F4A5E2B0E00E946A17A09117
:101A6E00B802B091B9020E94E81666277727EE8376
:101A7E00FF83688779870E948A15AB30E0E0BE0746
:101A8E00E0E08E07E0E09E071CF008EE13E016C0C3
:101A9E000E948A15A130E0E0BE07E0E08E07E0E08C
:101AAE009E071CF400E911E009C0EE81FF81ACE352
:101ABE00B0E00E94DE16E057FE4F8F01EDB7FEB785
:101ACE003197FA93EA931F930F930E948F1549D97A
:101ADE000F911F91E091C002F091C1020E94B116C8
:101AEE00EE83FF83688779870E943E140E94B116A9
:101AFE00EE51F040604070400E948A150E94971788
:101B0E001CF020E931E01CC00E943E140E948A1590
:101B1E000E94B1160E949C171CF028EE33E010C0F4
:101B2E000E943E147E97AE81BF810E946317EA1B0E
:101B3E00FB0BA4E1B0E00E94DE16E057FE4F9F01C2
:101B4E00EDB7FEB73197FA93EA933F932F930E9426
:101B5E008F1507D92F913F91A801021713070CF487
:101B6E00A9010E949215A417B5074CF4E091140335
:101B7E00F09115033A96E0931403F09315030E9427
:101B8E0092154A175B074CF4E0911403F09115037C
:101B9E003A97E0931403F0931503E4E1F3E0FA931C
:101BAE00EA930E948F15DDD8E0911603E03029F0FC
:101BBE00E0E0E0931403E09315030E94A8172A9621
:101BCE0008951A93E0911603E03021F4A8E1B3E0F2
:101BDE000E946E14A0911803B0911903A131EEE08A
:101BEE00BE0780F00E949715E036AAEEFA0728F499
:101BFE000E94971531960E947A17E0E0E093180341
:101C0E00E09319030E949715EF70F070E0931A039A
:101C1E000E949715E07FF0700E94A816F0E0E06435
:101C2E00E0931B030E949715E070FF70EF2FF0E01A
:101C3E00F0E0E068E0931C030E949715E070F07FDF
:101C4E000E94A816EF2FF0E0F0E0E06CE0931D0389
:101C5E00E0911A03EF701E2FE0911B03EF701E2709
:101C6E00E0911C03EF701E27E0911D03EF701E27FD
:101C7E00E12FE370E295E07FA0911A03EA2BE09347
:101C8E001A03EBE1F3E00F01A081E12FEC70EE0FF0
:101C9E00EE0FEA2BD001EC93ECE1F3E00F01A08103
:101CAE00E12FE073EA2BD001EC93EDE1F3E00F01AD
:101CBE00A081E12FE07CE695E695EA2BD001EC932E
:101CCE00E0911E03EF5FE0931E03A0911E03A4306C
:101CDE0018F0E0E0E0931E03C8C01A93EAB5E1FFE6
:101CEE00C4C00E949C153A970E94A11530F40E9420
:101CFE00A81535960E94AD1525C00E949C153197EA
:101D0E000E94A11530F4AFE1B3E0ED91FD91319653
:101D1E0017C00E949C153A960E94B21530F40E948C
:101D2E00A8153A970E94AD150DC00E949C153196CC
:101D3E000E94B21538F4AFE1B3E0ED91FD91319709
:101D4E00FE93EE93A0911F03B0912003AD3FE3E00D
:101D5E00BE0724F0ECEFF3E00E94AD15A091200336
:101D6E00AA232AF4E0E0E0931F03E0932003E0E0CF
:101D7E00E0934203E0934303E093410310E01630F7
:101D8E0008F50E94B915E081E030B1F00E94BE1551
:101D9E00A0914203B0914303EA0FFB1FE09342036D
:101DAE00F09343030E94B915A1E0A083E091410393
:101DBE00EF5FE093410304C00E94B915A0E0A08339
:101DCE001F5FDDCFE0914103A0914203B091430329
:101DDE00F0E00E94FB16E0933F03F093400310E007
:101DEE00163008F042C00E94B915E081E030D9F1FA
:101DFE000E94BE15DF01E0913F03F09140033A9738
:101E0E00AE17BF0724F40E94C91531960EC00E946A
:101E1E00BE15DF01E0913F03F09140033A96EA17B9
:101E2E00FB072CF40E94C9153197FE93EE930E9486
:101E3E00D4150E944B17E536A0E0FA0734F00E9445
:101E4E00D415E4E6F0E0ED93FC930E94D4150E94C5
:101E5E004B17EC39AFEFFA0734F40E94D415ECE9C6
:101E6E00FFEFED93FC931F5FBBCF199108950E9476
:101E7E002F14E535A0E0FA07F1F4E091C202EA7101
:101E8E0081F40E9474140E94DD150E94E21528F45C
:101E9E000E94F61510F00E940716F798EAB5EE7F2D
:101EAE0008C0E091C202EA7029F00E940E16EAB54F
:101EBE00E160EABDE5C0A091EB02A330B9F4E09178
:101ECE00C202EA7061F4E4EFF1E00E94191628F400
:101EDE000E94F61510F00E940716F79806C0E091C2
:101EEE00C202EA7011F00E940E16CAC0A091EB0257
:101EFE00A23091F4E0E0E093E002E093E1020E9470
:101F0E002216AC3FE3E0BE0728F40E94F61510F04F
:101F1E000E940716F798B4C0A091EB02A13061F4AD
:101F2E00EFEFF3E00E94191628F40E94F61510F058
:101F3E000E940716F798A4C0EAB5E1FF04C0A0916D
:101F4E00D902A53509F00EC00E94A8150E941916D7
:101F5E0028F40E94F61510F00E940716EAB5EE7FDF
:101F6E00EABD8EC0A091D902AA3A29F50E94431467
:101F7E00309719F00E940E161DC0E091C202EA7150
:101F8E0081F40E9474140E94DD150E94E21528F45B
:101F9E000E94F61510F00E940716F798EAB5EE7F2C
:101FAE0008C0E091C202EA7129F00E940E16EAB54D
:101FBE00E160EABD65C0A091D902A53509F060C007
:101FCE00E091C202E07209F055C0E091C202EE71DA
:101FDE00E43001F50E9427163097A9F40E943016BE
:101FEE000E942216AE17BF0738F4A0914A03B09193
:101FFE004B030E94351602C00E943016E093E20297
:10200E00F093E30206C00E943016E093E202F093D2
:10201E00E302F798E091C202EA7121F0E091C20268
:10202E00E07409F10E9427163097A9F40E943D161C
:10203E000E942216AE17BF0738F4A091C602B091C7
:10204E00C7020E94351602C00E943D16E093E202BE
:10205E00F093E30206C00E943D16E093E202F09375
:10206E00E302F79806C0E091C202EA7111F00E94F5
:10207E000E1606C0E091C202E07211F00E940E161A
:10208E000895549AA091EC02B091ED02AC3DE5E0BA
:10209E00BE0724F4ACEEB2E00E946E14A091EC02E6
:1020AE00B091ED02599724F40E944314309709F42D
:1020BE0003C05C9AE1E062C00E944314309761F065
:1020CE00F79B03C05C9AE1E004C0F79904C05C98EA
:1020DE00E0E0E093160354C00E9448140E9453158A
:1020EE00AE17BF0724F4A0911303A13009F403C067
:1020FE005C9AE1E043C0A0911303A13071F4EAB5FC
:10210E00E0FF03C05C9AE1E005C0EAB5E0FD04C063
:10211E005C98E0E0E093160333C00E9448140E94DE
:10212E005315EA17FB071CF40E9475150CF01DC021
:10213E00A0911303A130A1F0E0911303E030A1F4BC
:10214E000E944314309761F0E091C202E07219F0E0
:10215E005C9AE1E002C05C98E0E0E093160304C0F4
:10216E005C98E0E0E09316030BC0F79B03C05C9A0B
:10217E00E1E004C0F79904C05C98E0E0E093160338
:10218E00E0EEF2E00E944216E2EEF2E00E9442160B
:10219E000E942F14E535A0E0FA0789F00E9443143F
:1021AE00309741F40E9448143A960E945315AE1788
:1021BE00BF070CF004C0EAE0F0E00E94DD15E091EC
:1021CE00E102E0938900E091E002E0938800E09163
:1021DE00E302E0938B00E091E202E0938A000E941A
:1021EE009215E4E0F0E00E94FB16E093B40008952F
:1021FE00269A279A2E9A2F9A1E9B0AC0A091E90220
:10220E00AA3028F4E091E902EF5FE093E90209C0F9
:10221E001E9907C0E091E902E03019F0E150E09319
:10222E00E9021F9B0AC0A091EA02AA3028F4E091AD
:10223E00EA02EF5FE093EA0209C01F9907C0E0913E
:10224E00EA02E03019F0E150E093EA02A091E902CF
:10225E00AA3021F4A091EA02AA3009F003C0E0E00E
:10226E00E093EB02A091E902A03021F4A091EA02E2
:10227E00AA3009F003C0E1E0E093EB02A091E9027D
:10228E00AA3021F4A091EA02A03009F003C0E2E0E6
:10229E00E093EB02A091E902A03021F4A091EA02B2
:1022AE00A03009F003C0E3E0E093EB0208951A9327
:1022BE000A9300917800109179000E944C16DF016C
:1022CE00E091B602F0E0EE0FFF1FEA0FFB1F008356
:1022DE001183E091B602E37099F521970E9456168C
:1022EE00AE0FBF1FE0E0F0E0ED93FC93E883A88112
:1022FE00A031D8F40E945616EA0FFB1FBF010080D2
:10230E0011800E944C16DF01E881F0E0EE0FFF1FF6
:10231E00AE0FBF1F0E944B17E00DF11DDB01ED93B9
:10232E00FC93E881EF5FE883E2CF0E945616AE0F72
:10233E00BF1FED91FD910E94A816FE93EE9321967C
:10234E00A091B702AF5FA093B702A53060F0E0E0B6
:10235E00E093B702A091B602AF5FA093B602A03190
:10236E0010F0E093B602E7B1E07CE7B9E8B1E07CAB
:10237E00E8B9E091B702E03011F4E1E017C0A091A6
:10238E00B702A13011F4E4E011C0A091B702A2305F
:10239E0011F4E2E00BC0A091B702A33011F4E3E018
:1023AE0005C0A091B702A43019F4E5E0E0937C00DB
:1023BE00E6EAE0937A00E0917A00E064E0937A0036
:1023CE0009911991089524970E94E6130E945E16B2
:1023DE00A0E0B0E00E946A170E9463160E94891660
:1023EE000E945917AB81AA2312F40E9468160E940C
:1023FE00F0130E9463160E946C16E0E6F9E060E0AE
:10240E0070E00E947316E093B802F093B902E09167
:10241E00AE02F091AF020E945E16AB81AA2312F4B7
:10242E000E9468160E9409140E9463160E946C1680
:10243E000E947A16E093BC02F093BD02E091B002C6
:10244E00F091B1020E945E16AB81AA2312F40E9493
:10245E0068160E9404140E9463160E946C160E9455
:10246E007A16E093BA02F093BB02E091B202F091B9
:10247E00B3020E945E160E940E140E9463160E9402
:10248E006C16EEE2F5E060E070E00E947316E1512A
:10249E00F140E093C002F093C102E091C202F0E07D
:1024AE00E093BE02F093BF02249608950A921A9208
:1024BE00FA926A937A938A939A93AA93BA93EA9327
:1024CE00FA93EFB7EA930E9494060E94F901B3942F
:1024DE00EAE0BE16E8F0BB2473947E1610F0772463
:1024EE00F39A8394E3E08E1610F08824F29A6394A4
:1024FE00E4E16E1638F06624F49AF69B02C0F69864
:10250E0001C0F69A9394E4E69E1610F09924F59A7B
:10251E00E991EFBFF991E991B991A99199918991B9
:10252E0079916991F9901990099018952A9A229AA1
:10253E00E4B1E663E4B9E3EAE0938000E9E0E09316
:10254E008100E0E0E0938500E0938400E093870053
:10255E00E0938600E0938900E0938800E0938B007F
:10256E00E0938A00219A229AE093B600E3E2E09388
:10257E00B000E1E0E093B100E0E0E093B200E09360
:10258E00B300E0E3E093B400539AEDE5ECBDE0E078
:10259E00EDBD0E94E3070E949406E0E0E093DA02AC
:1025AE00E093DB020E942F14E535A0E0FA0719F044
:1025BE00E5E5E093D902E0E0E093EC02E093ED0272
:1025CE00A0E1B0E00E946A17E093EE02F093EF02F2
:1025DE00A091EE02B091EF025A9744F4A091EE0250
:1025EE00B091EF02A73EEFEFBE072CF4E0E0E093D0
:1025FE00EE02E093EF02A2E1B0E00E946E17E0302F
:10260E0010F0E43028F0A2E1B0E0E3E00E9482177F
:10261E0078940E947801509A0E940E16E0917603EB
:10262E00E03029F0E0E0E09376030E946B02F29B2B
:10263E0002C0F2983CDEF39B0CC0F398C4DE0E94FD
:10264E0068070E94D40813DCD3DD0E94AF070E94F6
:10265E002006F49B05C0F49814DD0E94570AD6D9C3
:10266E00F59B2DC0F5980E9412090E9499090E94AF
:10267E00F706A091F402B091F502A83EE3E0BE0782
:10268E0024F4A4EFB2E00E946E14A091D902AA3AEB
:10269E0021F0A091EB02A33011F40E947408E09196
:1026AE000D03EF5FE0930D03A0910D03AA3028F008
:1026BE00E0E0E0930D030E9478010FDB82DAA8952B
:1026CE00ADCFFFCFAA93E881EEBDEDB5E7FFFDCF0D
:1026DE00EEB521960895E4B1EC62E4B92498209AFF
:1026EE00289808950E946913A9810C946913E091AA
:1026FE009703F0E0EA0FFB1F0895AAE0B0E00C94F8
:10270E007F16EA93AFEF0C94ED00EA93A0EC0C94D5
:10271E00ED00EA93A0E00C94ED00EA93A1E30C9493
:10272E00ED00E0911103A0914E03EA170895A091D8
:10273E004F03E0911103EA170895A0915303B0E0FF
:10274E00E0E0F1E00E94B6160895B0E0E0E0F1E0BE
:10275E000E94B61608950E942F01E0911103EA938C
:10276E00EBEDEA93E091C002EA93E0911E03F0E0F4
:10277E00E65EFC4FE081EA93E091C202EA93E091BB
:10278E00EE02EA930895EA93E0E0EA93EA9308955D
:10279E00E0E0E093DA02E093DB02E5E5E093D902B4
:1027AE000895A4E1B0E00E946E17E0300895A9E903
:1027BE00B3E0ED91FD913196FE93EE930895E09185
:1027CE00AC02F091AD020895E0915103EF70E2304A
:1027DE000895A2E0B0E00E946A170895E0915103B7
:1027EE00EF70E3300895E0915103EF70E4300895F7
:1027FE00E0915103EF70E5300895A6E0B0E00E943D
:10280E006A170895AAE0B0E00E946A170895AEE034
:10281E00B0E00E946A170895FA93EA93A8EEB3E027
:10282E000895A7E1B0E00E946A170895A09152039F
:10283E008CCFA0915103B0E0EA0FFB1F0895A09139
:10284E00540383CFA0915303B0E0EA0FFB1F08950A
:10285E00A1E2B0E00E946A170895E0E0F0E00E9465
:10286E007A170895ABE1B0E00E946A170895ADE1C2
:10287E00B0E00E946A170895A3E2B0E00E946A17C2
:10288E000895A5E1B0E00E946A170895DF01E09176
:10289E005503F0E0EA17FB070895E091C202E17ECE
:1028AE00E093C202E0E0E093DC02E093DD02E0930D
:1028BE00DE02E093DF02E093E402E093E502E093B0
:1028CE00E602E093E702EEE1E093D0020895ED9187
:1028DE00FD913196FE93EE930895AFE1B0E00E9424
:1028EE006A170895EA93E0911703A1E2B3E0F0E0CE
:1028FE00EE0FFF1FAE0FBF1F0895E091EE02F09195
:10290E00EF020895E093D102F093D2026093D302C6
:10291E007093D4020895E093D502F093D60260939B
:10292E00D7027093D8020895E0937C00E6EAE09314
:10293E007A00E0917A00E064E0937A00DECEA09116
:10294E007800B09179000895FADFE8ECF0E00E948B
:10295E00E8168F010895E0E0F0E0FA93EA93A3E021
:10296E00B0E00C94B806A091E602B091E70208958B
:10297E00A091E402B091E5020895A091DA02B0911F
:10298E00DB020895A091C002B091C1020895FA939E
:10299E00EA93E0E0F0E0FA93EA93ACE3B0E00C9453
:1029AE00B806A091BC02B091BD020895E4EEF2E02B
:1029BE00FA93EA93E0E0F0E0FA93EA93AAE0B0E04B
:1029CE000E94B806D5DF1A970895E6EEF2E0FA9364
:1029DE00EA93E0E0F0E0FA93EA93AAE0B0E00E9416
:1029EE00B806C1DF1A970895E091C202E061E09344
:1029FE00C2020895E5E5F5E565E575E50895E09310
:102A0E00C802F093C9026093CA027093CB02089574
:102A1E00E0E0E093C802E093C902E093CA02E093BB
:102A2E00CB020895EFEFFFEF6FEF7FEF0895E09386
:102A3E00CC02F093CD026093CE027093CF02089534
:102A4E00E091C202EE73E4300895E1E0F0E061E05F
:102A5E0070E00895FADFD3CFE0E0E093CC02E0938C
:102A6E00CD02E093CE02E093CF020895E9E0F0E0CC
:102A7E0069E070E0C4DFF0CFE9E4F0E069E470E013
:102A8E000895E3E3F3E363E373E3D1CFECECFCEC03
:102A9E006CEC7CECB4DFE0CFA5E0B0E00E94DE167B
:102AAE00A091EC02B091ED020895E3E0F3E063E053
:102ABE0073E00895E5E5F5E565E070E0A0DFB2CFDF
:102ACE00EC59FF4FA091EC02B091ED02AE17BF078B
:102ADE00089590DF94DFA6CFCFDF91CFEA5BFF4F53
:102AEE00A091EC02B091ED02AE17BF070895E5E09C
:102AFE00F0E060E070E09BCF0E942517EE83FF832D
:102B0E00688779870895AE81BF81888599850895F4
:102B1E00E0E9F1E081CEA0911403B0911503089580
:102B2E00A7E2B0E00E946A170895A9E2B0E00E9401
:102B3E006A170895A091BA02B091BB02AE17BF07F3
:102B4E000895E0911F03F09120030895E0931F0371
:102B5E00F09320030895A091BA02B091BB02EA1738
:102B6E00FB070895E12FF0E0E75CFC4F0895E12F9D
:102B7E00ADE2B3E0F0E0EE0FFF1FAE0FBF1F0E94FD
:102B8E004B170895E12FA1E2B3E0F0E0EE0FFF1F27
:102B9E00AE0FBF1FED91FD910895E12FA1E2B3E0BD
:102BAE00F0E0EE0FFF1FAE0FBF1F0895E093E0029F
:102BBE00F093E1020895E0EEF2E0FA93EA93E0E09A
:102BCE00F0E0FA93EA93ACEFB3E00E94B806A0915E
:102BDE00E202B091E302AC3FE3E0BE070895E0915C
:102BEE00E202F091E3027E96E093E202F093E302BA
:102BFE00A091E202B091E302AD3FE3E0BE0708957B
:102C0E00ECEFF3E0E093E202F093E3020895E0E0EC
:102C1E00E093E002E093E102E093E202E093E3024C
:102C2E00F79A0895C3DFA091E202B091E302AC3FA0
:102C3E00E3E0BE070895A091E202B091E302089589
:102C4E005CDEA091C402B091C502EA0FFB1FAEDF9D
:102C5E0013CEE0914A03F0914B030895EEE1F0E0BC
:102C6E000E94E816E8DFEA0FFB1F0895E091C60206
:102C7E00F091C7020895FA93EA93E1E0F0E0FA9337
:102C8E00EA93ACEFB3E00C94B806E091B702F0E033
:102C9E00EE0FFF1F0E949A16E45FFD4F0895E0911C
:102CAE00B702ACEAB2E0F0E0EE0FFF1F0895662720
:102CBE0077270E94541708950E944F170E94B1164D
:102CCE000895E0E00E945E1708950E94E3160E94A8
:102CDE0054170E944F1708950E9425170E945417EB
:102CEE00E881F9810895E8EEF3E060E070E0F4CF5A
:102CFE00109639F080ED97E00197F1F7A8951197AE
:102D0E00C9F70895AE1BBF0B860B970B0895F1956F
:102D1E00E195F0400895F09560957095E195FF4F1F
:102D2E006F4F7F4F0895EE0FFF1FEE0FFF1FEE0F39
:102D3E00FF1FEE0FFF1F089575956795F795E795A1
:102D4E000895F695E795F695E795F695E795F69538
:102D5E00E79508956F2F660F660B762F0895FA9FED
:102D6E00F02DEB9FF00DEA9FE02DF10D08957A9F67
:102D7E00702D6B9F700DF89F700DE99F700D6A9FFF
:102D8E00602D710DFB9F600D711DE89F600D711D13
:102D9E008827FA9FF02D610D781FEB9FF00D611DB6
:102DAE00781FEA9FE02DF10D681F781F08954BD014
:102DBE00D6DF0EF4ACDF089554D0D9DF0EF4ABDFBE
:102DCE0008950024112490E1AA0FBB1F001C111CB2
:102DDE000E1A1F0A18F40E0E1F1E01C0A1609A953E
:102DEE0099F7FD01D00108952ED0EBDF0EF48FDFA1
:102DFE0008953F934F935F93002411244427552742
:102E0E0030E2AA0FBB1F881F991F001C111C441F04
:102E1E00551F0E1A1F0A460B570B28F40E0E1F1EB7
:102E2E00461F571F01C0A1603A9559F7FD01BC011D
:102E3E00D001CA015F914F913F91089512D0D9DF11
:102E4E000EF469DF0895E894F7FF02C060DF68941E
:102E5E00B7FF06C0A095B095119600F8039400FA3E
:102E6E000895E89477FF02C056DF689497FF0BC071
:102E7E000024A095B095809590951196801D901D7B
:102E8E0000F8039400FA0895ED91FC9111970895BE
:102E9E00A881B9818A819B810895E883F9836A8329
:102EAE007B830895A883B9838A839B830895E883DF
:102EBE00E983EA83EB8308951B2EBF2FF12D1A2E83
:102ECE00AE2FE12D0895119602D0FE2F1197F9998C
:102EDE00FECFFF93FFB7F894A1BDB2BDF89AE0B54F
:102EEE00FFBFFF91089507D01196EF93EF2F03D0F8
:102EFE00EF9111970895F99B02C0A895FCCF9FB74B
:102F0E00F894A1BDB2BDF89A80B5E81719F0E0BDEE
:102F1E00FA9AF99A9FBF089500240A160B0608958F
:102F2E00EA17FB07680779070895AE17BF078607EC
:102F3E00970708955A934A933A932A931A930A93AA
:102F4E0008955D814C813B812A8119810881089504
:00000001FF
