:100000000C9488000C9400000C9400000C940000E8
:100010000C9400000C9400000C9400000C94000060
:100020000C9400000C9400000C9400000C94000050
:100030000C9400000C9400000C9400000C94000040
:100040000C9477120C9400000C9400000C940000A7
:100050000C9400000C9400000C9400000C94000020
:100060000C9400000C9400001027E80364000A00C0
:1000700001000010000110000100000048007D0098
:10008000B100D900FE001E013E015A017401900129
:10009000AB01C501DE01F6010D02030303031E00DF
:1000A00032003200BC027B0019000A000600E8079B
:1000B0000100090001002D4E414E00494E4600004E
:1000C0000400CD029A000100D1029E000100E1026D
:1000D000A0000100E302A20002002003A40001002E
:1000E0009A03A60001000002A80001000202AA0073
:1000F00001000402AC0002000602AE00010008028A
:10010000B00001000A02B20001009D03B40000002B
:10011000F894EE27EFBBF1E0F5BFE5BFF8E1A89555
:10012000A4B7A77FA4BFF0936000E09360008DE0C8
:10013000A2E0BB27ED938A95E9F780E094E0A0E088
:10014000B1E0ED930197E9F7E0ECF0E0859195914E
:10015000009761F0A591B59105901590BF01F00150
:1001600005900D920197E1F7FB01F0CFE0E0EEBBC7
:10017000EABDEBBDEFEFEDBFE4E0EEBFC0E0D2E0E3
:100180000C94B712F8940E948C13289A78940895CE
:10019000AA931A93F8940E948C138BE18A95F1F735
:1001A000A3E00E949313A5E50E9483131E2F289AB3
:1001B0007894E12F188122960895AA93F8940E94CA
:1001C0008C13A5E00E948313AA810E949313A88137
:1001D0000E948313289A78940FC0AA931A93F894D4
:1001E0000E948C13A2E00E948313AA810E949313A1
:1001F000289A7894E12F1881239608951A93F894F9
:100200000E948C13000000000000000000000000AD
:1002100000000000A0EA0E948313A5E50E9483135A
:100220001E2F289A7894E12FE2C0AA93F8940E9496
:100230008C13E881E03011F4E1E809C0A881A13015
:1002400011F4E2E804C0A881A23011F4E4E8E883E4
:10025000A8810E948313289A789421960895AA93DE
:10026000A0919803A03010F0A43018F0E0E0E093E3
:100270009803E0919803F0E0E858FC4FAF81A08329
:10028000ACE7B3E00E949813AE81A083A0E8B3E08E
:100290000E949813AD81A083A4E8B3E00E94981354
:1002A000AC81A083A8E8B3E00E949813AB81A0833F
:1002B000ACE8B3E00E949813AA81A083A0E9B3E060
:1002C0000E949813A981A083A4E9B3E00E94981327
:1002D000A881A083E0919803EF5FE0939803A09139
:1002E0009803A43018F0E0E0E0939803289608956E
:1002F0001A930E94C200AEE00E94C8001E2FE07E4A
:10030000E03831F0EFE0EA93E0EEEA93A0E855DF61
:100310008BE18A95F1F7EAE2EA93A3EC5EDFE9E28A
:10032000EA93AEEF5ADFE8E2EA93A3E056DFE0E6B5
:10033000EA93A0E252DFE0E7EA93A0E24EDF0E94F8
:100340009E13E0E20E94A213E1E20E94A213E0E009
:100350000E94A213E1E00E94A213E4E00E94A21313
:10036000E5E00E94A213E4E20E94A213E5E2EA9310
:10037000A0EE33DFE8E0EA93A3E12FDFE9E00E949B
:10038000A613E0E10E94AA13E1E10E94AA13E4E1AE
:100390000E94AA13E5E10E94AA13E8E10E94AA13B1
:1003A000E9E10E94AA13E1E50E94AE13E2E50E9492
:1003B000A613E1E40E94AE13E2E40E94A613E1E377
:1003C0000E94AE13E2E30E94A613EFE0EA93E7EE89
:1003D000EA93A5E00E94DD00EBE2EA93A6E0FDDEF1
:1003E000A4E6B0E00E949816ECE00E94AA131991CE
:1003F00008950E94BC17F89401DFE0934D03A0918B
:100400004E03EA2BE0934E03E0914D03E270E9F0D6
:1004100000E0083078F4E02FF0E0E15BFC4FFF9360
:10042000EF93A02FAA580E94C800AF91BF91EC9300
:100430000F5FEFCFECE2EA93E2E0EA93A0E00E94E4
:10044000DD00E1E0E093770341C0E0914D03E47506
:10045000E9F52197ECE2EA93ECE1EA93A0E00E944F
:10046000DD00E0919803A0919903EA1771F1E0E0B3
:10047000E883A881A830B0F4E881EA5CEA93E981D6
:10048000A8E7B3E0F0E00E94B716AE0FBF1FE091FF
:100490009903F0E0AE0FBF1FAC919FDEE881EF5FE4
:1004A000E883E7CFE5E3EA93A8E00E94ED00A0E04F
:1004B000BCDEE0919903EF5FE0939903A09199036B
:1004C000A43018F0E0E0E0939903219678940E941C
:1004D000C317249608950E94BA17A0914F03A13024
:1004E000E1F4A0915003A230C1F4A0915103A330D4
:1004F000A1F4A0915203A43081F4A0915303A5303C
:1005000061F4A0915403A63041F4A0915503A730A3
:1005100021F4A0915603A83009F010C0E1E0EA935D
:10052000E2E0EA93E3E0EA93E4E0EA93E5E0EA93C9
:10053000E6E0EA93E7E0EA93A8E091DE0E94B213D6
:1005400081F40E94B81369F4A0915103AD3E41F0CB
:10055000A0915103AB3E21F0A0915103AC3E09F4B0
:1005600001C00FC1E0E0E0930E03E0915203E0937D
:10057000C402E170B9F0A091E902A43078F4E091EE
:10058000E902EF5FE093E902A091E902A43028F0CC
:10059000E091C302E062E093C30203C0E4E0E093B1
:1005A000E9021DC0E091E902E030B1F0E150E093D2
:1005B000E902A091E902A03071F4E091C302EF7D5D
:1005C000E093C302A2E1B0E00E948717A5E0EA9F92
:1005D000F001E0930D0303C0E0E0E093E902E09155
:1005E000C402E27021F0E091C302E06403C0E09134
:1005F000C302EF7BE093C3020E94BE13A09153039A
:10060000B0E0EA0FFB1FE093C502F093C602A09191
:1006100056030E94C613A0915503B0E0EA0FFB1FDA
:10062000E093C702F093C802F091C302E0E0A0910A
:10063000C402B0E0EA0FFB1FE0939A03F0939B0320
:10064000A091C302EAE0EA9FF001E093F902F0937F
:10065000FA02E0911203EA93EAEDEA93E091B8021C
:10066000EA93E091B902EA93E091BA02EA93E09149
:10067000BB02EA93E091BC02EA93A091BD020E9402
:10068000CC13E091C2020E94D413E091FB02EA93E2
:10069000A091FC02E4DDA0915103AD3E59F4E0913C
:1006A0001203EA93ECED0E94E313E0E00E94E313EF
:1006B000A0E0D5DDA0915103AB3EB9F4E091120367
:1006C000EA93EDEDEA93E0910102EA93E0910002F2
:1006D000EA93E0910302EA93E0910202EA93E09147
:1006E0000502EA93A0910402BADDA0915103AC3E49
:1006F000B9F4E0911203EA93E5EDEA93E091070281
:10070000EA93E0910602EA93E0910902EA93E0910C
:100710000802EA93E0910B02EA93A0910A029FDD9E
:100720000E94E813E091C402E07889F0A3E1B0E010
:100730000E948717E03051F4A3E1B0E0E1E00E94AD
:100740009B17E0930A03E0E0E0930C0311C0A09133
:10075000F502B091F60255975CF0A3E1B0E00E947B
:100760008717E03029F0A3E1B0E0E0E00E949B179A
:100770000E94F11329F0A4E1B0E0E0E00E949B1791
:100780005DC20E94B21369F40E94B81351F4A091A3
:100790005103AE3E31F4A0915203E0915303EA17A6
:1007A00009F0DAC00E94F713E0915203E07FE032D3
:1007B000D1F5E0915203EF70E13039F40E94FF135C
:1007C000A0E0B0E00E94931723C00E94041431F40B
:1007D0000E94091431960E9493171AC00E940E14A9
:1007E00021F40E9409143A960FC00E94131431F4A8
:1007F0000E94091431970E9493170AC00E9418148E
:1008000039F40E9409143A97A2E0B0E00E949317CD
:10081000E2E0F0E0FA93EA93ECE2F1E0FA93EA9393
:10082000A8E8B3E18DC0E0915203E07FE03121F50B
:100830000E94041431F40E941D1431960E949317F3
:100840001AC00E940E1421F40E941D143A960FC083
:100850000E94131431F40E941D1431970E949317C3
:100860000AC00E94181439F40E941D143A97A6E099
:10087000B0E00E94931765C0E0915203E07F81F5DC
:10088000E0915203EF70E13039F4A8E0B0E00E944B
:10089000FF130E94931723C00E94041431F40E9496
:1008A000221431960E9493171AC00E940E1421F44C
:1008B0000E9422143A960FC00E94131431F40E9431
:1008C000221431970E9493170AC00E94181439F419
:1008D0000E9422143A97AAE0B0E00E94931731C018
:1008E000E0915203E07FE03361F50E94041431F49B
:1008F0000E94271431960E9493171AC00E940E146A
:1009000021F40E9427143A960FC00E94131431F468
:100910000E94271431970E9493170AC00E9418144E
:1009200039F40E9427143A97AEE0B0E00E94931782
:10093000EEE0F0E0FA93EA93E8ECF0E00E942C1489
:100940003ED20E94E8130E94F11329F0A4E1B0E026
:10095000E0E00E949B1772C1A0914F03AF3F41F4AA
:10096000A0915003AF3F21F4A0915103A23609F0AA
:1009700046C00E943114BF010E9436140E943914EF
:10098000E617F70741F00E9436140E943914A7E1D8
:10099000B0E00E949317A9E1B0E00E948317BF0165
:1009A0000E943F140E944214E617F70741F00E948C
:1009B0003F140E944214A9E1B0E00E949317E09115
:1009C0005603EF70E53069F40E944814E535A0E065
:1009D000FA0731F0A1E2B0E0E5E5F0E00E949317FC
:1009E0000DC0E0915603EF70EA3041F40E944814C4
:1009F000309721F0A1E2B0E00E944D141FC1A091F8
:100A00004F03AF3F69F4A0915003AF3F49F4A09169
:100A10005103A63221F0A0915103A93209F401C07B
:100A200067C00E945214BF010E9436140E943914FC
:100A3000E617F70741F00E9436140E943914ABE123
:100A4000B0E00E9493170E945714BF010E94BE138A
:100A50000E944214E617F70741F00E943F140E94DB
:100A60004214ADE1B0E00E949317A0915103A63269
:100A7000A1F40E945C14309721F0A3E2B0E00E9440
:100A80004D140E9461140E94661439F0E0915603DF
:100A9000F0E0A5E1B0E00E949317A0915103A932C4
:100AA00031F50E945C14E130A0E0FA0731F0A3E2D6
:100AB000B0E0E1E0F0E00E949317A5E2B0E00E9410
:100AC00083170E94661439F0E0915603F0E0A5E226
:100AD000B0E00E9493170E946114E330A0E0FA078F
:100AE00031F0A5E1B0E0E3E0F0E00E949317A6C08A
:100AF0000E94B21359F40E94B81341F4A09151031B
:100B0000A63121F4A0915203A33609F003C00E943C
:100B10006D1494C00E94B21359F40E94B81341F4AA
:100B2000A0915103A63121F4A0915203A43609F0FB
:100B300005C0A7E2B0E00E944D1480C0A0914F0311
:100B4000AF3F61F4A0915003AF3F41F4A091510336
:100B5000A63121F4A0915203A63109F039C0A09129
:100B60005303A53521F4A0915403A53509F005C020
:100B7000AFEEB2E00E9487141FC0A0915303A636C7
:100B800021F4A0915403A63609F008C0AFEEB2E0FC
:100B9000ED91FD913197FE93EE930EC0A09153031A
:100BA000A73721F4A0915403A73709F005C0E0E06E
:100BB000E093EF02E093F002EFEEF2E0FA93EA93B3
:100BC000E7EEFFEFFA93EA93A9E1B0E0D9D036C09F
:100BD0000E94B21389F40E94B81371F4A0915103DA
:100BE000A63151F4A0915203E0915303EA1721F486
:100BF000A0915203AE3E09F021C00E94F71340912C
:100C0000E1025091E202FA01AFE1B0E00E949317D5
:100C1000A4E6B0E00E9498160E948D144E175F075C
:100C200069F4E0911203EA93E1E9EA93EDEDEA93C6
:100C30000E94E313E0E0EA93A0E011DBE0E0E09340
:100C400077030E94C117D9C0EAB5E1FF74C0A09133
:100C50001803AF5FA0931803A73018F0E0E0E0930B
:100C60001803A0911803A630C0F5E0911803EA9389
:100C7000EA93EDEEEA93E0E00E949214EC91A091E9
:100C80002003EA0F0E9492140E946417A09120038F
:100C9000B0912103AE0FBF1FE0E0F1E00E941417F6
:100CA000EA93E8EEEA93A8EEDADAA0911803B0E04E
:100CB000AB5BBC4FEC91EF5FEC93E0911803F0E07D
:100CC000EB5BFC4FA081AB3038F0E0911803F0E013
:100CD000E65CFC4FA0E0A0832EC0A0911803A630D4
:100CE00051F5E091E102F091E202E093FB02F09312
:100CF000FC02E0911203EA93EAEDEA93E091B90273
:100D0000EA93E091B802EA93E091BB02EA93E091A2
:100D1000BA02EA93E091BD02EA93A091BC020E945C
:100D2000CC13E091C0020E94D413E091FC02EA933C
:100D3000A091FB0294DA0895E0E0E4BDE5E0E5BDB2
:100D4000E8EFE6BDE1E0E0936E000895BA93AA9360
:100D5000A881B981A132E3E0BE0714F0E1E00EC042
:100D6000A881B981A135E0E0BE0724F0A837E0E012
:100D7000BE070CF002C0E0E001C0E4E62296089550
:100D8000BA93AA93AC81BD810E946417DF01EA8106
:100D9000FB81AE17BF0724F4AC81BD81ED93FC93BA
:100DA000AC81BD810E946417DF01E881F981EA17F7
:100DB000FB0724F4AC81BD81ED93FC931EC0BA9374
:100DC000AA93AC81BD810E948317DF01EA81FB8178
:100DD000AE17BF0724F4AC81BD810E949317AC818C
:100DE000BD810E948317DF01E881F981EA17FB07C3
:100DF00024F4AC81BD810E949317269608950E9429
:100E00009D14A091F102B091F202EA17FB0709F5D7
:100E1000A091F302B091F402DC97D4F4A3EFB2E016
:100E20000E948714A091F302B091F402DC9784F041
:100E3000A0E1B0E00E948317DF010E949D14EA1731
:100E4000FB0731F00E949D14A0E1B0E00E949317CF
:100E500005C0E0E0E093F302E093F402A091F30216
:100E6000B091F402DD972CF0E0E0E093F302E09320
:100E7000F4020E949D14E093F102F093F2020895AF
:100E8000A0910303A03061F4A0910403A03041F4C9
:100E9000A0910503A03021F4E0910803E03009F0AF
:100EA00010C0ECE3E0930303E0930403E093050335
:100EB000E0E1FEE0E0930603F0930703E1E0E09356
:100EC00008030895E0E0E0930303E0930403E09354
:100ED0000503E0930603E0930703E09308030895F6
:100EE000509AE091D202E17011F0589A01C05898DE
:100EF000519AE091D602E17011F0599A01C05998C7
:100F0000E091D202F091D3026091D4027091D502A7
:100F10000E94BC160E94A214E091D602F091D70262
:100F20006091D8027091D9020E94BC160E94AB1445
:100F3000A091D102AF5FA093D102A132B8F0E0E05E
:100F4000E093D102E091C902F091CA026091CB0214
:100F50007091CC020E94A214E091CD02F091CE02D9
:100F60006091CF027091D0020E94AB140895A091BD
:100F7000EC02A330E9F0E091C302E87021F0E091C7
:100F80009C03E87079F0E091C302E07151F0E091C8
:100F90009C03E07131F40E944814E535A0E0FA07A3
:100FA00009F405C0A091DA02AA3A09F469DF0EC07B
:100FB000A091EC02A33051F4E091C302E87021F05B
:100FC000E0919C03E87009F001C05ADFE091C30290
:100FD000E0939C03089526971A930A93E0E0E7B9FB
:100FE000EEE1E8B9E6E40E94B4140E94BF14AEDE5C
:100FF000ED830E94C414EDB7FEB73197FA93EA93DC
:101000001F930F930E94CB140F911F910A83E7E463
:101010000E94B4140E94BF1499DEEE830E94C4148F
:10102000EDB7FEB73197FA93EA931F930F930E949F
:10103000CB140F911F91FE0133960083E0E40E94D0
:10104000B4140E94BF1482DEEF830E94C414EDB773
:10105000FEB73197FA93EA931F930F930E94CB1434
:101060000F911F91FE0134960083E4E6E093120392
:10107000AD81A43631F0AE81A43619F0AF81A4362B
:1010800009F418C0ED81E03049F4EE81E03011F44C
:10109000E3E001C0E0E0E09312030BC0EE81E0303A
:1010A00011F4E1E004C0EF81E03019F4E2E0E093F4
:1010B00012031EC0AD81A43631F4AE81A43619F4FA
:1010C000AF81A43609F00EC0EB81EE0FEE0FAA81BE
:1010D000EA0F6E2FEC81A0E1EA9FF001E60FE093AA
:1010E000120306C0E4E6E0931203E1E0E093130389
:1010F0001981088128960895E0910303E03041F0BA
:10110000E150E0930303E03011F40E946D141FC01E
:10111000E0910403E03061F0E0910403E150E093DA
:101120000403E0910403E03011F40E946D140FC039
:10113000E0910503E03059F0E0910503E150E093C0
:101140000503E0910503E03011F40E946D14E09175
:101150000603F0910703309789F0A6E0B3E0ED9124
:10116000FD913197FE93EE93E0910603F091070312
:10117000309721F4E0E0E093080382DE0E94D3146C
:10118000109731F40E94D814109711F44C9B01C0B1
:101190000FC0A0910903A43150F4E0910903EF5F5F
:1011A000E0930903A0910903A43108F08BDE03C08A
:1011B000E0E0E09309030895A091EC02A330B1F1BF
:1011C0000E94DD14AA35E2E0BE0724F4ABEDB2E0E4
:1011D0000E9487140E94DD14AE34E2E0BE0729F4B9
:1011E000E091C302E17CE093C3020E94DD14A835C4
:1011F000E2E0BE07D1F4EAEAE093DA02A091140338
:10120000A13019F4EAB5E26002C0EAB5ED7FEABDAB
:10121000E0E0E09318030E94F11339F4E1E0E09379
:101220000B03A4E1B0E00E949B1703C0EAEAE0933D
:10123000DA0208950E9457140E94E214EA17FB078D
:1012400034F4ADEDB2E0ED91FD9131960DC00E9408
:10125000571431970E94E214AE17BF073CF4ADED6E
:10126000B2E0ED91FD913197FE93EE93EDEDF2E05A
:101270000E94E714A091DD02B091DE02D79794F0AE
:10128000A091EC02A03021F4E091C302E07421F0BF
:10129000A091EC02A33029F4E091C302E460E09352
:1012A000C3020BC0A091DD02B091DE0216972CF4B0
:1012B000E091C302EB7FE093C3020E9452140E94AC
:1012C000E214EA17FB0734F4AFEDB2E0ED91FD91C3
:1012D00031960DC00E94521431970E94E214AE174D
:1012E000BF073CF4AFEDB2E0ED91FD913197FE9375
:1012F000EE93EFEDF2E00E94E714A091DF02B091CF
:10130000E002D79794F0A091EC02A03021F4E09194
:10131000C302E07421F0A091EC02A33029F4E09123
:10132000C302E260E093C3020BC0A091DF02B09160
:10133000E00216972CF4E091C302ED7FE093C30224
:101340000895A091EC02A33009F484C00E943114E6
:101350000E94F114EA17FB0728F4A5EEB2E00E9400
:10136000871405C0E0E0E093E502E093E6020E9406
:10137000F6142CF0E091C302E860E093C3020E94EF
:101380004814E535A0E0FA07C9F522970E94311408
:10139000E883F983A881B981EAE0F0E00E9414179C
:1013A000E883F983A9E0B0E00E94F716E883F983A7
:1013B0000E94F114AE17BF0710F44C9B01C006C089
:1013C000A7EEB2E0ED91FD91319605C0A7EEB2E037
:1013D000ED91FD913197FE93EE930E94051514F067
:1013E0000E9414150E94D3140E94AC172CF0E091B7
:1013F000C302EF7EE093C30222962BC0E091BA02B3
:10140000F091BB020E94F114AE17BF0790F40E9446
:10141000F114E091BA02F091BB02EA1BFB0B0F0141
:10142000A9E1B0E00E948317E015F10510F44C9B90
:1014300001C005C0A7EEB2E00E94871405C0E0E03D
:10144000E093E702E093E8020E94051514F00E9481
:10145000141534C0A091EC02A33081F50E94F11460
:10146000AD3BE2E0BE0728F0A5EEB2E00E94871493
:1014700005C0E0E0E093E502E093E6020E94F61486
:101480002CF0E091C302E860E093C3020E94F114E3
:10149000A83CE0E0BE0710F44C9B01C005C0A7EEDD
:1014A000B2E00E94871405C0E0E0E093E702E09319
:1014B000E8020E94051514F00E9414150895E091A9
:1014C0001303E03039F00E941A150E941F150E9484
:1014D0001A15A2C20E944814E535A0E0FA0709F0E7
:1014E0005DC00E9428150E9432150E943715A091F8
:1014F000EC02A33009F451C0A091DA02A53521F421
:10150000E091C302EE7309F00BC0E1E1F1E060E0AD
:1015100070E00E941F15E1E1F1E060E070E026C09C
:101520000E94401519F40E94451516C0E091C302AF
:10153000E27029F00E944A150E944C151FC0E091EC
:10154000C302E87019F00E94561518C0E091C3025A
:10155000E071A1F00E945C15E093C902F093CA0209
:101560006093CB027093CC020E943215E093CD02BF
:10157000F093CE026093CF027093D002A091EC0260
:10158000A13029F40E9428150E94611506C0A0917F
:10159000EC02A23011F40E94661546C2E0911403D9
:1015A000E03009F0ECC0A091EC02A33009F490C047
:1015B0000E9461140E946C15AE17BF072CF40E94A4
:1015C00028150E9475156CC0A091DA02A53521F48A
:1015D000E091C402E07809F403C00E947A1560C06B
:1015E0000E9461140E946C15EA17FB071CF40E940C
:1015F00080150CF00AC00E944814E535A0E0FA07F7
:1016000021F00E945C14309709F005C00E94281553
:101610000E94321545C0A091DA02AA3A19F40E943C
:1016200089153EC0A091DA02A53521F4E091C302EC
:10163000EE7309F005C00E9428150E94321530C0D3
:101640000E94401529F40E944A150E94321528C0B4
:10165000E091C302E27029F00E944A150E944C15E5
:1016600027C0E091C302E87019F00E94561520C00F
:10167000E091C302E07129F00E948C150E944C1584
:1016800017C0A091DA02A53521F4E091C302E072FF
:1016900009F40EC00E942815E3E0F0E063E070E07A
:1016A000E093CD02F093CE026093CF027093D0020C
:1016B000A091EC02A13029F40E9428150E94611526
:1016C00006C0A091EC02A23011F40E94661556C02B
:1016D000A091EC02A33009F051C00E9461140E9455
:1016E0006C15AE17BF072CF40E9428150E947515C3
:1016F0003DC00E9461140E946C15EA17FB071CF4A0
:101700000E948E150CF003C00E9428152BC0E0919A
:10171000C302EE7119F40E94281524C00E944015DE
:1017200019F40E94451516C0E091C302E27029F039
:101730000E944A150E944C1521C0E091C302E87036
:1017400019F00E9456151AC0E091C302E071B1F081
:101750000E945C15E093C902F093CA026093CB0229
:101760007093CC02EFEFFFEF6FEF7FEFE093CD02CE
:10177000F093CE026093CF027093D00255C1A09136
:101780001403A13009F050C1A091EC02A33009F478
:10179000F5C00E9461140E946C15AE17BF072CF4AF
:1017A0000E9428150E947515D1C0A091DA02A535B6
:1017B00021F4E091C402E07809F403C00E947A1594
:1017C000C5C00E9461140E946C15EA17FB071CF447
:1017D0000E9480150CF00AC00E944814E535A0E074
:1017E000FA0721F00E945C14309709F005C00E94AE
:1017F00028150E943215AAC0A091DA02AA3A09F06F
:1018000067C0E091C302EE71A9F40E942815EAB501
:10181000E1FF05C0E5EFFFEF6FEF7FEF02C00E9431
:101820003215E093CD02F093CE026093CF02709315
:10183000D0024DC00E944015A9F40E944A15EAB595
:10184000E1FF05C0E5EFFFEF6FEF7FEF02C00E9401
:101850003215E093CD02F093CE026093CF027093E5
:10186000D00235C0E091C302E27059F00E944A15DF
:10187000EAB5E1FF03C00E94971502C00E944C1513
:1018800026C0E091C302E87079F0E9E0F0E069E099
:1018900070E00E941F15EAB5E1FF03C00E94971592
:1018A00002C00E944C1513C0E091C302E07159F0D0
:1018B0000E948C15EAB5E1FF03C00E94971502C093
:1018C0000E944C1504C00E9489150E94371546C01D
:1018D000A091DA02A53521F4E091C302EE7309F07C
:1018E00005C00E9428150E94321530C00E94401584
:1018F00029F40E944A150E94321528C0E091C302C3
:10190000E27029F00E944A150E944C1527C0E09110
:10191000C302E87019F00E94561520C0E091C3027E
:10192000E07129F00E948C150E944C1517C0A091FF
:10193000DA02A53521F4E091C302E07209F40EC089
:101940000E942815E3E0F0E063E070E0E093CD0250
:10195000F093CE026093CF027093D002A091EC027C
:10196000A13029F40E9428150E94611506C0A0919B
:10197000EC02A23011F40E94661556C0A091EC0250
:10198000A33009F051C00E9461140E946C15AE177B
:10199000BF072CF40E9428150E9475153DC00E94B7
:1019A00061140E946C15EA17FB071CF40E948E1547
:1019B0000CF003C00E9428152BC0E091C302EE7109
:1019C00019F40E94281524C00E94401519F40E94A1
:1019D000451516C0E091C302E27029F00E944A1535
:1019E0000E944C1521C0E091C302E87019F00E94DA
:1019F00056151AC0E091C302E071B1F00E945C1567
:101A0000E093C902F093CA026093CB027093CC02B8
:101A1000EFEFFFEF6FEF7FEFE093CD02F093CE0299
:101A20006093CF027093D002089524970E94BA1752
:101A300000E911E020E931E040E951E00E94311471
:101A40000E94CA16A0EABCE880E090E00E949C15C3
:101A5000A091B802B091B90288279927EE81FF8141
:101A6000688579850E949C150E945C14E130A0E095
:101A7000FA0781F4A5E2B0E00E948317A091B802B2
:101A8000B091B9020E94011766277727EE83FF8382
:101A9000688779870E94A315AB30E0E0BE07E0E0DD
:101AA0008E07E0E09E071CF008EE13E016C00E94CF
:101AB000A315A130E0E0BE07E0E08E07E0E09E075E
:101AC0001CF400E911E009C0EE81FF81ACE3B0E055
:101AD0000E94F716E057FE4F8F01EDB7FEB7319722
:101AE000FA93EA931F930F930E94A81549D90F9177
:101AF0001F91E091C002F091C1020E94CA16EE83CC
:101B0000FF83688779870E9457140E94CA16EE5196
:101B1000F040604070400E94A3150E94B0171CF076
:101B200020E931E01CC00E9457140E94A3150E94B6
:101B3000CA160E94B5171CF028EE33E010C00E94B0
:101B400057147E97AE81BF810E947C17EA1BFB0B66
:101B5000A4E1B0E00E94F716E057FE4F9F01EDB7F9
:101B6000FEB73197FA93EA933F932F930E94A815FB
:101B700007D92F913F91A801021713070CF4A9016F
:101B80000E94AB15A417B5074CF4E0911503F09132
:101B900016033A96E0931503F09316030E94AB15D3
:101BA0004A175B074CF4E0911503F09116033A973E
:101BB000E0931503F0931603E5E1F3E0FA93EA935B
:101BC0000E94A815DDD8E0911703E03029F0E0E08D
:101BD000E0931503E09316030E94C1172A96089517
:101BE0001A93E0911703E03021F4A9E1B3E00E94D9
:101BF0008714A0911903B0911A03A131EEE0BE073A
:101C000080F00E94B015E036AAEEFA0728F40E9490
:101C1000B01531960E949317E0E0E0931903E0932A
:101C20001A030E94B015EF70F070E0931B030E943E
:101C3000B015E07FF0700E94C116F0E0E064E09320
:101C40001C030E94B015E070FF70EF2FF0E0F0E091
:101C5000E068E0931D030E94B015E070F07F0E94E1
:101C6000C116EF2FF0E0F0E0E06CE0931E03E0918E
:101C70001B03EF701E2FE0911C03EF701E27E091F5
:101C80001D03EF701E27E0911E03EF701E27E12F4A
:101C9000E370E295E07FA0911B03EA2BE0931B0326
:101CA000ECE1F3E00F01A081E12FEC70EE0FEE0FFD
:101CB000EA2BD001EC93EDE1F3E00F01A081E12FDD
:101CC000E073EA2BD001EC93EEE1F3E00F01A08189
:101CD000E12FE07CE695E695EA2BD001EC93E091CC
:101CE0001F03EF5FE0931F03A0911F03A43018F0C0
:101CF000E0E0E0931F03C8C01A93EAB5E1FFC4C057
:101D00000E94B5153A970E94BA1530F40E94C11589
:101D100035960E94C61525C00E94B51531970E94C0
:101D2000BA1530F4A0E2B3E0ED91FD91319617C001
:101D30000E94B5153A960E94CB1530F40E94C11549
:101D40003A970E94C6150DC00E94B51531960E94A3
:101D5000CB1538F4A0E2B3E0ED91FD913197FE93FD
:101D6000EE93A0912003B0912103AD3FE3E0BE07C5
:101D700024F0ECEFF3E00E94C615A0912103AA2302
:101D80002AF4E0E0E0932003E0932103E0E0E09315
:101D90004303E0934403E093420310E0163008F558
:101DA0000E94D215E081E030B1F00E94D715A091D9
:101DB0004303B0914403EA0FFB1FE0934303F09306
:101DC00044030E94D215A1E0A083E0914203EF5F9B
:101DD000E093420304C00E94D215A0E0A0831F5FDD
:101DE000DDCFE0914203A0914303B0914403F0E0C2
:101DF0000E941417E0934003F093410310E0163063
:101E000008F042C00E94D215E081E030D9F10E9472
:101E1000D715DF01E0914003F09141033A97AE17E7
:101E2000BF0724F40E94E21531960EC00E94D71518
:101E3000DF01E0914003F09141033A96EA17FB0776
:101E40002CF40E94E2153197FE93EE930E94ED155B
:101E50000E946417E536A0E0FA0734F00E94ED1501
:101E6000E4E6F0E0ED93FC930E94ED150E94641708
:101E7000EC39AFEFFA0734F40E94ED15ECE9FFEF0F
:101E8000ED93FC931F5FBBCF199108950E944814F6
:101E9000E535A0E0FA07F1F4E091C302EA7181F4BC
:101EA0000E948D140E94F6150E94FB1528F40E94D2
:101EB0000F1610F00E942016F798EAB5EE7F08C0C2
:101EC000E091C302EA7029F00E942716EAB5E160AA
:101ED000EABDE5C0A091EC02A330B9F4E091C302E1
:101EE000EA7061F4E4EFF1E00E94321628F40E94F7
:101EF0000F1610F00E942016F79806C0E091C3025A
:101F0000EA7011F00E942716CAC0A091EC02A2301C
:101F100091F4E0E0E093E102E093E2020E943B16DC
:101F2000AC3FE3E0BE0728F40E940F1610F00E94B9
:101F30002016F798B4C0A091EC02A13061F4EFEF45
:101F4000F3E00E94321628F40E940F1610F00E944F
:101F50002016F798A4C0EAB5E1FF04C0A091DA0208
:101F6000A53509F00EC00E94C1150E94321628F452
:101F70000E940F1610F00E942016EAB5EE7FEABD0F
:101F80008EC0A091DA02AA3A29F50E945C1430971B
:101F900019F00E9427161DC0E091C302EA7181F476
:101FA0000E948D140E94F6150E94FB1528F40E94D1
:101FB0000F1610F00E942016F798EAB5EE7F08C0C1
:101FC000E091C302EA7129F00E942716EAB5E160A8
:101FD000EABD65C0A091DA02A53509F060C0E091C4
:101FE000C302E07209F055C0E091C302EE71E43023
:101FF00001F50E9440163097A9F40E9449160E94EC
:102000003B16AE17BF0738F4A0914B03B0914C03B9
:102010000E944E1602C00E944916E093E302F0931C
:10202000E40206C00E944916E093E302F093E40242
:10203000F798E091C302EA7121F0E091C302E074E5
:1020400009F10E9440163097A9F40E9456160E948A
:102050003B16AE17BF0738F4A091C702B091C80273
:102060000E944E1602C00E945616E093E302F093BF
:10207000E40206C00E945616E093E302F093E402E5
:10208000F79806C0E091C302EA7111F00E9427168A
:1020900006C0E091C302E07211F00E942716089575
:1020A000549AA091ED02B091EE02AC3DE5E0BE077E
:1020B00024F4ADEEB2E00E948714A091ED02B0913D
:1020C000EE02599724F40E945C14309709F403C07F
:1020D0005C9AE1E062C00E945C14309761F0F79B6B
:1020E00003C05C9AE1E004C0F79904C05C98E0E0AA
:1020F000E093170354C00E9461140E946C15AE1740
:10210000BF0724F4A0911403A13009F403C05C9A22
:10211000E1E043C0A0911403A13071F4EAB5E0FFFF
:1021200003C05C9AE1E005C0EAB5E0FD04C05C983C
:10213000E0E0E093170333C00E9461140E946C1525
:10214000EA17FB071CF40E948E150CF01DC0A0912D
:102150001403A130A1F0E0911403E030A1F40E9437
:102160005C14309761F0E091C302E07219F05C9A60
:10217000E1E002C05C98E0E0E093170304C05C98E3
:10218000E0E0E09317030BC0F79B03C05C9AE1E02B
:1021900004C0F79904C05C98E0E0E0931703E1EE17
:1021A000F2E00E945B16E3EEF2E00E945B160E94F2
:1021B0004814E535A0E0FA0789F00E945C143097D6
:1021C00041F40E9461143A960E946C15AE17BF0745
:1021D0000CF004C0EAE0F0E00E94F615E091E202A3
:1021E000E0938900E091E102E0938800E091E4024D
:1021F000E0938B00E091E302E0938A000E94AB152C
:10220000E4E0F0E00E941417E093B4000895269AE9
:10221000279A2E9A2F9A1E9B0AC0A091EA02AA30F2
:1022200028F4E091EA02EF5FE093EA0209C01E9908
:1022300007C0E091EA02E03019F0E150E093EA02D1
:102240001F9B0AC0A091EB02AA3028F4E091EB0298
:10225000EF5FE093EB0209C01F9907C0E091EB022A
:10226000E03019F0E150E093EB02A091EA02AA30CD
:1022700021F4A091EB02AA3009F003C0E0E0E09362
:10228000EC02A091EA02A03021F4A091EB02AA3066
:1022900009F003C0E1E0E093EC02A091EA02AA3069
:1022A00021F4A091EB02A03009F003C0E2E0E0933A
:1022B000EC02A091EA02A03021F4A091EB02A03040
:1022C00009F003C0E3E0E093EC0208951A930A9347
:1022D00000917800109179000E946516DF01E0916D
:1022E000B602F0E0EE0FFF1FEA0FFB1F0083118321
:1022F000E091B602E37099F521970E946F16AE0F38
:10230000BF1FE0E0F0E0ED93FC93E883A881A031EB
:10231000D8F40E946F16EA0FFB1FBF0100801180E6
:102320000E946516DF01E881F0E0EE0FFF1FAE0F9F
:10233000BF1F0E946417E00DF11DDB01ED93FC93BC
:10234000E881EF5FE883E2CF0E946F16AE0FBF1FF8
:10235000ED91FD910E94C116FE93EE932196A091FE
:10236000B702AF5FA093B702A53060F0E0E0E09362
:10237000B702A091B602AF5FA093B602A03110F0F1
:10238000E093B602E7B1E07CE7B9E8B1E07CE8B9F8
:10239000E091B702E03011F4E1E017C0A091B7027C
:1023A000A13011F4E4E011C0A091B702A23011F401
:1023B000E2E00BC0A091B702A33011F4E3E005C046
:1023C000A091B702A43019F4E5E0E0937C00E6EABE
:1023D000E0937A00E0917A00E064E0937A0009915A
:1023E0001991089524970E94FF130E947716A0E088
:1023F000B0E00E9483170E947C160E94A2160E94E1
:102400007217AB81AA2312F40E9481160E9409144C
:102410000E947C160E948516E0E6F9E060E070E01C
:102420000E948C16E093B802F093B902E091AE02DC
:10243000F091AF020E947716AB81AA2312F40E949A
:1024400081160E9422140E947C160E9485160E940A
:102450009316E093BC02F093BD02E091B002F091BC
:10246000B1020E947716AB81AA2312F40E94811652
:102470000E941D140E947C160E9485160E949316CD
:10248000E093BA02F093BB02E091B202F091B30282
:102490000E9477160E9427140E947C160E948516BF
:1024A000EEE2F5E060E070E00E948C16E151F14050
:1024B000E093C002F093C102A091C102AA2312F4DA
:1024C000E0E00AC00E94E214A030E1E0BE0714F090
:1024D000EFEF02C0E091C002E093C202E091C302BC
:1024E000F0E0E093BE02F093BF02249608950A92B2
:1024F0001A92FA926A937A938A939A93AA93BA93C6
:10250000EA93FA93EFB7EA930E949C060E94F901BE
:10251000B394EAE0BE16E8F0BB2473947E1610F084
:102520007724F39A8394E3E08E1610F08824F29ACD
:102530006394E4E16E1638F06624F49AF69B02C0C8
:10254000F69801C0F69A9394E4E69E1610F099244A
:10255000F59AE991EFBFF991E991B991A991999112
:10256000899179916991F9901990099018952A9A11
:10257000229AE4B1E663E4B9E3EAE0938000E9E09B
:10258000E0938100E0E0E0938500E0938400E09335
:102590008700E0938600E0938900E0938800E09351
:1025A0008B00E0938A00219A229AE093B600E3E23E
:1025B000E093B000E1E0E093B100E0E0E093B2002E
:1025C000E093B300E0E3E093B400539AEDE5ECBD93
:1025D000E0E0EDBD0E94EB070E949C06E0E0E09386
:1025E000DB02E093DC020E944814E535A0E0FA0724
:1025F00019F0E5E5E093DA02E0E0E093ED02E09324
:10260000EE02A0E1B0E00E948317E093EF02F093A6
:10261000F002A091EF02B091F0025A9744F4A09119
:10262000EF02B091F002A73EEFEFBE072CF4E0E01E
:10263000E093EF02E093F002A2E1B0E00E9487177E
:10264000E03010F0E43028F0A2E1B0E0E3E00E94D6
:102650009B1778940E947801509A0E942716E09167
:102660007703E03029F0E0E0E09377030E946B020B
:10267000F29B02C0F2982ADEF39B0CC0F398B2DE04
:102680000E9470070E94DC0801DCC1DD0E94B707D0
:102690000E942406F49B05C0F49802DD0E945F0AA4
:1026A000C4D9F59B2DC0F5980E941A090E94A10972
:1026B0000E94FF06A091F502B091F602A83EE3E069
:1026C000BE0724F4A5EFB2E00E948714A091DA02BD
:1026D000AA3A21F0A091EC02A33011F40E947C08E8
:1026E000E0910E03EF5FE0930E03A0910E03AA307A
:1026F00028F0E0E0E0930E030E947801FDDA70DA42
:10270000A895ADCFFFCFAA93E881EEBDEDB5E7FF69
:10271000FDCFEEB521960895E4B1EC62E4B92498BA
:10272000209A289808950E948313A9810C948313FA
:10273000E0919803F0E0EA0FFB1F0895AAE0B0E0F3
:102740000C949816EA93AFEF0C94ED00EA93A0EC8A
:102750000C94ED00EA93A0E00C94ED00EA93A1E361
:102760000C94ED00E0911203A0914F03EA17089535
:10277000A0915003E0911203EA170895A091540329
:10278000B0E0E0E0F1E00E94CF160895B0E0E0E0B4
:10279000F1E00E94CF1608950E942F01E0911203EC
:1027A000EA93EBEDEA930895EA93E0911F03F0E0DA
:1027B000E55EFC4FE081EA93E091C302EA93E09189
:1027C000EF02EA930895EA93E0E0EA93EA9308952A
:1027D000E0E0E093DB02E093DC02E5E5E093DA027F
:1027E0000895A4E1B0E00E948717E0300895AAE9B7
:1027F000B3E0ED91FD913196FE93EE930895E09153
:10280000AC02F091AD020895E0915203EF70E23016
:102810000895A2E0B0E00E9483170895E09152036A
:10282000EF70E3300895E0915203EF70E4300895C3
:10283000E0915203EF70E5300895A6E0B0E00E9409
:1028400083170895AAE0B0E00E9483170895AEE0D0
:10285000B0E00E9483170895FA93EA93A8EEB3E0DC
:102860000895A7E1B0E00E9483170895A091530353
:102870008DCFA0915203B0E0EA0FFB1F0895A09105
:10288000550384CFA0915403B0E0EA0FFB1F0895D5
:10289000A1E2B0E00E9483170895E0E0F0E00E941A
:1028A00093170895ABE1B0E00E9483170895ADE15E
:1028B000B0E00E9483170895A3E2B0E00E9483175E
:1028C0000895A5E1B0E00E9483170895DF01E0912B
:1028D0005603F0E0EA17FB070895E091C302E17E9A
:1028E000E093C302E0E0E093DD02E093DE02E093D8
:1028F000DF02E093E002E093E502E093E602E0937A
:10290000E702E093E802EEE1E093D1020895ED9151
:10291000FD913196FE93EE930895AFE1B0E00E94F1
:1029200083170895EA93E0911803A2E2B3E0F0E080
:10293000EE0FFF1FAE0FBF1F0895E091EF02F09161
:10294000F0020895E093D202F093D3026093D40290
:102950007093D5020895E093D602F093D702609366
:10296000D8027093D9020895E0937C00E6EAE093E0
:102970007A00E0917A00E064E0937A00DFCEA091E3
:102980007800B09179000895FADFE8ECF0E00E9459
:1029900001178F010895E0E0F0E0FA93EA93A3E0D5
:1029A000B0E00C94C006A091E702B091E80208954F
:1029B000A091E502B091E6020895A091DB02B091EA
:1029C000DC020895A091C002B091C1020895FA936B
:1029D000EA93E0E0F0E0FA93EA93ACE3B0E00C9421
:1029E000C006A091BC02B091BD020895E5EEF2E0F0
:1029F000FA93EA93E0E0F0E0FA93EA93AAE0B0E019
:102A00000E94C006D5DF1A970895E7EEF2E0FA9328
:102A1000EA93E0E0F0E0FA93EA93AAE0B0E00E94E3
:102A2000C006C1DF1A970895E091C302E061E09308
:102A3000C3020895E5E5F5E565E575E50895E093DC
:102A4000C902F093CA026093CB027093CC0208953E
:102A5000E0E0E093C902E093CA02E093CB02E09386
:102A6000CC020895EFEFFFEF6FEF7FEF0895E09353
:102A7000CD02F093CE026093CF027093D0020895FE
:102A8000E091C302EE73E4300895E1E0F0E061E02C
:102A900070E00895FADFD3CFE0E0E093CD02E09359
:102AA000CE02E093CF02E093D0020895E9E0F0E097
:102AB00069E070E0C4DFF0CFE9E4F0E069E470E0E1
:102AC0000895E3E3F3E363E373E3D1CFECECFCECD1
:102AD0006CEC7CECB4DFE0CFA5E0B0E00E94F71630
:102AE000A091ED02B091EE020895E3E0F3E063E01F
:102AF00073E00895E5E5F5E565E070E0A0DFB2CFAD
:102B0000EC59FF4FA091ED02B091EE02AE17BF0756
:102B1000089590DF94DFA6CFCFDF91CFEA5BFF4F20
:102B2000A091ED02B091EE02AE17BF070895E5E067
:102B3000F0E060E070E09BCF0E943E17EE83FF83E1
:102B4000688779870895AE81BF81888599850895C2
:102B5000E0E9F1E081CEA0911503B091160308954C
:102B6000A7E2B0E00E9483170895A9E2B0E00E94B6
:102B700083170895A091BA02B091BB02AE17BF07A8
:102B80000895E0912003F09121030895E09320033C
:102B9000F09321030895A091BA02B091BB02EA1705
:102BA000FB070895E12FF0E0E65CFC4F0895E12F6C
:102BB000AEE2B3E0F0E0EE0FFF1FAE0FBF1F0E94CA
:102BC00064170895E12FA2E2B3E0F0E0EE0FFF1FDB
:102BD000AE0FBF1FED91FD910895E12FA2E2B3E08A
:102BE000F0E0EE0FFF1FAE0FBF1F0895E093E1026C
:102BF000F093E2020895E1EEF2E0FA93EA93E0E066
:102C0000F0E0FA93EA93ACEFB3E00E94C006A09123
:102C1000E302B091E402AC3FE3E0BE070895E09127
:102C2000E302F091E4027E96E093E302F093E40283
:102C3000A091E302B091E402AD3FE3E0BE07089546
:102C4000ECEFF3E0E093E302F093E4020895E0E0B8
:102C5000E093E102E093E202E093E302E093E40216
:102C6000F79A0895C3DFA091E302B091E402AC3F6C
:102C7000E3E0BE070895A091E302B091E402089555
:102C80005CDEA091C502B091C602EA0FFB1FAEDF69
:102C900013CEE0914B03F0914C030895EEE1F0E088
:102CA0000E940117E8DFEA0FFB1F0895E091C702B9
:102CB000F091C8020895FA93EA93E1E0F0E0FA9304
:102CC000EA93ACEFB3E00C94C006E091B702F0E0F9
:102CD000EE0FFF1F0E94B316E45FFD4F0895E091D1
:102CE000B702ACEAB2E0F0E0EE0FFF1F08956627EE
:102CF00077270E946D1708950E9468170E94CA16D0
:102D00000895E0E00E94771708950E94FC160E9443
:102D10006D170E94681708950E943E170E946D1754
:102D2000E881F9810895E8EEF3E060E070E0F4CF27
:102D3000109639F080ED97E00197F1F7A89511977B
:102D4000C9F70895AE1BBF0B860B970B0895F1953D
:102D5000E195F0400895F09560957095E195FF4FED
:102D60006F4F7F4F0895EE0FFF1FEE0FFF1FEE0F07
:102D7000FF1FEE0FFF1F089575956795F795E7956F
:102D80000895F695E795F695E795F695E795F69506
:102D9000E79508956F2F660F660B762F0895FA9FBB
:102DA000F02DEB9FF00DEA9FE02DF10D08957A9F35
:102DB000702D6B9F700DF89F700DE99F700D6A9FCD
:102DC000602D710DFB9F600D711DE89F600D711DE1
:102DD0008827FA9FF02D610D781FEB9FF00D611D84
:102DE000781FEA9FE02DF10D681F781F08954BD0E2
:102DF000D6DF0EF4ACDF089554D0D9DF0EF4ABDF8C
:102E000008950024112490E1AA0FBB1F001C111C7F
:102E10000E1A1F0A18F40E0E1F1E01C0A1609A950B
:102E200099F7FD01D00108952ED0EBDF0EF48FDF6E
:102E300008953F934F935F9300241124442755270F
:102E400030E2AA0FBB1F881F991F001C111C441FD2
:102E5000551F0E1A1F0A460B570B28F40E0E1F1E85
:102E6000461F571F01C0A1603A9559F7FD01BC01EB
:102E7000D001CA015F914F913F91089512D0D9DFDF
:102E80000EF469DF0895E894F7FF02C060DF6894EC
:102E9000B7FF06C0A095B095119600F8039400FA0C
:102EA0000895E89477FF02C056DF689497FF0BC03F
:102EB0000024A095B095809590951196801D901D49
:102EC00000F8039400FA0895ED91FC91119708958C
:102ED000A881B9818A819B810895E883F9836A83F7
:102EE0007B830895A883B9838A839B830895E883AD
:102EF000E983EA83EB8308951B2EBF2FF12D1A2E51
:102F0000AE2FE12D0895119602D0FE2F1197F99959
:102F1000FECFFF93FFB7F894A1BDB2BDF89AE0B51C
:102F2000FFBFFF91089507D01196EF93EF2F03D0C5
:102F3000EF9111970895F99B02C0A895FCCF9FB718
:102F4000F894A1BDB2BDF89A80B5E81719F0E0BDBC
:102F5000FA9AF99A9FBF089500240A160B0608955D
:102F6000EA17FB07680779070895AE17BF078607BA
:102F7000970708955A934A933A932A931A930A9378
:102F800008955D814C813B812A81198108810895D2
:00000001FF
