:0200000044C0FA
:10000200FECFFDCFFCCFFBCFFACFF9CFF8CFF7CFA2
:100012009ECAF5CFF4CFF3CFF2CFF1CFF0CFEFCF2F
:10002200EECFEDCF000048007D00B100D900FE0008
:100032001E013E015A0174019001AB01C501DE01AE
:10004200F6010D0250555555AAAAAAAA1E00320061
:10005200320007070702030100077B00200060014E
:100062002600040021024600040025024A00010085
:100072002B024E00020030025000020032025200F7
:10008200020000035C000000F894EE27ECBBF1E0F4
:10009200FBBFEBBFE5BFF8E1F1BDE1BD8DE0A2E042
:1000A200BB27ED938A95E9F780E094E0A0E6ED9313
:1000B2000197E9F7EEE5F0E085919591009761F0FF
:1000C200A591B59105901590BF01F00105900D9293
:1000D2000197E1F7FB01F0CFEFE5EDBFE4E0EEBF02
:1000E200C0E6D1E073CAF8940EDBBC98899A919865
:1000F200919A789408950A93F89405DBBC98899AAA
:1001020091988BE18A95F1F702DB04DB07DB919A88
:100112007894E02F088122960895F894F4DABC9836
:10012200899A919800DB02DB05DB919A78942396F9
:1001320008950A93F894E7DABC98899A9198FDDABF
:10014200F5DA919A7894E02F0881239608950A931C
:10015200F894D9DABC98899A9198000000000000BE
:1001620000000000000000000000E0EAEA9314DE54
:10017200D5DA919A7894E02F09910895F8947894B9
:10018200F894C1DABC98899A9198E881E03019F420
:10019200E1E8E8830BC0A881A13019F4E2E8E88322
:1001A20005C0A881A23011F4E4E8E883C3DA919A89
:1001B200789421960895A091FE02A03010F0C0DA42
:1001C20008F4C3DAA091FE02B0E0A252BD4FEF8163
:1001D200EC93A2EEB2E0BDDAAE0FBF1FEE81EC935C
:1001E200A6EEB2E0B6DAAE0FBF1FED81EC93AAEE37
:1001F200B2E0AFDAAE0FBF1FEC81EC93AEEEB2E02D
:10020200A8DAAE0FBF1FEB81EC93A2EFB2E0A1DA46
:10021200AE0FBF1FEA81EC93A6EFB2E09ADAAE0FFF
:10022200BF1FE981EC93AAEFB2E093DA96DAEC937E
:10023200E091FE02EF5FE093FE0282DA08F485DAD3
:10024200289608950A934FDFEEE08BDA0E2FE02F07
:10025200E07EE03821F087DA89DAE0E88ADA8BE1B9
:100262008A95F1F7EAE287DAE9E2EA93EEEF87DAD2
:10027200E8E2EA934CDA5DDFE0E683DAE0E781DA8E
:1002820083DAE0E286DAE1E284DAE0E082DAE1E0EF
:1002920080DAE4E07EDA47DAEFEF71DAE4E279DA83
:1002A200E5E2EA9363DA45DF77DAE3E168DAE9E087
:1002B20062DAE0E174DAE1E172DAE4E170DAE5E10E
:1002C2006EDAE8E16CDAE9E16ADAE1E56BDAE2E5F5
:1002D20052DAE1E467DAE2E44EDAE1E363DAE2E336
:1002E2004ADA41DAE7EE61DA18DFEBE2EA93E6E0B6
:1002F20046DA5DDAECE053DA0991089542DEF894C9
:1003020026DFE0936002A0916102EA2BE093610292
:10031200E0916002E270B9F010E0183070F4E12F61
:10032200F0E0EE59FD4FFF93EF93E12FEA5819DA0F
:10033200AF91BF91EC931F5FF0CF3EDAFED93FDA67
:10034200689434F83AC0E0916002E475B1F52197FF
:1003520033DAECE1EA9333DAE091FE02A091FF0294
:10036200EA1751F12EDAA881A830A0F4E881EA5CFC
:10037200EA93E981AEEDB2E027DAEE0FFF1FAE0F8E
:10038200BF1FE091FF02F0E0AE0FBF1FEC91F7D963
:100392001FDAE9CFE5E3EA93E8E0F1D91DDAF0DE0E
:1003A200E091FF02EF5FE093FF02A091FF0217DAF4
:1003B20018F4E0E0E093FF0221967894E9DD2496B8
:1003C2000895DDDDA0916202A130E1F4E0916302C3
:1003D200E230C1F4E0916402E330A1F4E0916502FD
:1003E200E43081F4E0916602E53061F4E091670265
:1003F200E63041F4E0916802E73021F4E0916902CD
:10040200E83009F00CC0E1E0EA9397D980D9E4E042
:10041200CCD9E6E0EA93E7E0EA93BED9CCDEE2D9B2
:10042200EF93ADE1B0E080DDAF91EA1769F4E091BE
:100432006302EF93ADE1B0E077DDAF91EA1721F40B
:10044200E0916402ED3E09F0ACC0E0916502E093F8
:100452001C02E17099F0CAD968F4E0913902EF5FA9
:10046200E0933902C3D928F0E0911B02E062E093E5
:100472001B0203C0E4E0E093390217C0E0913902A5
:10048200E03081F0E150E0933902A0913902A030CE
:1004920041F4E0911B02EF7DE0931B02ABD9E093A4
:1004A2005F0203C0E0E0E0933902E0911C02E270D7
:1004B20021F0E0911B02E06403C0E0911B02EF7B9C
:1004C200E0931B02E0916602EF93E091670299D9F3
:1004D200AF919DD9E0931D02F0931E02E091680254
:1004E200EF93E09169028DD9AF9191D9E0931F0208
:1004F200F0932002F0911B02E0E0A0911C0287D948
:10050200E0930003F093010386D9EAEDEA93E091C8
:100512001102EA93E0911202EA93E0911302EA9344
:10052200E0911402EA93E0911502EA93E091160237
:1005320077D971D9EBEDEA93E0911902F0911A02A1
:1005420071D9E0911B02EA93E0914302F0914402D7
:10055200EA93E0915002EA93E091510261D964D9A1
:100562006AD961F06CD949F4E1E0A4E2B0E0F0DCD0
:10057200689431F8E0E0E0935E020FC0A091490276
:10058200B0914A02E4E1F0E0EA17FB0734F457D9EC
:1005920021F0E0E0A4E2B0E0DBDC56D909F059D961
:1005A20060C220D9EF93ADE1B0E0BEDCAF91EA17B3
:1005B200A9F4E0916302EF93ADE1B0E0B5DCAF9155
:1005C200EA1761F4E0916402EE3E41F4E0916502C3
:1005D200EF93E0916602AF91EA1709F000C13ED9AC
:1005E200E0916502E07FE032C9F5E091650240D911
:1005F20041F4E0910702F0910802A5E0B0E0A0DC2E
:1006020029C0E091650237D921F4A7E0B0E036D9DC
:1006120021C0E091650237D949F4A7E0B0E0BF9369
:10062200AF9334D9AF91BF918BDC14C0E0916502D6
:1006320030D921F4A7E0B0E02FD90CC0E0916502D7
:1006420030D941F4A7E0B0E0BF93AF932DD9AF9179
:10065200BF9176DCE7E0F0E02AD9BCC0E091650208
:10066200E07FE031E9F5E091650202D961F4E9E069
:10067200F0E0FF93EF93E0910902F0910A02AF914B
:10068200BF915EDC29C0E0916502F5D821F4ABE0B0
:10069200B0E0F4D821C0E0916502F5D849F4ABE0AE
:1006A200B0E0BF93AF93F2D8AF91BF9149DC14C0D1
:1006B200E0916502EED821F4ABE0B0E0EDD80CC0D9
:1006C200E0916502EED841F4ABE0B0E0BF93AF93A6
:1006D200EBD8AF91BF9134DCEBE0F0E0F3D87AC015
:1006E200E0916502E07FE9F5E0916502C1D861F42D
:1006F200EDE0F0E0FF93EF93E0910B02F0910C023A
:10070200AF91BF911DDC29C0E0916502B4D821F4FC
:10071200AFE0B0E0B3D821C0E0916502B4D849F4AB
:10072200AFE0B0E0BF93AF93B1D8AF91BF9108DC17
:1007320014C0E0916502ADD821F4AFE0B0E0ACD8CE
:100742000CC0E0916502ADD841F4AFE0B0E0BF93D8
:10075200AF93AAD8AF91BF91F3DBEFE0F0E0B2D84C
:1007620039C0E0916502E07FE033A1F5E0916502D6
:1007720082D821F4A3E1B0E081D821C0E0916502E2
:1007820082D849F4A3E1B0E0BF93AF937FD8AF9191
:10079200BF91D6DB14C0E09165027BD821F4A3E1BE
:1007A200B0E07AD80CC0E09165027BD841F4A3E1B5
:1007B200B0E0BF93AF9378D8AF91BF91C1DBE3E1D3
:1007C200F0E0FA93EA93E0EEF1E0FA93EA93E1EFD4
:1007D200F1E083D829D838D809F03BD842C180D873
:1007E20041F4E0916302EF3F21F4E0916402E236CA
:1007F20009F03BC0A5E1B0E093DBFF93EF93E091FA
:100802006502EF93E0916602FCD7AF9100D8AF91F9
:10081200BF91EA17FB0759F0E0916502EF93E0916F
:100822006602EFD7AF91F3D7A5E1B0E089DBA7E18C
:10083200B0E076DBFF93EF93E0916702EF93E091F4
:100842006802DFD7AF91E3D7AF91BF91EA17FB07F9
:1008520059F0E0916702EF93E0916802D2D7AF912D
:10086200D6D7A7E1B0E06CDBFCC03AD841F4E09106
:100872006302EF3F21F4E0916402E63209F049C0DD
:10088200A9E1B0E04DDBFF93EF93E0916502EF93B6
:10089200E0916602B6D7AF91BAD7AF91BF91EA178E
:1008A200FB0759F0E0916502EF93E0916602A9D748
:1008B200AF91ADD7A9E1B0E043DBABE1B0E030DB13
:1008C200FF93EF93E0916702EF93E091670299D76C
:1008D200AF919DD7AF91BF91EA17FB0759F0E09115
:1008E2006702EF93E09168028CD7AF9190D7ABE1AA
:1008F200B0E026DBA3E2B0E017DBEF93E091690200
:10090200AF91EA1729F0E0916902A3E2B0E020DB9F
:10091200A8C068D7EF93ADE1B0E006DBAF91EA176C
:1009220089F4E0916302EF93ADE1B0E0FDDAAF91BB
:10093200EA1741F4E0916402E63121F4E0916502A4
:10094200E33609F003C0D0D7E9D78BC0C9D761F429
:10095200E0916302EF3F41F4E0916402E63121F459
:10096200E0916502E63109F040C0E0916602E535AA
:1009720021F4E0916702E53509F00AC0E0914302F3
:10098200F09144023196E0934302F093440221C075
:10099200E0916602E63621F4E0916702E63609F05C
:1009A2000AC0E0914302F09144023197E09343027E
:1009B200F09344020EC0E0916602E73721F4E09121
:1009C2006702E73709F005C0E0E0E0934302E093F5
:1009D2004402E3E4F2E0FA93EA93E7EEFFEFFA93DC
:1009E200EA93E9E1F0E09ED73CC0FCD6EF93ADE19B
:1009F200B0E09ADAAF91EA17C9F4E0916302EF939B
:100A0200ADE1B0E091DAAF91EA1781F4E0916402CE
:100A1200E63161F4E0916502EF93E0916602AF91F5
:100A2200EA1721F4E0916502EE3E09F01AC016D7EA
:100A32004091300250913102E42FF52FA0E2B0E054
:100A42007FDAB5D6A0E2B0E06BDA4E175F0749F461
:100A5200E2D6E1E96AD769D7E5D6BED6BDD6BCD61D
:100A6200AADBE89434F892DA37C0E5E0E3BFE8EFB6
:100A7200E2BFE9B7E160E9BF0895A881B981E0E288
:100A8200F3E0EA17FB0714F4E1E00FC0A881B98193
:100A9200E0E5F0E0EA17FB0724F4A837E0E0BE0740
:100AA2000CF002C0E0E001C0E4E62296089540D7CF
:100AB20043D714F447D724DA3BD749D714F44DD798
:100AC2001FDA0AC04FD738D714F43CD739DA4AD7DD
:100AD2003ED714F442D734DA26960895E0914302C1
:100AE200F0914402A0914502B0914602EA17FB0739
:100AF200F9F43CD7E4F4E0914702F09148023196D0
:100B0200E0934702F093480231D78CF0AEE1B0E0B7
:100B120007DAA0914302B0914402EA17FB0739F0C9
:100B2200E0914302F0914402AEE1B0E009DA05C07F
:100B3200E0E0E0934702E0934802A0914702B091BF
:100B42004802ECE3F0E0EA17FB072CF4E0E0E09364
:100B52004702E0934802E0914302F0914402E0939D
:100B62004502F09346020895A0915802A03051F434
:100B7200E0915902E03031F4E0915A02E03011F490
:100B820030FE01C00FC0ECE3E0935802E09359023B
:100B9200E0935A02E0E1FEE0E0935B02F0935C0234
:100BA200689430F80895E0E0E0935802E093590227
:100BB200E0935A02E0E0E0935B02E0935C02E89487
:100BC20030F80895B89AE0910703E17011F0C09AE5
:100BD20001C0C0988F9AE0910303E17011F0979AD7
:100BE20001C09798E0910303F0910403609105031B
:100BF20070910603EED8E0930303F093040360932D
:100C0200050370930603E0910703F09108036091D6
:100C1200090370910A03DDD8E0930703F0930803F8
:100C22006093090370930A03A0912B02AF5FA09314
:100C32002B02E0E2EA1718F5E0E0E0932B02E091E4
:100C42002102F09122026091230270912402E0932A
:100C52000303F09304036093050370930603E0918A
:100C62002502F09126026091270270912802E093FA
:100C72000703F09308036093090370930A0308952E
:100C82007DD679F07FD611F081D639F083D621F066
:100C9200E0910B03E07109F003C080D609F464DF30
:100CA20008C06CD631F46ED611F070D609F001C0CE
:100CB2005BDFE0911B02E0930B030895269763D953
:100CC200EEE1E4BBE5BBE7E46DD6369A5DD56ED6C0
:100CD200ED8371D60A83E0E465D6369A55D566D699
:100CE200EE8369D6DE0113960C93E5E45BD6369A61
:100CF2004BD55CD6EF835FD6DE0114960C93E4E607
:100D0200ADE1B0E025D96AD621F06BD611F06CD6F0
:100D120009F41BC0ED81E03049F469D611F4E3E037
:100D220001C0E0E0ADE1B0E013D90EC060D629F415
:100D3200E1E0ADE1B0E00CD907C0EF81E03021F491
:100D4200E2E0ADE1B0E004D917C048D621F449D6BB
:100D520011F44AD609F00CC0EB81EE0FEE0FAA8116
:100D6200EA0FEF93EC81E295E07FAF91EA0F01C0C9
:100D7200E4E6ADE1B0E0ECD80DD9289608953AD674
:100D820041F0A8E5B2E03AD635D611F4ADD53AD65F
:100D92001BC0E0915902E03051F0A9E5B2E02ED635
:100DA200E0915902E03011F49FD52CD60DC0E091AC
:100DB2005A02E03049F0AAE5B2E020D6E0915A02A8
:100DC200E03011F491D51ED621D671F0E0915B028C
:100DD200F0915C023197E0935B02F0935C0216D6CD
:100DE20019F4E89430F8C0DEA0913602B0913702CF
:100DF200BED861F4A0913402B0913502B8D831F472
:100E0200A0915702A03011F4929B01C00BC004D6EE
:100E120040F4E0915D02EF5FE0935D02FDD508F0E2
:100E2200C2DE03C0E0E0E0935D020895A7D5E9F0D9
:100E3200A0912A02A13329F4E0911B02E17CE09304
:100E42001B02A0912A02AF5FA0932A02A23360F094
:100E5200E2E3E0932A02E4D5F7D431F4689432F85D
:100E6200E1E0A5E2B0E074D801C0DAD50895ABE1C3
:100E7200B0E056D8D9D554F4E0912C02F0912D026D
:100E82003196E0932C02F0932D020EC0ABE1B0E05C
:100E920047D8D1D54CF4E0912C02F0912D02319734
:100EA200E0932C02F0932D02ECE2F2E0CCD5A0917B
:100EB2002C02B0912D02A733E0E0BE0764F0CCD53E
:100EC20011F4CED511F05AD529F4E0911B02E46059
:100ED200E0931B020BC0A0912C02B0912D02C4D54D
:100EE2002CF0E0911B02EB7FE0931B02A9E1B0E042
:100EF20017D89AD554F4E0912E02F0912F02319630
:100F0200E0932E02F0932F020EC0A9E1B0E008D8C0
:100F120092D54CF4E0912E02F0912F023197E0939A
:100F22002E02F0932F02EEE2F2E08DD5A0912E0276
:100F3200B0912F02A733E0E0BE0764F08DD511F423
:100F42008FD511F01BD529F4E0911B02E260E093EA
:100F52001B020BC0A0912E02B0912F0285D52CF05E
:100F6200E0911B02ED7FE0931B02089507D509F47F
:100F72003BC0A5E1B0E0D4D7A0911502B091160212
:100F8200EA17FB0714F475D505C0E0E0E0933402DC
:100F9200E093350278D582D50CF088D5E091130222
:100FA200F0911402A0911502B0911602AE17BF077C
:100FB20070F4EA1BFB0BFF93EF93A7E1B0E0B0D70D
:100FC200AF91BF91EA17FB0714F4C29B01C002C0A4
:100FD20073D505C0E0E0E0933602E093370276D5A0
:100FE20080D50CF086D52CC0C9D451F5A09115023C
:100FF200B0911602ECEBF2E0EA17FB0710F439D5D8
:1010020005C0E0E0E0933402E09335023CD546D5DA
:101012000CF04CD5A0911502B0911602A039E1E076
:10102200BE0710F4C29B01C002C046D505C0E0E075
:10103200E0933602E093370249D553D50CF059D5E7
:1010420008959CD409F471C0D5D359D5AE17BF0702
:101052001CF45BD567D551C072D511F4ECD309F4F9
:1010620006C0E5E5F5E565E070E06DD546C0C2D3A2
:1010720046D5EA17FB0734F4BDD3EC5940D5AE1779
:10108200BF070CF003C041D573D537C087D431F404
:10109200E5E5F5E565E575E556D52FC050D511F4C2
:1010A20074D509F003C031D563D527C06ED5E430BD
:1010B20011F46FD522C072D511F074D51EC062D45E
:1010C20011F089D51AC066D431F0E9E4F0E069E4A0
:1010D20070E09AD512C033D511F4ABD509F40DC026
:1010E20014D5E3E0F0E063E070E0E0932502F093D2
:1010F200260260932702709328029FD571F405D5CA
:10110200E3E3F3E363E373E3E0932502F093260260
:10111200609327027093280207C093D529F4ECEC60
:10112200FCEC6CEC7CEC70D533C028D489F562D32E
:10113200E6D4AE17BF071CF4E8D4F4D429C05AD3BE
:10114200DED4EA17FB072CF455D37FD5AE17BF07C1
:101152000CF003C0DAD40CD51BC0E0911B02EE7177
:1011620019F4D3D405D514C010D5E43011F411D537
:101172000FC014D511F016D50BC004D411F02BD525
:1011820007C008D429F0E9E4F0E069E470E0DBD4B8
:101192000895BA9AA0914102B0914202A639E0E0C4
:1011A200BE074CF4E0914102F09142023196E09385
:1011B2004102F09342021ED3A2D4AE17BF0714F429
:1011C200C29A14C017D39BD4EA17FB072CF412D38C
:1011D2003CD5AE17BF070CF002C0C29807C027FE6D
:1011E20002C0C29A03C027FC01C0C298B99A2FD587
:1011F200E2E0F0E031D5E0913002F0913102FBBD46
:10120200EABD0895BBD351F42CD519F42ED527F895
:1012120004C027D511F035D527F848C012D541F4BE
:10122200E0E0E0933002E093310237D527F83EC088
:1012320004D519F41AD527F839C0B0D3A9F435D595
:1012420071F4A0E2B0E06CD6E0933002F093310288
:10125200FED4E0E0F0E000D520D527F804C025D583
:1012620011F00FD527F822C06AD401F5E2D4D1F4E7
:101272001CD511F0F5D389F0E0914302F0914402BC
:10128200A0911D02B0911E02EA0FFB1FE0933002F3
:10129200F093310202D527F804C007D511F0F1D43A
:1012A20027F804C0C6D411F0ECD427F808958D9A1B
:1012B2008E9A959A969A859B08C0FBD428F4E09161
:1012C2003E02EF5FE0933E0209C0859907C0E091BC
:1012D2003E02E03019F0E150E0933E02869B08C0E6
:1012E200ECD428F4E0913F02EF5FE0933F0209C0A3
:1012F200869907C0E0913F02E03019F0E150E09397
:101302003F02D7D411F4D9D409F003C0E0E0E0934E
:101312004002D7D411F4D1D409F003C0E1E0E09344
:101322004002C7D411F4D1D409F003C0E2E0E09343
:101332004002C7D411F4C9D409F003C0E3E0E0933A
:101342004002089520D604B115B1C3D4BF93AF9320
:10135200C6D4AF91BF91AE0FBF1FE0910F0234D23E
:10136200AE0FBF1F0D931C93BED4B9F4E09152028D
:10137200F0915302E017F1072CF4009352021093FC
:1013820053020BC0E0915402F09155020E171F0751
:1013920024F40093540210935502E0910F02E3707B
:1013A20091F52197A4D4AE0FBF1FE0E0F0E0A8D5DD
:1013B20008D2A881A031E0F49AD4EA0FFB1FFF9370
:1013C200EF939AD4FF93EF9384D4BF93AF9387D4D0
:1013D200AF91BF91C2D1F8D1AE0FBF1F8DD5AF91E2
:1013E200BF91EA0FFB1FAF91BF918AD5F1D1E1CF37
:1013F2007ED4EA0FFB1FFF93EF937ED4EFD4AF911D
:10140200BF917ED52196A0911002AF5FA0931002EA
:10141200A43060F0E0E0E0931002A0910F02AF5F11
:10142200A0930F02A03110F0E0930F02E4B3E07C2E
:10143200E4BBE5B3E07CE5BBE0911002E03019F4D7
:10144200E2E4E7B912C0A0911002A13019F4E4E479
:10145200E7B90BC048D419F4E3E4E7B906C0A09198
:101462001002A33011F4E1E4E7B9E6EAE6B9369AEC
:1014720094D508952497E0910702F09108023FD491
:10148200A5E0B0E043D43FD58DD447D474D52CF435
:10149200E0E0E883E983EA83EB83A7E0B0E036D4B7
:1014A20045D4E0EBF4E060E070E042D4E093110256
:1014B200F0931202E0910902F0910A0220D440D482
:1014C2002CF4E0E0E883E983EA83EB83AFE0B0E069
:1014D2001DD42CD43BD4E0931502F0931602E09174
:1014E2000B02F0910C020BD42BD42CF4E0E0E88335
:1014F200E983EA83EB83ABE0B0E008D417D426D4C7
:10150200E0931302F0931402E0910D02F0910E02A7
:10151200F6D3A3E1B0E0FAD309D4E8EEF3E060E059
:1015220070E0D2D4E883F9836A837B83E151F1408E
:1015320060407040E0931902F0931A02E0911B029E
:10154200F0E0E0931702F0931802249608950A92AD
:101552001A92FA926A937A938A939A93AA93BA9373
:10156200EA93FA93EFB7EA9380DAC8D6A394EAE053
:10157200AE16F0F0AA2463946E1618F066246894EE
:1015820023F89394E3E09E1618F09924689422F8C5
:101592007394E4E17E1628F07724689424F8E0E45A
:1015A2002E268394E4E68E1618F08824689425F893
:1015B200E991EFBFF991E991B991A9919991899135
:1015C20079916991F9901990099018958A9A929A4D
:1015D200B89AC098C29ABA9AE7B3E663E7BBE3E85F
:1015E200EFBDE9E0EEBDE0E0EDBDECBDEBBDEABD77
:1015F200E9BDE8BDEDE5EDB9E0E0EEB9D8D0D7D070
:10160200D6D0D5D0D4D05ADBA6D309F4A9D3A3D34C
:1016120009F4A6D32ADA08D1E0E0E0934102E0938C
:101622004202AEE1B0E07CD4E0934302F093440284
:10163200A0914302B0914402E9E1F0E0EA17FB070E
:1016420024F0A73EEFEFBE072CF4E0E0E093430264
:10165200E093440287D3A03018F084D3C0D020F4A2
:10166200E3E0A3E2B0E074D47894E7E0F0E01FD1C5
:10167200EBE0F0E07CD3EFE0F0E079D3E3D534FEA9
:1016820003C0E89434F89DD622FE03C0E89422F801
:1016920059DE23FE08C0E89423F8ECDE93DAC6DBB9
:1016A200B1DD05DEEDDA24FE04C0E89424F871DD34
:1016B200C8DC25FE1BC0E89425F8D9DB57DC0EDA1E
:1016C200A0914902B0914A02A83EE3E0BE074CF461
:1016D200E0914902F0914A023196E0934902F09377
:1016E2004A025CD111F04AD109F449DBA895C7CF6F
:1016F200FFCF5F9BFECFECB108955D9BFECFE881EB
:10170200ECB921960895E7B3EC62E7BB0895E3E0F4
:10171200EA93089541D3E981EA933EC3E5E5EA936A
:101722003BD30E2F0895E5E0EA93089535D3EA817D
:10173200EA93F0CFE881EA932FC3E2E0EA930895B7
:10174200A091FE02E3E0EA170895E0E0E093FE02D2
:101752000895E091FE02F0E00895AE0FBF1FE88108
:101762000895EA93C8C4EFE0EA930895E0EEEA939D
:101772000895EA93D2C4EA93E0ECEA93DAC4EA93D6
:10178200D8C4EA93E0E2FBCFEAE0F0E0FA93EA930E
:10179200F7C2EA93EFEFF3CFE8E0EA930895EA9312
:1017A200E0E0EDCFEA93E1E3EACFEA93BCCFE4E6EF
:1017B200F0E0FA93EA93E4C2ECE2EA930895E0E0FF
:1017C200D8CFE0E0E8830895F0E0EE0FFF1F089520
:1017D200E881EF5FE8830895E0E0EA930895E3E0AB
:1017E200EA170895A2E6B2E0EC910895A0913902B9
:1017F200A4300895A3E2B0E097D3A5E0EA9FE02DDC
:101802000895DF01B0E0E0E0F1E0F8D20895B0E041
:10181200EA0FFB1F0895ADE1B0E086D3EA93089585
:10182200EA93C9C4EA93D8CFE0E0E0932A02E5E55F
:10183200E09329020895E0911C02E0780895A4E261
:10184200B0E072D3E0300895A5E2B0E06DD3E030AD
:101852000895E0E0A5E2B0E07BD30895E0910003B3
:10186200F09101033196E0930003F0930103089590
:10187200EF70E1300895EF70E230089551D3319660
:101882005FD331970895EF70E330089549D33A96C4
:101892000895EF70E430089543D3319751D33196D0
:1018A2000895EF70E53008953BD33A970895FA937F
:1018B200EA93E4EAF1E0FA93EA93ECE4F4E0FA93CF
:1018C200EA9300C9FA93EA93E0E5F5E0FA93EA9322
:1018D200E4EAF6E0FA93EA93F5C8FA93EA93F2C8D7
:1018E200A0916202AF3F0895E0911B02E17EE09376
:1018F2001B02E0E0E0932C02E0932D02E0E0E09393
:101902002E02E0932F02E0E0E0933402E0933502EE
:10191200E0E0E0933602E09337020895EEE1E093CF
:101922002B020895FA93EA93C2C8EA93EDED089563
:10193200AC81BD81E1D20895DF01EA81FB81AE175E
:10194200BF070895EA81FB81AC81BD810895DF0163
:10195200E881F981EA17FB070895E881F981AC81F2
:10196200BD810895AC81BD81DBD20895A09147026B
:10197200B0914802AC33E0E0BE070895A091400266
:10198200A3300895E0911B02E8700895E0910B03E3
:10199200E8700895E0911B02E0710895A091290278
:1019A200AA3A0895E7B9E6EAE6B90895E4B1F5B1CD
:1019B200FA93EA9362C8E4B1F5B1DF01E8ECF0E032
:1019C2004AD20E2F1F2FE0E1F0E0FA93EA93E0E013
:1019D200F0E0FA93EA93E3E0F0E0A4CFAD81A4361D
:1019E2000895AE81A4360895AF81A4360895EE819C
:1019F200E0300895E0915802E0300895EC91E15012
:101A0200EC930895E0E0E093570288CFE0915B0207
:101A1200F0915C0230970895A0915D02A43108957F
:101A2200EAEAE09329020895A0911902B0911A02FC
:101A3200EA17FB0708953197A0911902B0911A0293
:101A4200AE17BF070895FA93EA93E0E0F0E0FA9345
:101A5200EA93ECE3F0E066CFA0914002A030089553
:101A6200E0911B02E0740895E5E0F0E0EA17FB075D
:101A72000895E0913402F09135023196E0933402F8
:101A8200F09335020895E4E3F2E0FA93EA93E0E09A
:101A9200F0E0FA93EA93EAE0F0E044CFA091340256
:101AA200B0913502AA30E0E0BE070895E0911B0232
:101AB200E860E0931B020895E0913602F09137024C
:101AC2003196E0933602F09337020895E6E3F2E0AE
:101AD200FA93EA93E0E0F0E0FA93EA93EAE0F0E0C6
:101AE20021CFA0913602B0913702AA30E0E0BE07C2
:101AF2000895E0911B02E061E0931B020895A0911A
:101B02004102B0914202F0E00895E0E0F0E060E0CE
:101B120070E0E0932102F09322026093230270931B
:101B220024020895E3E0F3E063E073E0E09325022A
:101B3200F093260260932702709328020895A091E1
:101B42002902A5350895E0932102F09322026093C1
:101B5200230270932402EFEFFFEF6FEF7FEFE0932A
:101B62002502F093260260932702709328020895BB
:101B7200EFEFFFEF6FEF7FEFE0932502F093260286
:101B820060932702709328020895E0911B02EE737E
:101B92000895E1E0F0E061E070E0D5CFE0911B0252
:101BA200E2700895E1E0F0E061E070E0E09321028C
:101BB200F09322026093230270932402E0E0F0E0AB
:101BC20060E070E0E0932502F09326026093270222
:101BD200709328020895E9E0F0E069E070E0E09394
:101BE2002102F09322026093230270932402E0E028
:101BF200F0E060E070E0E0932502F093260260934B
:101C02002702709328020895E0932102F0932202A2
:101C12006093230270932402E0E0F0E060E070E061
:101C2200E0932502F0932602609327027093280224
:101C32000895E0911B02E0720895A0914002A13044
:101C42000895A0914002A2300895EA5B58CFE0E3E4
:101C5200F2E0FA93EA930895FA93EA93ECEFF3E051
:101C620061CEE0911B02EA700895EFEFF3E0E0939A
:101C72003002F0933102E0933202F0933302E8949F
:101C82000895E0E0E0933002E0933102E0E0E09377
:101C92003202E093330268940895EFEFF3E0E093A9
:101CA2003202F0933302E8940895E0911B02EA7144
:101CB2000895A0913E02AA300895A0913F02AA3051
:101CC2000895A0913E02A0300895A0913F02A03055
:101CD2000895E0911002A7E8B1E0F0E00895EE0F58
:101CE200FF1F6ED00895A0911002A2300895E091D6
:101CF2001002A7E0B2E068CDDF01FED008956627AA
:101D02007727E883F9836A837B83089509D1A881C1
:101D1200B9818A819B816BD00895E883F9836A83B4
:101D22007B83A881B9818A819B8108958FD0F5CF69
:101D3200CBD0E883F9836A837B83E881F9810895B4
:101D4200A881B9818A819B8116D10895E8EEF3E0DA
:101D520060E070E0EDCFADE1B0E0E6D0E4360895AA
:101D6200ADD725CDA3E2B0E0DFD0AE2F0895FA9330
:101D7200EA93E6EEF5E0FA93EA93EAE3F7E0ADCD13
:101D8200E991F991309639F080ED97E00197F1F7FA
:101D9200A8953197C9F70895E991EFB9779BFECFDE
:101DA200EFB10895EA1BFB0B680B790B0895E095E0
:101DB200F09560957095EF5FFF4F6F4F7F4F0895DD
:101DC200EE0FFF1FEE0FFF1FEE0FFF1FEE0FFF1FA5
:101DD200089575956795F795E7950895F695E795B2
:101DE200F695E795F695E795F695E795089560E0FF
:101DF20070E0F7FF08956FEF7FEF0895FA9FF02DDF
:101E0200EB9FF00DEA9FE02DF10D08957A9F702D62
:101E12006B9F700DF89F700DE99F700D6A9F602D8A
:101E2200710DFB9F600D711DE89F600D711D88276C
:101E3200FA9FF02D610D781FEB9FF00D611D781F49
:101E4200EA9FE02DF10D681F781F089542D0DEDF72
:101E52000EF4ADDF08950024112490E1AA0FBB1FF8
:101E6200001C111C0E1A1F0A18F40E0E1F1E01C0B0
:101E7200A1609A9599F7FD01D00108953F934F9380
:101E82005F93002411243327442750E2AA0FBB1F7B
:101E9200881F991F001C111C331F441F0E1A1F0A92
:101EA200360B470B28F40E0E1F1E361F471F01C0AC
:101EB200A1605A9559F7FD01BC01D001832F942FDF
:101EC2005F914F913F91089504D0D8DF0EF46FDFF8
:101ED2000895E89477FF02C06ADF689497FF0BC009
:101EE2000024A095B095809590951196801D901D27
:101EF20000F8039400FA0895ED91FC91119708956A
:101F0200ED93FC930895182E862F612D192E972F8D
:101F1200712D1B2EBF2FF12D1A2EAE2FE12D0895FC
:101F2200119602D0FE2F1197E199FECFFF93FFB7D2
:101F3200F894AEBBBFBBE09AEDB3FFBFFF9108952B
:101F420007D01196EF93EF2F03D0EF9111970895D9
:101F5200E199FECF9FB7F894AEBBBFBBE09A8DB3B9
:101F6200E81719F0EDBBE29AE19A9FBF08950024A9
:101F72000A160B06089510978040904008955A93D0
:101F82004A933A932A931A930A9308955D814C8156
:101F92003B812A8119810881089509911991089537
:00000001FF
