S1234000000000000000090E0100033F0046005008100BB800000000000000AC00001EE027
S1234020000017640000017800000000000000000000000000000000000000000000000088
S123404000000000000000000000000000000000000000000000000000000000000000005C
S123406000000000000000000000000000000000000000000000000000000000000000003C
S123408000000000000000000000000000000000000000000000000000000000000000001C
S12340a00000000000000000000000000000000000000000000000000000000000000000FC
S9030000FC
