:0E0000000C9466000C9400000C9400000C940C
:10000E0000000C9400000C9400000C9400000C9462
:10001E0000000C9400000C9400000C9400000C9452
:10002E0000000C9400000C9400000C9400000C9442
:10003E0000000C94BE0D0C9400000C9400000C9467
:10004E0000000C9400000C9400000C9400000C9422
:10005E0000000C9400000C940000000048007D008D
:10006E00B100D900FE001E013E015A01740190013B
:10007E00AB01C501DE01F6010D0250555555AAAA78
:10008E00AAAA1E003200320007070702030100076A
:10009E007B002000020268000400C40288000400F5
:1000AE00C8028C000100CE0290000200D302920022
:1000BE000200D50294000200AB039E000000F894EB
:1000CE00EE27EFBBF1E0F5BFE5BFF8E1A4B7E4BF63
:1000DE00F0936000E0936000A4BF8DE0A2E0BB2728
:1000EE00ED938A95E9F780E094E0A0E0B1E0ED931E
:1000FE000197E9F7E0EAF0E085919591009761F0BC
:10010E00A591B59105901590BF01F00105900D9246
:10011E000197E1F7FB01F0CFE0E0EEBBE0E0EABDD6
:10012E00E0E0EBBDEFEFEDBFE4E0EEBFC0E0D2E00C
:10013E000C94FF0DF8940E94F80E2498519A599839
:10014E00599A789408950A93F8940E94F80E249878
:10015E00519A59988BE18A95F1F7E3E00E94FC0ED3
:10016E000E94030F599A7894E02F088122960895E1
:10017E00F8940E94F80E2498519A5998E5E00E943E
:10018E00090F0E940E0F599A7894239608950A9398
:10019E00F8940E94F80E2498519A5998E2E00E9421
:1001AE00090F599A7894E02F0881239608950A939F
:1001BE00F8940E94F80E2498519A59980000000065
:1001CE00000000000000000000000000E0EAEA93DA
:1001DE000E9430110E94030F599A7894E02F0991D2
:1001EE000895F8947894F8940E94F80E2498519AF1
:1001FE005998E881E03019F4E1E8E8830BC0A88152
:10020E00A13019F4E2E8E88305C0A881A23011F408
:10021E00E4E8E8830E940E0F599A78942196089587
:10022E00A091A903A03018F00E94120F18F4E0E07C
:10023E00E093A903A091A903B0E0A757BC4FEF81AB
:10024E00EC93ADE8B3E0E091A903F0E0AE0FBF1F71
:10025E00EE81EC93A1E9B3E0E091A903F0E0AE0FDB
:10026E00BF1FED81EC93A5E9B3E0E091A903F0E0A7
:10027E00AE0FBF1FEC81EC93A9E9B3E0E091A903A7
:10028E00F0E0AE0FBF1FEB81EC93ADE9B3E0E09170
:10029E00A903F0E0AE0FBF1FEA81EC93A1EAB3E031
:1002AE00E091A903F0E0AE0FBF1FE981EC93A5EA40
:1002BE00B3E0E091A903F0E0AE0FBF1FE881EC932D
:1002CE00E091A903EF5FE093A9030E94120F18F4C7
:1002DE00E0E0E093A903289608950A930E94A100F6
:1002EE00EEE0EA930E94AA000E2FE02FE07EE038A7
:1002FE0039F0EFE00E94170FE0E8EA930E94BF008A
:10030E008BE18A95F1F7EAE2EA93E3ECEA930E9435
:10031E00CE00E9E2EA93EEEFEA930E94CE00E8E225
:10032E000E941B0F0E94CE00E0E60E941F0FE0E726
:10033E000E941F0F0E94240FE0E20E942A0FE1E2AA
:10034E000E942A0FE0E00E942A0FE1E00E942A0F8D
:10035E00E4E00E942A0FE5E00E942A0FE4E20E94E8
:10036E002A0FE5E20E94170F0E94CE00E8E0EA9302
:10037E00E3E1EA930E94CE00E9E00E942F0FE0E154
:10038E000E94340FE1E10E94340FE4E10E94340F29
:10039E00E5E10E94340FE8E10E94340FE9E10E948A
:1003AE00340FE1E50E94390FE2E50E942F0FE1E4E0
:1003BE000E94390FE2E40E942F0FE1E30E94390FF1
:1003CE00E2E30E942F0FEFE0EA93E7EE0E943E0F6A
:1003DE000E94BF00EBE2EA93E6E0EA930E94CE00B1
:1003EE000E94420FECE00E94340F099108950E9482
:1003FE002312F8940E94DE00E0930703A0910803F5
:10040E00EA2BE0930803E0910703E270E1F010E0BD
:10041E00183080F4E12FF0E0E75FFC4FFF93EF938D
:10042E00E12FEA58EA930E94AA00AF91BF91EC9394
:10043E001F5FEECFECE2EA93E2E00E94480FE1E0AC
:10044E00E093820347C0E0910703E47511F00C942A
:10045E0071022197ECE2EA93ECE10E94480FE091E1
:10046E00A903A091AA03EA17A1F1E0E0E883A8810D
:10047E00A830C8F4E881EA5CEA93E981A9E8B3E020
:10048E00F0E0EE0FFF1FEE0FFF1FAE0FBF1FE0914C
:10049E00AA03F0E0AE0FBF1FEC91EA930E94CE00CC
:1004AE000E944D0FE4CFE5E30E94510F0E94CE0053
:1004BE00E0E0EA930E94FA00E091AA03EF5FE09376
:1004CE00AA03A091AA03E3E0EA1718F4E0E0E09390
:1004DE00AA03219678940E942A12249608950E94C7
:1004EE002112A0910903A130E1F4E0910A03E23058
:1004FE00C1F4E0910B03E330A1F4E0910C03E4307E
:10050E0081F4E0910D03E53061F4E0910E03E630E5
:10051E0041F4E0910F03E73021F4E0911003E8304D
:10052E0009F00FC0E1E0EA93E2E00E941B0FE4E065
:10053E000E943E0FE6E0EA93E7E00E94510F0E9410
:10054E001701A9E0B3E0EC91EF93ADE1B0E00E94AA
:10055E00F611AF91EA1771F4E0910A03EF93ADE152
:10056E00B0E00E94F611AF91EA1721F4E0910B036F
:10057E00ED3E09F0DEC0E0E0E0930603E0910C03EF
:10058E00E093BF02E170B9F0A091DC02A43078F4E0
:10059E00E091DC02EF5FE093DC02A091DC02A4307C
:1005AE0028F0E091BE02E062E093BE0203C0E4E0F8
:1005BE00E093DC0218C0E091DC02E03089F0E150FB
:1005CE00E093DC02A091DC02A03049F4E091BE027F
:1005DE00EF7DE093BE020E94550FE093050303C02A
:1005EE00E0E0E093DC02E091BF02E27021F0E091E6
:1005FE00BE02E06403C0E091BE02EF7BE093BE0258
:10060E00E0910D03EF93E0910E030E945D0FAF9109
:10061E00B0E0EA0FFB1FE093C002F093C102E0913D
:10062E000F03EF93E09110030E945D0FAF91B0E0C6
:10063E00EA0FFB1FE093C202F093C302F091BE02D9
:10064E00E0E0A091BF02B0E0EA0FFB1FE093AB0326
:10065E00F093AC03ADE1B0E00E94F611EA93EAED3F
:10066E00EA93E091B402EA93E091B502EA93E09145
:10067E00B602EA93E091B702EA93E091B802EA93E8
:10068E00E091B902EA930E941701ADE1B0E00E9439
:10069E00F611EA93EBEDEA93E091BC02F091BD0204
:1006AE000E94640FE091BE02EA93E091E602F0919F
:1006BE00E702EA93E091F302EA93E091F402EA93FF
:1006CE000E9417010E94680FE091BF02E07889F046
:1006DE00A4E2B0E00E94F611E03051F4E1E0A4E2B1
:1006EE00B0E00E940A12E0930203E0E0E0930403FC
:1006FE0014C0A091EC02B091ED02E4E1F0E0EA1733
:10070E00FB075CF4A4E2B0E00E94F611E03029F0A1
:10071E00E0E0A4E2B0E00E940A12A5E2B0E00E947E
:10072E00F611E03029F0E0E0A5E2B0E00E940A12F6
:10073E00F3C2A9E0B3E0EC91EF93ADE1B0E00E941B
:10074E00F611AF91EA17B1F4E0910A03EF93ADE120
:10075E00B0E00E94F611AF91EA1761F4E0910B033D
:10076E00EE3E41F4E0910C03EF93E0910D03AF9157
:10077E00EA1709F04DC10E946F0FE0910C03E07F64
:10078E00E03211F00C941304E0910C03EF70E130A1
:10079E0049F4E091AA02F091AB02A5E0B0E00E940C
:1007AE00021235C0E0910C03EF70E23029F4A7E09D
:1007BE00B0E00E94790F2BC0E0910C03EF70E33094
:1007CE0061F4A7E0B0E0BF93AF930E94F2113A96A6
:1007DE00AF91BF910E9402121AC0E0910C03EF700C
:1007EE00E43029F4A7E0B0E00E94800F10C0E09141
:1007FE000C03EF70E53059F4A7E0B0E0BF93AF9370
:10080E000E94F2113A97AF91BF910E940212E7E057
:10081E00F0E00E94870FEEC0E0910C03E07FE03124
:10082E0011F00C946604E0910C03EF70E13069F462
:10083E00E9E0F0E0FF93EF93E091AC02F091AD02AE
:10084E00AF91BF910E94021235C0E0910C03EF7080
:10085E00E23029F4ABE0B0E00E94790F2BC0E091BA
:10086E000C03EF70E33061F4ABE0B0E0BF93AF93F5
:10087E000E94F2113A96AF91BF910E9402121AC0D5
:10088E00E0910C03EF70E43029F4ABE0B0E00E948D
:10089E00800F10C0E0910C03EF70E53059F4ABE01F
:1008AE00B0E0BF93AF930E94F2113A97AF91BF9110
:1008BE000E940212EBE0F0E00E94930F9BC0E091C9
:1008CE000C03E07F11F00C94B804E0910C03EF7070
:1008DE00E13069F4EDE0F0E0FF93EF93E091AE02CA
:1008EE00F091AF02AF91BF910E94021235C0E0911C
:1008FE000C03EF70E23029F4AFE0B0E00E94790F04
:10090E002BC0E0910C03EF70E33061F4AFE0B0E088
:10091E00BF93AF930E94F2113A96AF91BF910E948E
:10092E0002121AC0E0910C03EF70E43029F4AFE02C
:10093E00B0E00E94800F10C0E0910C03EF70E53024
:10094E0059F4AFE0B0E0BF93AF930E94F2113A9723
:10095E00AF91BF910E940212EFE0F0E00E94930F60
:10096E0049C0E0910C03E07FE03311F00C940105D7
:10097E00E0910C03EF70E23029F4A3E1B0E00E94A5
:10098E00790F2BC0E0910C03EF70E33061F4A3E11B
:10099E00B0E0BF93AF930E94F2113A96AF91BF9120
:1009AE000E9402121AC0E0910C03EF70E43029F499
:1009BE00A3E1B0E00E94800F10C0E0910C03EF7035
:1009CE00E53059F4A3E1B0E0BF93AF930E94F2116A
:1009DE003A97AF91BF910E940212E3E1F0E0FA93D1
:1009EE00EA93E0EEF1E0FA93EA93E1EFF1E0FA93A5
:1009FE00EA93D7D10E94680FA5E2B0E00E94F611EB
:100A0E00E03029F0E0E0A5E2B0E00E940A1284C1D5
:100A1E00A0910903AF3F41F4E0910A03EF3F21F4A7
:100A2E00E0910B03E23609F04BC0A5E1B0E00E9465
:100A3E00F211FF93EF93E0910C03EF93E0910D030E
:100A4E000E945D0FAF91B0E0EA0FFB1FAF91BF9117
:100A5E00EA17FB0779F0E0910C03EF93E0910D0399
:100A6E000E945D0FAF91B0E0EA0FFB1FA5E1B0E071
:100A7E000E940212A7E1B0E00E94F211FF93EF93E1
:100A8E00E0910E03EF93E0910F030E945D0FAF9183
:100A9E00B0E0EA0FFB1FAF91BF91EA17FB0779F0A9
:100AAE00E0910E03EF93E0910F030E945D0FAF9163
:100ABE00B0E0EA0FFB1FA7E1B0E00E9402122CC1CA
:100ACE00A0910903AF3F41F4E0910A03EF3F21F4F7
:100ADE00E0910B03E63209F05BC0A9E1B0E00E94A1
:100AEE00F211FF93EF93E0910C03EF93E0910D035E
:100AFE000E945D0FAF91B0E0EA0FFB1FAF91BF9167
:100B0E00EA17FB0779F0E0910C03EF93E0910D03E8
:100B1E000E945D0FAF91B0E0EA0FFB1FA9E1B0E0BC
:100B2E000E940212ABE1B0E00E94F211FF93EF932C
:100B3E00E0910E03EF93E0910E030E945D0FAF91D3
:100B4E00B0E0EA0FFB1FAF91BF91EA17FB0779F0F8
:100B5E00E0910E03EF93E0910F030E945D0FAF91B2
:100B6E00B0E0EA0FFB1FABE1B0E00E940212A3E27D
:100B7E00B0E00E94F611EF93E0911003AF91EA17E7
:100B8E0031F0E0911003A3E2B0E00E940A12C4C05B
:100B9E00A9E0B3E0EC91EF93ADE1B0E00E94F61165
:100BAE00AF91EA1791F4E0910A03EF93ADE1B0E053
:100BBE000E94F611AF91EA1741F4E0910B03E63172
:100BCE0021F4E0910C03E33609F006C00E949F0F5A
:100BDE00EEE1E093CE02A0C0A0910903AF3F61F415
:100BEE00E0910A03EF3F41F4E0910B03E63121F46B
:100BFE00E0910C03E63109F042C0E0910D03E535BA
:100C0E0021F4E0910E03E53509F00AC0E091E60209
:100C1E00F091E7023196E093E602F093E70221C0ED
:100C2E00E0910D03E63621F4E0910E03E63609F06D
:100C3E000AC0E091E602F091E7023197E093E602F6
:100C4E00F093E7020EC0E0910D03E73721F4E09137
:100C5E000E03E73709F005C0E0E0E093E602E0930B
:100C6E00E702E6EEF2E0FA93EA93E7EEFFEFFA938D
:100C7E00EA93E9E1F0E0FA93EA9378D04DC0A9E067
:100C8E00B3E0EC91EF93ADE1B0E00E94F611AF91BD
:100C9E00EA17D1F4E0910A03EF93ADE1B0E00E94C0
:100CAE00F611AF91EA1781F4E0910B03E63161F48E
:100CBE00E0910C03EF93E0910D03AF91EA1721F44D
:100CCE00E0910C03EE3E09F027C00E946F0F409199
:100CDE00D3025091D402E42FF52FA0E2B0E00E948F
:100CEE0002120E94420FA0E2B0E00E94F2114E17D3
:100CFE005F0791F4ADE1B0E00E94F611EA93E1E9ED
:100D0E00EA93EDEDEA930E94640FE0E00E94640F17
:100D1E00E0E0EA930E941701E0E0E09382030E9474
:100D2E00281259C0E0E0E4BDE5E0E5BDE8EFE6BD20
:100D3E00E2E0E0936E000895A881B981E0E2F3E06D
:100D4E00EA17FB0714F4E1E00FC0A881B981E0E5D2
:100D5E00F0E0EA17FB0724F4A837E0E0BE070CF03A
:100D6E0002C0E0E001C0E4E622960895AC81BD81A8
:100D7E000E94E1110E94B90F34F4EA81FB81AC812B
:100D8E00BD81ED93FC93AC81BD810E94E1110E9467
:100D9E00BF0F34F4E881F981AC81BD81ED93FC93F2
:100DAE001AC0AC81BD810E94F2110E94B90F34F4B9
:100DBE00EA81FB81AC81BD810E940212AC81BD81B2
:100DCE000E94F2110E94BF0F34F4E881F981AC81C8
:100DDE00BD810E94021226960895E091E602F091DE
:100DEE00E702A091E802B091E902EA17FB0769F564
:100DFE00A091EA02B091EB02AC33E0E0BE0724F51D
:100E0E00E091EA02F091EB023196E093EA02F09360
:100E1E00EB02A091EA02B091EB02AC33E0E0BE0728
:100E2E009CF0AEE1B0E00E94F211A091E602B0910A
:100E3E00E702EA17FB0741F0E091E602F091E702C4
:100E4E00AEE1B0E00E94021205C0E0E0E093EA02DB
:100E5E00E093EB02A091EA02B091EB02ECE3F0E03A
:100E6E00EA17FB072CF4E0E0E093EA02E093EB02D2
:100E7E00E091E602F091E702E093E802F093E902D6
:100E8E000895A091FB02A03061F4E091FC02E030E5
:100E9E0041F4E091FD02E03021F4E0910003E030F6
:100EAE0009F010C0ECE3E093FB02E093FC02E09348
:100EBE00FD02E0E1FEE0E093FE02F093FF02E1E0CE
:100ECE00E09300030895E0E0E093FB02E093FC0260
:100EDE00E093FD02E0E0E093FE02E093FF02E0E02B
:100EEE00E09300030895209AE091B203E17011F0AF
:100EFE00289A01C02898579AE091AE03E17011F03C
:100F0E005F9A01C05F98E091AE03F091AF036091DC
:100F1E00B0037091B1030E944E11E093AE03F093B3
:100F2E00AF036093B0037093B103E091B203F091FD
:100F3E00B3036091B4037091B5030E944E11E09318
:100F4E00B203F093B3036093B4037093B503A0910F
:100F5E00CE02AF5FA093CE02E0E2EA1718F5E0E012
:100F6E00E093CE02E091C402F091C5026091C602F8
:100F7E007091C702E093AE03F093AF036093B0039A
:100F8E007093B103E091C802F091C9026091CA0258
:100F9E007091CB02E093B203F093B3036093B4036A
:100FAE007093B5030895A091E302A330C1F0E091D0
:100FBE00BE02E87021F0E091B603E87049F0E091CE
:100FCE00BE02E07121F0E091B603E07109F006C0B7
:100FDE00A091CC02AA3A11F40E9448070FC0A0912A
:100FEE00E302A33059F4E091BE02E87021F0E091E3
:100FFE00B603E87009F002C00E944807E091BE02F5
:10100E00E093B603089526971A930A93EEE1E7B993
:10101E00E8B9E7E40E94C50F0E94D00FED830E944D
:10102E00D80F0A83E0E40E94C50F0E94D00FEE8312
:10103E000E94D80FDE0113960C93E5E40E94C50FB3
:10104E000E94D00FEF830E94D80FDE0114960C93EE
:10105E00E4E6ADE1B0E00E940A12AD81A43631F0B3
:10106E00AE81A43619F0AF81A43609F420C0ED810B
:10107E00E03059F4EE81E03011F4E3E001C0E0E03D
:10108E00ADE1B0E00E940A1211C0EE81E03031F401
:10109E00E1E0ADE1B0E00E940A1208C0EF81E0305D
:1010AE0029F4E2E0ADE1B0E00E940A121BC0AD816E
:1010BE00A43631F4AE81A43619F4AF81A43609F00A
:1010CE000CC0EB81EE0FEE0FAA81EA0FEF93EC81CD
:1010DE00E295E07FAF91EA0F01C0E4E6ADE1B0E04A
:1010EE000E940A121981088128960895E091FB0248
:1010FE00E03069F0ABEFB2E00E94F10FE091FB023D
:10110E00E03021F40E949F0F0E94F50F21C0E09164
:10111E00FC02E03069F0ACEFB2E00E94F10FE0911A
:10112E00FC02E03021F40E949F0F0E94F50F10C0C8
:10113E00E091FD02E03061F0ADEFB2E00E94F10F00
:10114E00E091FD02E03021F40E949F0F0E94F50F06
:10115E00E091FE02F091FF02309761F03197E0933B
:10116E00FE02F093FF02309729F4E0E0E0930003D3
:10117E000E944807A091D902B091DA020E9419127A
:10118E0069F4A091D702B091D8020E94191231F4DD
:10119E00A091FA02A03011F45A9B01C010C0A09188
:1011AE000103A43158F4E0910103EF5FE0930103D2
:1011BE00A0910103A43110F00E946A0703C0E0E081
:1011CE00E09301030895A091E302A33021F1A091D1
:1011DE00CD02A13329F4E091BE02E17CE093BE0280
:1011EE00A091CD02AF5FA093CD02A23398F0E2E3BF
:1011FE00E093CD02EAEAE093CC02A5E2B0E00E94D1
:10120E00F611E03039F4E1E0E0930303A5E2B0E03B
:10121E000E940A1203C0EAEAE093CC020895ABE101
:10122E00B0E00E94F211A091BC02B091BD02EA178B
:10123E00FB0754F4E091CF02F091D0023196E09387
:10124E00CF02F093D00210C0ABE1B0E00E94F211D9
:10125E000E94FC0F4CF4E091CF02F091D002319736
:10126E00E093CF02F093D002EFECF2E00E94041074
:10127E00A091CF02B091D002A733E0E0BE0794F068
:10128E00A091E302A03021F4E091BE02E07421F0BF
:10129E00A091E302A33029F4E091BE02E460E09352
:1012AE00BE020EC0A091CF02B091D002E5E0F0E0F8
:1012BE00EA17FB072CF0E091BE02EB7FE093BE0233
:1012CE00A9E1B0E00E94F211A091BC02B091BD0262
:1012DE00EA17FB0754F4E091D102F091D202319655
:1012EE00E093D102F093D20210C0A9E1B0E00E94C7
:1012FE00F2110E94FC0F4CF4E091D102F091D20257
:10130E003197E093D102F093D202E1EDF2E00E9428
:10131E000410A091D102B091D202A733E0E0BE0733
:10132E0094F0A091E302A03021F4E091BE02E074AB
:10133E0021F0A091E302A33029F4E091BE02E26015
:10134E00E093BE020EC0A091D102B091D202E5E0B0
:10135E00F0E0EA17FB072CF0E091BE02ED7FE09380
:10136E00BE020895A091E302A33011F40C94000A7A
:10137E00A5E1B0E00E94F211A091B802B091B902BD
:10138E00EA17FB071CF40E94101005C0E0E0E09382
:10139E00D702E093D8020E941A1014F00E94301067
:1013AE00E091B602F091B702A091B802B091B902E5
:1013BE00AE17BF0778F4EA1BFB0BFF93EF93A7E181
:1013CE00B0E00E94F211AF91BF91EA17FB0714F43F
:1013DE002A9B01C003C00E94361005C0E0E0E093D6
:1013EE00D902E093DA020E94401014F00E945610C7
:1013FE0032C0A091E302A33071F5A091B802B09172
:10140E00B902ECEBF2E0EA17FB0718F40E94101099
:10141E0005C0E0E0E093D702E093D8020E941A10D4
:10142E0014F00E943010A091B802B091B902A83CFD
:10143E00E0E0BE0710F42A9B01C003C00E943610E4
:10144E0005C0E0E0E093D902E093DA020E9440107A
:10145E0014F00E9456100895A091E302A33011F4E7
:10146E000C94EB0A0E94550F0E945C101CF40E9413
:10147E00641082C0A091CC02A53521F4E091BF0288
:10148E00E07809F407C0E5E5F5E565E070E00E9457
:10149E007D1072C00E94550F0E94921034F40E946B
:1014AE00550FEC590E945C100CF007C0E0E0F0E024
:1014BE0060E070E00E947D105FC0A091CC02AA3A5D
:1014CE0039F4E5E5F5E565E575E50E947D1054C056
:1014DE00A091CC02A53521F4E091BE02EE7309F085
:1014EE0007C0E0E0F0E060E070E00E947D1044C0D4
:1014FE000E949A1039F4E1E0F0E061E070E00E94A1
:10150E007D103AC0E091BE02E27019F00E949F1069
:10151E0033C0E091BE02E87019F00E94B8102CC0E2
:10152E00E091BE02E07139F0E9E4F0E069E470E0C8
:10153E000E94D11021C0A091CC02A53521F4E091DA
:10154E00BE02E07209F418C0E0E0F0E060E070E086
:10155E00E093C402F093C5026093C6027093C70273
:10156E00E3E0F0E063E070E0E093C802F093C902BC
:10157E006093CA027093CB02A091E302A130C9F42A
:10158E00E0E0F0E060E070E0E093C402F093C502AA
:10159E006093C6027093C702E3E3F3E363E373E37E
:1015AE00E093C802F093C9026093CA027093CB0213
:1015BE000AC0A091E302A23031F4ECECFCEC6CEC2E
:1015CE007CEC0E94D1104EC0A091E302A33011F02A
:1015DE000C94390B0E94550F0E945C101CF40E9453
:1015EE00641040C00E94550F0E94921034F40E9465
:1015FE00550FEA5B0E945C100CF007C0E0E0F0E0D3
:10160E0060E070E00E947D102DC0E091BE02EE7190
:10161E0039F4E0E0F0E060E070E00E947D1022C05E
:10162E000E949A1039F4E1E0F0E061E070E00E946F
:10163E007D1018C0E091BE02E27019F00E949F105A
:10164E0011C0E091BE02E87019F00E94B8100AC0F5
:10165E00E091BE02E07131F0E9E4F0E069E470E09F
:10166E000E947D100895229AA091E402B091E502A5
:10167E00A639E0E0BE074CF4E091E402F091E502F9
:10168E003196E093E402F093E5020E94550F0E941A
:10169E005C1014F42A9A15C00E94550F0E949210E5
:1016AE0034F40E94550FEA5B0E945C100CF002C0ED
:1016BE002A9807C0F79B02C02A9A03C0F79901C067
:1016CE002A98219AE3EDF2E0FA93EA93E2E0F0E051
:1016DE000E94E610E091D302F091D402E0938800CC
:1016EE00F09389000895A091E302A330B9F4E0913C
:1016FE00BE02EA7041F4E4EFF1E0E093D302F0931E
:10170E00D402F7980AC0E091BE02EA7031F0E0E030
:10171E00E093D302E093D402F79A71C0A091E30252
:10172E00A23039F4E0E0E093D302E093D402F798CC
:10173E0066C0A091E302A13041F4EFEFF3E0E09335
:10174E00D302F093D402F7985AC0A091CC02AA3AD1
:10175E0009F5E091BE02EA7191F4A0E2B0E00E94B8
:10176E00F211E093D302F093D402E3EDF2E0FA9398
:10177E00EA93E0E0F0E00E94E610F7980AC0E091EC
:10178E00BE02EA7131F0E0E0E093D302E093D402BE
:10179E00F79A35C0A091CC02A53589F5E091BE022D
:1017AE00E07219F5E091BE02EA7121F0E091BE02FD
:1017BE00E07481F0E091E602F091E702A091C002A0
:1017CE00B091C102EA0FFB1FE093D302F093D40253
:1017DE00F7980AC0E091BE02EA7131F0E0E0E093C2
:1017EE00D302E093D402F79A0AC0E091BE02E072EF
:1017FE0031F0E0E0E093D302E093D402F79A08953B
:10180E00559A569A5D9A5E9A4D9B0AC0A091E10236
:10181E00AA3028F4E091E102EF5FE093E10209C003
:10182E004D9907C0E091E102E03019F0E150E093EC
:10183E00E1024E9B0AC0A091E202AA3028F4E09188
:10184E00E202EF5FE093E20209C04E9907C0E09119
:10185E00E202E03019F0E150E093E202A091E102E1
:10186E00AA3021F4A091E202AA3009F003C0E0E010
:10187E00E093E302A091E102A03021F4A091E202F4
:10188E00AA3009F003C0E1E0E093E302A091E10287
:10189E00AA3021F4A091E202A03009F003C0E2E0E8
:1018AE00E093E302A091E102A03021F4A091E202C4
:1018BE00A03009F003C0E3E0E093E30208951A9329
:1018CE000A9300917800109179000E94EE10BF9358
:1018DE00AF93EE0FFF1F0E944511AF91BF91AE0F58
:1018EE00BF1FE091B202F0E0EE0FFF1FAE0FBF1F61
:1018FE000D931C93A091B302A230B9F4E091F502BE
:10190E00F091F602E017F1072CF40093F502109314
:10191E00F6020BC0E091F702F091F8020E171F07C6
:10192E0024F40093F7021093F802E091B202E370F0
:10193E0011F00C94E90C21970E94F410AE0FBF1F0A
:10194E00E0E0F0E0ED93FC93E883A881A03150F540
:10195E000E94F410EA0FFB1FFF93EF93DF010E942A
:10196E00E111FF93EF930E94EE10BF93AF93EE0F32
:10197E00FF1F0E944511AF91BF91AE0FBF1FE881AF
:10198E00F0E0EE0FFF1FAE0FBF1F0E94E111AF91EF
:10199E00BF91EA0FFB1FAF91BF91ED93FC930E9495
:1019AE004D0FD3CF0E94F410EA0FFB1FFF93EF935E
:1019BE00DF010E94E1110E945311AF91BF91ED938F
:1019CE00FC932196A091B302AF5FA093B302A43013
:1019DE0060F0E0E0E093B302A091B202AF5FA0939B
:1019EE00B202A03110F0E093B202E7B1E07CE7B9A9
:1019FE00E8B1E07CE8B9E091B302E03021F4E2E432
:101A0E00E0937C0017C0A091B302A13021F4E4E46E
:101A1E00E0937C000FC0A091B302A23021F4E3E466
:101A2E00E0937C0007C0A091B302A33019F4E1E467
:101A3E00E0937C00E6EAE0937A00E0917A00E064BD
:101A4E00E0937A000991199108952497E091AA02E2
:101A5E00F091AB0266277727E883F9836A837B834D
:101A6E00A5E0B0E00E94FC100E94E5110E94371123
:101A7E000E9405112CF4E0E0E883E983EA83EB830E
:101A8E00A7E0B0E00E94FC100E941011E0E2F3E02B
:101A9E0060E070E00E941B11E093B402F093B50277
:101AAE00E091AC02F091AD02662777270E940511F6
:101ABE002CF4E0E0E883E983EA83EB83AFE0B0E067
:101ACE000E94FC100E941011E8EEF3E060E070E05E
:101ADE000E941B11E093B802F093B902E091AE029E
:101AEE00F091AF02662777270E9405112CF4E0E0F3
:101AFE00E883E983EA83EB83ABE0B0E00E94FC105D
:101B0E000E941011E8EEF3E060E070E00E941B11FD
:101B1E00E093B602F093B702E091B002F091B102F9
:101B2E0066277727E883F9836A837B83A3E1B0E096
:101B3E000E94FC100E941011E8EEF3E060E070E0ED
:101B4E000E94C911E883F9836A837B83E151F140D6
:101B5E0060407040E093BC02F093BD02E091BE0283
:101B6E00F0E0E093BA02F093BB02249608950A9235
:101B7E001A92FA926A937A938A939A93AA93BA9341
:101B8E00EA93FA93EFB7EA930E9499060E94FE0138
:101B9E00D394EAE0DE16F0F0DD2493949E1610F056
:101BAE009924F39AC394E3E0CE1610F0CC24F29A63
:101BBE00A394E4E1AE1640F0AA24F49AE894F69BBE
:101BCE006894EEB3E6F9EEBBB394E4E6BE1610F0FD
:101BDE00BB24F59AE991EFBFF991E991B991A991D9
:101BEE009991899179916991F99019900990189527
:101BFE00529A5A9A209A28982A9A229AE4B1E6631F
:101C0E00E4B9E3E8E0938000E9E0E0938100E0E0EE
:101C1E00E0938500E0938400E0938900E0938800D0
:101C2E00E0938B00E0938A00EDE5ECBDE0E0EDBDC6
:101C3E000E94420F0E94420F0E94420F0E94420FCA
:101C4E000E94420F0E940A08ADE1B0E00E94F61118
:101C5E00E43621F40E940A080E94420FADE1B0E082
:101C6E000E94F611E43621F40E940A080E94420FE7
:101C7E000E9499060E94680FE0E0E093E402E09370
:101C8E00E502AEE1B0E00E94F211E093E602F093BD
:101C9E00E702A091E602B091E702E9E1F0E0EA176F
:101CAE00FB0724F0A73EEFEFBE072CF4E0E0E09335
:101CBE00E602E093E702A3E2B0E00E94F611AE2F37
:101CCE00A03040F0A3E2B0E00E94F611AE2FE3E0A8
:101CDE00EA1728F4E3E0A3E2B0E00E940A12789437
:101CEE00E7E0F0E00E94870FEBE0F0E00E94930F38
:101CFE00EFE0F0E00E94930F529A5A980E94420F22
:101D0E005A9A0E947401E0918203E03029F0E0E0DB
:101D1E00E09382030E947602F29B03C0F2980E9427
:101D2E00660CF39B0DC0F3980E942C0D0E947A074F
:101D3E000E94EA080E947A0B0E94070C0E94DA07A2
:101D4E00F49B05C0F4980E943A0B0E94330AF59B4F
:101D5E0035C0F5980E9416090E94B9090E94F40632
:101D6E00A091EC02B091ED02A83EE3E0BE074CF468
:101D7E00E091EC02F091ED023196E093EC02F093DB
:101D8E00ED02A091CC02AA3A21F0A091E302A33079
:101D9E0011F40E947D08E0910603EF5FE0930603C5
:101DAE00A0910603AA3050F0E0E0E0930603529AA9
:101DBE005A980E94420F5A9A0E947401A895A3CF76
:101DCE00FFCFE091C000E7FFFCCFE091C600089581
:101DDE00E091C000E5FFFCCFE881E093C6002196BC
:101DEE000895E4B1EC62E4B90895EA930E943011CB
:101DFE00E981EA930C943011E5E5EA930E943011E3
:101E0E000E2F0895EA930E943011EA81EECFE881F9
:101E1E00EA930C943011A091A903E3E0EA17089518
:101E2E00EA93E0EEEA930895EA93E3E0EA930895E5
:101E3E00EA93E0E2EA930C94CE00EAE0F0E0FA9343
:101E4E00EA930C942411EA93EFEFEA930C94CE00EC
:101E5E00EA93E0ECEA930C94CE00EA93E0E0EA9386
:101E6E000C94CE00EA93E1E3EA930C94CE00EA934D
:101E7E00E5E0EA930895E4E6F0E0FA93EA930C9431
:101E8E002411EA93E0E0EA930C94BF00E881EF5F3F
:101E9E00E8830895EA93E8E0EA930895A3E2B0E0B8
:101EAE000E94F611A5E0EA9FE02D0895DF01B0E053
:101EBE00E0E0F1E00E9463110895EA93E0E0EA9316
:101ECE000895E0E0E093CD02E5E5E093CC020895BD
:101EDE00E091AB03F091AC033196E093AB03F0933A
:101EEE00AC0308950E94F21131960E9402123197AE
:101EFE0008950E94F21131970E94021231960895B0
:101F0E00FA93EA93E4EAF1E0FA93EA93ECE4F4E06C
:101F1E00FA93EA930C94D806FA93EA93E0E5F5E087
:101F2E00FA93EA93E4EAF6E0FA93EA930C94D8066D
:101F3E00E091BE02E17EE093BE02E0E0E093CF02CC
:101F4E00E093D002E0E0E093D102E093D202E0E031
:101F5E00E093D702E093D802E0E0E093D902E09359
:101F6E00DA020895DF01EA81FB81AE17BF070895FB
:101F7E00DF01E881F981EA17FB070895E0937C0001
:101F8E00E6EAE0937A00E0917A00E064E0937A006A
:101F9E0054CFE0917800F0917900FA93EA930C9483
:101FAE00A306E0917800F0917900DF01E8ECF0E013
:101FBE000E9490110E2F1F2FE0E1F0E0FA93EA93AA
:101FCE00E0E0F0E0FA93EA93E3E0F0E0FA93EA93CC
:101FDE000C94BD06EC91E150EC930895E0E0E09393
:101FEE00FA02EEE1E093CE0208953197A091BC0281
:101FFE00B091BD02AE17BF070895FA93EA93E0E0E1
:10200E00F0E0FA93EA93ECE3F0E0FA93EA930C949F
:10201E00BD06E091D702F091D8023196E093D70237
:10202E00F093D8020895E7EDF2E0FA93EA93E0E038
:10203E00F0E0FA93EA93EAE0F0E0FA93EA930E9472
:10204E00BD06A091D702B091D802AA30E0E0BE073B
:10205E000895E091BE02E860E093BE020895E0911B
:10206E00D902F091DA023196E093D902F093DA02B6
:10207E000895E9EDF2E0FA93EA93E0E0F0E0FA93E6
:10208E00EA93EAE0F0E0FA93EA930E94BD06A0918B
:10209E00D902B091DA02AA30E0E0BE070895E091CD
:1020AE00BE02E061E093BE020895A091E402B091F9
:1020BE00E502F0E0AE17BF070895E0E0F0E060E063
:1020CE0070E0E093C402F093C5026093C602709371
:1020DE00C702E3E0F3E063E073E0E093C802F0933D
:1020EE00C9026093CA027093CB020895E093C402B2
:1020FE00F093C5026093C6027093C702EFEFFFEF35
:10210E006FEF7FEFE093C802F093C9026093CA02AB
:10211E007093CB020895A091E402B091E502F0E035
:10212E00EA17FB070895E091BE02EE73E4300895BE
:10213E00E1E0F0E061E070E0E093C402F093C502EC
:10214E006093C6027093C702E0E0F0E060E070E0DA
:10215E00E093C802F093C9026093CA027093CB0257
:10216E000895E9E0F0E069E070E0E093C402F093D6
:10217E00C5026093C6027093C702E0E0F0E060E033
:10218E0070E0E093C802F093C9026093CA027093A4
:10219E00CB020895E093C402F093C5026093C60289
:1021AE007093C702E0E0F0E060E070E0E093C802F8
:1021BE00F093C9026093CA027093CB020895FA930A
:1021CE00EA93ECEFF3E0FA93EA930C94BD06E091F8
:1021DE00B302AAE2B2E0F0E00895E091B302AAEAF7
:1021EE00B2E0F0E0EE0FFF1F08950E94F211A881F9
:1021FE00B9818A819B810E945C110895E883F983DD
:10220E006A837B83A881B9818A819B810E941D127A
:10221E0008950E948B11E883F9836A837B83A881DA
:10222E00B9818A819B8108950E94C911E883F9833F
:10223E006A837B83E881F9810895E991F99130965B
:10224E0039F080ED97E00197F1F7A8953197C9F72E
:10225E000895E991EEBDEDB5E7FFFDCFEEB508951A
:10226E00EA1BFB0B680B790B0895E095F0956095D2
:10227E007095EF5FFF4F6F4F7F4F0895EE0FFF1F6B
:10228E00EE0FFF1FEE0FFF1FEE0FFF1F0895759548
:10229E006795F795E7950895F695E795F695E79581
:1022AE00F695E795F695E795089560E070E0F7FFEF
:1022BE0008956FEF7FEF0895FA9FF02DEB9FF00DCD
:1022CE00EA9FE02DF10D08957A9F702D6B9F700D92
:1022DE00F89F700DE99F700D6A9F602D710DFB9F29
:1022EE00600D711DE89F600D711D8827FA9FF02DFE
:1022FE00610D781FEB9FF00D611D781FEA9FE02D99
:10230E00F10D681F781F089542D0DEDF0EF4ADDFA9
:10231E0008950024112490E1AA0FBB1F001C111C6C
:10232E000E1A1F0A18F40E0E1F1E01C0A1609A95F8
:10233E0099F7FD01D00108953F934F935F930024C9
:10234E0011243327442750E2AA0FBB1F881F991F61
:10235E00001C111C331F441F0E1A1F0A360B470B8D
:10236E0028F40E0E1F1E361F471F01C0A1605A957E
:10237E0059F7FD01BC01D001832F942F5F914F912E
:10238E003F91089504D0D8DF0EF46FDF0895E894DE
:10239E0077FF02C06ADF689497FF0BC00024A095F8
:1023AE00B095809590951196801D901D00F8039420
:1023BE0000FA0895ED91FC9111970895182E862F2D
:1023CE00612D192E972F712D1B2EBF2FF12D1A2E29
:1023DE00AE2FE12D0895119602D0FE2F1197F99987
:1023EE00FECFFF93FFB7F894A1BDB2BDF89AE0B54A
:1023FE00FFBFFF91089507D01196EF93EF2F03D0F3
:10240E00EF9111970895F999FECF9FB7F894A1BD5A
:10241E00B2BDF89A80B5E81719F0E0BDFA9AF99AAC
:10242E009FBF089500240A160B060895109780404A
:10243E00904008955A934A933A932A931A930A9383
:10244E0008955D814C813B812A811981088108950F
:00000001FF
