:0E00000044C0FECFFDCFFCCFFBCFFACFF9CF2F
:10000E00F8CFF7CF9DCAF5CFF4CFF3CFF2CFF1CF24
:10001E00F0CFEFCFEECFEDCF000048007D00B10066
:10002E00D900FE001E013E015A0174019001AB0180
:10003E00C501DE01F6010D0250555555AAAAAAAA10
:10004E001E003200320007070702030100077B0083
:10005E002000600126000400210246000400250253
:10006E004A0001002B024E00020030025000020036
:10007E0032025200020000035C000000F894EE27EA
:10008E00ECBBF1E0FBBFEBBFE5BFF8E1F1BDE1BDBD
:10009E008DE0A2E0BB27ED938A95E9F780E094E02E
:1000AE00A0E6ED930197E9F7EEE5F0E085919591E5
:1000BE00009761F0A591B59105901590BF01F001E3
:1000CE0005900D920197E1F7FB01F0CFEFE5EDBF43
:1000DE00E4E0EEBFC0E6D1E072CAF8940DDBBC9846
:1000EE00899A9198919A789408950A93F89404DBDA
:1000FE00BC98899A91988BE18A95F1F701DB03DB25
:10010E0006DB919A7894E02F088122960895F89450
:10011E00F3DABC98899A9198FFDA01DB04DB919AA5
:10012E007894239608950A93F894E6DABC98899AFF
:10013E009198FCDAF4DA919A7894E02F088123965C
:10014E0008950A93F894D8DABC98899A9198000089
:10015E000000000000000000000000000000E0EAC7
:10016E00EA9312DED4DA919A7894E02F09910895E9
:10017E00F8947894F894C0DABC98899A9198E881AA
:10018E00E03019F4E1E8E8830BC0A881A13019F43E
:10019E00E2E8E88305C0A881A23011F4E4E8E88320
:1001AE00C2DA919A789421960895A091FE02A03019
:1001BE0010F0BFDA08F4C2DAA091FE02B0E0A2524B
:1001CE00BD4FEF81EC93A2EEB2E0BCDAAE0FBF1FD3
:1001DE00EE81EC93A6EEB2E0B5DAAE0FBF1FED8165
:1001EE00EC93AAEEB2E0AEDAAE0FBF1FEC81EC9349
:1001FE00AEEEB2E0A7DAAE0FBF1FEB81EC93A2EF2B
:10020E00B2E0A0DAAE0FBF1FEA81EC93A6EFB2E028
:10021E0099DAAE0FBF1FE981EC93AAEFB2E092DA42
:10022E0095DAEC93E091FE02EF5FE093FE0281DA45
:10023E0008F484DA289608950A934FDFEEE08ADAFE
:10024E000E2FE02FE07EE03821F086DA88DAE0E843
:10025E0089DA8BE18A95F1F7EAE286DAE9E2EA9346
:10026E00EBEF86DAE8E286DA5EDFE0E685DAE0E7F3
:10027E0083DA85DAE0E288DAE1E286DAE0E084DA4F
:10028E00E1E082DAE4E080DA47DAEFEF71DAE4E215
:10029E007BDAE5E2EA9363DA46DF79DAE3E168DAFC
:1002AE00E9E062DAE0E176DAE1E174DAE4E172DA09
:1002BE00E5E170DAE8E16EDAE9E16CDAE1E56DDAF2
:1002CE00E2E552DAE1E469DAE2E44EDAE1E365DA34
:1002DE00E2E34ADA41DAE7EE63DA19DFEBE2EA93B8
:1002EE00E6E046DA5FDAECE055DA0991089541DE90
:1002FE00F89427DFE0936002A0916102EA2BE0936D
:10030E006102E0916002E270B9F010E0183070F412
:10031E00E12FF0E0EE59FD4FFF93EF93E12FEA58F6
:10032E0019DAAF91BF91EC931F5FF0CFECE222DAB6
:10033E003EDA689434F83BC0E0916002E475B9F59A
:10034E002197ECE2EA93ECE1EA9331DAE091FE02D6
:10035E00A091FF02EA1751F12CDAA881A830A0F47F
:10036E00E881EA5CEA93E981AEEDB2E025DAEE0FC0
:10037E00FF1FAE0FBF1FE091FF02F0E0AE0FBF1FD9
:10038E00EC91F6D91DDAE9CFE5E3EA93E8E0F0D98E
:10039E001BDAF0DEE091FF02EF5FE093FF02A09127
:1003AE00FF0215DA18F4E0E0E093FF02219678944C
:1003BE00E7DD24960895DBDDA0916202A130E1F421
:1003CE00E0916302E230C1F4E0916402E330A1F403
:1003DE00E0916502E43081F4E0916602E53061F46B
:1003EE00E0916702E63041F4E0916802E73021F4D3
:1003FE00E0916902E83009F00BC0E1E0BBD980D989
:10040E00E4E0CED9E6E0EA93E7E0EA93C0D9CDDEA8
:10041E00E1D9EF93ADE1B0E07FDDAF91EA1769F47A
:10042E00E0916302EF93ADE1B0E076DDAF91EA17B4
:10043E0021F4E0916402ED3E09F0ACC0E09165025A
:10044E00E0931C02E17099F0C9D968F4E091390289
:10045E00EF5FE0933902C2D928F0E0911B02E0620F
:10046E00E0931B0203C0E4E0E093390217C0E09171
:10047E003902E03081F0E150E0933902A091390267
:10048E00A03041F4E0911B02EF7DE0931B02AAD94C
:10049E00E0935F0203C0E0E0E0933902E0911C02BA
:1004AE00E27021F0E0911B02E06403C0E0911B02B8
:1004BE00EF7BE0931B02E0916602EF93E0916702FF
:1004CE0098D9AF919CD9E0931D02F0931E02E09152
:1004DE006802EF93E09169028CD9AF9190D9E093C5
:1004EE001F02F0932002F0911B02E0E0A0911C028B
:1004FE0086D9E0930003F093010385D9EAEDEA93E0
:10050E00E0911102EA93E0911202EA93E091130254
:10051E00EA93E0911402EA93E0911502EA93E091D6
:10052E00160276D970D9EBEDEA93E0911902F091AB
:10053E001A0270D9E0911B02EA93E0914302F09106
:10054E004402EA93E0915002EA93E091510260D99D
:10055E0063D969D961F06BD949F4E1E0A4E2B0E066
:10056E00EFDC689431F8E0E0E0935E020FC0A091FA
:10057E004902B0914A02E4E1F0E0EA17FB0734F4D5
:10058E0056D921F0E0E0A4E2B0E0DADC55D909F06A
:10059E0058D960C21FD9EF93ADE1B0E0BDDCAF9189
:1005AE00EA17A9F4E0916302EF93ADE1B0E0B4DC99
:1005BE00AF91EA1761F4E0916402EE3E41F4E091EE
:1005CE006502EF93E0916602AF91EA1709F000C160
:1005DE003DD9E0916502E07FE032C9F5E091650218
:1005EE003FD941F4E0910702F0910802A5E0B0E096
:1005FE009FDC29C0E091650236D921F4A7E0B0E076
:10060E0035D921C0E091650236D949F4A7E0B0E0B2
:10061E00BF93AF9333D9AF91BF918ADC14C0E091F1
:10062E0065022FD921F4A7E0B0E02ED90CC0E091DD
:10063E0065022FD941F4A7E0B0E0BF93AF932CD958
:10064E00AF91BF9175DCE7E0F0E029D9BCC0E09135
:10065E006502E07FE031E9F5E091650201D961F4D0
:10066E00E9E0F0E0FF93EF93E0910902F0910A02C6
:10067E00AF91BF915DDC29C0E0916502F4D821F401
:10068E00ABE0B0E0F3D821C0E0916502F4D849F4B4
:10069E00ABE0B0E0BF93AF93F1D8AF91BF9148DC20
:1006AE0014C0E0916502EDD821F4ABE0B0E0ECD8D7
:1006BE000CC0E0916502EDD841F4ABE0B0E0BF9321
:1006CE00AF93EAD8AF91BF9133DCEBE0F0E0F2D814
:1006DE007AC0E0916502E07FE9F5E0916502C0D84D
:1006EE0061F4EDE0F0E0FF93EF93E0910B02F091F7
:1006FE000C02AF91BF911CDC29C0E0916502B3D80A
:10070E0021F4AFE0B0E0B2D821C0E0916502B3D8D9
:10071E0049F4AFE0B0E0BF93AF93B0D8AF91BF91C3
:10072E0007DC14C0E0916502ACD821F4AFE0B0E074
:10073E00ABD80CC0E0916502ACD841F4AFE0B0E0AC
:10074E00BF93AF93A9D8AF91BF91F2DBEFE0F0E08A
:10075E00B1D839C0E0916502E07FE033A1F5E091B8
:10076E00650281D821F4A3E1B0E080D821C0E091E8
:10077E00650281D849F4A3E1B0E0BF93AF937ED870
:10078E00AF91BF91D5DB14C0E09165027AD821F408
:10079E00A3E1B0E079D80CC0E09165027AD841F4BB
:1007AE00A3E1B0E0BF93AF9377D8AF91BF91C0DB19
:1007BE00E3E1F0E0FA93EA93E0EEF1E0FA93EA93E4
:1007CE00E1EFF1E082D828D837D809F03AD842C103
:1007DE007FD841F4E0916302EF3F21F4E09164028F
:1007EE00E23609F03BC0A5E1B0E092DBFF93EF9358
:1007FE00E0916502EF93E0916602FBD7AF91FFD7D0
:10080E00AF91BF91EA17FB0759F0E0916502EF93A4
:10081E00E0916602EED7AF91F2D7A5E1B0E088DBAA
:10082E00A7E1B0E075DBFF93EF93E0916702EF93E2
:10083E00E0916802DED7AF91E2D7AF91BF91EA1790
:10084E00FB0759F0E0916702EF93E0916802D1D770
:10085E00AF91D5D7A7E1B0E06BDBFCC039D841F43E
:10086E00E0916302EF3F21F4E0916402E63209F079
:10087E0049C0A9E1B0E04CDBFF93EF93E091650234
:10088E00EF93E0916602B5D7AF91B9D7AF91BF9113
:10089E00EA17FB0759F0E0916502EF93E0916602CB
:1008AE00A8D7AF91ACD7A9E1B0E042DBABE1B0E0A5
:1008BE002FDBFF93EF93E0916702EF93E0916702D6
:1008CE0098D7AF919CD7AF91BF91EA17FB0759F01C
:1008DE00E0916702EF93E09168028BD7AF918FD7CB
:1008EE00ABE1B0E025DBA3E2B0E016DBEF93E091E5
:1008FE006902AF91EA1729F0E0916902A3E2B0E034
:10090E001FDBA8C067D7EF93ADE1B0E005DBAF9179
:10091E00EA1789F4E0916302EF93ADE1B0E0FCDAFF
:10092E00AF91EA1741F4E0916402E63121F4E091CF
:10093E006502E33609F003C0CFD7E8D78BC0C8D71E
:10094E0061F4E0916302EF3F41F4E0916402E6311D
:10095E0021F4E0916502E63109F040C0E0916602B3
:10096E00E53521F4E0916702E53509F00AC0E09122
:10097E004302F09144023196E0934302F093440215
:10098E0021C0E0916602E63621F4E0916702E63678
:10099E0009F00AC0E0914302F09144023197E093CE
:1009AE004302F09344020EC0E0916602E73721F451
:1009BE00E0916702E73709F005C0E0E0E0934302FB
:1009CE00E0934402E3E4F2E0FA93EA93E7EEFFEFFA
:1009DE00FA93EA93E9E1F0E09DD73CC0FBD6EF93A2
:1009EE00ADE1B0E099DAAF91EA17C9F4E091630294
:1009FE00EF93ADE1B0E090DAAF91EA1781F4E091B8
:100A0E006402E63161F4E0916502EF93E0916602D3
:100A1E00AF91EA1721F4E0916502EE3E09F01AC09B
:100A2E0015D74091300250913102E42FF52FA0E2FC
:100A3E00B0E07EDAB7D6A0E2B0E06ADA4E175F0712
:100A4E0049F4E1D6E1E969D768D7E4D6BDD6BCD67C
:100A5E00BBD6ABDBE89434F891DA37C0E5E0E3BF00
:100A6E00E8EFE2BFE9B7E160E9BF0895A881B98177
:100A7E00E0E2F3E0EA17FB0714F4E1E00FC0A8810F
:100A8E00B981E0E5F0E0EA17FB0724F4A837E0E0CF
:100A9E00BE070CF002C0E0E001C0E4E62296089525
:100AAE003FD742D714F446D723DA3AD748D714F4AF
:100ABE004CD71EDA0AC04ED737D714F43BD738DAE4
:100ACE0049D73DD714F441D733DA26960895E091ED
:100ADE004302F0914402A0914502B0914602EA17FA
:100AEE00FB07F9F43BD7E4F4E0914702F09148029A
:100AFE003196E0934702F093480230D78CF0AEE186
:100B0E00B0E006DAA0914302B0914402EA17FB0767
:100B1E0039F0E0914302F0914402AEE1B0E008DA20
:100B2E0005C0E0E0E0934702E0934802A09147023F
:100B3E00B0914802ECE3F0E0EA17FB072CF4E0E09A
:100B4E00E0934702E0934802E0914302F0914402A1
:100B5E00E0934502F09346020895A0915802A0300A
:100B6E0051F4E0915902E03031F4E0915A02E03054
:100B7E0011F430FE01C00FC0ECE3E0935802E09395
:100B8E005902E0935A02E0E1FEE0E0935B02F0933B
:100B9E005C02689430F80895E0E0E0935802E09328
:100BAE005902E0935A02E0E0E0935B02E0935C02AC
:100BBE00E89430F80895B89AE0910703E17011F0C7
:100BCE00C09A01C0C0988F9AE0910303E17011F0B2
:100BDE00979A01C09798E0910303F09104036091F6
:100BEE00050370910603EDD8E0930303F09304031D
:100BFE006093050370930603E0910703F0910803D9
:100C0E006091090370910A03DCD8E0930703F09317
:100C1E0008036093090370930A03A0912B02AF5F40
:100C2E00A0932B02E0E2EA1718F5E0E0E0932B0226
:100C3E00E0912102F0912202609123027091240230
:100C4E00E0930303F093040360930503709306038C
:100C5E00E0912502F0912602609127027091280200
:100C6E00E0930703F09308036093090370930A035C
:100C7E0008957CD679F07ED611F080D639F082D6E2
:100C8E0021F0E0910B03E07109F003C07FD609F467
:100C9E0064DF08C06BD631F46DD611F06FD609F053
:100CAE0001C05BDFE0911B02E0930B0308952697D2
:100CBE0062D9EEE1E4BBE5BBE7E46CD6369A5FD5CC
:100CCE006DD6ED8370D60A83E0E464D6369A57D596
:100CDE0065D6EE8368D6DE0113960C93E5E45AD6FC
:100CEE00369A4DD55BD6EF835ED6DE0114960C9305
:100CFE00E4E6ADE1B0E024D969D621F06AD611F070
:100D0E006BD609F41BC0ED81E03049F468D611F4BE
:100D1E00E3E001C0E0E0ADE1B0E012D90EC05FD675
:100D2E0029F4E1E0ADE1B0E00BD907C0EF81E0308E
:100D3E0021F4E2E0ADE1B0E003D917C047D621F4CB
:100D4E0048D611F449D609F00CC0EB81EE0FEE0F28
:100D5E00AA81EA0FEF93EC81E295E07FAF91EA0F63
:100D6E0001C0E4E6ADE1B0E0EBD80CD928960895C9
:100D7E0039D641F0A8E5B2E039D634D611F4ACD567
:100D8E0039D61BC0E0915902E03051F0A9E5B2E02E
:100D9E002DD6E0915902E03011F49ED52BD60DC020
:100DAE00E0915A02E03049F0AAE5B2E01FD6E09198
:100DBE005A02E03011F490D51DD620D671F0E09194
:100DCE005B02F0915C023197E0935B02F0935C0260
:100DDE0015D619F4E89430F8C0DEA0913602B09121
:100DEE003702BDD861F4A0913402B0913502B7D864
:100DFE0031F4A0915702A03011F4929B01C00BC0A8
:100E0E0003D640F4E0915D02EF5FE0935D02FCD506
:100E1E0008F0C2DE03C0E0E0E0935D020895A6D5BF
:100E2E00E9F0A0912A02A13329F4E0911B02E17CA2
:100E3E00E0931B02A0912A02AF5FA0932A02A23375
:100E4E0060F0E2E3E0932A02E3D5F6D431F468943D
:100E5E0032F8E1E0A5E2B0E073D801C0D9D508952B
:100E6E00ABE1B0E055D8D8D554F4E0912C02F09116
:100E7E002D023196E0932C02F0932D020EC0ABE1C1
:100E8E00B0E046D8D0D54CF4E0912C02F0912D0272
:100E9E003197E0932C02F0932D02ECE2F2E0CBD5E9
:100EAE00A0912C02B0912D02A733E0E0BE0764F0B2
:100EBE00CBD511F4CDD511F059D529F4E0911B0203
:100ECE00E460E0931B020BC0A0912C02B0912D02A6
:100EDE00C3D52CF0E0911B02EB7FE0931B02A9E13E
:100EEE00B0E016D899D554F4E0912E02F0912F026D
:100EFE003196E0932E02F0932F020EC0A9E1B0E0DE
:100F0E0007D891D54CF4E0912E02F0912F02319733
:100F1E00E0932E02F0932F02EEE2F2E08CD5A09138
:100F2E002E02B0912F02A733E0E0BE0764F08CD5FD
:100F3E0011F48ED511F01AD529F4E0911B02E2605E
:100F4E00E0931B020BC0A0912E02B0912F0284D50C
:100F5E002CF0E0911B02ED7FE0931B02089506D565
:100F6E0009F43BC0A5E1B0E0D3D7A0911502B09132
:100F7E001602EA17FB0714F474D505C0E0E0E093FF
:100F8E003402E093350277D581D50CF087D5E09108
:100F9E001302F0911402A0911502B0911602AE1731
:100FAE00BF0770F4EA1BFB0BFF93EF93A7E1B0E0D2
:100FBE00AFD7AF91BF91EA17FB0714F4C29B01C0E4
:100FCE0002C072D505C0E0E0E0933602E09337022E
:100FDE0075D57FD50CF085D52CC0C8D451F5A09110
:100FEE001502B0911602ECEBF2E0EA17FB0710F4D3
:100FFE0038D505C0E0E0E0933402E09335023BD5EE
:10100E0045D50CF04BD5A0911502B0911602A03922
:10101E00E1E0BE0710F4C29B01C002C045D505C079
:10102E00E0E0E0933602E093370248D552D50CF05B
:10103E0058D508959BD409F471C0D4D358D5AE17A2
:10104E00BF071CF45AD566D551C071D511F4EBD338
:10105E0009F406C0E5E5F5E565E070E06CD546C03F
:10106E00C1D345D5EA17FB0734F4BCD3EC593FD5B1
:10107E00AE17BF070CF003C040D572D537C086D46B
:10108E0031F4E5E5F5E565E575E555D52FC04FD5A8
:10109E0011F473D509F003C030D562D527C06DD5D4
:1010AE00E43011F46ED522C071D511F073D51EC087
:1010BE0061D411F088D51AC065D431F0E9E4F0E0BE
:1010CE0069E470E099D512C032D511F4AAD509F4AD
:1010DE000DC013D5E3E0F0E063E070E0E09325028D
:1010EE00F093260260932702709328029ED571F426
:1010FE0004D5E3E3F3E363E373E3E0932502F093B4
:10110E002602609327027093280207C092D529F415
:10111E00ECECFCEC6CEC7CEC6FD533C027D489F591
:10112E0061D3E5D4AE17BF071CF4E7D4F3D429C0BE
:10113E0059D3DDD4EA17FB072CF454D37ED5AE1762
:10114E00BF070CF003C0D9D40BD51BC0E0911B0216
:10115E00EE7119F4D2D404D514C00FD5E43011F4C5
:10116E0010D50FC013D511F015D50BC003D411F047
:10117E002AD507C007D429F0E9E4F0E069E470E06D
:10118E00DAD40895BA9AA0914102B0914202A639DA
:10119E00E0E0BE074CF4E0914102F091420231963C
:1011AE00E0934102F09342021DD3A1D4AE17BF07C4
:1011BE0014F4C29A14C016D39AD4EA17FB072CF46F
:1011CE0011D33BD5AE17BF070CF002C0C29807C0B3
:1011DE0027FE02C0C29A03C027FC01C0C298B99A6A
:1011EE002ED5E2E0F0E030D5E0913002F091310200
:1011FE00FBBDEABD0895BAD351F42BD519F42DD504
:10120E0027F804C026D511F034D527F848C011D5DB
:10121E0041F4E0E0E0933002E093310236D527F856
:10122E003EC003D519F419D527F839C0AFD3A9F4A8
:10123E0034D571F4A0E2B0E06BD6E0933002F093B7
:10124E003102FDD4E0E0F0E0FFD41FD527F804C052
:10125E0024D511F00ED527F822C069D401F5E1D4BA
:10126E00D1F41BD511F0F4D389F0E0914302F09143
:10127E004402A0911D02B0911E02EA0FFB1FE093E3
:10128E003002F093310201D527F804C006D511F0D3
:10129E00F0D427F804C0C5D411F0EBD427F8089584
:1012AE008D9A8E9A959A969A859B08C0FAD428F4B0
:1012BE00E0913E02EF5FE0933E0209C0859907C0C0
:1012CE00E0913E02E03019F0E150E0933E02869B41
:1012DE0008C0EBD428F4E0913F02EF5FE0933F02A9
:1012EE0009C0869907C0E0913F02E03019F0E15045
:1012FE00E0933F02D6D411F4D8D409F003C0E0E055
:10130E00E0934002D6D411F4D0D409F003C0E1E04A
:10131E00E0934002C6D411F4D0D409F003C0E2E049
:10132E00E0934002C6D411F4C8D409F003C0E3E040
:10133E00E093400208951FD604B115B1C2D4BF93F5
:10134E00AF93C5D4AF91BF91AE0FBF1FE0910F0207
:10135E0033D2AE0FBF1F0D931C93BDD4B9F4E091E1
:10136E005202F0915302E017F1072CF4009352024F
:10137E00109353020BC0E0915402F09155020E17D8
:10138E001F0724F40093540210935502E0910F02AC
:10139E00E37091F52197A3D4AE0FBF1FE0E0F0E00C
:1013AE00A7D507D2A881A031E0F499D4EA0FFB1F8C
:1013BE00FF93EF9399D4FF93EF9383D4BF93AF939F
:1013CE0086D4AF91BF91C2D1F7D1AE0FBF1F8CD5CE
:1013DE00AF91BF91EA0FFB1FAF91BF9189D5F0D1AD
:1013EE00E1CF7DD4EA0FFB1FFF93EF937DD4EED4B4
:1013FE00AF91BF917DD52196A0911002AF5FA093C2
:10140E001002A43060F0E0E0E0931002A0910F0211
:10141E00AF5FA0930F02A03110F0E0930F02E4B380
:10142E00E07CE4BBE5B3E07CE5BBE0911002E0308C
:10143E0019F4E2E4E7B912C0A0911002A13019F438
:10144E00E4E4E7B90BC047D419F4E3E4E7B906C006
:10145E00A0911002A33011F4E1E4E7B9E6EAE6B98F
:10146E00369A93D508952497E0910702F0910802D9
:10147E003ED4A5E0B0E042D43ED58CD446D473D54C
:10148E002CF4E0E0E883E983EA83EB83A7E0B0E0A5
:10149E0035D444D4E0EBF4E060E070E041D4E09366
:1014AE001102F0931202E0910902F0910A021FD488
:1014BE003FD42CF4E0E0E883E983EA83EB83AFE0EA
:1014CE00B0E01CD42BD43AD4E0931502F09316025C
:1014DE00E0910B02F0910C020AD42AD42CF4E0E035
:1014EE00E883E983EA83EB83ABE0B0E007D416D45C
:1014FE0025D4E0931302F0931402E0910D02F091C3
:10150E000E02F5D3A3E1B0E0F9D308D4E8EEF3E090
:10151E0060E070E0D1D4E883F9836A837B83E15184
:10152E00F14060407040E0931902F0931A02E0918E
:10153E001B02F0E0E0931702F09318022496089530
:10154E000A921A92FA926A937A938A939A93AA9328
:10155E00BA93EA93FA93EFB7EA9380DAC8D6A394D4
:10156E00EAE0AE16F0F0AA2463946E1618F0662424
:10157E00689423F89394E3E09E1618F099246894E7
:10158E0022F87394E4E17E1628F07724689424F808
:10159E00E0E42E268394E4E68E1618F088246894F0
:1015AE0025F8E991EFBFF991E991B991A991999136
:1015BE00899179916991F9901990099018958A9A63
:1015CE00929AB89AC098C29ABA9AE7B3E663E7BB02
:1015DE00E3E8EFBDE9E0EEBDE0E0EDBDECBDEBBD57
:1015EE00EABDE9BDE8BDEDE5EDB9E0E0EEB9DAD072
:1015FE00D9D0D8D0D7D0D6D05ADBA5D309F4A8D31A
:10160E00A2D309F4A5D32ADA07D1E0E0E093410290
:10161E00E0934202AEE1B0E07BD4E0934302F0935C
:10162E004402A0914302B0914402E9E1F0E0EA17CE
:10163E00FB0724F0A73EEFEFBE072CF4E0E0E093AB
:10164E004302E093440286D3A03018F083D3BFD078
:10165E0020F4E3E0A3E2B0E073D47894E7E0F0E0A6
:10166E001ED1EBE0F0E07BD3EFE0F0E078D3E4D5F1
:10167E0034FE03C0E89434F89ED622FE03C0E894EC
:10168E0022F859DE23FE08C0E89423F8ECDE93DA44
:10169E00C6DBB1DD05DEEDDA24FE04C0E89424F8E5
:1016AE0071DDC8DC25FE1BC0E89425F8D9DB57DCBC
:1016BE000EDAA0914902B0914A02A83EE3E0BE07BD
:1016CE004CF4E0914902F0914A023196E0934902BE
:1016DE00F0934A025BD111F049D109F449DBA89588
:1016EE00C7CFFFCF5F9BFECFECB108955D9BFECFC2
:1016FE00E881ECB921960895E7B3EC62E7BB089553
:10170E00E3E0EA93089540D3E981EA933DC3E5E52A
:10171E00EA933AD30E2F0895E5E0EA93089534D371
:10172E00EA81EA93F0CFE881EA932EC3E2E0EA93EE
:10173E000895A091FE02E3E0EA170895E0E0E09339
:10174E00FE020895E091FE02F0E00895AE0FBF1F75
:10175E00E8810895EA93C9C4EFE0EA930895E0EEB4
:10176E00EA930895EA93D3C4EA93E0ECEA93DBC4D8
:10177E00EA93D9C4EA93DACFEA93E0E2F9CFEAE04A
:10178E00F0E0FA93EA93F4C2EA93EFEFF1CFE8E0D8
:10179E00EA930895EA93E0E0EBCFEA93E1E3E8CF32
:1017AE00EA93BACFE4E6F0E0FA93EA93E1C2E0E01E
:1017BE00D9CFE0E0E8830895F0E0EE0FFF1F089523
:1017CE00E881EF5FE8830895E0E0EA930895E3E0AF
:1017DE00EA170895A2E6B2E0EC910895A0913902BD
:1017EE00A4300895A3E2B0E097D3A5E0EA9FE02DE0
:1017FE000895DF01B0E0E0E0F1E0F8D20895B0E046
:10180E00EA0FFB1F0895ADE1B0E086D3EA93089589
:10181E00EA93CBC4EA93D8CFE0E0E0932A02E5E561
:10182E00E09329020895E0911C02E0780895A4E265
:10183E00B0E072D3E0300895A5E2B0E06DD3E030B1
:10184E000895E0E0A5E2B0E07BD30895E0910003B7
:10185E00F09101033196E0930003F0930103089594
:10186E00EF70E1300895EF70E230089551D3319664
:10187E005FD331970895EF70E330089549D33A96C8
:10188E000895EF70E430089543D3319751D33196D4
:10189E000895EF70E53008953BD33A970895FA9383
:1018AE00EA93E4EAF1E0FA93EA93ECE4F4E0FA93D3
:1018BE00EA9301C9FA93EA93E0E5F5E0FA93EA9325
:1018CE00E4EAF6E0FA93EA93F6C8FA93EA93F3C8D9
:1018DE00A0916202AF3F0895E0911B02E17EE0937A
:1018EE001B02E0E0E0932C02E0932D02E0E0E09397
:1018FE002E02E0932F02E0E0E0933402E0933502F3
:10190E00E0E0E0933602E09337020895EEE1E093D3
:10191E002B020895FA93EA93C3C8EA93EDED089566
:10192E00AC81BD81E1D20895DF01EA81FB81AE1762
:10193E00BF070895EA81FB81AC81BD810895DF0167
:10194E00E881F981EA17FB070895E881F981AC81F6
:10195E00BD810895AC81BD81DBD20895A09147026F
:10196E00B0914802AC33E0E0BE070895A09140026A
:10197E00A3300895E0911B02E8700895E0910B03E7
:10198E00E8700895E0911B02E0710895A09129027C
:10199E00AA3A0895E7B9E6EAE6B90895E4B1F5B1D1
:1019AE00FA93EA9363C8E4B1F5B1DF01E8ECF0E035
:1019BE004AD20E2F1F2FE0E1F0E0FA93EA93E0E017
:1019CE00F0E0FA93EA93E3E0F0E0A4CFAD81A43621
:1019DE000895AE81A4360895AF81A4360895EE81A0
:1019EE00E0300895E0915802E0300895EC91E15016
:1019FE00EC930895E0E0E093570288CFE0915B020C
:101A0E00F0915C0230970895A0915D02A431089583
:101A1E00EAEAE09329020895A0911902B0911A0200
:101A2E00EA17FB0708953197A0911902B0911A0297
:101A3E00AE17BF070895FA93EA93E0E0F0E0FA9349
:101A4E00EA93ECE3F0E066CFA0914002A030089557
:101A5E00E0911B02E0740895E5E0F0E0EA17FB0761
:101A6E000895E0913402F09135023196E0933402FC
:101A7E00F09335020895E4E3F2E0FA93EA93E0E09E
:101A8E00F0E0FA93EA93EAE0F0E044CFA09134025A
:101A9E00B0913502AA30E0E0BE070895E0911B0236
:101AAE00E860E0931B020895E0913602F091370250
:101ABE003196E0933602F09337020895E6E3F2E0B2
:101ACE00FA93EA93E0E0F0E0FA93EA93EAE0F0E0CA
:101ADE0021CFA0913602B0913702AA30E0E0BE07C6
:101AEE000895E0911B02E061E0931B020895A0911E
:101AFE004102B0914202F0E00895E0E0F0E060E0D3
:101B0E0070E0E0932102F09322026093230270931F
:101B1E0024020895E3E0F3E063E073E0E09325022E
:101B2E00F093260260932702709328020895A091E5
:101B3E002902A5350895E0932102F09322026093C5
:101B4E00230270932402EFEFFFEF6FEF7FEFE0932E
:101B5E002502F093260260932702709328020895BF
:101B6E00EFEFFFEF6FEF7FEFE0932502F09326028A
:101B7E0060932702709328020895E0911B02EE7382
:101B8E000895E1E0F0E061E070E0D5CFE0911B0256
:101B9E00E2700895E1E0F0E061E070E0E093210290
:101BAE00F09322026093230270932402E0E0F0E0AF
:101BBE0060E070E0E0932502F09326026093270226
:101BCE00709328020895E9E0F0E069E070E0E09398
:101BDE002102F09322026093230270932402E0E02C
:101BEE00F0E060E070E0E0932502F093260260934F
:101BFE002702709328020895E0932102F0932202A7
:101C0E006093230270932402E0E0F0E060E070E065
:101C1E00E0932502F0932602609327027093280228
:101C2E000895E0911B02E0720895A0914002A13048
:101C3E000895A0914002A2300895EA5B58CFE0E3E8
:101C4E00F2E0FA93EA930895FA93EA93ECEFF3E055
:101C5E0061CEE0911B02EA700895EFEFF3E0E0939E
:101C6E003002F0933102E0933202F0933302E894A3
:101C7E000895E0E0E0933002E0933102E0E0E0937B
:101C8E003202E093330268940895EFEFF3E0E093AD
:101C9E003202F0933302E8940895E0911B02EA7148
:101CAE000895A0913E02AA300895A0913F02AA3055
:101CBE000895A0913E02A0300895A0913F02A03059
:101CCE000895E0911002A7E8B1E0F0E00895EE0F5C
:101CDE00FF1F6ED00895A0911002A2300895E091DA
:101CEE001002A7E0B2E068CDDF01FED008956627AE
:101CFE007727E883F9836A837B83089509D1A881C6
:101D0E00B9818A819B816BD00895E883F9836A83B8
:101D1E007B83A881B9818A819B8108958FD0F5CF6D
:101D2E00CBD0E883F9836A837B83E881F9810895B8
:101D3E00A881B9818A819B8116D10895E8EEF3E0DE
:101D4E0060E070E0EDCFADE1B0E0E6D0E4360895AE
:101D5E00AED728CDA3E2B0E0DFD0AE2F0895FA9330
:101D6E00EA93E6EEF5E0FA93EA93EAE3F7E0ADCD17
:101D7E00E991F991309639F080ED97E00197F1F7FE
:101D8E00A8953197C9F70895E991EFB9779BFECFE2
:101D9E00EFB10895EA1BFB0B680B790B0895E095E4
:101DAE00F09560957095EF5FFF4F6F4F7F4F0895E1
:101DBE00EE0FFF1FEE0FFF1FEE0FFF1FEE0FFF1FA9
:101DCE00089575956795F795E7950895F695E795B6
:101DDE00F695E795F695E795F695E795089560E003
:101DEE0070E0F7FF08956FEF7FEF0895FA9FF02DE3
:101DFE00EB9FF00DEA9FE02DF10D08957A9F702D67
:101E0E006B9F700DF89F700DE99F700D6A9F602D8E
:101E1E00710DFB9F600D711DE89F600D711D882770
:101E2E00FA9FF02D610D781FEB9FF00D611D781F4D
:101E3E00EA9FE02DF10D681F781F089542D0DEDF76
:101E4E000EF4ADDF08950024112490E1AA0FBB1FFC
:101E5E00001C111C0E1A1F0A18F40E0E1F1E01C0B4
:101E6E00A1609A9599F7FD01D00108953F934F9384
:101E7E005F93002411243327442750E2AA0FBB1F7F
:101E8E00881F991F001C111C331F441F0E1A1F0A96
:101E9E00360B470B28F40E0E1F1E361F471F01C0B0
:101EAE00A1605A9559F7FD01BC01D001832F942FE3
:101EBE005F914F913F91089504D0D8DF0EF46FDFFC
:101ECE000895E89477FF02C06ADF689497FF0BC00D
:101EDE000024A095B095809590951196801D901D2B
:101EEE0000F8039400FA0895ED91FC91119708956E
:101EFE00ED93FC930895182E862F612D192E972F92
:101F0E00712D1B2EBF2FF12D1A2EAE2FE12D089500
:101F1E00119602D0FE2F1197E199FECFFF93FFB7D6
:101F2E00F894AEBBBFBBE09AEDB3FFBFFF9108952F
:101F3E0007D01196EF93EF2F03D0EF9111970895DD
:101F4E00E199FECF9FB7F894AEBBBFBBE09A8DB3BD
:101F5E00E81719F0EDBBE29AE19A9FBF08950024AD
:101F6E000A160B06089510978040904008955A93D4
:101F7E004A933A932A931A930A9308955D814C815A
:101F8E003B812A811981088108950991199108953B
:00000001FF
